{
  "address": "0xF9c5F27A0512D6FcceefB9BD1947c5eFBF150460",
  "abi": [
    {
      "anonymous": false,
      "inputs": [
        {
          "indexed": false,
          "internalType": "address",
          "name": "previousAdmin",
          "type": "address"
        },
        {
          "indexed": false,
          "internalType": "address",
          "name": "newAdmin",
          "type": "address"
        }
      ],
      "name": "AdminChanged",
      "type": "event"
    },
    {
      "anonymous": false,
      "inputs": [
        {
          "indexed": true,
          "internalType": "address",
          "name": "owner",
          "type": "address"
        },
        {
          "indexed": true,
          "internalType": "address",
          "name": "approved",
          "type": "address"
        },
        {
          "indexed": true,
          "internalType": "uint256",
          "name": "tokenId",
          "type": "uint256"
        }
      ],
      "name": "Approval",
      "type": "event"
    },
    {
      "anonymous": false,
      "inputs": [
        {
          "indexed": true,
          "internalType": "address",
          "name": "owner",
          "type": "address"
        },
        {
          "indexed": true,
          "internalType": "address",
          "name": "operator",
          "type": "address"
        },
        {
          "indexed": false,
          "internalType": "bool",
          "name": "approved",
          "type": "bool"
        }
      ],
      "name": "ApprovalForAll",
      "type": "event"
    },
    {
      "anonymous": false,
      "inputs": [
        {
          "indexed": true,
          "internalType": "address",
          "name": "beacon",
          "type": "address"
        }
      ],
      "name": "BeaconUpgraded",
      "type": "event"
    },
    {
      "anonymous": false,
      "inputs": [
        {
          "indexed": true,
          "internalType": "uint256",
          "name": "bidId",
          "type": "uint256"
        },
        {
          "indexed": true,
          "internalType": "uint192",
          "name": "originalId",
          "type": "uint192"
        }
      ],
      "name": "BidAccepted",
      "type": "event"
    },
    {
      "anonymous": false,
      "inputs": [
        {
          "indexed": true,
          "internalType": "uint256",
          "name": "bidId",
          "type": "uint256"
        },
        {
          "indexed": true,
          "internalType": "uint192",
          "name": "originalId",
          "type": "uint192"
        }
      ],
      "name": "BidProposed",
      "type": "event"
    },
    {
      "anonymous": false,
      "inputs": [
        {
          "indexed": true,
          "internalType": "uint256",
          "name": "bidId",
          "type": "uint256"
        },
        {
          "indexed": true,
          "internalType": "uint192",
          "name": "originalId",
          "type": "uint192"
        }
      ],
      "name": "BidRefunded",
      "type": "event"
    },
    {
      "anonymous": false,
      "inputs": [
        {
          "indexed": true,
          "internalType": "uint256",
          "name": "bidId",
          "type": "uint256"
        },
        {
          "indexed": true,
          "internalType": "uint192",
          "name": "originalId",
          "type": "uint192"
        }
      ],
      "name": "BidRejected",
      "type": "event"
    },
    {
      "anonymous": false,
      "inputs": [
        {
          "indexed": true,
          "internalType": "uint256",
          "name": "bidId",
          "type": "uint256"
        },
        {
          "indexed": true,
          "internalType": "uint192",
          "name": "originalId",
          "type": "uint192"
        }
      ],
      "name": "BidWon",
      "type": "event"
    },
    {
      "anonymous": false,
      "inputs": [
        {
          "indexed": false,
          "internalType": "uint8",
          "name": "version",
          "type": "uint8"
        }
      ],
      "name": "Initialized",
      "type": "event"
    },
    {
      "anonymous": false,
      "inputs": [
        {
          "indexed": true,
          "internalType": "uint192",
          "name": "originalId",
          "type": "uint192"
        },
        {
          "indexed": true,
          "internalType": "address",
          "name": "monoOwner",
          "type": "address"
        }
      ],
      "name": "MonoRefunded",
      "type": "event"
    },
    {
      "anonymous": false,
      "inputs": [
        {
          "indexed": true,
          "internalType": "uint192",
          "name": "originalId",
          "type": "uint192"
        },
        {
          "indexed": true,
          "internalType": "uint256",
          "name": "bidId",
          "type": "uint256"
        }
      ],
      "name": "OriginalSold",
      "type": "event"
    },
    {
      "anonymous": false,
      "inputs": [
        {
          "indexed": true,
          "internalType": "bytes32",
          "name": "role",
          "type": "bytes32"
        },
        {
          "indexed": true,
          "internalType": "bytes32",
          "name": "previousAdminRole",
          "type": "bytes32"
        },
        {
          "indexed": true,
          "internalType": "bytes32",
          "name": "newAdminRole",
          "type": "bytes32"
        }
      ],
      "name": "RoleAdminChanged",
      "type": "event"
    },
    {
      "anonymous": false,
      "inputs": [
        {
          "indexed": true,
          "internalType": "bytes32",
          "name": "role",
          "type": "bytes32"
        },
        {
          "indexed": true,
          "internalType": "address",
          "name": "account",
          "type": "address"
        },
        {
          "indexed": true,
          "internalType": "address",
          "name": "sender",
          "type": "address"
        }
      ],
      "name": "RoleGranted",
      "type": "event"
    },
    {
      "anonymous": false,
      "inputs": [
        {
          "indexed": true,
          "internalType": "bytes32",
          "name": "role",
          "type": "bytes32"
        },
        {
          "indexed": true,
          "internalType": "address",
          "name": "account",
          "type": "address"
        },
        {
          "indexed": true,
          "internalType": "address",
          "name": "sender",
          "type": "address"
        }
      ],
      "name": "RoleRevoked",
      "type": "event"
    },
    {
      "anonymous": false,
      "inputs": [
        {
          "indexed": true,
          "internalType": "address",
          "name": "from",
          "type": "address"
        },
        {
          "indexed": true,
          "internalType": "address",
          "name": "to",
          "type": "address"
        },
        {
          "indexed": true,
          "internalType": "uint256",
          "name": "tokenId",
          "type": "uint256"
        }
      ],
      "name": "Transfer",
      "type": "event"
    },
    {
      "anonymous": false,
      "inputs": [
        {
          "indexed": true,
          "internalType": "address",
          "name": "implementation",
          "type": "address"
        }
      ],
      "name": "Upgraded",
      "type": "event"
    },
    {
      "inputs": [],
      "name": "BID_ACCEPTANCE_THRESHOLD_BPS",
      "outputs": [
        {
          "internalType": "uint256",
          "name": "",
          "type": "uint256"
        }
      ],
      "stateMutability": "view",
      "type": "function"
    },
    {
      "inputs": [],
      "name": "BID_EXPIRY",
      "outputs": [
        {
          "internalType": "uint40",
          "name": "",
          "type": "uint40"
        }
      ],
      "stateMutability": "view",
      "type": "function"
    },
    {
      "inputs": [],
      "name": "DEFAULT_ADMIN_ROLE",
      "outputs": [
        {
          "internalType": "bytes32",
          "name": "",
          "type": "bytes32"
        }
      ],
      "stateMutability": "view",
      "type": "function"
    },
    {
      "inputs": [],
      "name": "MINTER_ROLE",
      "outputs": [
        {
          "internalType": "bytes32",
          "name": "",
          "type": "bytes32"
        }
      ],
      "stateMutability": "view",
      "type": "function"
    },
    {
      "inputs": [
        {
          "internalType": "address",
          "name": "to",
          "type": "address"
        },
        {
          "internalType": "uint256",
          "name": "tokenId",
          "type": "uint256"
        }
      ],
      "name": "approve",
      "outputs": [],
      "stateMutability": "nonpayable",
      "type": "function"
    },
    {
      "inputs": [
        {
          "internalType": "address",
          "name": "owner",
          "type": "address"
        }
      ],
      "name": "balanceOf",
      "outputs": [
        {
          "internalType": "uint256",
          "name": "",
          "type": "uint256"
        }
      ],
      "stateMutability": "view",
      "type": "function"
    },
    {
      "inputs": [
        {
          "internalType": "uint192",
          "name": "originalId",
          "type": "uint192"
        },
        {
          "internalType": "uint256",
          "name": "price",
          "type": "uint256"
        }
      ],
      "name": "bid",
      "outputs": [
        {
          "internalType": "uint256",
          "name": "newBidId",
          "type": "uint256"
        }
      ],
      "stateMutability": "payable",
      "type": "function"
    },
    {
      "inputs": [
        {
          "internalType": "uint256",
          "name": "punkId",
          "type": "uint256"
        },
        {
          "internalType": "uint64",
          "name": "totalClaimableCount",
          "type": "uint64"
        },
        {
          "internalType": "uint256",
          "name": "purchasePrice",
          "type": "uint256"
        },
        {
          "internalType": "uint256",
          "name": "minReservePrice",
          "type": "uint256"
        },
        {
          "internalType": "uint256",
          "name": "maxReservePrice",
          "type": "uint256"
        }
      ],
      "name": "create",
      "outputs": [
        {
          "internalType": "uint192",
          "name": "originalId",
          "type": "uint192"
        }
      ],
      "stateMutability": "nonpayable",
      "type": "function"
    },
    {
      "inputs": [
        {
          "internalType": "uint256",
          "name": "bidId",
          "type": "uint256"
        }
      ],
      "name": "finalizeAcceptedBid",
      "outputs": [],
      "stateMutability": "nonpayable",
      "type": "function"
    },
    {
      "inputs": [
        {
          "internalType": "uint256",
          "name": "bidId",
          "type": "uint256"
        }
      ],
      "name": "finalizeProposedBid",
      "outputs": [
        {
          "internalType": "enum UsingCryptoPunksMosaicRegistryStructs.BidState",
          "name": "",
          "type": "uint8"
        }
      ],
      "stateMutability": "nonpayable",
      "type": "function"
    },
    {
      "inputs": [
        {
          "internalType": "uint256",
          "name": "mosaicId",
          "type": "uint256"
        }
      ],
      "name": "fromMosaicId",
      "outputs": [
        {
          "internalType": "uint192",
          "name": "originalId",
          "type": "uint192"
        },
        {
          "internalType": "uint64",
          "name": "monoId",
          "type": "uint64"
        }
      ],
      "stateMutability": "pure",
      "type": "function"
    },
    {
      "inputs": [
        {
          "internalType": "uint256",
          "name": "tokenId",
          "type": "uint256"
        }
      ],
      "name": "getApproved",
      "outputs": [
        {
          "internalType": "address",
          "name": "",
          "type": "address"
        }
      ],
      "stateMutability": "view",
      "type": "function"
    },
    {
      "inputs": [
        {
          "internalType": "uint192",
          "name": "originalId",
          "type": "uint192"
        }
      ],
      "name": "getAverageReservePriceProposals",
      "outputs": [
        {
          "internalType": "uint256",
          "name": "average",
          "type": "uint256"
        }
      ],
      "stateMutability": "view",
      "type": "function"
    },
    {
      "inputs": [],
      "name": "getLatestOriginalId",
      "outputs": [
        {
          "internalType": "uint192",
          "name": "latestOriginalId",
          "type": "uint192"
        }
      ],
      "stateMutability": "view",
      "type": "function"
    },
    {
      "inputs": [
        {
          "internalType": "uint192",
          "name": "originalId",
          "type": "uint192"
        },
        {
          "internalType": "uint64",
          "name": "monoId",
          "type": "uint64"
        }
      ],
      "name": "getMono",
      "outputs": [
        {
          "components": [
            {
              "internalType": "uint256",
              "name": "mosaicId",
              "type": "uint256"
            },
            {
              "internalType": "uint8",
              "name": "presetId",
              "type": "uint8"
            },
            {
              "components": [
                {
                  "internalType": "uint256",
                  "name": "proposedReservePrice",
                  "type": "uint256"
                },
                {
                  "internalType": "enum UsingCryptoPunksMosaicRegistryStructs.MonoBidResponse",
                  "name": "bidResponse",
                  "type": "uint8"
                },
                {
                  "internalType": "uint256",
                  "name": "bidId",
                  "type": "uint256"
                }
              ],
              "internalType": "struct UsingCryptoPunksMosaicRegistryStructs.MonoGovernanceOptions",
              "name": "governanceOptions",
              "type": "tuple"
            }
          ],
          "internalType": "struct UsingCryptoPunksMosaicRegistryStructs.Mono",
          "name": "",
          "type": "tuple"
        }
      ],
      "stateMutability": "view",
      "type": "function"
    },
    {
      "inputs": [
        {
          "internalType": "uint256",
          "name": "mosaicId",
          "type": "uint256"
        }
      ],
      "name": "getMonoLifeCycle",
      "outputs": [
        {
          "internalType": "enum UsingCryptoPunksMosaicRegistryStructs.MonoLifeCycle",
          "name": "",
          "type": "uint8"
        }
      ],
      "stateMutability": "view",
      "type": "function"
    },
    {
      "inputs": [
        {
          "internalType": "uint192",
          "name": "originalId",
          "type": "uint192"
        }
      ],
      "name": "getOriginal",
      "outputs": [
        {
          "components": [
            {
              "internalType": "uint192",
              "name": "id",
              "type": "uint192"
            },
            {
              "internalType": "uint256",
              "name": "punkId",
              "type": "uint256"
            },
            {
              "internalType": "uint96",
              "name": "totalMonoSupply",
              "type": "uint96"
            },
            {
              "internalType": "uint96",
              "name": "claimedMonoCount",
              "type": "uint96"
            },
            {
              "internalType": "uint256",
              "name": "purchasePrice",
              "type": "uint256"
            },
            {
              "internalType": "uint256",
              "name": "minReservePrice",
              "type": "uint256"
            },
            {
              "internalType": "uint256",
              "name": "maxReservePrice",
              "type": "uint256"
            },
            {
              "internalType": "string",
              "name": "metadataBaseUri",
              "type": "string"
            },
            {
              "internalType": "enum UsingCryptoPunksMosaicRegistryStructs.OriginalStatus",
              "name": "status",
              "type": "uint8"
            },
            {
              "internalType": "uint256",
              "name": "activeBidId",
              "type": "uint256"
            }
          ],
          "internalType": "struct UsingCryptoPunksMosaicRegistryStructs.Original",
          "name": "",
          "type": "tuple"
        }
      ],
      "stateMutability": "view",
      "type": "function"
    },
    {
      "inputs": [
        {
          "internalType": "uint256",
          "name": "mosaicId",
          "type": "uint256"
        }
      ],
      "name": "getOriginalFromMosaicId",
      "outputs": [
        {
          "components": [
            {
              "internalType": "uint192",
              "name": "id",
              "type": "uint192"
            },
            {
              "internalType": "uint256",
              "name": "punkId",
              "type": "uint256"
            },
            {
              "internalType": "uint96",
              "name": "totalMonoSupply",
              "type": "uint96"
            },
            {
              "internalType": "uint96",
              "name": "claimedMonoCount",
              "type": "uint96"
            },
            {
              "internalType": "uint256",
              "name": "purchasePrice",
              "type": "uint256"
            },
            {
              "internalType": "uint256",
              "name": "minReservePrice",
              "type": "uint256"
            },
            {
              "internalType": "uint256",
              "name": "maxReservePrice",
              "type": "uint256"
            },
            {
              "internalType": "string",
              "name": "metadataBaseUri",
              "type": "string"
            },
            {
              "internalType": "enum UsingCryptoPunksMosaicRegistryStructs.OriginalStatus",
              "name": "status",
              "type": "uint8"
            },
            {
              "internalType": "uint256",
              "name": "activeBidId",
              "type": "uint256"
            }
          ],
          "internalType": "struct UsingCryptoPunksMosaicRegistryStructs.Original",
          "name": "",
          "type": "tuple"
        }
      ],
      "stateMutability": "view",
      "type": "function"
    },
    {
      "inputs": [
        {
          "internalType": "uint192",
          "name": "originalId",
          "type": "uint192"
        }
      ],
      "name": "getPerMonoResaleFund",
      "outputs": [
        {
          "internalType": "uint256",
          "name": "perMonoResaleFund",
          "type": "uint256"
        }
      ],
      "stateMutability": "view",
      "type": "function"
    },
    {
      "inputs": [
        {
          "internalType": "bytes32",
          "name": "role",
          "type": "bytes32"
        }
      ],
      "name": "getRoleAdmin",
      "outputs": [
        {
          "internalType": "bytes32",
          "name": "",
          "type": "bytes32"
        }
      ],
      "stateMutability": "view",
      "type": "function"
    },
    {
      "inputs": [
        {
          "internalType": "address",
          "name": "addr",
          "type": "address"
        }
      ],
      "name": "grantMintAuthority",
      "outputs": [],
      "stateMutability": "nonpayable",
      "type": "function"
    },
    {
      "inputs": [
        {
          "internalType": "bytes32",
          "name": "role",
          "type": "bytes32"
        },
        {
          "internalType": "address",
          "name": "account",
          "type": "address"
        }
      ],
      "name": "grantRole",
      "outputs": [],
      "stateMutability": "nonpayable",
      "type": "function"
    },
    {
      "inputs": [
        {
          "internalType": "uint192",
          "name": "originalId",
          "type": "uint192"
        }
      ],
      "name": "hasOngoingBid",
      "outputs": [
        {
          "internalType": "bool",
          "name": "",
          "type": "bool"
        }
      ],
      "stateMutability": "view",
      "type": "function"
    },
    {
      "inputs": [
        {
          "internalType": "bytes32",
          "name": "role",
          "type": "bytes32"
        },
        {
          "internalType": "address",
          "name": "account",
          "type": "address"
        }
      ],
      "name": "hasRole",
      "outputs": [
        {
          "internalType": "bool",
          "name": "",
          "type": "bool"
        }
      ],
      "stateMutability": "view",
      "type": "function"
    },
    {
      "inputs": [
        {
          "internalType": "address",
          "name": "museumAddress",
          "type": "address"
        }
      ],
      "name": "initialize",
      "outputs": [],
      "stateMutability": "nonpayable",
      "type": "function"
    },
    {
      "inputs": [
        {
          "internalType": "address",
          "name": "owner",
          "type": "address"
        },
        {
          "internalType": "address",
          "name": "operator",
          "type": "address"
        }
      ],
      "name": "isApprovedForAll",
      "outputs": [
        {
          "internalType": "bool",
          "name": "",
          "type": "bool"
        }
      ],
      "stateMutability": "view",
      "type": "function"
    },
    {
      "inputs": [
        {
          "internalType": "uint192",
          "name": "originalId",
          "type": "uint192"
        }
      ],
      "name": "isBidAcceptable",
      "outputs": [
        {
          "internalType": "bool",
          "name": "",
          "type": "bool"
        }
      ],
      "stateMutability": "view",
      "type": "function"
    },
    {
      "inputs": [
        {
          "internalType": "address",
          "name": "contributor",
          "type": "address"
        },
        {
          "internalType": "uint192",
          "name": "originalId",
          "type": "uint192"
        }
      ],
      "name": "mint",
      "outputs": [
        {
          "internalType": "uint256",
          "name": "mosaicId",
          "type": "uint256"
        }
      ],
      "stateMutability": "nonpayable",
      "type": "function"
    },
    {
      "inputs": [],
      "name": "museum",
      "outputs": [
        {
          "internalType": "contract CryptoPunksMuseum",
          "name": "",
          "type": "address"
        }
      ],
      "stateMutability": "view",
      "type": "function"
    },
    {
      "inputs": [],
      "name": "name",
      "outputs": [
        {
          "internalType": "string",
          "name": "",
          "type": "string"
        }
      ],
      "stateMutability": "view",
      "type": "function"
    },
    {
      "inputs": [
        {
          "internalType": "uint256",
          "name": "tokenId",
          "type": "uint256"
        }
      ],
      "name": "ownerOf",
      "outputs": [
        {
          "internalType": "address",
          "name": "",
          "type": "address"
        }
      ],
      "stateMutability": "view",
      "type": "function"
    },
    {
      "inputs": [
        {
          "internalType": "uint256",
          "name": "mosaicId",
          "type": "uint256"
        },
        {
          "internalType": "uint256",
          "name": "price",
          "type": "uint256"
        }
      ],
      "name": "proposeReservePrice",
      "outputs": [],
      "stateMutability": "nonpayable",
      "type": "function"
    },
    {
      "inputs": [
        {
          "internalType": "uint192",
          "name": "originalId",
          "type": "uint192"
        },
        {
          "internalType": "uint256",
          "name": "price",
          "type": "uint256"
        }
      ],
      "name": "proposeReservePriceBatch",
      "outputs": [],
      "stateMutability": "nonpayable",
      "type": "function"
    },
    {
      "inputs": [],
      "name": "proxiableUUID",
      "outputs": [
        {
          "internalType": "bytes32",
          "name": "",
          "type": "bytes32"
        }
      ],
      "stateMutability": "view",
      "type": "function"
    },
    {
      "inputs": [
        {
          "internalType": "uint256",
          "name": "bidId",
          "type": "uint256"
        }
      ],
      "name": "refundBidDeposit",
      "outputs": [],
      "stateMutability": "nonpayable",
      "type": "function"
    },
    {
      "inputs": [
        {
          "internalType": "uint192",
          "name": "originalId",
          "type": "uint192"
        }
      ],
      "name": "refundOnSold",
      "outputs": [
        {
          "internalType": "uint256",
          "name": "totalResaleFund",
          "type": "uint256"
        }
      ],
      "stateMutability": "nonpayable",
      "type": "function"
    },
    {
      "inputs": [
        {
          "internalType": "bytes32",
          "name": "role",
          "type": "bytes32"
        },
        {
          "internalType": "address",
          "name": "account",
          "type": "address"
        }
      ],
      "name": "renounceRole",
      "outputs": [],
      "stateMutability": "nonpayable",
      "type": "function"
    },
    {
      "inputs": [
        {
          "internalType": "uint256",
          "name": "mosaicId",
          "type": "uint256"
        },
        {
          "internalType": "enum UsingCryptoPunksMosaicRegistryStructs.MonoBidResponse",
          "name": "response",
          "type": "uint8"
        }
      ],
      "name": "respondToBid",
      "outputs": [],
      "stateMutability": "nonpayable",
      "type": "function"
    },
    {
      "inputs": [
        {
          "internalType": "bytes32",
          "name": "role",
          "type": "bytes32"
        },
        {
          "internalType": "address",
          "name": "account",
          "type": "address"
        }
      ],
      "name": "revokeRole",
      "outputs": [],
      "stateMutability": "nonpayable",
      "type": "function"
    },
    {
      "inputs": [
        {
          "internalType": "address",
          "name": "from",
          "type": "address"
        },
        {
          "internalType": "address",
          "name": "to",
          "type": "address"
        },
        {
          "internalType": "uint256",
          "name": "tokenId",
          "type": "uint256"
        }
      ],
      "name": "safeTransferFrom",
      "outputs": [],
      "stateMutability": "nonpayable",
      "type": "function"
    },
    {
      "inputs": [
        {
          "internalType": "address",
          "name": "from",
          "type": "address"
        },
        {
          "internalType": "address",
          "name": "to",
          "type": "address"
        },
        {
          "internalType": "uint256",
          "name": "tokenId",
          "type": "uint256"
        },
        {
          "internalType": "bytes",
          "name": "data",
          "type": "bytes"
        }
      ],
      "name": "safeTransferFrom",
      "outputs": [],
      "stateMutability": "nonpayable",
      "type": "function"
    },
    {
      "inputs": [
        {
          "internalType": "address",
          "name": "operator",
          "type": "address"
        },
        {
          "internalType": "bool",
          "name": "approved",
          "type": "bool"
        }
      ],
      "name": "setApprovalForAll",
      "outputs": [],
      "stateMutability": "nonpayable",
      "type": "function"
    },
    {
      "inputs": [
        {
          "internalType": "string",
          "name": "_uri",
          "type": "string"
        }
      ],
      "name": "setInvalidMetadataUri",
      "outputs": [],
      "stateMutability": "nonpayable",
      "type": "function"
    },
    {
      "inputs": [
        {
          "internalType": "uint192",
          "name": "originalId",
          "type": "uint192"
        },
        {
          "internalType": "string",
          "name": "_uri",
          "type": "string"
        }
      ],
      "name": "setMetadataBaseUri",
      "outputs": [],
      "stateMutability": "nonpayable",
      "type": "function"
    },
    {
      "inputs": [
        {
          "internalType": "uint256",
          "name": "mosaicId",
          "type": "uint256"
        },
        {
          "internalType": "uint8",
          "name": "presetId",
          "type": "uint8"
        }
      ],
      "name": "setPresetId",
      "outputs": [],
      "stateMutability": "nonpayable",
      "type": "function"
    },
    {
      "inputs": [
        {
          "internalType": "uint192",
          "name": "originalId",
          "type": "uint192"
        }
      ],
      "name": "sumBidResponses",
      "outputs": [
        {
          "internalType": "uint64",
          "name": "yes",
          "type": "uint64"
        },
        {
          "internalType": "uint64",
          "name": "no",
          "type": "uint64"
        }
      ],
      "stateMutability": "view",
      "type": "function"
    },
    {
      "inputs": [
        {
          "internalType": "uint192",
          "name": "originalId",
          "type": "uint192"
        }
      ],
      "name": "sumReservePriceProposals",
      "outputs": [
        {
          "internalType": "uint64",
          "name": "validProposalCount",
          "type": "uint64"
        },
        {
          "internalType": "uint256",
          "name": "priceSum",
          "type": "uint256"
        }
      ],
      "stateMutability": "view",
      "type": "function"
    },
    {
      "inputs": [
        {
          "internalType": "bytes4",
          "name": "interfaceId",
          "type": "bytes4"
        }
      ],
      "name": "supportsInterface",
      "outputs": [
        {
          "internalType": "bool",
          "name": "",
          "type": "bool"
        }
      ],
      "stateMutability": "view",
      "type": "function"
    },
    {
      "inputs": [],
      "name": "symbol",
      "outputs": [
        {
          "internalType": "string",
          "name": "",
          "type": "string"
        }
      ],
      "stateMutability": "view",
      "type": "function"
    },
    {
      "inputs": [
        {
          "internalType": "uint192",
          "name": "originalId",
          "type": "uint192"
        },
        {
          "internalType": "address",
          "name": "bidder",
          "type": "address"
        },
        {
          "internalType": "uint256",
          "name": "blockTimestamp",
          "type": "uint256"
        }
      ],
      "name": "toBidId",
      "outputs": [
        {
          "internalType": "uint256",
          "name": "id",
          "type": "uint256"
        }
      ],
      "stateMutability": "pure",
      "type": "function"
    },
    {
      "inputs": [
        {
          "internalType": "uint192",
          "name": "originalId",
          "type": "uint192"
        },
        {
          "internalType": "uint64",
          "name": "monoId",
          "type": "uint64"
        }
      ],
      "name": "toMosaicId",
      "outputs": [
        {
          "internalType": "uint256",
          "name": "mosaicId",
          "type": "uint256"
        }
      ],
      "stateMutability": "pure",
      "type": "function"
    },
    {
      "inputs": [
        {
          "internalType": "uint256",
          "name": "mosaicId",
          "type": "uint256"
        }
      ],
      "name": "tokenURI",
      "outputs": [
        {
          "internalType": "string",
          "name": "",
          "type": "string"
        }
      ],
      "stateMutability": "view",
      "type": "function"
    },
    {
      "inputs": [
        {
          "internalType": "address",
          "name": "from",
          "type": "address"
        },
        {
          "internalType": "address",
          "name": "to",
          "type": "address"
        },
        {
          "internalType": "uint256",
          "name": "tokenId",
          "type": "uint256"
        }
      ],
      "name": "transferFrom",
      "outputs": [],
      "stateMutability": "nonpayable",
      "type": "function"
    },
    {
      "inputs": [
        {
          "internalType": "address",
          "name": "newImplementation",
          "type": "address"
        }
      ],
      "name": "upgradeTo",
      "outputs": [],
      "stateMutability": "nonpayable",
      "type": "function"
    },
    {
      "inputs": [
        {
          "internalType": "address",
          "name": "newImplementation",
          "type": "address"
        },
        {
          "internalType": "bytes",
          "name": "data",
          "type": "bytes"
        }
      ],
      "name": "upgradeToAndCall",
      "outputs": [],
      "stateMutability": "payable",
      "type": "function"
    }
  ],
  "transactionHash": "0xfdaf4b0186411023a59c97a1e76bdb76fb65deeaf77fc892ab3f1979ecc9b442",
  "args": [],
  "numDeployments": 1,
  "solcInputHash": "620a61277144b73a5b957629f2244a3d",
  "bytecode": "0x60a06040523060805234801561001457600080fd5b50608051615be76200004d60003960008181611c3f01528181611c7f015281816122f50152818161233501526127d80152615be76000f3fe6080604052600436106103505760003560e01c80636352211e116101c6578063ac8d6168116100f7578063c87b56dd11610095578063d547741f1161006f578063d547741f14610a76578063e36977cb14610a96578063e985e9c514610ab6578063f3c340cd14610aff57600080fd5b8063c87b56dd14610a14578063d42de9aa14610a34578063d539139314610a5457600080fd5b8063b40fd56e116100d1578063b40fd56e14610974578063b88d4fde14610994578063c01efa53146109b4578063c4d66de8146109f457600080fd5b8063ac8d616814610907578063af07830614610934578063af4a6c0c1461095457600080fd5b80638902436a11610164578063970525dd1161013e578063970525dd14610885578063a217fddf146108b2578063a22cb465146108c7578063a5627d9a146108e757600080fd5b80638902436a1461083057806391d148541461085057806395d89b411461087057600080fd5b806376016f4b116101a057806376016f4b146107bd57806379c07a39146107dd57806379f5f153146107fd5780638310a7da1461081057600080fd5b80636352211e1461073e57806364f4e5ef1461075e57806370a082311461079d57600080fd5b806331e781da116102a057806345e67a8c1161023e5780634f1ef286116102185780634f1ef286146106af578063512137ed146106c257806352d1902d146106e257806354cefb23146106f757600080fd5b806345e67a8c1461064b5780634bb722c61461066c5780634c9057891461068257600080fd5b806336568abe1161027a57806336568abe146105cb5780633659cfe6146105eb5780633a0e75551461060b57806342842e0e1461062b57600080fd5b806331e781da1461055e578063326d03671461058b578063342834f7146105ab57600080fd5b80631df46de71161030d578063248a9ca3116102e7578063248a9ca3146104ce5780632594c224146104fe5780632977d6971461051e5780632f2ff15d1461053e57600080fd5b80631df46de7146104605780632062f2e41461048057806323b872dd146104ae57600080fd5b806301ffc9a714610355578063033d05f11461038a57806306fdde03146103b7578063081812fc146103d9578063095ea7b3146104115780630e6a929c14610433575b600080fd5b34801561036157600080fd5b50610375610370366004614d30565b610b1f565b60405190151581526020015b60405180910390f35b34801561039657600080fd5b5061039f610b3f565b6040516001600160c01b039091168152602001610381565b3480156103c357600080fd5b506103cc610b5b565b6040516103819190614d9d565b3480156103e557600080fd5b506103f96103f4366004614db0565b610bed565b6040516001600160a01b039091168152602001610381565b34801561041d57600080fd5b5061043161042c366004614dde565b610c14565b005b34801561043f57600080fd5b5061045361044e366004614db0565b610d2e565b6040516103819190614e30565b34801561046c57600080fd5b5061043161047b366004614e43565b610e27565b34801561048c57600080fd5b506104a061049b366004614e8e565b610fd1565b604051908152602001610381565b3480156104ba57600080fd5b506104316104c9366004614ec3565b6112d6565b3480156104da57600080fd5b506104a06104e9366004614db0565b600090815260fb602052604090206001015490565b34801561050a57600080fd5b506104a0610519366004614f04565b611307565b34801561052a57600080fd5b50610431610539366004614f1f565b6113c4565b34801561054a57600080fd5b50610431610559366004614f3b565b6115c8565b34801561056a57600080fd5b5061057e610579366004614db0565b6115ed565b6040516103819190614f74565b34801561059757600080fd5b506104316105a636600461502d565b611767565b3480156105b757600080fd5b506104316105c6366004614db0565b611908565b3480156105d757600080fd5b506104316105e6366004614f3b565b611bb7565b3480156105f757600080fd5b5061043161060636600461504f565b611c35565b34801561061757600080fd5b50610431610626366004614db0565b611d14565b34801561063757600080fd5b50610431610646366004614ec3565b612015565b34801561065757600080fd5b5061012d546103f9906001600160a01b031681565b34801561067857600080fd5b506104a06113ec81565b34801561068e57600080fd5b506106a261069d366004614db0565b612030565b604051610381919061506c565b6104316106bd366004615122565b6122eb565b3480156106ce57600080fd5b5061039f6106dd366004615188565b6123b7565b3480156106ee57600080fd5b506104a06127cb565b34801561070357600080fd5b50610717610712366004614db0565b61287e565b604080516001600160c01b0390931683526001600160401b03909116602083015201610381565b34801561074a57600080fd5b506103f9610759366004614db0565b6128ae565b34801561076a57600080fd5b5061077e610779366004614f04565b61290e565b604080516001600160401b039093168352602083019190915201610381565b3480156107a957600080fd5b506104a06107b836600461504f565b6129d0565b3480156107c957600080fd5b5061057e6107d8366004614f04565b612a56565b3480156107e957600080fd5b506104316107f83660046151ce565b612bc1565b6104a061080b366004614f1f565b612c24565b34801561081c57600080fd5b5061037561082b366004614f04565b61308a565b34801561083c57600080fd5b506104a061084b366004614f04565b6130ec565b34801561085c57600080fd5b5061037561086b366004614f3b565b61337f565b34801561087c57600080fd5b506103cc6133aa565b34801561089157600080fd5b506108a56108a03660046151f9565b6133b9565b6040516103819190615223565b3480156108be57600080fd5b506104a0600081565b3480156108d357600080fd5b506104316108e236600461527b565b613464565b3480156108f357600080fd5b506104316109023660046152f1565b61346f565b34801561091357600080fd5b5061091e62093a8081565b60405164ffffffffff9091168152602001610381565b34801561094057600080fd5b506104a061094f366004614f04565b6134b9565b34801561096057600080fd5b506104a061096f3660046151f9565b6134df565b34801561098057600080fd5b5061043161098f36600461504f565b6134fd565b3480156109a057600080fd5b506104316109af366004615343565b613520565b3480156109c057600080fd5b506109d46109cf366004614f04565b613558565b604080516001600160401b03938416815292909116602083015201610381565b348015610a0057600080fd5b50610431610a0f36600461504f565b61369d565b348015610a2057600080fd5b506103cc610a2f366004614db0565b61382f565b348015610a4057600080fd5b50610375610a4f366004614f04565b613a22565b348015610a6057600080fd5b506104a0600080516020615b9283398151915281565b348015610a8257600080fd5b50610431610a91366004614f3b565b613ac1565b348015610aa257600080fd5b506104a0610ab13660046153ae565b613ae6565b348015610ac257600080fd5b50610375610ad13660046153cc565b6001600160a01b039182166000908152606a6020908152604080832093909416825291909152205460ff1690565b348015610b0b57600080fd5b50610431610b1a3660046153fa565b613b4d565b6000610b2a82613b6e565b80610b395750610b3982613bbe565b92915050565b6000610b49613be3565b600101546001600160c01b0316919050565b606060658054610b6a9061543b565b80601f0160208091040260200160405190810160405280929190818152602001828054610b969061543b565b8015610be35780601f10610bb857610100808354040283529160200191610be3565b820191906000526020600020905b815481529060010190602001808311610bc657829003601f168201915b5050505050905090565b6000610bf882613c07565b506000908152606960205260409020546001600160a01b031690565b6000610c1f826128ae565b9050806001600160a01b0316836001600160a01b031603610c915760405162461bcd60e51b815260206004820152602160248201527f4552433732313a20617070726f76616c20746f2063757272656e74206f776e656044820152603960f91b60648201526084015b60405180910390fd5b336001600160a01b0382161480610cad5750610cad8133610ad1565b610d1f5760405162461bcd60e51b815260206004820152603d60248201527f4552433732313a20617070726f76652063616c6c6572206973206e6f7420746f60448201527f6b656e206f776e6572206f7220617070726f76656420666f7220616c6c0000006064820152608401610c88565b610d298383613c66565b505050565b600080610d3a8361287e565b509050610d45613be3565b600101546001600160c01b039081169082161115610d9a5760405162461bcd60e51b8152602060048201526012602482015271125b9d985b1a59081bdc9a59da5b985b125960721b6044820152606401610c88565b6000610da4613be3565b6001600160c01b03831660009081526002919091016020526040902090506001600782015460ff166001811115610ddd57610ddd614e0a565b03610dec575060029392505050565b610df4613be3565b6000858152600491909101602052604081206001015460ff169003610e1d575060009392505050565b5060019392505050565b61012d546001600160a01b031615801590610eb5575061012d60009054906101000a90046001600160a01b03166001600160a01b03166322f3e2d46040518163ffffffff1660e01b8152600401602060405180830381865afa158015610e91573d6000803e3d6000fd5b505050506040513d601f19601f82011682018060405250810190610eb59190615475565b610ed15760405162461bcd60e51b8152600401610c8890615492565b8133610edc826128ae565b6001600160a01b031614610f025760405162461bcd60e51b8152600401610c88906154c1565b6000610f0d8461287e565b509050610f1981613a22565b610f565760405162461bcd60e51b815260206004820152600e60248201526d4e6f20626964206f6e676f696e6760901b6044820152606401610c88565b6000610f60613be3565b6000868152600491909101602052604090206002019050610f7f613be3565b6001600160c01b03831660009081526002918201602052604090206008015482820155600180830180548793919260ff19909116918490811115610fc557610fc5614e0a565b02179055505050505050565b61012d546000906001600160a01b031615801590611062575061012d60009054906101000a90046001600160a01b03166001600160a01b03166322f3e2d46040518163ffffffff1660e01b8152600401602060405180830381865afa15801561103e573d6000803e3d6000fd5b505050506040513d601f19601f820116820180604052508101906110629190615475565b61107e5760405162461bcd60e51b8152600401610c8890615492565b600080516020615b9283398151915261109681613cd4565b60006110a0613be3565b6001600160c01b038516600090815260039190910160205260409020546001600160401b03161161111e5760405162461bcd60e51b815260206004820152602260248201527f4f726967696e616c206d75737420626520696e697469616c697a6564206669726044820152611cdd60f21b6064820152608401610c88565b6000611128613be3565b6001600160c01b03851660009081526003919091016020526040812080546001600160401b03169161115983615504565b91906101000a8154816001600160401b0302191690836001600160401b03160217905550905061118984826134df565b92506040518060600160405280848152602001600060ff168152602001604051806060016040528060008152602001600060028111156111cb576111cb614e0a565b8152600060209091015290526111df613be3565b6000858152600491909101602090815260409182902083518155838201516001808301805460ff90931660ff1993841617905593850151805160028085019182559482015160038501805495979396929591949093911691849081111561124857611248614e0a565b0217905550604082015181600201555050905050611264613be3565b6001600160c01b0385166000908152600291820160205260409020018054600160601b90046001600160601b031690600c61129e8361552a565b91906101000a8154816001600160601b0302191690836001600160601b03160217905550506112cd8584613cde565b505b5092915050565b6112e03382613cf8565b6112fc5760405162461bcd60e51b8152600401610c8890615546565b610d29838383613d76565b600080611312613be3565b6001600160c01b038416600090815260079190910160205260409020549050806113745760405162461bcd60e51b8152602060048201526013602482015272139bc81c995cd85b19481c1c9a58d9481cd95d606a1b6044820152606401610c88565b600061137e613be3565b6001600160c01b038516600090815260029182016020526040902001546113b0906001600160601b0316612710615593565b90506113bc8282613ee7565b949350505050565b61012d546001600160a01b031615801590611452575061012d60009054906101000a90046001600160a01b03166001600160a01b03166322f3e2d46040518163ffffffff1660e01b8152600401602060405180830381865afa15801561142e573d6000803e3d6000fd5b505050506040513d601f19601f820116820180604052508101906114529190615475565b61146e5760405162461bcd60e51b8152600401610c8890615492565b6000611478613be3565b6002016000846001600160c01b03166001600160c01b031681526020019081526020016000209050818160040154111580156114b8575080600501548211155b6114ff5760405162461bcd60e51b81526020600482015260186024820152774d7573742062652077697468696e207468652072616e676560401b6044820152606401610c88565b6000611509613be3565b6001600160c01b038516600090815260039190910160205260409020546001600160401b0316905060015b816001600160401b0316816001600160401b031610156115c157600061155a86836134df565b90503361157c826000908152606760205260409020546001600160a01b031690565b6001600160a01b0316036115ae576000611594613be3565b600083815260049190910160205260409020600201869055505b50806115b981615504565b915050611534565b5050505050565b600082815260fb60205260409020600101546115e381613cd4565b610d298383613f18565b6115f5614c88565b60006116008361287e565b50905061160b613be3565b6001600160c01b0380831660009081526002928301602090815260409182902082516101408101845281549094168452600181015491840191909152928301546001600160601b0380821692840192909252600160601b900416606082015260038201546080820152600482015460a0820152600582015460c082015260068201805491929160e0840191906116a09061543b565b80601f01602080910402602001604051908101604052809291908181526020018280546116cc9061543b565b80156117195780601f106116ee57610100808354040283529160200191611719565b820191906000526020600020905b8154815290600101906020018083116116fc57829003601f168201915b5050509183525050600782015460209091019060ff16600181111561174057611740614e0a565b600181111561175157611751614e0a565b8152602001600882015481525050915050919050565b61012d546001600160a01b0316158015906117f5575061012d60009054906101000a90046001600160a01b03166001600160a01b03166322f3e2d46040518163ffffffff1660e01b8152600401602060405180830381865afa1580156117d1573d6000803e3d6000fd5b505050506040513d601f19601f820116820180604052508101906117f59190615475565b6118115760405162461bcd60e51b8152600401610c8890615492565b813361181c826128ae565b6001600160a01b0316146118425760405162461bcd60e51b8152600401610c88906154c1565b600061184d8461287e565b509050600061185a613be3565b6002016000836001600160c01b03166001600160c01b0316815260200190815260200160002090508381600401541115801561189a575080600501548411155b6118e15760405162461bcd60e51b81526020600482015260186024820152774d7573742062652077697468696e207468652072616e676560401b6044820152606401610c88565b60006118eb613be3565b600096875260040160205250506040909320600201919091555050565b61012d546001600160a01b031615801590611996575061012d60009054906101000a90046001600160a01b03166001600160a01b03166322f3e2d46040518163ffffffff1660e01b8152600401602060405180830381865afa158015611972573d6000803e3d6000fd5b505050506040513d601f19601f820116820180604052508101906119969190615475565b6119b25760405162461bcd60e51b8152600401610c8890615492565b60006119bc613be3565b60008381526005919091016020526040902090506002600482810154600160501b900460ff16908111156119f2576119f2614e0a565b14611a4a5760405162461bcd60e51b815260206004820152602260248201527f4f6e6c792072656a656374656420626964732063616e20626520726566756e64604482015261195960f21b6064820152608401610c88565b60018101546001600160a01b03163314611ab85760405162461bcd60e51b815260206004820152602960248201527f4f6e6c7920746865206269646465722063616e20726574726965766520697473604482015268081bdddb88199d5b9960ba1b6064820152608401610c88565b6000611ac2613be3565b60008481526006919091016020526040808220549051909250339083908381818185875af1925050503d8060008114611b17576040519150601f19603f3d011682016040523d82523d6000602084013e611b1c565b606091505b5050905080611b605760405162461bcd60e51b815260206004820152601060248201526f11985a5b1959081d1bc81c99599d5b9960821b6044820152606401610c88565b60048301805460ff60501b1916600160521b17905560028301546040516001600160c01b039091169085907f45368e9994df879f0e9d3c8e00a81f2745c25f6f5c8519296d97d1992ba2233190600090a350505050565b6001600160a01b0381163314611c275760405162461bcd60e51b815260206004820152602f60248201527f416363657373436f6e74726f6c3a2063616e206f6e6c792072656e6f756e636560448201526e103937b632b9903337b91039b2b63360891b6064820152608401610c88565b611c318282613f9e565b5050565b6001600160a01b037f0000000000000000000000000000000000000000000000000000000000000000163003611c7d5760405162461bcd60e51b8152600401610c88906155b5565b7f00000000000000000000000000000000000000000000000000000000000000006001600160a01b0316611cc6600080516020615b4b833981519152546001600160a01b031690565b6001600160a01b031614611cec5760405162461bcd60e51b8152600401610c8890615601565b611cf581614005565b60408051600080825260208201909252611d1191839190614010565b50565b61012d546001600160a01b031615801590611da2575061012d60009054906101000a90046001600160a01b03166001600160a01b03166322f3e2d46040518163ffffffff1660e01b8152600401602060405180830381865afa158015611d7e573d6000803e3d6000fd5b505050506040513d601f19601f82011682018060405250810190611da29190615475565b611dbe5760405162461bcd60e51b8152600401610c8890615492565b6000611dc8613be3565b60008381526005919091016020526040902090506001600482810154600160501b900460ff1690811115611dfe57611dfe614e0a565b14611e425760405162461bcd60e51b8152602060048201526014602482015273109a59081b5d5cdd081899481858d8d95c1d195960621b6044820152606401610c88565b6000611e4c613be3565b6002838101546001600160c01b031660009081529101602052604090206003830154909150611e79613be3565b82546001600160c01b0390811660009081526007928301602052604080822094909455918401805460ff19166001179055600285015492518693909116917fc8af5b62fdee6b689bb033af55802065de039199e8773211c391e2bc629f9bff91a361012d60009054906101000a90046001600160a01b03166001600160a01b031663d0d851d06040518163ffffffff1660e01b8152600401602060405180830381865afa158015611f2e573d6000803e3d6000fd5b505050506040513d601f19601f82011682018060405250810190611f52919061564d565b600183810154908301546040516322dca8bb60e21b81526001600160a01b0392831660048201526024810191909152911690638b72a2ec90604401600060405180830381600087803b158015611fa757600080fd5b505af1158015611fbb573d6000803e3d6000fd5b5050505060048201805460ff60501b1916600360501b17905560028201546040516001600160c01b039091169084907f99df1ef09da39d623befdb16807aa77c3019cdab1513e0911a6a9b5cbeb7717190600090a3505050565b610d2983838360405180602001604052806000815250613520565b61012d546000906001600160a01b0316158015906120c1575061012d60009054906101000a90046001600160a01b03166001600160a01b03166322f3e2d46040518163ffffffff1660e01b8152600401602060405180830381865afa15801561209d573d6000803e3d6000fd5b505050506040513d601f19601f820116820180604052508101906120c19190615475565b6120dd5760405162461bcd60e51b8152600401610c8890615492565b60006120e7613be3565b6000848152600591909101602052604081209150600482810154600160501b900460ff169081111561211b5761211b614e0a565b146121745760405162461bcd60e51b8152602060048201526024808201527f4f6e6c79206269647320696e2070726f706f73616c2063616e20626520757064604482015263185d195960e21b6064820152608401610c88565b600481015442906121979064ffffffffff6501000000000082048116911661566a565b64ffffffffff16106121e15760405162461bcd60e51b815260206004820152601360248201527242696420766f7465206973206f6e676f696e6760681b6044820152606401610c88565b60028101546121f8906001600160c01b031661308a565b612203576002612206565b60015b81600401600a6101000a81548160ff0219169083600481111561222b5761222b614e0a565b02179055506001600482810154600160501b900460ff169081111561225257612252614e0a565b036122985760028101546040516001600160c01b039091169084907fb3da334e87bb12429fffd68719932238d83910609c56e8c29aa40a792ad13a2190600090a36122d5565b60028101546040516001600160c01b039091169084907fef7c1c563e3b3cbcb87042244eb19ffd95036cade90e0e582f71e3d276a8e8b990600090a35b60040154600160501b900460ff1690505b919050565b6001600160a01b037f00000000000000000000000000000000000000000000000000000000000000001630036123335760405162461bcd60e51b8152600401610c88906155b5565b7f00000000000000000000000000000000000000000000000000000000000000006001600160a01b031661237c600080516020615b4b833981519152546001600160a01b031690565b6001600160a01b0316146123a25760405162461bcd60e51b8152600401610c8890615601565b6123ab82614005565b611c3182826001614010565b61012d546000906001600160a01b031615801590612448575061012d60009054906101000a90046001600160a01b03166001600160a01b03166322f3e2d46040518163ffffffff1660e01b8152600401602060405180830381865afa158015612424573d6000803e3d6000fd5b505050506040513d601f19601f820116820180604052508101906124489190615475565b6124645760405162461bcd60e51b8152600401610c8890615492565b600080516020615b9283398151915261247c81613cd4565b61012d5460408051630d0d851d60e41b8152905130926001600160a01b03169163d0d851d09160048083019260209291908290030181865afa1580156124c6573d6000803e3d6000fd5b505050506040513d601f19601f820116820180604052508101906124ea919061564d565b6001600160a01b03166358178168896040518263ffffffff1660e01b815260040161251791815260200190565b602060405180830381865afa158015612534573d6000803e3d6000fd5b505050506040513d601f19601f82011682018060405250810190612558919061564d565b6001600160a01b0316146125ae5760405162461bcd60e51b815260206004820152601e60248201527f54686520636f6e7472616374206d757374206f776e207468652070756e6b00006044820152606401610c88565b6125b6613be3565b60010180546000906125d0906001600160c01b0316615688565b91906101000a8154816001600160c01b0302191690836001600160c01b03160217905591506125fd613be3565b6001600160c01b0383166000908152600391909101602052604081208054909190612630906001600160401b0316615504565b91906101000a8154816001600160401b0302191690836001600160401b03160217905550604051806101400160405280836001600160c01b03168152602001888152602001876001600160401b03166001600160601b0316815260200160006001600160601b03168152602001868152602001858152602001848152602001604051806020016040528060008152508152602001600060018111156126d7576126d7614e0a565b815260200160008152506126e9613be3565b6001600160c01b038085166000908152600292830160209081526040918290208551815494166001600160c01b031994851617815590850151600182015590840151928101805460608601516001600160601b03908116600160601b029190941693909416929092179290921790556080820151600382015560a0820151600482015560c0820151600582015560e0820151600682019061278a90826156f2565b5061010082015160078201805460ff1916600183818111156127ae576127ae614e0a565b021790555061012082015181600801559050505095945050505050565b6000306001600160a01b037f0000000000000000000000000000000000000000000000000000000000000000161461286b5760405162461bcd60e51b815260206004820152603860248201527f555550535570677261646561626c653a206d757374206e6f742062652063616c60448201527f6c6564207468726f7567682064656c656761746563616c6c00000000000000006064820152608401610c88565b50600080516020615b4b83398151915290565b600080604083901c60016040600161289691906157b1565b6001901b6128a491906157c4565b9094931692915050565b6000818152606760205260408120546001600160a01b031680610b395760405162461bcd60e51b8152602060048201526018602482015277115490cdcc8c4e881a5b9d985b1a59081d1bdad95b88125160421b6044820152606401610c88565b600080600061291b613be3565b6001600160c01b038516600090815260039190910160205260409020546001600160401b0316905060015b816001600160401b0316816001600160401b031610156129c957600061296a613be3565b600401600061297988856134df565b815260208101919091526040016000206002810154909150156129b657846129a081615504565b60028301549096506129b39150856157b1565b93505b50806129c181615504565b915050612946565b5050915091565b60006001600160a01b038216612a3a5760405162461bcd60e51b815260206004820152602960248201527f4552433732313a2061646472657373207a65726f206973206e6f7420612076616044820152683634b21037bbb732b960b91b6064820152608401610c88565b506001600160a01b031660009081526068602052604090205490565b612a5e614c88565b612a66613be3565b6001600160c01b0380841660009081526002928301602090815260409182902082516101408101845281549094168452600181015491840191909152928301546001600160601b0380821692840192909252600160601b900416606082015260038201546080820152600482015460a0820152600582015460c082015260068201805491929160e084019190612afb9061543b565b80601f0160208091040260200160405190810160405280929190818152602001828054612b279061543b565b8015612b745780601f10612b4957610100808354040283529160200191612b74565b820191906000526020600020905b815481529060010190602001808311612b5757829003601f168201915b5050509183525050600782015460209091019060ff166001811115612b9b57612b9b614e0a565b6001811115612bac57612bac614e0a565b81526020016008820154815250509050919050565b8133612bcc826128ae565b6001600160a01b031614612bf25760405162461bcd60e51b8152600401610c88906154c1565b6000612bfc613be3565b600094855260040160205250506040909120600101805460ff191660ff909216919091179055565b61012d546000906001600160a01b031615801590612cb5575061012d60009054906101000a90046001600160a01b03166001600160a01b03166322f3e2d46040518163ffffffff1660e01b8152600401602060405180830381865afa158015612c91573d6000803e3d6000fd5b505050506040513d601f19601f82011682018060405250810190612cb59190615475565b612cd15760405162461bcd60e51b8152600401610c8890615492565b826000612cdc613be3565b6001600160c01b0383166000908152600291909101602052604090206007015460ff166001811115612d1057612d10614e0a565b14612d4a5760405162461bcd60e51b815260206004820152600a6024820152694e6f742061637469766560b01b6044820152606401610c88565b6000612d54613be3565b6001600160c01b03861660009081526002919091016020526040902060048101549091508410801590612d8f5750612d8b856134b9565b8410155b8015612d9f575080600501548411155b612e045760405162461bcd60e51b815260206004820152603060248201527f426964207072696365206d7573742062652077697468696e207468652072657360448201526f657276652070726963652072616e676560801b6064820152608401610c88565b833414612e615760405162461bcd60e51b815260206004820152602560248201527f4d7573742073656e64207468652065786163742076616c75652061732070726f6044820152641c1bdcd95960da1b6064820152608401610c88565b60088101548015612ee6576000612e7782612030565b90506002816004811115612e8d57612e8d614e0a565b14612ee45760405162461bcd60e51b815260206004820152602160248201527f5468652070726576696f757320626964206d7573742062652072656a656374656044820152601960fa1b6064820152608401610c88565b505b6000612ef3873342613ae6565b6040805160e0810182528281523360208201526001600160c01b038a1691810191909152606081018890524264ffffffffff16608082015262093a8060a0820152600060c0820152909150612f46613be3565b6000838152600591909101602090815260409182902083518155908301516001820180546001600160a01b039092166001600160a01b0319909216919091179055908201516002820180546001600160c01b039092166001600160c01b03199092169190911790556060820151600382015560808201516004808301805460a086015164ffffffffff908116650100000000000269ffffffffffffffffffff199092169416939093179290921780835560c0850151929160ff60501b1990911690600160501b90849081111561301e5761301e614e0a565b02179055509050503461302f613be3565b60008381526006919091016020526040808220929092556008850183905590516001600160c01b0389169183917f8533454634e1656b9e2daf5da3b90e4d937516874c552e83bec683277b6109a69190a39695505050505050565b60008061309683613558565b50905060006130a3613be3565b6001600160c01b038516600090815260029182016020526040902001546001600160601b031690506130d7816113ec613ee7565b826001600160401b0316101592505050919050565b61012d546000906001600160a01b03161580159061317d575061012d60009054906101000a90046001600160a01b03166001600160a01b03166322f3e2d46040518163ffffffff1660e01b8152600401602060405180830381865afa158015613159573d6000803e3d6000fd5b505050506040513d601f19601f8201168201806040525081019061317d9190615475565b6131995760405162461bcd60e51b8152600401610c8890615492565b6000806131a4613be3565b6001600160c01b038516600090815260039190910160205260409020546001600160401b0316905060015b816001600160401b0316816001600160401b0316101561324f5760006131f586836134df565b905033613217826000908152606760205260409020546001600160a01b031690565b6001600160a01b03160361323c5761322e8161417b565b83613238816157d7565b9450505b508061324781615504565b9150506131cf565b50600082116132a05760405162461bcd60e51b815260206004820152601860248201527f4e6f204d6f6e6f73206f776e656420746f20726566756e6400000000000000006044820152606401610c88565b6132a984611307565b6132b390836157f0565b604051909350600090339085908381818185875af1925050503d80600081146132f8576040519150601f19603f3d011682016040523d82523d6000602084013e6132fd565b606091505b50509050806133415760405162461bcd60e51b815260206004820152601060248201526f11985a5b1959081d1bc81c99599d5b9960821b6044820152606401610c88565b60405133906001600160c01b038716907fc6d91402e00d43c03e126a374dddd6386f8764fd6bbd8453dabf5e2e37545f0890600090a3505050919050565b600091825260fb602090815260408084206001600160a01b0393909316845291905290205460ff1690565b606060668054610b6a9061543b565b6133c1614cdc565b6133c9613be3565b60040160006133d885856134df565b8152602080820192909252604090810160002081516060808201845282548252600183015460ff908116838701528451918201855260028085018054845260038601549497959688019593949093850192169081111561343a5761343a614e0a565b600281111561344b5761344b614e0a565b8152600291909101546020909101529052509392505050565b611c3133838361421e565b600061347a81613cd4565b6000613484613be3565b6001600160c01b0386166000908152600291909101602052604090209050600681016134b1848683615807565b505050505050565b60008060006134c78461290e565b90925090506113bc6001600160401b03831682615593565b6001600160401b031660409190911b67ffffffffffffffff19161790565b600061350881613cd4565b611c31600080516020615b9283398151915283613f18565b61352a3383613cf8565b6135465760405162461bcd60e51b8152600401610c8890615546565b613552848484846142ec565b50505050565b60008061356483613a22565b61357357506000928392509050565b600061357d613be3565b6001600160c01b038516600090815260039190910160205260408120546001600160401b031691506135ad613be3565b6001600160c01b03861660009081526002919091016020526040902060080154905060015b826001600160401b0316816001600160401b031610156136955760006135f6613be3565b600401600061360589856134df565b81526020019081526020016000206002019050828160020154036136825760018082015460ff16600281111561363d5761363d614e0a565b03613654578561364c81615504565b965050613682565b6002600182015460ff16600281111561366f5761366f614e0a565b03613682578461367e81615504565b9550505b508061368d81615504565b9150506135d2565b505050915091565b600054610100900460ff16158080156136bd5750600054600160ff909116105b806136d75750303b1580156136d7575060005460ff166001145b61373a5760405162461bcd60e51b815260206004820152602e60248201527f496e697469616c697a61626c653a20636f6e747261637420697320616c72656160448201526d191e481a5b9a5d1a585b1a5e995960921b6064820152608401610c88565b6000805460ff19166001179055801561375d576000805461ff0019166101001790555b6137b46040518060400160405280601281526020017143727970746f50756e6b73204d6f7361696360701b8152506040518060400160405280600b81526020016a50554e4b534d4f5341494360a81b81525061431f565b61012d80546001600160a01b0319166001600160a01b0384161790556137db600033613f18565b6137e6600083613f18565b8015611c31576000805461ff0019169055604051600181527f7f26b83ff96e1f2b6a682f133852f6798a09c465da95921460cefb38474024989060200160405180910390a15050565b6060600061383c8361287e565b5090506000613849613be3565b6001600160c01b03831660009081526002919091016020526040902090506001600782015460ff16600181111561388257613882614e0a565b036139215761388f613be3565b805461389a9061543b565b80601f01602080910402602001604051908101604052809291908181526020018280546138c69061543b565b80156139135780601f106138e857610100808354040283529160200191613913565b820191906000526020600020905b8154815290600101906020018083116138f657829003601f168201915b505050505092505050919050565b60008160060180546139329061543b565b80601f016020809104026020016040519081016040528092919081815260200182805461395e9061543b565b80156139ab5780601f10613980576101008083540402835291602001916139ab565b820191906000526020600020905b81548152906001019060200180831161398e57829003601f168201915b5050505050905060006139bc613be3565b6000878152600491909101602052604090206001908101549084015460ff909116915082906139ea90614350565b6139f68360ff16614350565b604051602001613a08939291906158c6565b604051602081830303815290604052945050505050919050565b600080613a2d613be3565b6001600160c01b038416600090815260029190910160205260408120600801549150613a57613be3565b60008381526005919091016020526040902090508115801590613a86575060018101546001600160a01b031615155b80156113bc575060048101544290613ab09064ffffffffff6501000000000082048116911661566a565b64ffffffffff161015949350505050565b600082815260fb6020526040902060010154613adc81613cd4565b610d298383613f9e565b6040805167ffffffffffffffff1985831b166020808301919091526bffffffffffffffffffffffff19606086901b1660388301526001600160d81b031960d885901b16604c83015282516031818403018152605190920190925280519101205b9392505050565b6000613b5881613cd4565b8282613b62613be3565b91613552919083615807565b60006001600160e01b031982166380ac58cd60e01b1480613b9f57506001600160e01b03198216635b5e139f60e01b145b80610b3957506301ffc9a760e01b6001600160e01b0319831614610b39565b60006001600160e01b03198216637965db0b60e01b1480610b395750610b3982613b6e565b7f5cafb8bef6ef913d32c72906048dcf5e6edbee573e07510aef7565bd03ff9d2890565b6000818152606760205260409020546001600160a01b0316611d115760405162461bcd60e51b8152602060048201526018602482015277115490cdcc8c4e881a5b9d985b1a59081d1bdad95b88125160421b6044820152606401610c88565b600081815260696020526040902080546001600160a01b0319166001600160a01b0384169081179091558190613c9b826128ae565b6001600160a01b03167f8c5be1e5ebec7d5bd14f71427d1e84f3dd0314c0f7b2291e5b200ac8c7c3b92560405160405180910390a45050565b611d1181336143e2565b611c3182826040518060200160405280600081525061443b565b600080613d04836128ae565b9050806001600160a01b0316846001600160a01b03161480613d4b57506001600160a01b038082166000908152606a602090815260408083209388168352929052205460ff165b806113bc5750836001600160a01b0316613d6484610bed565b6001600160a01b031614949350505050565b826001600160a01b0316613d89826128ae565b6001600160a01b031614613daf5760405162461bcd60e51b8152600401610c8890615937565b6001600160a01b038216613e115760405162461bcd60e51b8152602060048201526024808201527f4552433732313a207472616e7366657220746f20746865207a65726f206164646044820152637265737360e01b6064820152608401610c88565b613e1e838383600161446e565b826001600160a01b0316613e31826128ae565b6001600160a01b031614613e575760405162461bcd60e51b8152600401610c8890615937565b600081815260696020908152604080832080546001600160a01b03199081169091556001600160a01b0387811680865260688552838620805460001901905590871680865283862080546001019055868652606790945282852080549092168417909155905184937fddf252ad1be2c89b69c2b068fc378daa952ba7f163c4a11628f55a4df523b3ef91a4505050565b6000612710613ef683856157f0565b1015613f0157600080fd5b612710613f0e83856157f0565b613b469190615593565b613f22828261337f565b611c3157600082815260fb602090815260408083206001600160a01b03851684529091529020805460ff19166001179055613f5a3390565b6001600160a01b0316816001600160a01b0316837f2f8788117e7eff1d82e926ec794901d17c78024a50270940304540a733656f0d60405160405180910390a45050565b613fa8828261337f565b15611c3157600082815260fb602090815260408083206001600160a01b0385168085529252808320805460ff1916905551339285917ff6391f5c32d9c69d2a47ea670b442974b53935d1edc7fd64eb21e047a839171b9190a45050565b6000611c3181613cd4565b7f4910fdfa16fed3260ed0e7147f7cc6da11a60208b5b9406d12a635614ffd91435460ff161561404357610d29836144f6565b826001600160a01b03166352d1902d6040518163ffffffff1660e01b8152600401602060405180830381865afa92505050801561409d575060408051601f3d908101601f1916820190925261409a9181019061597c565b60015b6141005760405162461bcd60e51b815260206004820152602e60248201527f45524331393637557067726164653a206e657720696d706c656d656e7461746960448201526d6f6e206973206e6f74205555505360901b6064820152608401610c88565b600080516020615b4b833981519152811461416f5760405162461bcd60e51b815260206004820152602960248201527f45524331393637557067726164653a20756e737570706f727465642070726f786044820152681a58589b195555525160ba1b6064820152608401610c88565b50610d29838383614592565b6000614186826128ae565b905061419681600084600161446e565b61419f826128ae565b600083815260696020908152604080832080546001600160a01b03199081169091556001600160a01b0385168085526068845282852080546000190190558785526067909352818420805490911690555192935084927fddf252ad1be2c89b69c2b068fc378daa952ba7f163c4a11628f55a4df523b3ef908390a45050565b816001600160a01b0316836001600160a01b03160361427f5760405162461bcd60e51b815260206004820152601960248201527f4552433732313a20617070726f766520746f2063616c6c6572000000000000006044820152606401610c88565b6001600160a01b038381166000818152606a6020908152604080832094871680845294825291829020805460ff191686151590811790915591519182527f17307eab39ab6107e8899845ad3d59bd9653f200f220920489ca2b5937696c31910160405180910390a3505050565b6142f7848484613d76565b614303848484846145b7565b6135525760405162461bcd60e51b8152600401610c8890615995565b600054610100900460ff166143465760405162461bcd60e51b8152600401610c88906159e7565b611c3182826146b8565b6060600061435d836146f8565b60010190506000816001600160401b0381111561437c5761437c615080565b6040519080825280601f01601f1916602001820160405280156143a6576020820181803683370190505b5090508181016020015b600019016f181899199a1a9b1b9c1cb0b131b232b360811b600a86061a8153600a85049450846143b057509392505050565b6143ec828261337f565b611c31576143f9816147d0565b6144048360206147e2565b604051602001614415929190615a32565b60408051601f198184030181529082905262461bcd60e51b8252610c8891600401614d9d565b614445838361497d565b61445260008484846145b7565b610d295760405162461bcd60e51b8152600401610c8890615995565b6001811115613552576001600160a01b038416156144b4576001600160a01b038416600090815260686020526040812080548392906144ae9084906157c4565b90915550505b6001600160a01b03831615613552576001600160a01b038316600090815260686020526040812080548392906144eb9084906157b1565b909155505050505050565b6001600160a01b0381163b6145635760405162461bcd60e51b815260206004820152602d60248201527f455243313936373a206e657720696d706c656d656e746174696f6e206973206e60448201526c1bdd08184818dbdb9d1c9858dd609a1b6064820152608401610c88565b600080516020615b4b83398151915280546001600160a01b0319166001600160a01b0392909216919091179055565b61459b83614b16565b6000825111806145a85750805b15610d29576135528383614b56565b60006001600160a01b0384163b156146ad57604051630a85bd0160e11b81526001600160a01b0385169063150b7a02906145fb903390899088908890600401615aa7565b6020604051808303816000875af1925050508015614636575060408051601f3d908101601f1916820190925261463391810190615ae4565b60015b614693573d808015614664576040519150601f19603f3d011682016040523d82523d6000602084013e614669565b606091505b50805160000361468b5760405162461bcd60e51b8152600401610c8890615995565b805181602001fd5b6001600160e01b031916630a85bd0160e11b1490506113bc565b506001949350505050565b600054610100900460ff166146df5760405162461bcd60e51b8152600401610c88906159e7565b60656146eb83826156f2565b506066610d2982826156f2565b60008072184f03e93ff9f4daa797ed6e38ed64bf6a1f0160401b83106147375772184f03e93ff9f4daa797ed6e38ed64bf6a1f0160401b830492506040015b6d04ee2d6d415b85acef81000000008310614763576d04ee2d6d415b85acef8100000000830492506020015b662386f26fc10000831061478157662386f26fc10000830492506010015b6305f5e1008310614799576305f5e100830492506008015b61271083106147ad57612710830492506004015b606483106147bf576064830492506002015b600a8310610b395760010192915050565b6060610b396001600160a01b03831660145b606060006147f18360026157f0565b6147fc9060026157b1565b6001600160401b0381111561481357614813615080565b6040519080825280601f01601f19166020018201604052801561483d576020820181803683370190505b509050600360fc1b8160008151811061485857614858615b01565b60200101906001600160f81b031916908160001a905350600f60fb1b8160018151811061488757614887615b01565b60200101906001600160f81b031916908160001a90535060006148ab8460026157f0565b6148b69060016157b1565b90505b600181111561492e576f181899199a1a9b1b9c1cb0b131b232b360811b85600f16601081106148ea576148ea615b01565b1a60f81b82828151811061490057614900615b01565b60200101906001600160f81b031916908160001a90535060049490941c9361492781615b17565b90506148b9565b508315613b465760405162461bcd60e51b815260206004820181905260248201527f537472696e67733a20686578206c656e67746820696e73756666696369656e746044820152606401610c88565b6001600160a01b0382166149d35760405162461bcd60e51b815260206004820181905260248201527f4552433732313a206d696e7420746f20746865207a65726f20616464726573736044820152606401610c88565b6000818152606760205260409020546001600160a01b031615614a385760405162461bcd60e51b815260206004820152601c60248201527f4552433732313a20746f6b656e20616c7265616479206d696e746564000000006044820152606401610c88565b614a4660008383600161446e565b6000818152606760205260409020546001600160a01b031615614aab5760405162461bcd60e51b815260206004820152601c60248201527f4552433732313a20746f6b656e20616c7265616479206d696e746564000000006044820152606401610c88565b6001600160a01b038216600081815260686020908152604080832080546001019055848352606790915280822080546001600160a01b0319168417905551839291907fddf252ad1be2c89b69c2b068fc378daa952ba7f163c4a11628f55a4df523b3ef908290a45050565b614b1f816144f6565b6040516001600160a01b038216907fbc7cd75a20ee27fd9adebab32041f755214dbc6bffa90cc0225b39da2e5c2d3b90600090a250565b60606001600160a01b0383163b614bbe5760405162461bcd60e51b815260206004820152602660248201527f416464726573733a2064656c65676174652063616c6c20746f206e6f6e2d636f6044820152651b9d1c9858dd60d21b6064820152608401610c88565b600080846001600160a01b031684604051614bd99190615b2e565b600060405180830381855af49150503d8060008114614c14576040519150601f19603f3d011682016040523d82523d6000602084013e614c19565b606091505b5091509150614c418282604051806060016040528060278152602001615b6b60279139614c4a565b95945050505050565b60608315614c59575081613b46565b613b468383815115614c6e5781518083602001fd5b8060405162461bcd60e51b8152600401610c889190614d9d565b604080516101408101825260008082526020820181905291810182905260608082018390526080820183905260a0820183905260c0820183905260e0820152906101008201905b8152602001600081525090565b6040805160608101825260008082526020820152908101614cfb614d00565b905290565b604080516060810190915260008082526020820190614ccf565b6001600160e01b031981168114611d1157600080fd5b600060208284031215614d4257600080fd5b8135613b4681614d1a565b60005b83811015614d68578181015183820152602001614d50565b50506000910152565b60008151808452614d89816020860160208601614d4d565b601f01601f19169290920160200192915050565b602081526000613b466020830184614d71565b600060208284031215614dc257600080fd5b5035919050565b6001600160a01b0381168114611d1157600080fd5b60008060408385031215614df157600080fd5b8235614dfc81614dc9565b946020939093013593505050565b634e487b7160e01b600052602160045260246000fd5b60038110611d1157611d11614e0a565b60208101614e3d83614e20565b91905290565b60008060408385031215614e5657600080fd5b82359150602083013560038110614e6c57600080fd5b809150509250929050565b80356001600160c01b03811681146122e657600080fd5b60008060408385031215614ea157600080fd5b8235614eac81614dc9565b9150614eba60208401614e77565b90509250929050565b600080600060608486031215614ed857600080fd5b8335614ee381614dc9565b92506020840135614ef381614dc9565b929592945050506040919091013590565b600060208284031215614f1657600080fd5b613b4682614e77565b60008060408385031215614f3257600080fd5b614dfc83614e77565b60008060408385031215614f4e57600080fd5b823591506020830135614e6c81614dc9565b60028110614f7057614f70614e0a565b9052565b60208152614f8e6020820183516001600160c01b03169052565b6020820151604082015260006040830151614fb460608401826001600160601b03169052565b5060608301516001600160601b038116608084015250608083015160a083015260a083015160c083015260c083015160e083015260e08301516101406101008181860152615006610160860184614d71565b9086015190925061012061501c86820183614f60565b959095015193019290925250919050565b6000806040838503121561504057600080fd5b50508035926020909101359150565b60006020828403121561506157600080fd5b8135613b4681614dc9565b6020810160058310614e3d57614e3d614e0a565b634e487b7160e01b600052604160045260246000fd5b600082601f8301126150a757600080fd5b81356001600160401b03808211156150c1576150c1615080565b604051601f8301601f19908116603f011681019082821181831017156150e9576150e9615080565b8160405283815286602085880101111561510257600080fd5b836020870160208301376000602085830101528094505050505092915050565b6000806040838503121561513557600080fd5b823561514081614dc9565b915060208301356001600160401b0381111561515b57600080fd5b61516785828601615096565b9150509250929050565b80356001600160401b03811681146122e657600080fd5b600080600080600060a086880312156151a057600080fd5b853594506151b060208701615171565b94979496505050506040830135926060810135926080909101359150565b600080604083850312156151e157600080fd5b82359150602083013560ff81168114614e6c57600080fd5b6000806040838503121561520c57600080fd5b61521583614e77565b9150614eba60208401615171565b600060a0820190508251825260ff6020840151166020830152604083015180516040840152602081015161525681614e20565b606084015260400151608090920191909152919050565b8015158114611d1157600080fd5b6000806040838503121561528e57600080fd5b823561529981614dc9565b91506020830135614e6c8161526d565b60008083601f8401126152bb57600080fd5b5081356001600160401b038111156152d257600080fd5b6020830191508360208285010111156152ea57600080fd5b9250929050565b60008060006040848603121561530657600080fd5b61530f84614e77565b925060208401356001600160401b0381111561532a57600080fd5b615336868287016152a9565b9497909650939450505050565b6000806000806080858703121561535957600080fd5b843561536481614dc9565b9350602085013561537481614dc9565b92506040850135915060608501356001600160401b0381111561539657600080fd5b6153a287828801615096565b91505092959194509250565b6000806000606084860312156153c357600080fd5b614ee384614e77565b600080604083850312156153df57600080fd5b82356153ea81614dc9565b91506020830135614e6c81614dc9565b6000806020838503121561540d57600080fd5b82356001600160401b0381111561542357600080fd5b61542f858286016152a9565b90969095509350505050565b600181811c9082168061544f57607f821691505b60208210810361546f57634e487b7160e01b600052602260045260246000fd5b50919050565b60006020828403121561548757600080fd5b8151613b468161526d565b6020808252601590820152744d757365756d206d7573742062652061637469766560581b604082015260600190565b6020808252601390820152724d757374206f776e20746865204d6f7361696360681b604082015260600190565b634e487b7160e01b600052601160045260246000fd5b60006001600160401b03808316818103615520576155206154ee565b6001019392505050565b60006001600160601b03808316818103615520576155206154ee565b6020808252602d908201527f4552433732313a2063616c6c6572206973206e6f7420746f6b656e206f776e6560408201526c1c881bdc88185c1c1c9bdd9959609a1b606082015260800190565b6000826155b057634e487b7160e01b600052601260045260246000fd5b500490565b6020808252602c908201527f46756e6374696f6e206d7573742062652063616c6c6564207468726f7567682060408201526b19195b1959d85d1958d85b1b60a21b606082015260800190565b6020808252602c908201527f46756e6374696f6e206d7573742062652063616c6c6564207468726f7567682060408201526b6163746976652070726f787960a01b606082015260800190565b60006020828403121561565f57600080fd5b8151613b4681614dc9565b64ffffffffff8181168382160190808211156112cf576112cf6154ee565b60006001600160c01b038281166002600160c01b03198101615520576155206154ee565b601f821115610d2957600081815260208120601f850160051c810160208610156156d35750805b601f850160051c820191505b818110156134b1578281556001016156df565b81516001600160401b0381111561570b5761570b615080565b61571f81615719845461543b565b846156ac565b602080601f831160018114615754576000841561573c5750858301515b600019600386901b1c1916600185901b1785556134b1565b600085815260208120601f198616915b8281101561578357888601518255948401946001909101908401615764565b50858210156157a15787850151600019600388901b60f8161c191681555b5050505050600190811b01905550565b80820180821115610b3957610b396154ee565b81810381811115610b3957610b396154ee565b6000600182016157e9576157e96154ee565b5060010190565b8082028115828204841417610b3957610b396154ee565b6001600160401b0383111561581e5761581e615080565b6158328361582c835461543b565b836156ac565b6000601f841160018114615866576000851561584e5750838201355b600019600387901b1c1916600186901b1783556115c1565b600083815260209020601f19861690835b828110156158975786850135825560209485019460019092019101615877565b50868210156158b45760001960f88860031b161c19848701351681555b505060018560011b0183555050505050565b600084516158d8818460208901614d4d565b602f60f81b90830190815284516158f6816001840160208901614d4d565b605f60f81b600192909101918201528351615918816002840160208801614d4d565b64173539b7b760d91b6002929091019182015260070195945050505050565b60208082526025908201527f4552433732313a207472616e736665722066726f6d20696e636f72726563742060408201526437bbb732b960d91b606082015260800190565b60006020828403121561598e57600080fd5b5051919050565b60208082526032908201527f4552433732313a207472616e7366657220746f206e6f6e20455243373231526560408201527131b2b4bb32b91034b6b83632b6b2b73a32b960711b606082015260800190565b6020808252602b908201527f496e697469616c697a61626c653a20636f6e7472616374206973206e6f74206960408201526a6e697469616c697a696e6760a81b606082015260800190565b7f416363657373436f6e74726f6c3a206163636f756e7420000000000000000000815260008351615a6a816017850160208801614d4d565b7001034b99036b4b9b9b4b733903937b6329607d1b6017918401918201528351615a9b816028840160208801614d4d565b01602801949350505050565b6001600160a01b0385811682528416602082015260408101839052608060608201819052600090615ada90830184614d71565b9695505050505050565b600060208284031215615af657600080fd5b8151613b4681614d1a565b634e487b7160e01b600052603260045260246000fd5b600081615b2657615b266154ee565b506000190190565b60008251615b40818460208701614d4d565b919091019291505056fe360894a13ba1a3210667c828492db98dca3e2076cc3735a920a3ca505d382bbc416464726573733a206c6f772d6c6576656c2064656c65676174652063616c6c206661696c65649f2df0fed2c77648de5860a4cc508cd0818c85b8b8a1ab4ceeef8d981c8956a6a264697066735822122076ce93962daec37fe7de1210bd48a4447e0590f42b7c7af0884f246436f8466764736f6c63430008110033",
  "devdoc": {
    "kind": "dev",
    "methods": {
      "approve(address,uint256)": {
        "details": "See {IERC721-approve}."
      },
      "balanceOf(address)": {
        "details": "See {IERC721-balanceOf}."
      },
      "getApproved(uint256)": {
        "details": "See {IERC721-getApproved}."
      },
      "getRoleAdmin(bytes32)": {
        "details": "Returns the admin role that controls `role`. See {grantRole} and {revokeRole}. To change a role's admin, use {_setRoleAdmin}."
      },
      "grantRole(bytes32,address)": {
        "details": "Grants `role` to `account`. If `account` had not been already granted `role`, emits a {RoleGranted} event. Requirements: - the caller must have ``role``'s admin role. May emit a {RoleGranted} event."
      },
      "hasRole(bytes32,address)": {
        "details": "Returns `true` if `account` has been granted `role`."
      },
      "isApprovedForAll(address,address)": {
        "details": "See {IERC721-isApprovedForAll}."
      },
      "name()": {
        "details": "See {IERC721Metadata-name}."
      },
      "ownerOf(uint256)": {
        "details": "See {IERC721-ownerOf}."
      },
      "proxiableUUID()": {
        "details": "Implementation of the ERC1822 {proxiableUUID} function. This returns the storage slot used by the implementation. It is used to validate the implementation's compatibility when performing an upgrade. IMPORTANT: A proxy pointing at a proxiable contract should not be considered proxiable itself, because this risks bricking a proxy that upgrades to it, by delegating to itself until out of gas. Thus it is critical that this function revert if invoked through a proxy. This is guaranteed by the `notDelegated` modifier."
      },
      "renounceRole(bytes32,address)": {
        "details": "Revokes `role` from the calling account. Roles are often managed via {grantRole} and {revokeRole}: this function's purpose is to provide a mechanism for accounts to lose their privileges if they are compromised (such as when a trusted device is misplaced). If the calling account had been revoked `role`, emits a {RoleRevoked} event. Requirements: - the caller must be `account`. May emit a {RoleRevoked} event."
      },
      "revokeRole(bytes32,address)": {
        "details": "Revokes `role` from `account`. If `account` had been granted `role`, emits a {RoleRevoked} event. Requirements: - the caller must have ``role``'s admin role. May emit a {RoleRevoked} event."
      },
      "safeTransferFrom(address,address,uint256)": {
        "details": "See {IERC721-safeTransferFrom}."
      },
      "safeTransferFrom(address,address,uint256,bytes)": {
        "details": "See {IERC721-safeTransferFrom}."
      },
      "setApprovalForAll(address,bool)": {
        "details": "See {IERC721-setApprovalForAll}."
      },
      "symbol()": {
        "details": "See {IERC721Metadata-symbol}."
      },
      "transferFrom(address,address,uint256)": {
        "details": "See {IERC721-transferFrom}."
      },
      "upgradeTo(address)": {
        "custom:oz-upgrades-unsafe-allow-reachable": "delegatecall",
        "details": "Upgrade the implementation of the proxy to `newImplementation`. Calls {_authorizeUpgrade}. Emits an {Upgraded} event."
      },
      "upgradeToAndCall(address,bytes)": {
        "custom:oz-upgrades-unsafe-allow-reachable": "delegatecall",
        "details": "Upgrade the implementation of the proxy to `newImplementation`, and subsequently execute the function call encoded in `data`. Calls {_authorizeUpgrade}. Emits an {Upgraded} event."
      }
    },
    "version": 1
  },
  "userdoc": {
    "kind": "user",
    "methods": {},
    "version": 1
  },
  "storageLayout": {
    "storage": [
      {
        "astId": 804,
        "contract": "src/CryptoPunksMosaicRegistry.sol:CryptoPunksMosaicRegistry",
        "label": "_initialized",
        "offset": 0,
        "slot": "0",
        "type": "t_uint8"
      },
      {
        "astId": 807,
        "contract": "src/CryptoPunksMosaicRegistry.sol:CryptoPunksMosaicRegistry",
        "label": "_initializing",
        "offset": 1,
        "slot": "0",
        "type": "t_bool"
      },
      {
        "astId": 4065,
        "contract": "src/CryptoPunksMosaicRegistry.sol:CryptoPunksMosaicRegistry",
        "label": "__gap",
        "offset": 0,
        "slot": "1",
        "type": "t_array(t_uint256)50_storage"
      },
      {
        "astId": 4448,
        "contract": "src/CryptoPunksMosaicRegistry.sol:CryptoPunksMosaicRegistry",
        "label": "__gap",
        "offset": 0,
        "slot": "51",
        "type": "t_array(t_uint256)50_storage"
      },
      {
        "astId": 2638,
        "contract": "src/CryptoPunksMosaicRegistry.sol:CryptoPunksMosaicRegistry",
        "label": "_name",
        "offset": 0,
        "slot": "101",
        "type": "t_string_storage"
      },
      {
        "astId": 2640,
        "contract": "src/CryptoPunksMosaicRegistry.sol:CryptoPunksMosaicRegistry",
        "label": "_symbol",
        "offset": 0,
        "slot": "102",
        "type": "t_string_storage"
      },
      {
        "astId": 2644,
        "contract": "src/CryptoPunksMosaicRegistry.sol:CryptoPunksMosaicRegistry",
        "label": "_owners",
        "offset": 0,
        "slot": "103",
        "type": "t_mapping(t_uint256,t_address)"
      },
      {
        "astId": 2648,
        "contract": "src/CryptoPunksMosaicRegistry.sol:CryptoPunksMosaicRegistry",
        "label": "_balances",
        "offset": 0,
        "slot": "104",
        "type": "t_mapping(t_address,t_uint256)"
      },
      {
        "astId": 2652,
        "contract": "src/CryptoPunksMosaicRegistry.sol:CryptoPunksMosaicRegistry",
        "label": "_tokenApprovals",
        "offset": 0,
        "slot": "105",
        "type": "t_mapping(t_uint256,t_address)"
      },
      {
        "astId": 2658,
        "contract": "src/CryptoPunksMosaicRegistry.sol:CryptoPunksMosaicRegistry",
        "label": "_operatorApprovals",
        "offset": 0,
        "slot": "106",
        "type": "t_mapping(t_address,t_mapping(t_address,t_bool))"
      },
      {
        "astId": 3578,
        "contract": "src/CryptoPunksMosaicRegistry.sol:CryptoPunksMosaicRegistry",
        "label": "__gap",
        "offset": 0,
        "slot": "107",
        "type": "t_array(t_uint256)44_storage"
      },
      {
        "astId": 786,
        "contract": "src/CryptoPunksMosaicRegistry.sol:CryptoPunksMosaicRegistry",
        "label": "__gap",
        "offset": 0,
        "slot": "151",
        "type": "t_array(t_uint256)50_storage"
      },
      {
        "astId": 1101,
        "contract": "src/CryptoPunksMosaicRegistry.sol:CryptoPunksMosaicRegistry",
        "label": "__gap",
        "offset": 0,
        "slot": "201",
        "type": "t_array(t_uint256)50_storage"
      },
      {
        "astId": 39,
        "contract": "src/CryptoPunksMosaicRegistry.sol:CryptoPunksMosaicRegistry",
        "label": "_roles",
        "offset": 0,
        "slot": "251",
        "type": "t_mapping(t_bytes32,t_struct(RoleData)34_storage)"
      },
      {
        "astId": 334,
        "contract": "src/CryptoPunksMosaicRegistry.sol:CryptoPunksMosaicRegistry",
        "label": "__gap",
        "offset": 0,
        "slot": "252",
        "type": "t_array(t_uint256)49_storage"
      },
      {
        "astId": 10346,
        "contract": "src/CryptoPunksMosaicRegistry.sol:CryptoPunksMosaicRegistry",
        "label": "museum",
        "offset": 0,
        "slot": "301",
        "type": "t_contract(CryptoPunksMuseum)12136"
      }
    ],
    "types": {
      "t_address": {
        "encoding": "inplace",
        "label": "address",
        "numberOfBytes": "20"
      },
      "t_array(t_uint256)44_storage": {
        "base": "t_uint256",
        "encoding": "inplace",
        "label": "uint256[44]",
        "numberOfBytes": "1408"
      },
      "t_array(t_uint256)49_storage": {
        "base": "t_uint256",
        "encoding": "inplace",
        "label": "uint256[49]",
        "numberOfBytes": "1568"
      },
      "t_array(t_uint256)50_storage": {
        "base": "t_uint256",
        "encoding": "inplace",
        "label": "uint256[50]",
        "numberOfBytes": "1600"
      },
      "t_bool": {
        "encoding": "inplace",
        "label": "bool",
        "numberOfBytes": "1"
      },
      "t_bytes32": {
        "encoding": "inplace",
        "label": "bytes32",
        "numberOfBytes": "32"
      },
      "t_contract(CryptoPunksMuseum)12136": {
        "encoding": "inplace",
        "label": "contract CryptoPunksMuseum",
        "numberOfBytes": "20"
      },
      "t_mapping(t_address,t_bool)": {
        "encoding": "mapping",
        "key": "t_address",
        "label": "mapping(address => bool)",
        "numberOfBytes": "32",
        "value": "t_bool"
      },
      "t_mapping(t_address,t_mapping(t_address,t_bool))": {
        "encoding": "mapping",
        "key": "t_address",
        "label": "mapping(address => mapping(address => bool))",
        "numberOfBytes": "32",
        "value": "t_mapping(t_address,t_bool)"
      },
      "t_mapping(t_address,t_uint256)": {
        "encoding": "mapping",
        "key": "t_address",
        "label": "mapping(address => uint256)",
        "numberOfBytes": "32",
        "value": "t_uint256"
      },
      "t_mapping(t_bytes32,t_struct(RoleData)34_storage)": {
        "encoding": "mapping",
        "key": "t_bytes32",
        "label": "mapping(bytes32 => struct AccessControlUpgradeable.RoleData)",
        "numberOfBytes": "32",
        "value": "t_struct(RoleData)34_storage"
      },
      "t_mapping(t_uint256,t_address)": {
        "encoding": "mapping",
        "key": "t_uint256",
        "label": "mapping(uint256 => address)",
        "numberOfBytes": "32",
        "value": "t_address"
      },
      "t_string_storage": {
        "encoding": "bytes",
        "label": "string",
        "numberOfBytes": "32"
      },
      "t_struct(RoleData)34_storage": {
        "encoding": "inplace",
        "label": "struct AccessControlUpgradeable.RoleData",
        "members": [
          {
            "astId": 31,
            "contract": "src/CryptoPunksMosaicRegistry.sol:CryptoPunksMosaicRegistry",
            "label": "members",
            "offset": 0,
            "slot": "0",
            "type": "t_mapping(t_address,t_bool)"
          },
          {
            "astId": 33,
            "contract": "src/CryptoPunksMosaicRegistry.sol:CryptoPunksMosaicRegistry",
            "label": "adminRole",
            "offset": 0,
            "slot": "1",
            "type": "t_bytes32"
          }
        ],
        "numberOfBytes": "64"
      },
      "t_uint256": {
        "encoding": "inplace",
        "label": "uint256",
        "numberOfBytes": "32"
      },
      "t_uint8": {
        "encoding": "inplace",
        "label": "uint8",
        "numberOfBytes": "1"
      }
    }
  }
}