{
  "address": "0x86cedcb6Fc9De54ada6Aece4b17B1C2f14C610e8",
  "abi": [
    {
      "inputs": [
        {
          "internalType": "address",
          "name": "museumAddress",
          "type": "address"
        }
      ],
      "stateMutability": "nonpayable",
      "type": "constructor"
    },
    {
      "anonymous": false,
      "inputs": [
        {
          "indexed": true,
          "internalType": "address",
          "name": "account",
          "type": "address"
        },
        {
          "indexed": true,
          "internalType": "address",
          "name": "operator",
          "type": "address"
        },
        {
          "indexed": false,
          "internalType": "bool",
          "name": "approved",
          "type": "bool"
        }
      ],
      "name": "ApprovalForAll",
      "type": "event"
    },
    {
      "anonymous": false,
      "inputs": [
        {
          "indexed": true,
          "internalType": "address",
          "name": "claimer",
          "type": "address"
        },
        {
          "indexed": true,
          "internalType": "uint192",
          "name": "groupId",
          "type": "uint192"
        },
        {
          "indexed": true,
          "internalType": "uint256",
          "name": "mosaicId",
          "type": "uint256"
        }
      ],
      "name": "Claimed",
      "type": "event"
    },
    {
      "anonymous": false,
      "inputs": [
        {
          "indexed": true,
          "internalType": "address",
          "name": "contributor",
          "type": "address"
        },
        {
          "indexed": true,
          "internalType": "uint192",
          "name": "groupId",
          "type": "uint192"
        },
        {
          "indexed": true,
          "internalType": "uint96",
          "name": "ticketQuantity",
          "type": "uint96"
        }
      ],
      "name": "Contributed",
      "type": "event"
    },
    {
      "anonymous": false,
      "inputs": [
        {
          "indexed": true,
          "internalType": "uint192",
          "name": "groupId",
          "type": "uint192"
        },
        {
          "indexed": true,
          "internalType": "address",
          "name": "creator",
          "type": "address"
        },
        {
          "indexed": false,
          "internalType": "uint256",
          "name": "targetMaxPrice",
          "type": "uint256"
        },
        {
          "indexed": false,
          "internalType": "uint64",
          "name": "totalTicketSupply",
          "type": "uint64"
        },
        {
          "indexed": false,
          "internalType": "uint256",
          "name": "unitTicketPrice",
          "type": "uint256"
        }
      ],
      "name": "GroupCreated",
      "type": "event"
    },
    {
      "anonymous": false,
      "inputs": [
        {
          "indexed": true,
          "internalType": "uint192",
          "name": "groupId",
          "type": "uint192"
        }
      ],
      "name": "GroupWon",
      "type": "event"
    },
    {
      "anonymous": false,
      "inputs": [
        {
          "indexed": true,
          "internalType": "bytes32",
          "name": "role",
          "type": "bytes32"
        },
        {
          "indexed": true,
          "internalType": "bytes32",
          "name": "previousAdminRole",
          "type": "bytes32"
        },
        {
          "indexed": true,
          "internalType": "bytes32",
          "name": "newAdminRole",
          "type": "bytes32"
        }
      ],
      "name": "RoleAdminChanged",
      "type": "event"
    },
    {
      "anonymous": false,
      "inputs": [
        {
          "indexed": true,
          "internalType": "bytes32",
          "name": "role",
          "type": "bytes32"
        },
        {
          "indexed": true,
          "internalType": "address",
          "name": "account",
          "type": "address"
        },
        {
          "indexed": true,
          "internalType": "address",
          "name": "sender",
          "type": "address"
        }
      ],
      "name": "RoleGranted",
      "type": "event"
    },
    {
      "anonymous": false,
      "inputs": [
        {
          "indexed": true,
          "internalType": "bytes32",
          "name": "role",
          "type": "bytes32"
        },
        {
          "indexed": true,
          "internalType": "address",
          "name": "account",
          "type": "address"
        },
        {
          "indexed": true,
          "internalType": "address",
          "name": "sender",
          "type": "address"
        }
      ],
      "name": "RoleRevoked",
      "type": "event"
    },
    {
      "anonymous": false,
      "inputs": [
        {
          "indexed": true,
          "internalType": "address",
          "name": "operator",
          "type": "address"
        },
        {
          "indexed": true,
          "internalType": "address",
          "name": "from",
          "type": "address"
        },
        {
          "indexed": true,
          "internalType": "address",
          "name": "to",
          "type": "address"
        },
        {
          "indexed": false,
          "internalType": "uint256[]",
          "name": "ids",
          "type": "uint256[]"
        },
        {
          "indexed": false,
          "internalType": "uint256[]",
          "name": "values",
          "type": "uint256[]"
        }
      ],
      "name": "TransferBatch",
      "type": "event"
    },
    {
      "anonymous": false,
      "inputs": [
        {
          "indexed": true,
          "internalType": "address",
          "name": "operator",
          "type": "address"
        },
        {
          "indexed": true,
          "internalType": "address",
          "name": "from",
          "type": "address"
        },
        {
          "indexed": true,
          "internalType": "address",
          "name": "to",
          "type": "address"
        },
        {
          "indexed": false,
          "internalType": "uint256",
          "name": "id",
          "type": "uint256"
        },
        {
          "indexed": false,
          "internalType": "uint256",
          "name": "value",
          "type": "uint256"
        }
      ],
      "name": "TransferSingle",
      "type": "event"
    },
    {
      "anonymous": false,
      "inputs": [
        {
          "indexed": false,
          "internalType": "string",
          "name": "value",
          "type": "string"
        },
        {
          "indexed": true,
          "internalType": "uint256",
          "name": "id",
          "type": "uint256"
        }
      ],
      "name": "URI",
      "type": "event"
    },
    {
      "inputs": [],
      "name": "CURATOR_ROLE",
      "outputs": [
        {
          "internalType": "bytes32",
          "name": "",
          "type": "bytes32"
        }
      ],
      "stateMutability": "view",
      "type": "function"
    },
    {
      "inputs": [],
      "name": "DEFAULT_ADMIN_ROLE",
      "outputs": [
        {
          "internalType": "bytes32",
          "name": "",
          "type": "bytes32"
        }
      ],
      "stateMutability": "view",
      "type": "function"
    },
    {
      "inputs": [],
      "name": "MAX_RESERVE_PRICE_BPS",
      "outputs": [
        {
          "internalType": "uint64",
          "name": "",
          "type": "uint64"
        }
      ],
      "stateMutability": "view",
      "type": "function"
    },
    {
      "inputs": [],
      "name": "MIN_RESERVE_PRICE_BPS",
      "outputs": [
        {
          "internalType": "uint64",
          "name": "",
          "type": "uint64"
        }
      ],
      "stateMutability": "view",
      "type": "function"
    },
    {
      "inputs": [],
      "name": "TICKET_SUPPLY_PER_GROUP",
      "outputs": [
        {
          "internalType": "uint64",
          "name": "",
          "type": "uint64"
        }
      ],
      "stateMutability": "view",
      "type": "function"
    },
    {
      "inputs": [
        {
          "internalType": "address",
          "name": "to",
          "type": "address"
        },
        {
          "internalType": "uint256[]",
          "name": "ids",
          "type": "uint256[]"
        },
        {
          "internalType": "uint256[]",
          "name": "amounts",
          "type": "uint256[]"
        }
      ],
      "name": "airdrop",
      "outputs": [],
      "stateMutability": "nonpayable",
      "type": "function"
    },
    {
      "inputs": [
        {
          "internalType": "address",
          "name": "account",
          "type": "address"
        },
        {
          "internalType": "uint256",
          "name": "id",
          "type": "uint256"
        }
      ],
      "name": "balanceOf",
      "outputs": [
        {
          "internalType": "uint256",
          "name": "",
          "type": "uint256"
        }
      ],
      "stateMutability": "view",
      "type": "function"
    },
    {
      "inputs": [
        {
          "internalType": "address[]",
          "name": "accounts",
          "type": "address[]"
        },
        {
          "internalType": "uint256[]",
          "name": "ids",
          "type": "uint256[]"
        }
      ],
      "name": "balanceOfBatch",
      "outputs": [
        {
          "internalType": "uint256[]",
          "name": "",
          "type": "uint256[]"
        }
      ],
      "stateMutability": "view",
      "type": "function"
    },
    {
      "inputs": [
        {
          "internalType": "uint192",
          "name": "groupId",
          "type": "uint192"
        }
      ],
      "name": "buy",
      "outputs": [],
      "stateMutability": "nonpayable",
      "type": "function"
    },
    {
      "inputs": [
        {
          "internalType": "uint256",
          "name": "purchasePrice",
          "type": "uint256"
        }
      ],
      "name": "calculateMaxReservePrice",
      "outputs": [
        {
          "internalType": "uint256",
          "name": "maxReservePrice",
          "type": "uint256"
        }
      ],
      "stateMutability": "pure",
      "type": "function"
    },
    {
      "inputs": [
        {
          "internalType": "uint256",
          "name": "purchasePrice",
          "type": "uint256"
        }
      ],
      "name": "calculateMinReservePrice",
      "outputs": [
        {
          "internalType": "uint256",
          "name": "minReservePrice",
          "type": "uint256"
        }
      ],
      "stateMutability": "pure",
      "type": "function"
    },
    {
      "inputs": [
        {
          "internalType": "uint192",
          "name": "groupId",
          "type": "uint192"
        }
      ],
      "name": "claim",
      "outputs": [
        {
          "internalType": "uint256[]",
          "name": "mosaicIds",
          "type": "uint256[]"
        }
      ],
      "stateMutability": "nonpayable",
      "type": "function"
    },
    {
      "inputs": [
        {
          "internalType": "uint192",
          "name": "groupId",
          "type": "uint192"
        },
        {
          "internalType": "uint64",
          "name": "ticketQuantity",
          "type": "uint64"
        }
      ],
      "name": "contribute",
      "outputs": [],
      "stateMutability": "payable",
      "type": "function"
    },
    {
      "inputs": [
        {
          "internalType": "uint256",
          "name": "targetPunkId",
          "type": "uint256"
        },
        {
          "internalType": "uint256",
          "name": "targetMaxPrice",
          "type": "uint256"
        }
      ],
      "name": "create",
      "outputs": [
        {
          "internalType": "uint192",
          "name": "groupId",
          "type": "uint192"
        }
      ],
      "stateMutability": "nonpayable",
      "type": "function"
    },
    {
      "inputs": [
        {
          "internalType": "uint192",
          "name": "groupId",
          "type": "uint192"
        }
      ],
      "name": "getGroup",
      "outputs": [
        {
          "components": [
            {
              "internalType": "uint192",
              "name": "id",
              "type": "uint192"
            },
            {
              "internalType": "address",
              "name": "creator",
              "type": "address"
            },
            {
              "internalType": "uint256",
              "name": "targetPunkId",
              "type": "uint256"
            },
            {
              "internalType": "uint256",
              "name": "targetMaxPrice",
              "type": "uint256"
            },
            {
              "internalType": "uint64",
              "name": "totalTicketSupply",
              "type": "uint64"
            },
            {
              "internalType": "uint256",
              "name": "unitTicketPrice",
              "type": "uint256"
            },
            {
              "internalType": "uint256",
              "name": "totalContribution",
              "type": "uint256"
            },
            {
              "internalType": "uint64",
              "name": "ticketsBought",
              "type": "uint64"
            },
            {
              "internalType": "uint40",
              "name": "expiresAt",
              "type": "uint40"
            },
            {
              "internalType": "enum UsingCryptoPunksGroupRegistryStructs.GroupStatus",
              "name": "status",
              "type": "uint8"
            },
            {
              "internalType": "uint256",
              "name": "purchasePrice",
              "type": "uint256"
            },
            {
              "internalType": "uint192",
              "name": "originalId",
              "type": "uint192"
            },
            {
              "internalType": "string",
              "name": "metadataUri",
              "type": "string"
            }
          ],
          "internalType": "struct UsingCryptoPunksGroupRegistryStructs.Group",
          "name": "",
          "type": "tuple"
        }
      ],
      "stateMutability": "view",
      "type": "function"
    },
    {
      "inputs": [
        {
          "internalType": "uint192",
          "name": "groupId",
          "type": "uint192"
        }
      ],
      "name": "getGroupLifeCycle",
      "outputs": [
        {
          "internalType": "enum UsingCryptoPunksGroupRegistryStructs.GroupLifeCycle",
          "name": "",
          "type": "uint8"
        }
      ],
      "stateMutability": "view",
      "type": "function"
    },
    {
      "inputs": [
        {
          "internalType": "uint192",
          "name": "groupId",
          "type": "uint192"
        }
      ],
      "name": "getGroupTotalContribution",
      "outputs": [
        {
          "internalType": "uint256",
          "name": "totalContribution",
          "type": "uint256"
        }
      ],
      "stateMutability": "view",
      "type": "function"
    },
    {
      "inputs": [
        {
          "internalType": "bytes32",
          "name": "role",
          "type": "bytes32"
        }
      ],
      "name": "getRoleAdmin",
      "outputs": [
        {
          "internalType": "bytes32",
          "name": "",
          "type": "bytes32"
        }
      ],
      "stateMutability": "view",
      "type": "function"
    },
    {
      "inputs": [
        {
          "internalType": "address",
          "name": "inquired",
          "type": "address"
        },
        {
          "internalType": "uint192",
          "name": "groupId",
          "type": "uint192"
        }
      ],
      "name": "getTickets",
      "outputs": [
        {
          "internalType": "uint256",
          "name": "",
          "type": "uint256"
        }
      ],
      "stateMutability": "view",
      "type": "function"
    },
    {
      "inputs": [
        {
          "internalType": "bytes32",
          "name": "role",
          "type": "bytes32"
        },
        {
          "internalType": "address",
          "name": "account",
          "type": "address"
        }
      ],
      "name": "grantRole",
      "outputs": [],
      "stateMutability": "nonpayable",
      "type": "function"
    },
    {
      "inputs": [
        {
          "internalType": "address",
          "name": "inquired",
          "type": "address"
        },
        {
          "internalType": "uint192",
          "name": "groupId",
          "type": "uint192"
        }
      ],
      "name": "hasContribution",
      "outputs": [
        {
          "internalType": "bool",
          "name": "",
          "type": "bool"
        }
      ],
      "stateMutability": "view",
      "type": "function"
    },
    {
      "inputs": [
        {
          "internalType": "bytes32",
          "name": "role",
          "type": "bytes32"
        },
        {
          "internalType": "address",
          "name": "account",
          "type": "address"
        }
      ],
      "name": "hasRole",
      "outputs": [
        {
          "internalType": "bool",
          "name": "",
          "type": "bool"
        }
      ],
      "stateMutability": "view",
      "type": "function"
    },
    {
      "inputs": [
        {
          "internalType": "address",
          "name": "account",
          "type": "address"
        },
        {
          "internalType": "address",
          "name": "operator",
          "type": "address"
        }
      ],
      "name": "isApprovedForAll",
      "outputs": [
        {
          "internalType": "bool",
          "name": "",
          "type": "bool"
        }
      ],
      "stateMutability": "view",
      "type": "function"
    },
    {
      "inputs": [
        {
          "internalType": "address",
          "name": "inquired",
          "type": "address"
        },
        {
          "internalType": "uint192",
          "name": "groupId",
          "type": "uint192"
        }
      ],
      "name": "isCreator",
      "outputs": [
        {
          "internalType": "bool",
          "name": "",
          "type": "bool"
        }
      ],
      "stateMutability": "view",
      "type": "function"
    },
    {
      "inputs": [],
      "name": "latestGroupId",
      "outputs": [
        {
          "internalType": "uint192",
          "name": "",
          "type": "uint192"
        }
      ],
      "stateMutability": "view",
      "type": "function"
    },
    {
      "inputs": [],
      "name": "museum",
      "outputs": [
        {
          "internalType": "contract CryptoPunksMuseum",
          "name": "",
          "type": "address"
        }
      ],
      "stateMutability": "view",
      "type": "function"
    },
    {
      "inputs": [
        {
          "internalType": "uint192",
          "name": "groupId",
          "type": "uint192"
        }
      ],
      "name": "refundExpired",
      "outputs": [],
      "stateMutability": "nonpayable",
      "type": "function"
    },
    {
      "inputs": [
        {
          "internalType": "bytes32",
          "name": "role",
          "type": "bytes32"
        },
        {
          "internalType": "address",
          "name": "account",
          "type": "address"
        }
      ],
      "name": "renounceRole",
      "outputs": [],
      "stateMutability": "nonpayable",
      "type": "function"
    },
    {
      "inputs": [
        {
          "internalType": "bytes32",
          "name": "role",
          "type": "bytes32"
        },
        {
          "internalType": "address",
          "name": "account",
          "type": "address"
        }
      ],
      "name": "revokeRole",
      "outputs": [],
      "stateMutability": "nonpayable",
      "type": "function"
    },
    {
      "inputs": [
        {
          "internalType": "address",
          "name": "from",
          "type": "address"
        },
        {
          "internalType": "address",
          "name": "to",
          "type": "address"
        },
        {
          "internalType": "uint256[]",
          "name": "ids",
          "type": "uint256[]"
        },
        {
          "internalType": "uint256[]",
          "name": "amounts",
          "type": "uint256[]"
        },
        {
          "internalType": "bytes",
          "name": "data",
          "type": "bytes"
        }
      ],
      "name": "safeBatchTransferFrom",
      "outputs": [],
      "stateMutability": "nonpayable",
      "type": "function"
    },
    {
      "inputs": [
        {
          "internalType": "address",
          "name": "from",
          "type": "address"
        },
        {
          "internalType": "address",
          "name": "to",
          "type": "address"
        },
        {
          "internalType": "uint256",
          "name": "id",
          "type": "uint256"
        },
        {
          "internalType": "uint256",
          "name": "amount",
          "type": "uint256"
        },
        {
          "internalType": "bytes",
          "name": "data",
          "type": "bytes"
        }
      ],
      "name": "safeTransferFrom",
      "outputs": [],
      "stateMutability": "nonpayable",
      "type": "function"
    },
    {
      "inputs": [
        {
          "internalType": "address",
          "name": "operator",
          "type": "address"
        },
        {
          "internalType": "bool",
          "name": "approved",
          "type": "bool"
        }
      ],
      "name": "setApprovalForAll",
      "outputs": [],
      "stateMutability": "nonpayable",
      "type": "function"
    },
    {
      "inputs": [
        {
          "internalType": "bytes4",
          "name": "interfaceId",
          "type": "bytes4"
        }
      ],
      "name": "supportsInterface",
      "outputs": [
        {
          "internalType": "bool",
          "name": "",
          "type": "bool"
        }
      ],
      "stateMutability": "view",
      "type": "function"
    },
    {
      "inputs": [
        {
          "internalType": "uint256",
          "name": "groupId",
          "type": "uint256"
        }
      ],
      "name": "uri",
      "outputs": [
        {
          "internalType": "string",
          "name": "",
          "type": "string"
        }
      ],
      "stateMutability": "view",
      "type": "function"
    }
  ],
  "transactionHash": "0x4326542ea666749da9d3d0da21c291b1bd8511c87810d5742bb5785758860e99",
  "args": [
    "0xb74a26889865E48cFa95dA4024b8aD087319d959"
  ],
  "numDeployments": 1,
  "solcInputHash": "b6bcd038630f18c266b259c7b1274b08",
  "bytecode": "0x60a06040523480156200001157600080fd5b50604051620044b4380380620044b483398101604081905262000034916200017a565b60408051808201909152601981527f43727970746f50756e6b73204d6f73616963205469636b65740000000000000060208201526200007381620000c4565b50600160045562000086600033620000d6565b620000b27f850d585eb7f024ccee5e68e55f2c26cc72e1e6ee456acf62135757a5eb9d4a1033620000d6565b6001600160a01b03166080526200031d565b6002620000d2828262000251565b5050565b60008281526003602090815260408083206001600160a01b038516845290915290205460ff16620000d25760008281526003602090815260408083206001600160a01b03851684529091529020805460ff19166001179055620001363390565b6001600160a01b0316816001600160a01b0316837f2f8788117e7eff1d82e926ec794901d17c78024a50270940304540a733656f0d60405160405180910390a45050565b6000602082840312156200018d57600080fd5b81516001600160a01b0381168114620001a557600080fd5b9392505050565b634e487b7160e01b600052604160045260246000fd5b600181811c90821680620001d757607f821691505b602082108103620001f857634e487b7160e01b600052602260045260246000fd5b50919050565b601f8211156200024c57600081815260208120601f850160051c81016020861015620002275750805b601f850160051c820191505b81811015620002485782815560010162000233565b5050505b505050565b81516001600160401b038111156200026d576200026d620001ac565b62000285816200027e8454620001c2565b84620001fe565b602080601f831160018114620002bd5760008415620002a45750858301515b600019600386901b1c1916600185901b17855562000248565b600085815260208120601f198616915b82811015620002ee57888601518255948401946001909101908401620002cd565b50858210156200030d5787850151600019600388901b60f8161c191681555b5050505050600190811b01905550565b60805161412062000394600039600081816104300152818161081d01528181610c4801528181610ee20152818161132a015281816118c301528181611c2101528181611cca01528181611e2a01528181611fe2015281816120ce0152818161220b0152818161229b015261238901526141206000f3fe6080604052600436106101f85760003560e01c806357ab7f8d1161010d578063b4ce873b116100a0578063d547741f1161006f578063d547741f14610673578063ddcef2b614610693578063e985e9c5146106a6578063f242432a146106ef578063f77e17591461070f57600080fd5b8063b4ce873b146105e6578063bafb0ebc14610606578063bdd99cdf14610626578063c02a209e1461064657600080fd5b80639f7b4579116100dc5780639f7b45791461057b578063a217fddf1461059b578063a22cb465146105b0578063aaad804b146105d057600080fd5b806357ab7f8d1461050557806391d1485414610525578063962fc1aa146105455780639bad761f1461056557600080fd5b8063248a9ca31161019057806344b955711161015f57806344b95571146103fe57806345e67a8c1461041e5780634a2cfb541461046a5780634e1273f41461049e57806353b92d09146104be57600080fd5b8063248a9ca31461036e5780632eb2c2d61461039e5780632f2ff15d146103be57806336568abe146103de57600080fd5b80630e89341c116101cc5780630e89341c146102ba57806319cd758f146102e75780632368a9541461031457806323b8b46d1461034157600080fd5b8062fdd58e146101fd57806301ffc9a71461023057806304d2c170146102605780630ac4573914610298575b600080fd5b34801561020957600080fd5b5061021d61021836600461333d565b61072f565b6040519081526020015b60405180910390f35b34801561023c57600080fd5b5061025061024b36600461337f565b6107c8565b6040519015158152602001610227565b34801561026c57600080fd5b50600554610280906001600160c01b031681565b6040516001600160c01b039091168152602001610227565b3480156102a457600080fd5b506102b86102b33660046133b1565b6107e2565b005b3480156102c657600080fd5b506102da6102d53660046133ce565b610a7b565b6040516102279190613437565b3480156102f357600080fd5b506103076103023660046133b1565b610b2d565b6040516102279190613460565b34801561032057600080fd5b5061033461032f3660046133b1565b610c0b565b60405161022791906134b5565b34801561034d57600080fd5b50610356606481565b6040516001600160401b039091168152602001610227565b34801561037a57600080fd5b5061021d6103893660046133ce565b60009081526003602052604090206001015490565b3480156103aa57600080fd5b506102b86103b9366004613611565b611065565b3480156103ca57600080fd5b506102b86103d93660046136be565b6110b1565b3480156103ea57600080fd5b506102b86103f93660046136be565b6110db565b34801561040a57600080fd5b506102506104193660046136ee565b611159565b34801561042a57600080fd5b506104527f000000000000000000000000000000000000000000000000000000000000000081565b6040516001600160a01b039091168152602001610227565b34801561047657600080fd5b5061021d7f850d585eb7f024ccee5e68e55f2c26cc72e1e6ee456acf62135757a5eb9d4a1081565b3480156104aa57600080fd5b506103346104b936600461371c565b61116e565b3480156104ca57600080fd5b506102506104d93660046136ee565b6001600160c01b03166000908152600660205260409020600101546001600160a01b0391821691161490565b34801561051157600080fd5b506102b86105203660046137e8565b611297565b34801561053157600080fd5b506102506105403660046136be565b6112c3565b34801561055157600080fd5b5061021d6105603660046133ce565b6112ee565b34801561057157600080fd5b50610356611b5881565b34801561058757600080fd5b5061028061059636600461385d565b6112fc565b3480156105a757600080fd5b5061021d600081565b3480156105bc57600080fd5b506102b86105cb36600461388d565b6115b3565b3480156105dc57600080fd5b5061035661c35081565b3480156105f257600080fd5b5061021d6106013660046136ee565b6115be565b34801561061257600080fd5b5061021d6106213660046133ce565b6115da565b34801561063257600080fd5b5061021d6106413660046133b1565b6115e8565b34801561065257600080fd5b506106666106613660046133b1565b61163d565b60405161022791906138cf565b34801561067f57600080fd5b506102b861068e3660046136be565b61186b565b6102b86106a13660046139de565b611890565b3480156106b257600080fd5b506102506106c1366004613a18565b6001600160a01b03918216600090815260016020908152604080832093909416825291909152205460ff1690565b3480156106fb57600080fd5b506102b861070a366004613a46565b611ba1565b34801561071b57600080fd5b506102b861072a3660046133b1565b611be6565b60006001600160a01b03831661079f5760405162461bcd60e51b815260206004820152602a60248201527f455243313135353a2061646472657373207a65726f206973206e6f742061207660448201526930b634b21037bbb732b960b11b60648201526084015b60405180910390fd5b506000818152602081815260408083206001600160a01b03861684529091529020545b92915050565b60006107d38261253e565b806107c257506107c28261258e565b6107ea6125b3565b60055481906001600160c01b03908116908216111561081b5760405162461bcd60e51b815260040161079690613aae565b7f00000000000000000000000000000000000000000000000000000000000000006001600160a01b03166322f3e2d46040518163ffffffff1660e01b8152600401602060405180830381865afa158015610879573d6000803e3d6000fd5b505050506040513d601f19601f8201168201806040525081019061089d9190613ad7565b6108b95760405162461bcd60e51b815260040161079690613af4565b6001600160c01b0382166000908152600660205260409020339060026108de85610b2d565b60038111156108ef576108ef61344a565b1461093c5760405162461bcd60e51b815260206004820152601960248201527f5468652067726f7570206d7573742062652065787069726564000000000000006044820152606401610796565b600061094833866115be565b9050600081116109a65760405162461bcd60e51b815260206004820152602360248201527f4f6e6c79207469636b657420686f6c646572732063616e2067657420726566756044820152626e647360e81b6064820152608401610796565b6109ba33866001600160c01b03168361260c565b6000816109c68461278d565b6109d09190613b39565b90506000846001600160a01b03168260405160006040518083038185875af1925050503d8060008114610a1f576040519150601f19603f3d011682016040523d82523d6000602084013e610a24565b606091505b5050905080610a685760405162461bcd60e51b815260206004820152601060248201526f11985a5b1959081d1bc81c99599d5b9960821b6044820152606401610796565b505050505050610a786001600455565b50565b6001600160c01b0381166000908152600660205260409020600a810180546060929190610aa790613b50565b80601f0160208091040260200160405190810160405280929190818152602001828054610ad390613b50565b8015610b205780601f10610af557610100808354040283529160200191610b20565b820191906000526020600020905b815481529060010190602001808311610b0357829003601f168201915b5050505050915050919050565b60055460009082906001600160c01b039081169082161115610b615760405162461bcd60e51b815260040161079690613aae565b6001600160c01b038316600090815260066020526040902060026007820154600160681b900460ff166002811115610b9b57610b9b61344a565b03610baa576003925050610c05565b60016007820154600160681b900460ff166002811115610bcc57610bcc61344a565b03610bff57600781015442600160401b90910464ffffffffff1610610bf5576001925050610c05565b6002925050610c05565b60009250505b50919050565b6060610c156125b3565b60055482906001600160c01b039081169082161115610c465760405162461bcd60e51b815260040161079690613aae565b7f00000000000000000000000000000000000000000000000000000000000000006001600160a01b03166322f3e2d46040518163ffffffff1660e01b8152600401602060405180830381865afa158015610ca4573d6000803e3d6000fd5b505050506040513d601f19601f82011682018060405250810190610cc89190613ad7565b610ce45760405162461bcd60e51b815260040161079690613af4565b6001600160c01b038316600090815260066020526040902060026007820154600160681b900460ff166002811115610d1e57610d1e61344a565b14610d6b5760405162461bcd60e51b815260206004820152601a60248201527f5468652067726f7570206973206e6f742066696e616c697a65640000000000006044820152606401610796565b6000610d7733866115be565b905060008111610dd55760405162461bcd60e51b8152602060048201526024808201527f4f6e6c79207469636b657420686f6c646572732063616e20636c61696d20746f6044820152636b656e7360e01b6064820152608401610796565b610de933866001600160c01b03168361260c565b600081610df58461278d565b610dff9190613b39565b604051909150600090339083908381818185875af1925050503d8060008114610e44576040519150601f19603f3d011682016040523d82523d6000602084013e610e49565b606091505b5050905080610e8d5760405162461bcd60e51b815260206004820152601060248201526f11985a5b1959081d1bc81c99599d5b9960821b6044820152606401610796565b6000836001600160401b03811115610ea757610ea76134c8565b604051908082528060200260200182016040528015610ed0578160200160208202803683370190505b50905060005b8481101561104e5760007f00000000000000000000000000000000000000000000000000000000000000006001600160a01b03166319e525826040518163ffffffff1660e01b8152600401602060405180830381865afa158015610f3e573d6000803e3d6000fd5b505050506040513d601f19601f82011682018060405250810190610f629190613b84565b6009880154604051630818bcb960e21b81523360048201526001600160c01b0390911660248201526001600160a01b039190911690632062f2e4906044016020604051808303816000875af1158015610fbf573d6000803e3d6000fd5b505050506040513d601f19601f82011682018060405250810190610fe39190613ba1565b905080838381518110610ff857610ff8613bba565b602090810291909101015260405181906001600160c01b038c169033907f4c1be2553fae8261d25ff0ad45198f755781d31ad84c58a526837480b4d7fece90600090a4508061104681613bd0565b915050610ed6565b50955050505050506110606001600455565b919050565b6001600160a01b038516331480611081575061108185336106c1565b61109d5760405162461bcd60e51b815260040161079690613be9565b6110aa85858585856127d7565b5050505050565b6000828152600360205260409020600101546110cc81612973565b6110d6838361297d565b505050565b6001600160a01b038116331461114b5760405162461bcd60e51b815260206004820152602f60248201527f416363657373436f6e74726f6c3a2063616e206f6e6c792072656e6f756e636560448201526e103937b632b9903337b91039b2b63360891b6064820152608401610796565b6111558282612a03565b5050565b60008061116684846115be565b119392505050565b606081518351146111d35760405162461bcd60e51b815260206004820152602960248201527f455243313135353a206163636f756e747320616e6420696473206c656e677468604482015268040dad2e6dac2e8c6d60bb1b6064820152608401610796565b600083516001600160401b038111156111ee576111ee6134c8565b604051908082528060200260200182016040528015611217578160200160208202803683370190505b50905060005b845181101561128f5761126285828151811061123b5761123b613bba565b602002602001015185838151811061125557611255613bba565b602002602001015161072f565b82828151811061127457611274613bba565b602090810291909101015261128881613bd0565b905061121d565b509392505050565b60006112a281612973565b6112bd84848460405180602001604052806000815250612a6a565b50505050565b60009182526003602090815260408084206001600160a01b0393909316845291905290205460ff1690565b60006107c28261c350612bb5565b60007f850d585eb7f024ccee5e68e55f2c26cc72e1e6ee456acf62135757a5eb9d4a1061132881612973565b7f00000000000000000000000000000000000000000000000000000000000000006001600160a01b03166322f3e2d46040518163ffffffff1660e01b8152600401602060405180830381865afa158015611386573d6000803e3d6000fd5b505050506040513d601f19601f820116820180604052508101906113aa9190613ad7565b6113c65760405162461bcd60e51b815260040161079690613af4565b60016005546113dd906001600160c01b0316610b2d565b60038111156113ee576113ee61344a565b036114325760405162461bcd60e51b81526020600482015260146024820152734f6e676f696e672067726f75702065786973747360601b6044820152606401610796565b6005805460009061144b906001600160c01b0316613c37565b82546001600160c01b039182166101009390930a92830291909202199091161790556064600061147b8286613c65565b600580546001600160c01b0316600081815260066020526040902080546001600160c01b03191690911781556001810180546001600160a01b0319163317905560028101899055600381018890556004810180546001600160401b03871667ffffffffffffffff1990911617905590810182905560078101805460ff60681b1916600160681b1790559091506115144262093a80613c87565b60078201805464ffffffffff92909216600160401b026cffffffffff000000000000000019909216919091179055600554604080518881526001600160401b038616602082015290810184905233916001600160c01b0316907f6c41f680bd5046e7b94552360a6d353c3d90e84424808396eb845cb2f0b059da9060600160405180910390a350506005546001600160c01b03169250505b5092915050565b611155338383612be6565b60006115d383836001600160c01b031661072f565b9392505050565b60006107c282611b58612bb5565b60055460009082906001600160c01b03908116908216111561161c5760405162461bcd60e51b815260040161079690613aae565b50506001600160c01b03166000908152600660208190526040909120015490565b6116a8604080516101a081018252600080825260208201819052918101829052606081018290526080810182905260a0810182905260c0810182905260e081018290526101008101829052906101208201908152600060208201819052604082015260609081015290565b60055482906001600160c01b0390811690821611156116d95760405162461bcd60e51b815260040161079690613aae565b6001600160c01b0383811660009081526006602081815260409283902083516101a0810185528154909516855260018101546001600160a01b031691850191909152600280820154938501939093526003810154606085015260048101546001600160401b039081166080860152600582015460a08601529181015460c0850152600781015491821660e0850152600160401b820464ffffffffff1661010085015291610120840191600160681b900460ff169081111561179c5761179c61344a565b60028111156117ad576117ad61344a565b81526008820154602082015260098201546001600160c01b03166040820152600a820180546060909201916117e190613b50565b80601f016020809104026020016040519081016040528092919081815260200182805461180d90613b50565b801561185a5780601f1061182f5761010080835404028352916020019161185a565b820191906000526020600020905b81548152906001019060200180831161183d57829003601f168201915b505050505081525050915050919050565b60008281526003602052604090206001015461188681612973565b6110d68383612a03565b60055482906001600160c01b0390811690821611156118c15760405162461bcd60e51b815260040161079690613aae565b7f00000000000000000000000000000000000000000000000000000000000000006001600160a01b03166322f3e2d46040518163ffffffff1660e01b8152600401602060405180830381865afa15801561191f573d6000803e3d6000fd5b505050506040513d601f19601f820116820180604052508101906119439190613ad7565b61195f5760405162461bcd60e51b815260040161079690613af4565b6001600160c01b03831660009081526006602052604081206007810154600482015491929161199a916001600160401b039081169116613c9a565b6001600160401b0316905080846001600160401b03161115611a0d5760405162461bcd60e51b815260206004820152602660248201527f4665776572207469636b6574732072656d61696e696e67207468616e207265716044820152651d595cdd195960d21b6064820152608401610796565b60058201543490600090611a2b906001600160401b03881690613b39565b9050808214611a7c5760405162461bcd60e51b815260206004820152601a60248201527f436f6e747269627574696f6e206d7573742062652065786163740000000000006044820152606401610796565b600033905082856006016000828254611a959190613c87565b9091555050600785018054889190600090611aba9084906001600160401b0316613cba565b82546101009290920a6001600160401b038181021990931691831602179091556001600160c01b038a1660009081526007602090815260408083206001600160a01b038716845290915281208054928b16935091611b19908490613c87565b92505081905550611b4d81896001600160c01b0316896001600160401b031660405180602001604052806000815250612cc6565b866001600160401b0316886001600160c01b0316826001600160a01b03167fe666172e6168732cfedfefcdfc03bf3faf2588416f76c21085a3d731dfa9c8a160405160405180910390a45050505050505050565b6001600160a01b038516331480611bbd5750611bbd85336106c1565b611bd95760405162461bcd60e51b815260040161079690613be9565b6110aa8585858585612d97565b611bee6125b3565b60055481906001600160c01b039081169082161115611c1f5760405162461bcd60e51b815260040161079690613aae565b7f00000000000000000000000000000000000000000000000000000000000000006001600160a01b03166322f3e2d46040518163ffffffff1660e01b8152600401602060405180830381865afa158015611c7d573d6000803e3d6000fd5b505050506040513d601f19601f82011682018060405250810190611ca19190613ad7565b611cbd5760405162461bcd60e51b815260040161079690613af4565b60006001600160a01b03167f00000000000000000000000000000000000000000000000000000000000000006001600160a01b03166319e525826040518163ffffffff1660e01b8152600401602060405180830381865afa158015611d26573d6000803e3d6000fd5b505050506040513d601f19601f82011682018060405250810190611d4a9190613b84565b6001600160a01b031603611da05760405162461bcd60e51b815260206004820152601c60248201527f45786869626974207265676973747279206d75737420626520736574000000006044820152606401610796565b6001600160c01b0382166000908152600660205260409020611dc23384611159565b611e1d5760405162461bcd60e51b815260206004820152602660248201527f4f6e6c79207469636b657420686f6c646572732063616e20696e69746961746560448201526520612062757960d01b6064820152608401610796565b60008160020154905060007f00000000000000000000000000000000000000000000000000000000000000006001600160a01b031663d0d851d06040518163ffffffff1660e01b8152600401602060405180830381865afa158015611e86573d6000803e3d6000fd5b505050506040513d601f19601f82011682018060405250810190611eaa9190613b84565b6001600160a01b031663088f11f3836040518263ffffffff1660e01b8152600401611ed791815260200190565b60a060405180830381865afa158015611ef4573d6000803e3d6000fd5b505050506040513d601f19601f82011682018060405250810190611f189190613cda565b5060078701549094506001600160401b03166064149250611f6d9150505760405162461bcd60e51b815260206004820152600c60248201526b139bdd081cdbdb19081bdd5d60a21b6044820152606401610796565b8083600601541015611fe05760405162461bcd60e51b815260206004820152603660248201527f4f6666657265642070726963652069732067726561746572207468616e207468604482015275329031bab93932b73a1031b7b73a3934b13aba34b7b760511b6064820152608401610796565b7f00000000000000000000000000000000000000000000000000000000000000006001600160a01b031663d0d851d06040518163ffffffff1660e01b8152600401602060405180830381865afa15801561203e573d6000803e3d6000fd5b505050506040513d601f19601f820116820180604052508101906120629190613b84565b6001600160a01b0316638264fe9882846040518363ffffffff1660e01b815260040161209091815260200190565b6000604051808303818588803b1580156120a957600080fd5b505af11580156120bd573d6000803e3d6000fd5b5050505050306001600160a01b03167f00000000000000000000000000000000000000000000000000000000000000006001600160a01b031663d0d851d06040518163ffffffff1660e01b8152600401602060405180830381865afa15801561212a573d6000803e3d6000fd5b505050506040513d601f19601f8201168201806040525081019061214e9190613b84565b6001600160a01b03166358178168846040518263ffffffff1660e01b815260040161217b91815260200190565b602060405180830381865afa158015612198573d6000803e3d6000fd5b505050506040513d601f19601f820116820180604052508101906121bc9190613b84565b6001600160a01b0316146122095760405162461bcd60e51b81526020600482015260146024820152730556e6578706563746564206f776e6572736869760641b6044820152606401610796565b7f00000000000000000000000000000000000000000000000000000000000000006001600160a01b031663d0d851d06040518163ffffffff1660e01b8152600401602060405180830381865afa158015612267573d6000803e3d6000fd5b505050506040513d601f19601f8201168201806040525081019061228b9190613b84565b6001600160a01b0316638b72a2ec7f00000000000000000000000000000000000000000000000000000000000000006001600160a01b03166319e525826040518163ffffffff1660e01b8152600401602060405180830381865afa1580156122f7573d6000803e3d6000fd5b505050506040513d601f19601f8201168201806040525081019061231b9190613b84565b60028601546040516001600160e01b031960e085901b1681526001600160a01b0390921660048301526024820152604401600060405180830381600087803b15801561236657600080fd5b505af115801561237a573d6000803e3d6000fd5b505050508083600801819055507f00000000000000000000000000000000000000000000000000000000000000006001600160a01b03166319e525826040518163ffffffff1660e01b8152600401602060405180830381865afa1580156123e5573d6000803e3d6000fd5b505050506040513d601f19601f820116820180604052508101906124099190613b84565b6002840154600785015460088601546001600160a01b03939093169263512137ed92916001600160401b03169061243f816115da565b61244c89600801546112ee565b6040516001600160e01b031960e088901b16815260048101959095526001600160401b03909316602485015260448401919091526064830152608482015260a4016020604051808303816000875af11580156124ac573d6000803e3d6000fd5b505050506040513d601f19601f820116820180604052508101906124d09190613d3b565b6009840180546001600160c01b0319166001600160c01b0392831617905560078401805460ff60681b1916600160691b179055604051908616907fa55364f4cf304b1309b80ba955214c6192d2c9ba9fc0aa3c4b3bc0f11c941d7290600090a250505050610a786001600455565b60006001600160e01b03198216636cdb3d1360e11b148061256f57506001600160e01b031982166303a24d0760e21b145b806107c257506301ffc9a760e01b6001600160e01b03198316146107c2565b60006001600160e01b03198216637965db0b60e01b14806107c257506107c28261253e565b6002600454036126055760405162461bcd60e51b815260206004820152601f60248201527f5265656e7472616e637947756172643a207265656e7472616e742063616c6c006044820152606401610796565b6002600455565b6001600160a01b03831661266e5760405162461bcd60e51b815260206004820152602360248201527f455243313135353a206275726e2066726f6d20746865207a65726f206164647260448201526265737360e81b6064820152608401610796565b33600061267a84612ec1565b9050600061268784612ec1565b60408051602080820183526000918290528882528181528282206001600160a01b038b16835290522054909150848110156127105760405162461bcd60e51b8152602060048201526024808201527f455243313135353a206275726e20616d6f756e7420657863656564732062616c604482015263616e636560e01b6064820152608401610796565b6000868152602081815260408083206001600160a01b038b81168086529184528285208a8703905582518b81529384018a90529092908816917fc3d58168c5ae7397731d063d5bbf3d657854427343f4c083240f7aacaa2d0f62910160405180910390a46040805160208101909152600090525b50505050505050565b600081600801548260060154116127a657506000919050565b6000826008015483600601546127bc9190613d58565b60078401549091506115d3906001600160401b031682613c65565b81518351146127f85760405162461bcd60e51b815260040161079690613d6b565b6001600160a01b03841661281e5760405162461bcd60e51b815260040161079690613db3565b3360005b845181101561290557600085828151811061283f5761283f613bba565b60200260200101519050600085838151811061285d5761285d613bba565b602090810291909101810151600084815280835260408082206001600160a01b038e1683529093529190912054909150818110156128ad5760405162461bcd60e51b815260040161079690613df8565b6000838152602081815260408083206001600160a01b038e8116855292528083208585039055908b168252812080548492906128ea908490613c87565b92505081905550505050806128fe90613bd0565b9050612822565b50846001600160a01b0316866001600160a01b0316826001600160a01b03167f4a39dc06d4c0dbc64b70af90fd698a233a518aa5d07e595d983b8c0526c8f7fb8787604051612955929190613e42565b60405180910390a461296b818787878787612f0c565b505050505050565b610a788133613067565b61298782826112c3565b6111555760008281526003602090815260408083206001600160a01b03851684529091529020805460ff191660011790556129bf3390565b6001600160a01b0316816001600160a01b0316837f2f8788117e7eff1d82e926ec794901d17c78024a50270940304540a733656f0d60405160405180910390a45050565b612a0d82826112c3565b156111555760008281526003602090815260408083206001600160a01b0385168085529252808320805460ff1916905551339285917ff6391f5c32d9c69d2a47ea670b442974b53935d1edc7fd64eb21e047a839171b9190a45050565b6001600160a01b038416612a905760405162461bcd60e51b815260040161079690613e70565b8151835114612ab15760405162461bcd60e51b815260040161079690613d6b565b3360005b8451811015612b4d57838181518110612ad057612ad0613bba565b6020026020010151600080878481518110612aed57612aed613bba565b602002602001015181526020019081526020016000206000886001600160a01b03166001600160a01b031681526020019081526020016000206000828254612b359190613c87565b90915550819050612b4581613bd0565b915050612ab5565b50846001600160a01b031660006001600160a01b0316826001600160a01b03167f4a39dc06d4c0dbc64b70af90fd698a233a518aa5d07e595d983b8c0526c8f7fb8787604051612b9e929190613e42565b60405180910390a46110aa81600087878787612f0c565b6000612710612bc48385613b39565b1015612bcf57600080fd5b612710612bdc8385613b39565b6115d39190613c65565b816001600160a01b0316836001600160a01b031603612c595760405162461bcd60e51b815260206004820152602960248201527f455243313135353a2073657474696e6720617070726f76616c20737461747573604482015268103337b91039b2b63360b91b6064820152608401610796565b6001600160a01b03838116600081815260016020908152604080832094871680845294825291829020805460ff191686151590811790915591519182527f17307eab39ab6107e8899845ad3d59bd9653f200f220920489ca2b5937696c31910160405180910390a3505050565b6001600160a01b038416612cec5760405162461bcd60e51b815260040161079690613e70565b336000612cf885612ec1565b90506000612d0585612ec1565b90506000868152602081815260408083206001600160a01b038b16845290915281208054879290612d37908490613c87565b909155505060408051878152602081018790526001600160a01b03808a1692600092918716917fc3d58168c5ae7397731d063d5bbf3d657854427343f4c083240f7aacaa2d0f62910160405180910390a4612784836000898989896130c0565b6001600160a01b038416612dbd5760405162461bcd60e51b815260040161079690613db3565b336000612dc985612ec1565b90506000612dd685612ec1565b90506000868152602081815260408083206001600160a01b038c16845290915290205485811015612e195760405162461bcd60e51b815260040161079690613df8565b6000878152602081815260408083206001600160a01b038d8116855292528083208985039055908a16825281208054889290612e56908490613c87565b909155505060408051888152602081018890526001600160a01b03808b16928c821692918816917fc3d58168c5ae7397731d063d5bbf3d657854427343f4c083240f7aacaa2d0f62910160405180910390a4612eb6848a8a8a8a8a6130c0565b505050505050505050565b60408051600180825281830190925260609160009190602080830190803683370190505090508281600081518110612efb57612efb613bba565b602090810291909101015292915050565b6001600160a01b0384163b1561296b5760405163bc197c8160e01b81526001600160a01b0385169063bc197c8190612f509089908990889088908890600401613eb1565b6020604051808303816000875af1925050508015612f8b575060408051601f3d908101601f19168201909252612f8891810190613f0f565b60015b61303757612f97613f2c565b806308c379a003612fd05750612fab613f48565b80612fb65750612fd2565b8060405162461bcd60e51b81526004016107969190613437565b505b60405162461bcd60e51b815260206004820152603460248201527f455243313135353a207472616e7366657220746f206e6f6e2d455243313135356044820152732932b1b2b4bb32b91034b6b83632b6b2b73a32b960611b6064820152608401610796565b6001600160e01b0319811663bc197c8160e01b146127845760405162461bcd60e51b815260040161079690613fd1565b61307182826112c3565b6111555761307e8161317b565b61308983602061318d565b60405160200161309a929190614019565b60408051601f198184030181529082905262461bcd60e51b825261079691600401613437565b6001600160a01b0384163b1561296b5760405163f23a6e6160e01b81526001600160a01b0385169063f23a6e6190613104908990899088908890889060040161408e565b6020604051808303816000875af192505050801561313f575060408051601f3d908101601f1916820190925261313c91810190613f0f565b60015b61314b57612f97613f2c565b6001600160e01b0319811663f23a6e6160e01b146127845760405162461bcd60e51b815260040161079690613fd1565b60606107c26001600160a01b03831660145b6060600061319c836002613b39565b6131a7906002613c87565b6001600160401b038111156131be576131be6134c8565b6040519080825280601f01601f1916602001820160405280156131e8576020820181803683370190505b509050600360fc1b8160008151811061320357613203613bba565b60200101906001600160f81b031916908160001a905350600f60fb1b8160018151811061323257613232613bba565b60200101906001600160f81b031916908160001a9053506000613256846002613b39565b613261906001613c87565b90505b60018111156132d9576f181899199a1a9b1b9c1cb0b131b232b360811b85600f166010811061329557613295613bba565b1a60f81b8282815181106132ab576132ab613bba565b60200101906001600160f81b031916908160001a90535060049490941c936132d2816140d3565b9050613264565b5083156115d35760405162461bcd60e51b815260206004820181905260248201527f537472696e67733a20686578206c656e67746820696e73756666696369656e746044820152606401610796565b6001600160a01b0381168114610a7857600080fd5b6000806040838503121561335057600080fd5b823561335b81613328565b946020939093013593505050565b6001600160e01b031981168114610a7857600080fd5b60006020828403121561339157600080fd5b81356115d381613369565b6001600160c01b0381168114610a7857600080fd5b6000602082840312156133c357600080fd5b81356115d38161339c565b6000602082840312156133e057600080fd5b5035919050565b60005b838110156134025781810151838201526020016133ea565b50506000910152565b600081518084526134238160208601602086016133e7565b601f01601f19169290920160200192915050565b6020815260006115d3602083018461340b565b634e487b7160e01b600052602160045260246000fd5b60208101600483106134745761347461344a565b91905290565b600081518084526020808501945080840160005b838110156134aa5781518752958201959082019060010161348e565b509495945050505050565b6020815260006115d3602083018461347a565b634e487b7160e01b600052604160045260246000fd5b601f8201601f191681016001600160401b0381118282101715613503576135036134c8565b6040525050565b60006001600160401b03821115613523576135236134c8565b5060051b60200190565b600082601f83011261353e57600080fd5b8135602061354b8261350a565b60405161355882826134de565b83815260059390931b850182019282810191508684111561357857600080fd5b8286015b84811015613593578035835291830191830161357c565b509695505050505050565b600082601f8301126135af57600080fd5b81356001600160401b038111156135c8576135c86134c8565b6040516135df601f8301601f1916602001826134de565b8181528460208386010111156135f457600080fd5b816020850160208301376000918101602001919091529392505050565b600080600080600060a0868803121561362957600080fd5b853561363481613328565b9450602086013561364481613328565b935060408601356001600160401b038082111561366057600080fd5b61366c89838a0161352d565b9450606088013591508082111561368257600080fd5b61368e89838a0161352d565b935060808801359150808211156136a457600080fd5b506136b18882890161359e565b9150509295509295909350565b600080604083850312156136d157600080fd5b8235915060208301356136e381613328565b809150509250929050565b6000806040838503121561370157600080fd5b823561370c81613328565b915060208301356136e38161339c565b6000806040838503121561372f57600080fd5b82356001600160401b038082111561374657600080fd5b818501915085601f83011261375a57600080fd5b813560206137678261350a565b60405161377482826134de565b83815260059390931b850182019282810191508984111561379457600080fd5b948201945b838610156137bb5785356137ac81613328565b82529482019490820190613799565b965050860135925050808211156137d157600080fd5b506137de8582860161352d565b9150509250929050565b6000806000606084860312156137fd57600080fd5b833561380881613328565b925060208401356001600160401b038082111561382457600080fd5b6138308783880161352d565b9350604086013591508082111561384657600080fd5b506138538682870161352d565b9150509250925092565b6000806040838503121561387057600080fd5b50508035926020909101359150565b8015158114610a7857600080fd5b600080604083850312156138a057600080fd5b82356138ab81613328565b915060208301356136e38161387f565b600381106138cb576138cb61344a565b9052565b602081526138e96020820183516001600160c01b03169052565b6000602083015161390560408401826001600160a01b03169052565b506040830151606083015260608301516080830152608083015161393460a08401826001600160401b03169052565b5060a083015160c083015260c083015160e083015260e0830151610100613965818501836001600160401b03169052565b840151905061012061397f8482018364ffffffffff169052565b8401519050610140613993848201836138bb565b8401516101608481019190915284015190506101806139bc818501836001600160c01b03169052565b8401516101a08481015290506139d66101c084018261340b565b949350505050565b600080604083850312156139f157600080fd5b82356139fc8161339c565b915060208301356001600160401b03811681146136e357600080fd5b60008060408385031215613a2b57600080fd5b8235613a3681613328565b915060208301356136e381613328565b600080600080600060a08688031215613a5e57600080fd5b8535613a6981613328565b94506020860135613a7981613328565b9350604086013592506060860135915060808601356001600160401b03811115613aa257600080fd5b6136b18882890161359e565b6020808252600f908201526e125b9d985b1a590819dc9bdd5c1259608a1b604082015260600190565b600060208284031215613ae957600080fd5b81516115d38161387f565b6020808252601590820152744d757365756d206d7573742062652061637469766560581b604082015260600190565b634e487b7160e01b600052601160045260246000fd5b80820281158282048414176107c2576107c2613b23565b600181811c90821680613b6457607f821691505b602082108103610c0557634e487b7160e01b600052602260045260246000fd5b600060208284031215613b9657600080fd5b81516115d381613328565b600060208284031215613bb357600080fd5b5051919050565b634e487b7160e01b600052603260045260246000fd5b600060018201613be257613be2613b23565b5060010190565b6020808252602e908201527f455243313135353a2063616c6c6572206973206e6f7420746f6b656e206f776e60408201526d195c881bdc88185c1c1c9bdd995960921b606082015260800190565b60006001600160c01b038281166002600160c01b03198101613c5b57613c5b613b23565b6001019392505050565b600082613c8257634e487b7160e01b600052601260045260246000fd5b500490565b808201808211156107c2576107c2613b23565b6001600160401b038281168282160390808211156115ac576115ac613b23565b6001600160401b038181168382160190808211156115ac576115ac613b23565b600080600080600060a08688031215613cf257600080fd5b8551613cfd8161387f565b602087015160408801519196509450613d1581613328565b606087015160808801519194509250613d2d81613328565b809150509295509295909350565b600060208284031215613d4d57600080fd5b81516115d38161339c565b818103818111156107c2576107c2613b23565b60208082526028908201527f455243313135353a2069647320616e6420616d6f756e7473206c656e677468206040820152670dad2e6dac2e8c6d60c31b606082015260800190565b60208082526025908201527f455243313135353a207472616e7366657220746f20746865207a65726f206164604082015264647265737360d81b606082015260800190565b6020808252602a908201527f455243313135353a20696e73756666696369656e742062616c616e636520666f60408201526939103a3930b739b332b960b11b606082015260800190565b604081526000613e55604083018561347a565b8281036020840152613e67818561347a565b95945050505050565b60208082526021908201527f455243313135353a206d696e7420746f20746865207a65726f206164647265736040820152607360f81b606082015260800190565b6001600160a01b0386811682528516602082015260a060408201819052600090613edd9083018661347a565b8281036060840152613eef818661347a565b90508281036080840152613f03818561340b565b98975050505050505050565b600060208284031215613f2157600080fd5b81516115d381613369565b600060033d1115613f455760046000803e5060005160e01c5b90565b600060443d1015613f565790565b6040516003193d81016004833e81513d6001600160401b038160248401118184111715613f8557505050505090565b8285019150815181811115613f9d5750505050505090565b843d8701016020828501011115613fb75750505050505090565b613fc6602082860101876134de565b509095945050505050565b60208082526028908201527f455243313135353a204552433131353552656365697665722072656a656374656040820152676420746f6b656e7360c01b606082015260800190565b7f416363657373436f6e74726f6c3a206163636f756e74200000000000000000008152600083516140518160178501602088016133e7565b7001034b99036b4b9b9b4b733903937b6329607d1b60179184019182015283516140828160288401602088016133e7565b01602801949350505050565b6001600160a01b03868116825285166020820152604081018490526060810183905260a0608082018190526000906140c89083018461340b565b979650505050505050565b6000816140e2576140e2613b23565b50600019019056fea2646970667358221220a33c423366e1078dc6e46294803e0e1d5529837dec6a50be6cfc3e8e14ccf55d64736f6c63430008110033",
  "devdoc": {
    "kind": "dev",
    "methods": {
      "balanceOf(address,uint256)": {
        "details": "See {IERC1155-balanceOf}. Requirements: - `account` cannot be the zero address."
      },
      "balanceOfBatch(address[],uint256[])": {
        "details": "See {IERC1155-balanceOfBatch}. Requirements: - `accounts` and `ids` must have the same length."
      },
      "buy(uint192)": {
        "details": "Can be tried as long as the group is OPEN"
      },
      "getRoleAdmin(bytes32)": {
        "details": "Returns the admin role that controls `role`. See {grantRole} and {revokeRole}. To change a role's admin, use {_setRoleAdmin}."
      },
      "grantRole(bytes32,address)": {
        "details": "Grants `role` to `account`. If `account` had not been already granted `role`, emits a {RoleGranted} event. Requirements: - the caller must have ``role``'s admin role. May emit a {RoleGranted} event."
      },
      "hasRole(bytes32,address)": {
        "details": "Returns `true` if `account` has been granted `role`."
      },
      "isApprovedForAll(address,address)": {
        "details": "See {IERC1155-isApprovedForAll}."
      },
      "renounceRole(bytes32,address)": {
        "details": "Revokes `role` from the calling account. Roles are often managed via {grantRole} and {revokeRole}: this function's purpose is to provide a mechanism for accounts to lose their privileges if they are compromised (such as when a trusted device is misplaced). If the calling account had been revoked `role`, emits a {RoleRevoked} event. Requirements: - the caller must be `account`. May emit a {RoleRevoked} event."
      },
      "revokeRole(bytes32,address)": {
        "details": "Revokes `role` from `account`. If `account` had been granted `role`, emits a {RoleRevoked} event. Requirements: - the caller must have ``role``'s admin role. May emit a {RoleRevoked} event."
      },
      "safeBatchTransferFrom(address,address,uint256[],uint256[],bytes)": {
        "details": "See {IERC1155-safeBatchTransferFrom}."
      },
      "safeTransferFrom(address,address,uint256,uint256,bytes)": {
        "details": "See {IERC1155-safeTransferFrom}."
      },
      "setApprovalForAll(address,bool)": {
        "details": "See {IERC1155-setApprovalForAll}."
      }
    },
    "stateVariables": {
      "CURATOR_ROLE": {
        "details": "can create and curate the active group"
      },
      "latestGroupId": {
        "details": "Starts from 1.  Must increment this first when creating a new group."
      },
      "refundableTickets": {
        "details": "groupId -> address -> shares (= the number of tickets bought)"
      }
    },
    "version": 1
  },
  "userdoc": {
    "kind": "user",
    "methods": {
      "MIN_RESERVE_PRICE_BPS()": {
        "notice": "Arithmetic constants"
      },
      "TICKET_SUPPLY_PER_GROUP()": {
        "notice": "Business logic constants"
      }
    },
    "version": 1
  },
  "storageLayout": {
    "storage": [
      {
        "astId": 468,
        "contract": "src/CryptoPunksGroupRegistry.sol:CryptoPunksGroupRegistry",
        "label": "_balances",
        "offset": 0,
        "slot": "0",
        "type": "t_mapping(t_uint256,t_mapping(t_address,t_uint256))"
      },
      {
        "astId": 474,
        "contract": "src/CryptoPunksGroupRegistry.sol:CryptoPunksGroupRegistry",
        "label": "_operatorApprovals",
        "offset": 0,
        "slot": "1",
        "type": "t_mapping(t_address,t_mapping(t_address,t_bool))"
      },
      {
        "astId": 476,
        "contract": "src/CryptoPunksGroupRegistry.sol:CryptoPunksGroupRegistry",
        "label": "_uri",
        "offset": 0,
        "slot": "2",
        "type": "t_string_storage"
      },
      {
        "astId": 24,
        "contract": "src/CryptoPunksGroupRegistry.sol:CryptoPunksGroupRegistry",
        "label": "_roles",
        "offset": 0,
        "slot": "3",
        "type": "t_mapping(t_bytes32,t_struct(RoleData)19_storage)"
      },
      {
        "astId": 399,
        "contract": "src/CryptoPunksGroupRegistry.sol:CryptoPunksGroupRegistry",
        "label": "_status",
        "offset": 0,
        "slot": "4",
        "type": "t_uint256"
      },
      {
        "astId": 5966,
        "contract": "src/CryptoPunksGroupRegistry.sol:CryptoPunksGroupRegistry",
        "label": "latestGroupId",
        "offset": 0,
        "slot": "5",
        "type": "t_uint192"
      },
      {
        "astId": 5971,
        "contract": "src/CryptoPunksGroupRegistry.sol:CryptoPunksGroupRegistry",
        "label": "groups",
        "offset": 0,
        "slot": "6",
        "type": "t_mapping(t_uint192,t_struct(Group)8484_storage)"
      },
      {
        "astId": 5978,
        "contract": "src/CryptoPunksGroupRegistry.sol:CryptoPunksGroupRegistry",
        "label": "refundableTickets",
        "offset": 0,
        "slot": "7",
        "type": "t_mapping(t_uint192,t_mapping(t_address,t_uint256))"
      }
    ],
    "types": {
      "t_address": {
        "encoding": "inplace",
        "label": "address",
        "numberOfBytes": "20"
      },
      "t_bool": {
        "encoding": "inplace",
        "label": "bool",
        "numberOfBytes": "1"
      },
      "t_bytes32": {
        "encoding": "inplace",
        "label": "bytes32",
        "numberOfBytes": "32"
      },
      "t_enum(GroupStatus)8451": {
        "encoding": "inplace",
        "label": "enum UsingCryptoPunksGroupRegistryStructs.GroupStatus",
        "numberOfBytes": "1"
      },
      "t_mapping(t_address,t_bool)": {
        "encoding": "mapping",
        "key": "t_address",
        "label": "mapping(address => bool)",
        "numberOfBytes": "32",
        "value": "t_bool"
      },
      "t_mapping(t_address,t_mapping(t_address,t_bool))": {
        "encoding": "mapping",
        "key": "t_address",
        "label": "mapping(address => mapping(address => bool))",
        "numberOfBytes": "32",
        "value": "t_mapping(t_address,t_bool)"
      },
      "t_mapping(t_address,t_uint256)": {
        "encoding": "mapping",
        "key": "t_address",
        "label": "mapping(address => uint256)",
        "numberOfBytes": "32",
        "value": "t_uint256"
      },
      "t_mapping(t_bytes32,t_struct(RoleData)19_storage)": {
        "encoding": "mapping",
        "key": "t_bytes32",
        "label": "mapping(bytes32 => struct AccessControl.RoleData)",
        "numberOfBytes": "32",
        "value": "t_struct(RoleData)19_storage"
      },
      "t_mapping(t_uint192,t_mapping(t_address,t_uint256))": {
        "encoding": "mapping",
        "key": "t_uint192",
        "label": "mapping(uint192 => mapping(address => uint256))",
        "numberOfBytes": "32",
        "value": "t_mapping(t_address,t_uint256)"
      },
      "t_mapping(t_uint192,t_struct(Group)8484_storage)": {
        "encoding": "mapping",
        "key": "t_uint192",
        "label": "mapping(uint192 => struct UsingCryptoPunksGroupRegistryStructs.Group)",
        "numberOfBytes": "32",
        "value": "t_struct(Group)8484_storage"
      },
      "t_mapping(t_uint256,t_mapping(t_address,t_uint256))": {
        "encoding": "mapping",
        "key": "t_uint256",
        "label": "mapping(uint256 => mapping(address => uint256))",
        "numberOfBytes": "32",
        "value": "t_mapping(t_address,t_uint256)"
      },
      "t_string_storage": {
        "encoding": "bytes",
        "label": "string",
        "numberOfBytes": "32"
      },
      "t_struct(Group)8484_storage": {
        "encoding": "inplace",
        "label": "struct UsingCryptoPunksGroupRegistryStructs.Group",
        "members": [
          {
            "astId": 8458,
            "contract": "src/CryptoPunksGroupRegistry.sol:CryptoPunksGroupRegistry",
            "label": "id",
            "offset": 0,
            "slot": "0",
            "type": "t_uint192"
          },
          {
            "astId": 8460,
            "contract": "src/CryptoPunksGroupRegistry.sol:CryptoPunksGroupRegistry",
            "label": "creator",
            "offset": 0,
            "slot": "1",
            "type": "t_address"
          },
          {
            "astId": 8462,
            "contract": "src/CryptoPunksGroupRegistry.sol:CryptoPunksGroupRegistry",
            "label": "targetPunkId",
            "offset": 0,
            "slot": "2",
            "type": "t_uint256"
          },
          {
            "astId": 8464,
            "contract": "src/CryptoPunksGroupRegistry.sol:CryptoPunksGroupRegistry",
            "label": "targetMaxPrice",
            "offset": 0,
            "slot": "3",
            "type": "t_uint256"
          },
          {
            "astId": 8466,
            "contract": "src/CryptoPunksGroupRegistry.sol:CryptoPunksGroupRegistry",
            "label": "totalTicketSupply",
            "offset": 0,
            "slot": "4",
            "type": "t_uint64"
          },
          {
            "astId": 8468,
            "contract": "src/CryptoPunksGroupRegistry.sol:CryptoPunksGroupRegistry",
            "label": "unitTicketPrice",
            "offset": 0,
            "slot": "5",
            "type": "t_uint256"
          },
          {
            "astId": 8470,
            "contract": "src/CryptoPunksGroupRegistry.sol:CryptoPunksGroupRegistry",
            "label": "totalContribution",
            "offset": 0,
            "slot": "6",
            "type": "t_uint256"
          },
          {
            "astId": 8472,
            "contract": "src/CryptoPunksGroupRegistry.sol:CryptoPunksGroupRegistry",
            "label": "ticketsBought",
            "offset": 0,
            "slot": "7",
            "type": "t_uint64"
          },
          {
            "astId": 8474,
            "contract": "src/CryptoPunksGroupRegistry.sol:CryptoPunksGroupRegistry",
            "label": "expiresAt",
            "offset": 8,
            "slot": "7",
            "type": "t_uint40"
          },
          {
            "astId": 8477,
            "contract": "src/CryptoPunksGroupRegistry.sol:CryptoPunksGroupRegistry",
            "label": "status",
            "offset": 13,
            "slot": "7",
            "type": "t_enum(GroupStatus)8451"
          },
          {
            "astId": 8479,
            "contract": "src/CryptoPunksGroupRegistry.sol:CryptoPunksGroupRegistry",
            "label": "purchasePrice",
            "offset": 0,
            "slot": "8",
            "type": "t_uint256"
          },
          {
            "astId": 8481,
            "contract": "src/CryptoPunksGroupRegistry.sol:CryptoPunksGroupRegistry",
            "label": "originalId",
            "offset": 0,
            "slot": "9",
            "type": "t_uint192"
          },
          {
            "astId": 8483,
            "contract": "src/CryptoPunksGroupRegistry.sol:CryptoPunksGroupRegistry",
            "label": "metadataUri",
            "offset": 0,
            "slot": "10",
            "type": "t_string_storage"
          }
        ],
        "numberOfBytes": "352"
      },
      "t_struct(RoleData)19_storage": {
        "encoding": "inplace",
        "label": "struct AccessControl.RoleData",
        "members": [
          {
            "astId": 16,
            "contract": "src/CryptoPunksGroupRegistry.sol:CryptoPunksGroupRegistry",
            "label": "members",
            "offset": 0,
            "slot": "0",
            "type": "t_mapping(t_address,t_bool)"
          },
          {
            "astId": 18,
            "contract": "src/CryptoPunksGroupRegistry.sol:CryptoPunksGroupRegistry",
            "label": "adminRole",
            "offset": 0,
            "slot": "1",
            "type": "t_bytes32"
          }
        ],
        "numberOfBytes": "64"
      },
      "t_uint192": {
        "encoding": "inplace",
        "label": "uint192",
        "numberOfBytes": "24"
      },
      "t_uint256": {
        "encoding": "inplace",
        "label": "uint256",
        "numberOfBytes": "32"
      },
      "t_uint40": {
        "encoding": "inplace",
        "label": "uint40",
        "numberOfBytes": "5"
      },
      "t_uint64": {
        "encoding": "inplace",
        "label": "uint64",
        "numberOfBytes": "8"
      }
    }
  }
}