{
  "address": "0x77f07731646fbE448F252d8bF211fF112B11330B",
  "abi": [
    {
      "inputs": [
        {
          "internalType": "address",
          "name": "_mintAuthority",
          "type": "address"
        },
        {
          "internalType": "address",
          "name": "cryptoPunksMarketAddress",
          "type": "address"
        }
      ],
      "stateMutability": "nonpayable",
      "type": "constructor"
    },
    {
      "anonymous": false,
      "inputs": [
        {
          "indexed": true,
          "internalType": "address",
          "name": "account",
          "type": "address"
        },
        {
          "indexed": true,
          "internalType": "address",
          "name": "operator",
          "type": "address"
        },
        {
          "indexed": false,
          "internalType": "bool",
          "name": "approved",
          "type": "bool"
        }
      ],
      "name": "ApprovalForAll",
      "type": "event"
    },
    {
      "anonymous": false,
      "inputs": [
        {
          "indexed": true,
          "internalType": "bytes32",
          "name": "role",
          "type": "bytes32"
        },
        {
          "indexed": true,
          "internalType": "bytes32",
          "name": "previousAdminRole",
          "type": "bytes32"
        },
        {
          "indexed": true,
          "internalType": "bytes32",
          "name": "newAdminRole",
          "type": "bytes32"
        }
      ],
      "name": "RoleAdminChanged",
      "type": "event"
    },
    {
      "anonymous": false,
      "inputs": [
        {
          "indexed": true,
          "internalType": "bytes32",
          "name": "role",
          "type": "bytes32"
        },
        {
          "indexed": true,
          "internalType": "address",
          "name": "account",
          "type": "address"
        },
        {
          "indexed": true,
          "internalType": "address",
          "name": "sender",
          "type": "address"
        }
      ],
      "name": "RoleGranted",
      "type": "event"
    },
    {
      "anonymous": false,
      "inputs": [
        {
          "indexed": true,
          "internalType": "bytes32",
          "name": "role",
          "type": "bytes32"
        },
        {
          "indexed": true,
          "internalType": "address",
          "name": "account",
          "type": "address"
        },
        {
          "indexed": true,
          "internalType": "address",
          "name": "sender",
          "type": "address"
        }
      ],
      "name": "RoleRevoked",
      "type": "event"
    },
    {
      "anonymous": false,
      "inputs": [
        {
          "indexed": true,
          "internalType": "address",
          "name": "operator",
          "type": "address"
        },
        {
          "indexed": true,
          "internalType": "address",
          "name": "from",
          "type": "address"
        },
        {
          "indexed": true,
          "internalType": "address",
          "name": "to",
          "type": "address"
        },
        {
          "indexed": false,
          "internalType": "uint256[]",
          "name": "ids",
          "type": "uint256[]"
        },
        {
          "indexed": false,
          "internalType": "uint256[]",
          "name": "values",
          "type": "uint256[]"
        }
      ],
      "name": "TransferBatch",
      "type": "event"
    },
    {
      "anonymous": false,
      "inputs": [
        {
          "indexed": true,
          "internalType": "address",
          "name": "operator",
          "type": "address"
        },
        {
          "indexed": true,
          "internalType": "address",
          "name": "from",
          "type": "address"
        },
        {
          "indexed": true,
          "internalType": "address",
          "name": "to",
          "type": "address"
        },
        {
          "indexed": false,
          "internalType": "uint256",
          "name": "id",
          "type": "uint256"
        },
        {
          "indexed": false,
          "internalType": "uint256",
          "name": "value",
          "type": "uint256"
        }
      ],
      "name": "TransferSingle",
      "type": "event"
    },
    {
      "anonymous": false,
      "inputs": [
        {
          "indexed": false,
          "internalType": "string",
          "name": "value",
          "type": "string"
        },
        {
          "indexed": true,
          "internalType": "uint256",
          "name": "id",
          "type": "uint256"
        }
      ],
      "name": "URI",
      "type": "event"
    },
    {
      "inputs": [],
      "name": "DEFAULT_ADMIN_ROLE",
      "outputs": [
        {
          "internalType": "bytes32",
          "name": "",
          "type": "bytes32"
        }
      ],
      "stateMutability": "view",
      "type": "function"
    },
    {
      "inputs": [],
      "name": "MINTER_ROLE",
      "outputs": [
        {
          "internalType": "bytes32",
          "name": "",
          "type": "bytes32"
        }
      ],
      "stateMutability": "view",
      "type": "function"
    },
    {
      "inputs": [
        {
          "internalType": "address",
          "name": "account",
          "type": "address"
        },
        {
          "internalType": "uint256",
          "name": "id",
          "type": "uint256"
        }
      ],
      "name": "balanceOf",
      "outputs": [
        {
          "internalType": "uint256",
          "name": "",
          "type": "uint256"
        }
      ],
      "stateMutability": "view",
      "type": "function"
    },
    {
      "inputs": [
        {
          "internalType": "address[]",
          "name": "accounts",
          "type": "address[]"
        },
        {
          "internalType": "uint256[]",
          "name": "ids",
          "type": "uint256[]"
        }
      ],
      "name": "balanceOfBatch",
      "outputs": [
        {
          "internalType": "uint256[]",
          "name": "",
          "type": "uint256[]"
        }
      ],
      "stateMutability": "view",
      "type": "function"
    },
    {
      "inputs": [
        {
          "internalType": "uint192",
          "name": "originalId",
          "type": "uint192"
        },
        {
          "internalType": "uint256",
          "name": "price",
          "type": "uint256"
        }
      ],
      "name": "bid",
      "outputs": [],
      "stateMutability": "nonpayable",
      "type": "function"
    },
    {
      "inputs": [
        {
          "internalType": "uint256",
          "name": "punkId",
          "type": "uint256"
        },
        {
          "internalType": "uint64",
          "name": "totalClaimableCount",
          "type": "uint64"
        }
      ],
      "name": "create",
      "outputs": [
        {
          "internalType": "uint192",
          "name": "originalId",
          "type": "uint192"
        }
      ],
      "stateMutability": "nonpayable",
      "type": "function"
    },
    {
      "inputs": [],
      "name": "cryptoPunksMarket",
      "outputs": [
        {
          "internalType": "contract ICryptoPunksMarket",
          "name": "",
          "type": "address"
        }
      ],
      "stateMutability": "view",
      "type": "function"
    },
    {
      "inputs": [
        {
          "internalType": "uint256",
          "name": "mosaicId",
          "type": "uint256"
        }
      ],
      "name": "fromMosaicId",
      "outputs": [
        {
          "internalType": "uint192",
          "name": "originalId",
          "type": "uint192"
        },
        {
          "internalType": "uint64",
          "name": "monoId",
          "type": "uint64"
        }
      ],
      "stateMutability": "pure",
      "type": "function"
    },
    {
      "inputs": [
        {
          "internalType": "bytes32",
          "name": "role",
          "type": "bytes32"
        }
      ],
      "name": "getRoleAdmin",
      "outputs": [
        {
          "internalType": "bytes32",
          "name": "",
          "type": "bytes32"
        }
      ],
      "stateMutability": "view",
      "type": "function"
    },
    {
      "inputs": [
        {
          "internalType": "bytes32",
          "name": "role",
          "type": "bytes32"
        },
        {
          "internalType": "address",
          "name": "account",
          "type": "address"
        }
      ],
      "name": "grantRole",
      "outputs": [],
      "stateMutability": "nonpayable",
      "type": "function"
    },
    {
      "inputs": [
        {
          "internalType": "bytes32",
          "name": "role",
          "type": "bytes32"
        },
        {
          "internalType": "address",
          "name": "account",
          "type": "address"
        }
      ],
      "name": "hasRole",
      "outputs": [
        {
          "internalType": "bool",
          "name": "",
          "type": "bool"
        }
      ],
      "stateMutability": "view",
      "type": "function"
    },
    {
      "inputs": [
        {
          "internalType": "address",
          "name": "account",
          "type": "address"
        },
        {
          "internalType": "address",
          "name": "operator",
          "type": "address"
        }
      ],
      "name": "isApprovedForAll",
      "outputs": [
        {
          "internalType": "bool",
          "name": "",
          "type": "bool"
        }
      ],
      "stateMutability": "view",
      "type": "function"
    },
    {
      "inputs": [],
      "name": "latestOriginalId",
      "outputs": [
        {
          "internalType": "uint192",
          "name": "",
          "type": "uint192"
        }
      ],
      "stateMutability": "view",
      "type": "function"
    },
    {
      "inputs": [
        {
          "internalType": "address",
          "name": "contributor",
          "type": "address"
        },
        {
          "internalType": "uint192",
          "name": "originalId",
          "type": "uint192"
        },
        {
          "internalType": "string",
          "name": "metadataUri",
          "type": "string"
        }
      ],
      "name": "mint",
      "outputs": [
        {
          "internalType": "uint256",
          "name": "mosaicId",
          "type": "uint256"
        }
      ],
      "stateMutability": "nonpayable",
      "type": "function"
    },
    {
      "inputs": [
        {
          "internalType": "bytes32",
          "name": "role",
          "type": "bytes32"
        },
        {
          "internalType": "address",
          "name": "account",
          "type": "address"
        }
      ],
      "name": "renounceRole",
      "outputs": [],
      "stateMutability": "nonpayable",
      "type": "function"
    },
    {
      "inputs": [
        {
          "internalType": "bytes32",
          "name": "role",
          "type": "bytes32"
        },
        {
          "internalType": "address",
          "name": "account",
          "type": "address"
        }
      ],
      "name": "revokeRole",
      "outputs": [],
      "stateMutability": "nonpayable",
      "type": "function"
    },
    {
      "inputs": [
        {
          "internalType": "address",
          "name": "from",
          "type": "address"
        },
        {
          "internalType": "address",
          "name": "to",
          "type": "address"
        },
        {
          "internalType": "uint256[]",
          "name": "ids",
          "type": "uint256[]"
        },
        {
          "internalType": "uint256[]",
          "name": "amounts",
          "type": "uint256[]"
        },
        {
          "internalType": "bytes",
          "name": "data",
          "type": "bytes"
        }
      ],
      "name": "safeBatchTransferFrom",
      "outputs": [],
      "stateMutability": "nonpayable",
      "type": "function"
    },
    {
      "inputs": [
        {
          "internalType": "address",
          "name": "from",
          "type": "address"
        },
        {
          "internalType": "address",
          "name": "to",
          "type": "address"
        },
        {
          "internalType": "uint256",
          "name": "id",
          "type": "uint256"
        },
        {
          "internalType": "uint256",
          "name": "amount",
          "type": "uint256"
        },
        {
          "internalType": "bytes",
          "name": "data",
          "type": "bytes"
        }
      ],
      "name": "safeTransferFrom",
      "outputs": [],
      "stateMutability": "nonpayable",
      "type": "function"
    },
    {
      "inputs": [
        {
          "internalType": "address",
          "name": "operator",
          "type": "address"
        },
        {
          "internalType": "bool",
          "name": "approved",
          "type": "bool"
        }
      ],
      "name": "setApprovalForAll",
      "outputs": [],
      "stateMutability": "nonpayable",
      "type": "function"
    },
    {
      "inputs": [
        {
          "internalType": "bytes4",
          "name": "interfaceId",
          "type": "bytes4"
        }
      ],
      "name": "supportsInterface",
      "outputs": [
        {
          "internalType": "bool",
          "name": "",
          "type": "bool"
        }
      ],
      "stateMutability": "view",
      "type": "function"
    },
    {
      "inputs": [
        {
          "internalType": "uint192",
          "name": "originalId",
          "type": "uint192"
        },
        {
          "internalType": "uint64",
          "name": "monoId",
          "type": "uint64"
        }
      ],
      "name": "toMosaicId",
      "outputs": [
        {
          "internalType": "uint256",
          "name": "mosaicId",
          "type": "uint256"
        }
      ],
      "stateMutability": "pure",
      "type": "function"
    },
    {
      "inputs": [
        {
          "internalType": "uint256",
          "name": "mosaicId",
          "type": "uint256"
        }
      ],
      "name": "uri",
      "outputs": [
        {
          "internalType": "string",
          "name": "",
          "type": "string"
        }
      ],
      "stateMutability": "view",
      "type": "function"
    }
  ],
  "transactionHash": "0x68f9927bc74d7078377240b36c39268df6581a777755f632146d9b7bec54b6b6",
  "args": [
    "0x4eF26a3129b91Ee21d5E9Ed963e6549B531C3744",
    "0xcAa3c23aeEF417b00208e150ad04fD6A1878e474"
  ],
  "numDeployments": 1,
  "solcInputHash": "66275d9e1afa9fba2c7ce2f6e14bc03d",
  "bytecode": "0x60a06040523480156200001157600080fd5b5060405162004ab838038062004ab88339818101604052810190620000379190620002e6565b6040518060400160405280601281526020017f43727970746f50756e6b73204d6f7361696300000000000000000000000000008152506200007e816200010260201b60201c565b50620000946000801b336200011760201b60201c565b620000c67f9f2df0fed2c77648de5860a4cc508cd0818c85b8b8a1ab4ceeef8d981c8956a6836200011760201b60201c565b8073ffffffffffffffffffffffffffffffffffffffff1660808173ffffffffffffffffffffffffffffffffffffffff168152505050506200068e565b8060029081620001139190620005a7565b5050565b6200012982826200020960201b60201c565b620002055760016003600084815260200190815260200160002060000160008373ffffffffffffffffffffffffffffffffffffffff1673ffffffffffffffffffffffffffffffffffffffff16815260200190815260200160002060006101000a81548160ff021916908315150217905550620001aa6200027460201b60201c565b73ffffffffffffffffffffffffffffffffffffffff168173ffffffffffffffffffffffffffffffffffffffff16837f2f8788117e7eff1d82e926ec794901d17c78024a50270940304540a733656f0d60405160405180910390a45b5050565b60006003600084815260200190815260200160002060000160008373ffffffffffffffffffffffffffffffffffffffff1673ffffffffffffffffffffffffffffffffffffffff16815260200190815260200160002060009054906101000a900460ff16905092915050565b600033905090565b600080fd5b600073ffffffffffffffffffffffffffffffffffffffff82169050919050565b6000620002ae8262000281565b9050919050565b620002c081620002a1565b8114620002cc57600080fd5b50565b600081519050620002e081620002b5565b92915050565b600080604083850312156200030057620002ff6200027c565b5b60006200031085828601620002cf565b92505060206200032385828601620002cf565b9150509250929050565b600081519050919050565b7f4e487b7100000000000000000000000000000000000000000000000000000000600052604160045260246000fd5b7f4e487b7100000000000000000000000000000000000000000000000000000000600052602260045260246000fd5b60006002820490506001821680620003af57607f821691505b602082108103620003c557620003c462000367565b5b50919050565b60008190508160005260206000209050919050565b60006020601f8301049050919050565b600082821b905092915050565b6000600883026200042f7fffffffffffffffffffffffffffffffffffffffffffffffffffffffffffffffff82620003f0565b6200043b8683620003f0565b95508019841693508086168417925050509392505050565b6000819050919050565b6000819050919050565b600062000488620004826200047c8462000453565b6200045d565b62000453565b9050919050565b6000819050919050565b620004a48362000467565b620004bc620004b3826200048f565b848454620003fd565b825550505050565b600090565b620004d3620004c4565b620004e081848462000499565b505050565b5b818110156200050857620004fc600082620004c9565b600181019050620004e6565b5050565b601f82111562000557576200052181620003cb565b6200052c84620003e0565b810160208510156200053c578190505b620005546200054b85620003e0565b830182620004e5565b50505b505050565b600082821c905092915050565b60006200057c600019846008026200055c565b1980831691505092915050565b600062000597838362000569565b9150826002028217905092915050565b620005b2826200032d565b67ffffffffffffffff811115620005ce57620005cd62000338565b5b620005da825462000396565b620005e78282856200050c565b600060209050601f8311600181146200061f57600084156200060a578287015190505b62000616858262000589565b86555062000686565b601f1984166200062f86620003cb565b60005b82811015620006595784890151825560018201915060208501945060208101905062000632565b8683101562000679578489015162000675601f89168262000569565b8355505b6001600288020188555050505b505050505050565b608051614407620006b160003960008181610667015261110101526144076000f3fe608060405234801561001057600080fd5b50600436106101415760003560e01c806379f5f153116100b8578063af4a6c0c1161007c578063af4a6c0c146103bf578063d0d851d0146103ef578063d53913931461040d578063d547741f1461042b578063e985e9c514610447578063f242432a1461047757610141565b806379f5f1531461030957806391d1485414610325578063a217fddf14610355578063a22cb46514610373578063adea6f3b1461038f57610141565b80632eb2c2d61161010a5780632eb2c2d6146102365780632f2ff15d1461025257806336568abe1461026e5780634e1273f41461028a57806354cefb23146102ba5780635d7b88f6146102eb57610141565b8062fdd58e1461014657806301ffc9a7146101765780630e89341c146101a657806323e9b7b3146101d6578063248a9ca314610206575b600080fd5b610160600480360381019061015b919061270b565b610493565b60405161016d919061275a565b60405180910390f35b610190600480360381019061018b91906127cd565b61055b565b60405161019d9190612815565b60405180910390f35b6101c060048036038101906101bb9190612830565b61057d565b6040516101cd91906128ed565b60405180910390f35b6101f060048036038101906101eb919061294f565b610622565b6040516101fd91906129c2565b60405180910390f35b610220600480360381019061021b9190612a13565b610afb565b60405161022d9190612a4f565b60405180910390f35b610250600480360381019061024b9190612c67565b610b1b565b005b61026c60048036038101906102679190612d36565b610bbc565b005b61028860048036038101906102839190612d36565b610bdd565b005b6102a4600480360381019061029f9190612e39565b610c60565b6040516102b19190612f6f565b60405180910390f35b6102d460048036038101906102cf9190612830565b610d79565b6040516102e2929190612fa0565b60405180910390f35b6102f3610da9565b60405161030091906129c2565b60405180910390f35b610323600480360381019061031e9190612ff5565b610dd3565b005b61033f600480360381019061033a9190612d36565b610dd7565b60405161034c9190612815565b60405180910390f35b61035d610e42565b60405161036a9190612a4f565b60405180910390f35b61038d60048036038101906103889190613061565b610e49565b005b6103a960048036038101906103a491906130fc565b610e5f565b6040516103b6919061275a565b60405180910390f35b6103d960048036038101906103d49190613170565b6110ca565b6040516103e6919061275a565b60405180910390f35b6103f76110ff565b604051610404919061320f565b60405180910390f35b610415611123565b6040516104229190612a4f565b60405180910390f35b61044560048036038101906104409190612d36565b611147565b005b610461600480360381019061045c919061322a565b611168565b60405161046e9190612815565b60405180910390f35b610491600480360381019061048c919061326a565b6111fc565b005b60008073ffffffffffffffffffffffffffffffffffffffff168373ffffffffffffffffffffffffffffffffffffffff1603610503576040517f08c379a00000000000000000000000000000000000000000000000000000000081526004016104fa90613373565b60405180910390fd5b60008083815260200190815260200160002060008473ffffffffffffffffffffffffffffffffffffffff1673ffffffffffffffffffffffffffffffffffffffff16815260200190815260200160002054905092915050565b60006105668261129d565b8061057657506105758261137f565b5b9050919050565b606060076000838152602001908152602001600020805461059d906133c2565b80601f01602080910402602001604051908101604052809291908181526020018280546105c9906133c2565b80156106165780601f106105eb57610100808354040283529160200191610616565b820191906000526020600020905b8154815290600101906020018083116105f957829003601f168201915b50505050509050919050565b60007f9f2df0fed2c77648de5860a4cc508cd0818c85b8b8a1ab4ceeef8d981c8956a661064e816113f9565b3073ffffffffffffffffffffffffffffffffffffffff167f000000000000000000000000000000000000000000000000000000000000000073ffffffffffffffffffffffffffffffffffffffff166358178168866040518263ffffffff1660e01b81526004016106be919061275a565b602060405180830381865afa1580156106db573d6000803e3d6000fd5b505050506040513d601f19601f820116820180604052508101906106ff9190613408565b73ffffffffffffffffffffffffffffffffffffffff1614610755576040517f08c379a000000000000000000000000000000000000000000000000000000000815260040161074c90613481565b60405180910390fd5b6004600081819054906101000a900477ffffffffffffffffffffffffffffffffffffffffffffffff16610787906134d0565b91906101000a81548177ffffffffffffffffffffffffffffffffffffffffffffffff021916908377ffffffffffffffffffffffffffffffffffffffffffffffff16021790559150600660008377ffffffffffffffffffffffffffffffffffffffffffffffff1677ffffffffffffffffffffffffffffffffffffffffffffffff168152602001908152602001600020600081819054906101000a900467ffffffffffffffff1661083590613510565b91906101000a81548167ffffffffffffffff021916908367ffffffffffffffff1602179055506040518060c001604052808377ffffffffffffffffffffffffffffffffffffffffffffffff1681526020018581526020018467ffffffffffffffff166fffffffffffffffffffffffffffffffff16815260200160006fffffffffffffffffffffffffffffffff168152602001600060028111156108db576108da613540565b5b81526020016040518060600160405280600073ffffffffffffffffffffffffffffffffffffffff168152602001600064ffffffffff1681526020016000815250815250600560008477ffffffffffffffffffffffffffffffffffffffffffffffff1677ffffffffffffffffffffffffffffffffffffffffffffffff16815260200190815260200160002060008201518160000160006101000a81548177ffffffffffffffffffffffffffffffffffffffffffffffff021916908377ffffffffffffffffffffffffffffffffffffffffffffffff1602179055506020820151816001015560408201518160020160006101000a8154816fffffffffffffffffffffffffffffffff02191690836fffffffffffffffffffffffffffffffff16021790555060608201518160020160106101000a8154816fffffffffffffffffffffffffffffffff02191690836fffffffffffffffffffffffffffffffff16021790555060808201518160030160006101000a81548160ff02191690836002811115610a6757610a66613540565b5b021790555060a08201518160040160008201518160000160006101000a81548173ffffffffffffffffffffffffffffffffffffffff021916908373ffffffffffffffffffffffffffffffffffffffff16021790555060208201518160000160146101000a81548164ffffffffff021916908364ffffffffff1602179055506040820151816001015550509050505092915050565b600060036000838152602001908152602001600020600101549050919050565b610b2361140d565b73ffffffffffffffffffffffffffffffffffffffff168573ffffffffffffffffffffffffffffffffffffffff161480610b695750610b6885610b6361140d565b611168565b5b610ba8576040517f08c379a0000000000000000000000000000000000000000000000000000000008152600401610b9f906135e1565b60405180910390fd5b610bb58585858585611415565b5050505050565b610bc582610afb565b610bce816113f9565b610bd88383611736565b505050565b610be561140d565b73ffffffffffffffffffffffffffffffffffffffff168173ffffffffffffffffffffffffffffffffffffffff1614610c52576040517f08c379a0000000000000000000000000000000000000000000000000000000008152600401610c4990613673565b60405180910390fd5b610c5c8282611817565b5050565b60608151835114610ca6576040517f08c379a0000000000000000000000000000000000000000000000000000000008152600401610c9d90613705565b60405180910390fd5b6000835167ffffffffffffffff811115610cc357610cc2612a6f565b5b604051908082528060200260200182016040528015610cf15781602001602082028036833780820191505090505b50905060005b8451811015610d6e57610d3e858281518110610d1657610d15613725565b5b6020026020010151858381518110610d3157610d30613725565b5b6020026020010151610493565b828281518110610d5157610d50613725565b5b60200260200101818152505080610d6790613754565b9050610cf7565b508091505092915050565b600080604083901c6001806040610d90919061379c565b6001901b610d9e91906137d0565b841691509150915091565b600460009054906101000a900477ffffffffffffffffffffffffffffffffffffffffffffffff1681565b5050565b60006003600084815260200190815260200160002060000160008373ffffffffffffffffffffffffffffffffffffffff1673ffffffffffffffffffffffffffffffffffffffff16815260200190815260200160002060009054906101000a900460ff16905092915050565b6000801b81565b610e5b610e5461140d565b83836118f9565b5050565b60007f9f2df0fed2c77648de5860a4cc508cd0818c85b8b8a1ab4ceeef8d981c8956a6610e8b816113f9565b6000600660008777ffffffffffffffffffffffffffffffffffffffffffffffff1677ffffffffffffffffffffffffffffffffffffffffffffffff16815260200190815260200160002060009054906101000a900467ffffffffffffffff1667ffffffffffffffff1611610f33576040517f08c379a0000000000000000000000000000000000000000000000000000000008152600401610f2a90613876565b60405180910390fd5b6000600660008777ffffffffffffffffffffffffffffffffffffffffffffffff1677ffffffffffffffffffffffffffffffffffffffffffffffff168152602001908152602001600020600081819054906101000a900467ffffffffffffffff1680929190610fa090613510565b91906101000a81548167ffffffffffffffff021916908367ffffffffffffffff1602179055509050610fd286826110ca565b92508484600760008681526020019081526020016000209182610ff6929190613a43565b50600560008777ffffffffffffffffffffffffffffffffffffffffffffffff1677ffffffffffffffffffffffffffffffffffffffffffffffff168152602001908152602001600020600201601081819054906101000a90046fffffffffffffffffffffffffffffffff168092919061106d90613b2f565b91906101000a8154816fffffffffffffffffffffffffffffffff02191690836fffffffffffffffffffffffffffffffff160217905550506110c08784600160405180602001604052806000815250611a65565b5050949350505050565b60008167ffffffffffffffff1660408477ffffffffffffffffffffffffffffffffffffffffffffffff16901b17905092915050565b7f000000000000000000000000000000000000000000000000000000000000000081565b7f9f2df0fed2c77648de5860a4cc508cd0818c85b8b8a1ab4ceeef8d981c8956a681565b61115082610afb565b611159816113f9565b6111638383611817565b505050565b6000600160008473ffffffffffffffffffffffffffffffffffffffff1673ffffffffffffffffffffffffffffffffffffffff16815260200190815260200160002060008373ffffffffffffffffffffffffffffffffffffffff1673ffffffffffffffffffffffffffffffffffffffff16815260200190815260200160002060009054906101000a900460ff16905092915050565b61120461140d565b73ffffffffffffffffffffffffffffffffffffffff168573ffffffffffffffffffffffffffffffffffffffff16148061124a57506112498561124461140d565b611168565b5b611289576040517f08c379a0000000000000000000000000000000000000000000000000000000008152600401611280906135e1565b60405180910390fd5b6112968585858585611c15565b5050505050565b60007fd9b67a26000000000000000000000000000000000000000000000000000000007bffffffffffffffffffffffffffffffffffffffffffffffffffffffff1916827bffffffffffffffffffffffffffffffffffffffffffffffffffffffff1916148061136857507f0e89341c000000000000000000000000000000000000000000000000000000007bffffffffffffffffffffffffffffffffffffffffffffffffffffffff1916827bffffffffffffffffffffffffffffffffffffffffffffffffffffffff1916145b80611378575061137782611eb0565b5b9050919050565b60007f7965db0b000000000000000000000000000000000000000000000000000000007bffffffffffffffffffffffffffffffffffffffffffffffffffffffff1916827bffffffffffffffffffffffffffffffffffffffffffffffffffffffff191614806113f257506113f18261129d565b5b9050919050565b61140a8161140561140d565b611f1a565b50565b600033905090565b8151835114611459576040517f08c379a000000000000000000000000000000000000000000000000000000000815260040161145090613bd9565b60405180910390fd5b600073ffffffffffffffffffffffffffffffffffffffff168473ffffffffffffffffffffffffffffffffffffffff16036114c8576040517f08c379a00000000000000000000000000000000000000000000000000000000081526004016114bf90613c6b565b60405180910390fd5b60006114d261140d565b90506114e2818787878787611f9f565b60005b845181101561169357600085828151811061150357611502613725565b5b60200260200101519050600085838151811061152257611521613725565b5b60200260200101519050600080600084815260200190815260200160002060008b73ffffffffffffffffffffffffffffffffffffffff1673ffffffffffffffffffffffffffffffffffffffff168152602001908152602001600020549050818110156115c3576040517f08c379a00000000000000000000000000000000000000000000000000000000081526004016115ba90613cfd565b60405180910390fd5b81810360008085815260200190815260200160002060008c73ffffffffffffffffffffffffffffffffffffffff1673ffffffffffffffffffffffffffffffffffffffff168152602001908152602001600020819055508160008085815260200190815260200160002060008b73ffffffffffffffffffffffffffffffffffffffff1673ffffffffffffffffffffffffffffffffffffffff1681526020019081526020016000206000828254611678919061379c565b925050819055505050508061168c90613754565b90506114e5565b508473ffffffffffffffffffffffffffffffffffffffff168673ffffffffffffffffffffffffffffffffffffffff168273ffffffffffffffffffffffffffffffffffffffff167f4a39dc06d4c0dbc64b70af90fd698a233a518aa5d07e595d983b8c0526c8f7fb878760405161170a929190613d1d565b60405180910390a4611720818787878787611fa7565b61172e818787878787611faf565b505050505050565b6117408282610dd7565b6118135760016003600084815260200190815260200160002060000160008373ffffffffffffffffffffffffffffffffffffffff1673ffffffffffffffffffffffffffffffffffffffff16815260200190815260200160002060006101000a81548160ff0219169083151502179055506117b861140d565b73ffffffffffffffffffffffffffffffffffffffff168173ffffffffffffffffffffffffffffffffffffffff16837f2f8788117e7eff1d82e926ec794901d17c78024a50270940304540a733656f0d60405160405180910390a45b5050565b6118218282610dd7565b156118f55760006003600084815260200190815260200160002060000160008373ffffffffffffffffffffffffffffffffffffffff1673ffffffffffffffffffffffffffffffffffffffff16815260200190815260200160002060006101000a81548160ff02191690831515021790555061189a61140d565b73ffffffffffffffffffffffffffffffffffffffff168173ffffffffffffffffffffffffffffffffffffffff16837ff6391f5c32d9c69d2a47ea670b442974b53935d1edc7fd64eb21e047a839171b60405160405180910390a45b5050565b8173ffffffffffffffffffffffffffffffffffffffff168373ffffffffffffffffffffffffffffffffffffffff1603611967576040517f08c379a000000000000000000000000000000000000000000000000000000000815260040161195e90613dc6565b60405180910390fd5b80600160008573ffffffffffffffffffffffffffffffffffffffff1673ffffffffffffffffffffffffffffffffffffffff16815260200190815260200160002060008473ffffffffffffffffffffffffffffffffffffffff1673ffffffffffffffffffffffffffffffffffffffff16815260200190815260200160002060006101000a81548160ff0219169083151502179055508173ffffffffffffffffffffffffffffffffffffffff168373ffffffffffffffffffffffffffffffffffffffff167f17307eab39ab6107e8899845ad3d59bd9653f200f220920489ca2b5937696c3183604051611a589190612815565b60405180910390a3505050565b600073ffffffffffffffffffffffffffffffffffffffff168473ffffffffffffffffffffffffffffffffffffffff1603611ad4576040517f08c379a0000000000000000000000000000000000000000000000000000000008152600401611acb90613e58565b60405180910390fd5b6000611ade61140d565b90506000611aeb85612186565b90506000611af885612186565b9050611b0983600089858589611f9f565b8460008088815260200190815260200160002060008973ffffffffffffffffffffffffffffffffffffffff1673ffffffffffffffffffffffffffffffffffffffff1681526020019081526020016000206000828254611b68919061379c565b925050819055508673ffffffffffffffffffffffffffffffffffffffff16600073ffffffffffffffffffffffffffffffffffffffff168473ffffffffffffffffffffffffffffffffffffffff167fc3d58168c5ae7397731d063d5bbf3d657854427343f4c083240f7aacaa2d0f628989604051611be6929190613e78565b60405180910390a4611bfd83600089858589611fa7565b611c0c83600089898989612200565b50505050505050565b600073ffffffffffffffffffffffffffffffffffffffff168473ffffffffffffffffffffffffffffffffffffffff1603611c84576040517f08c379a0000000000000000000000000000000000000000000000000000000008152600401611c7b90613c6b565b60405180910390fd5b6000611c8e61140d565b90506000611c9b85612186565b90506000611ca885612186565b9050611cb8838989858589611f9f565b600080600088815260200190815260200160002060008a73ffffffffffffffffffffffffffffffffffffffff1673ffffffffffffffffffffffffffffffffffffffff16815260200190815260200160002054905085811015611d4f576040517f08c379a0000000000000000000000000000000000000000000000000000000008152600401611d4690613cfd565b60405180910390fd5b85810360008089815260200190815260200160002060008b73ffffffffffffffffffffffffffffffffffffffff1673ffffffffffffffffffffffffffffffffffffffff168152602001908152602001600020819055508560008089815260200190815260200160002060008a73ffffffffffffffffffffffffffffffffffffffff1673ffffffffffffffffffffffffffffffffffffffff1681526020019081526020016000206000828254611e04919061379c565b925050819055508773ffffffffffffffffffffffffffffffffffffffff168973ffffffffffffffffffffffffffffffffffffffff168573ffffffffffffffffffffffffffffffffffffffff167fc3d58168c5ae7397731d063d5bbf3d657854427343f4c083240f7aacaa2d0f628a8a604051611e81929190613e78565b60405180910390a4611e97848a8a86868a611fa7565b611ea5848a8a8a8a8a612200565b505050505050505050565b60007f01ffc9a7000000000000000000000000000000000000000000000000000000007bffffffffffffffffffffffffffffffffffffffffffffffffffffffff1916827bffffffffffffffffffffffffffffffffffffffffffffffffffffffff1916149050919050565b611f248282610dd7565b611f9b57611f31816123d7565b611f3f8360001c6020612404565b604051602001611f50929190613f75565b6040516020818303038152906040526040517f08c379a0000000000000000000000000000000000000000000000000000000008152600401611f9291906128ed565b60405180910390fd5b5050565b505050505050565b505050505050565b611fce8473ffffffffffffffffffffffffffffffffffffffff16612640565b1561217e578373ffffffffffffffffffffffffffffffffffffffff1663bc197c8187878686866040518663ffffffff1660e01b8152600401612014959493929190614013565b6020604051808303816000875af192505050801561205057506040513d601f19601f8201168201806040525081019061204d9190614090565b60015b6120f55761205c6140ca565b806308c379a0036120b857506120706140ec565b8061207b57506120ba565b806040517f08c379a00000000000000000000000000000000000000000000000000000000081526004016120af91906128ed565b60405180910390fd5b505b6040517f08c379a00000000000000000000000000000000000000000000000000000000081526004016120ec906141ee565b60405180910390fd5b63bc197c8160e01b7bffffffffffffffffffffffffffffffffffffffffffffffffffffffff1916817bffffffffffffffffffffffffffffffffffffffffffffffffffffffff19161461217c576040517f08c379a000000000000000000000000000000000000000000000000000000000815260040161217390614280565b60405180910390fd5b505b505050505050565b60606000600167ffffffffffffffff8111156121a5576121a4612a6f565b5b6040519080825280602002602001820160405280156121d35781602001602082028036833780820191505090505b50905082816000815181106121eb576121ea613725565b5b60200260200101818152505080915050919050565b61221f8473ffffffffffffffffffffffffffffffffffffffff16612640565b156123cf578373ffffffffffffffffffffffffffffffffffffffff1663f23a6e6187878686866040518663ffffffff1660e01b81526004016122659594939291906142a0565b6020604051808303816000875af19250505080156122a157506040513d601f19601f8201168201806040525081019061229e9190614090565b60015b612346576122ad6140ca565b806308c379a00361230957506122c16140ec565b806122cc575061230b565b806040517f08c379a000000000000000000000000000000000000000000000000000000000815260040161230091906128ed565b60405180910390fd5b505b6040517f08c379a000000000000000000000000000000000000000000000000000000000815260040161233d906141ee565b60405180910390fd5b63f23a6e6160e01b7bffffffffffffffffffffffffffffffffffffffffffffffffffffffff1916817bffffffffffffffffffffffffffffffffffffffffffffffffffffffff1916146123cd576040517f08c379a00000000000000000000000000000000000000000000000000000000081526004016123c490614280565b60405180910390fd5b505b505050505050565b60606123fd8273ffffffffffffffffffffffffffffffffffffffff16601460ff16612404565b9050919050565b60606000600283600261241791906142fa565b612421919061379c565b67ffffffffffffffff81111561243a57612439612a6f565b5b6040519080825280601f01601f19166020018201604052801561246c5781602001600182028036833780820191505090505b5090507f3000000000000000000000000000000000000000000000000000000000000000816000815181106124a4576124a3613725565b5b60200101907effffffffffffffffffffffffffffffffffffffffffffffffffffffffffffff1916908160001a9053507f78000000000000000000000000000000000000000000000000000000000000008160018151811061250857612507613725565b5b60200101907effffffffffffffffffffffffffffffffffffffffffffffffffffffffffffff1916908160001a9053506000600184600261254891906142fa565b612552919061379c565b90505b60018111156125f2577f3031323334353637383961626364656600000000000000000000000000000000600f86166010811061259457612593613725565b5b1a60f81b8282815181106125ab576125aa613725565b5b60200101907effffffffffffffffffffffffffffffffffffffffffffffffffffffffffffff1916908160001a905350600485901c9450806125eb9061433c565b9050612555565b5060008414612636576040517f08c379a000000000000000000000000000000000000000000000000000000000815260040161262d906143b1565b60405180910390fd5b8091505092915050565b6000808273ffffffffffffffffffffffffffffffffffffffff163b119050919050565b6000604051905090565b600080fd5b600080fd5b600073ffffffffffffffffffffffffffffffffffffffff82169050919050565b60006126a282612677565b9050919050565b6126b281612697565b81146126bd57600080fd5b50565b6000813590506126cf816126a9565b92915050565b6000819050919050565b6126e8816126d5565b81146126f357600080fd5b50565b600081359050612705816126df565b92915050565b600080604083850312156127225761272161266d565b5b6000612730858286016126c0565b9250506020612741858286016126f6565b9150509250929050565b612754816126d5565b82525050565b600060208201905061276f600083018461274b565b92915050565b60007fffffffff0000000000000000000000000000000000000000000000000000000082169050919050565b6127aa81612775565b81146127b557600080fd5b50565b6000813590506127c7816127a1565b92915050565b6000602082840312156127e3576127e261266d565b5b60006127f1848285016127b8565b91505092915050565b60008115159050919050565b61280f816127fa565b82525050565b600060208201905061282a6000830184612806565b92915050565b6000602082840312156128465761284561266d565b5b6000612854848285016126f6565b91505092915050565b600081519050919050565b600082825260208201905092915050565b60005b8381101561289757808201518184015260208101905061287c565b60008484015250505050565b6000601f19601f8301169050919050565b60006128bf8261285d565b6128c98185612868565b93506128d9818560208601612879565b6128e2816128a3565b840191505092915050565b6000602082019050818103600083015261290781846128b4565b905092915050565b600067ffffffffffffffff82169050919050565b61292c8161290f565b811461293757600080fd5b50565b60008135905061294981612923565b92915050565b600080604083850312156129665761296561266d565b5b6000612974858286016126f6565b92505060206129858582860161293a565b9150509250929050565b600077ffffffffffffffffffffffffffffffffffffffffffffffff82169050919050565b6129bc8161298f565b82525050565b60006020820190506129d760008301846129b3565b92915050565b6000819050919050565b6129f0816129dd565b81146129fb57600080fd5b50565b600081359050612a0d816129e7565b92915050565b600060208284031215612a2957612a2861266d565b5b6000612a37848285016129fe565b91505092915050565b612a49816129dd565b82525050565b6000602082019050612a646000830184612a40565b92915050565b600080fd5b7f4e487b7100000000000000000000000000000000000000000000000000000000600052604160045260246000fd5b612aa7826128a3565b810181811067ffffffffffffffff82111715612ac657612ac5612a6f565b5b80604052505050565b6000612ad9612663565b9050612ae58282612a9e565b919050565b600067ffffffffffffffff821115612b0557612b04612a6f565b5b602082029050602081019050919050565b600080fd5b6000612b2e612b2984612aea565b612acf565b90508083825260208201905060208402830185811115612b5157612b50612b16565b5b835b81811015612b7a5780612b6688826126f6565b845260208401935050602081019050612b53565b5050509392505050565b600082601f830112612b9957612b98612a6a565b5b8135612ba9848260208601612b1b565b91505092915050565b600080fd5b600067ffffffffffffffff821115612bd257612bd1612a6f565b5b612bdb826128a3565b9050602081019050919050565b82818337600083830152505050565b6000612c0a612c0584612bb7565b612acf565b905082815260208101848484011115612c2657612c25612bb2565b5b612c31848285612be8565b509392505050565b600082601f830112612c4e57612c4d612a6a565b5b8135612c5e848260208601612bf7565b91505092915050565b600080600080600060a08688031215612c8357612c8261266d565b5b6000612c91888289016126c0565b9550506020612ca2888289016126c0565b945050604086013567ffffffffffffffff811115612cc357612cc2612672565b5b612ccf88828901612b84565b935050606086013567ffffffffffffffff811115612cf057612cef612672565b5b612cfc88828901612b84565b925050608086013567ffffffffffffffff811115612d1d57612d1c612672565b5b612d2988828901612c39565b9150509295509295909350565b60008060408385031215612d4d57612d4c61266d565b5b6000612d5b858286016129fe565b9250506020612d6c858286016126c0565b9150509250929050565b600067ffffffffffffffff821115612d9157612d90612a6f565b5b602082029050602081019050919050565b6000612db5612db084612d76565b612acf565b90508083825260208201905060208402830185811115612dd857612dd7612b16565b5b835b81811015612e015780612ded88826126c0565b845260208401935050602081019050612dda565b5050509392505050565b600082601f830112612e2057612e1f612a6a565b5b8135612e30848260208601612da2565b91505092915050565b60008060408385031215612e5057612e4f61266d565b5b600083013567ffffffffffffffff811115612e6e57612e6d612672565b5b612e7a85828601612e0b565b925050602083013567ffffffffffffffff811115612e9b57612e9a612672565b5b612ea785828601612b84565b9150509250929050565b600081519050919050565b600082825260208201905092915050565b6000819050602082019050919050565b612ee6816126d5565b82525050565b6000612ef88383612edd565b60208301905092915050565b6000602082019050919050565b6000612f1c82612eb1565b612f268185612ebc565b9350612f3183612ecd565b8060005b83811015612f62578151612f498882612eec565b9750612f5483612f04565b925050600181019050612f35565b5085935050505092915050565b60006020820190508181036000830152612f898184612f11565b905092915050565b612f9a8161290f565b82525050565b6000604082019050612fb560008301856129b3565b612fc26020830184612f91565b9392505050565b612fd28161298f565b8114612fdd57600080fd5b50565b600081359050612fef81612fc9565b92915050565b6000806040838503121561300c5761300b61266d565b5b600061301a85828601612fe0565b925050602061302b858286016126f6565b9150509250929050565b61303e816127fa565b811461304957600080fd5b50565b60008135905061305b81613035565b92915050565b600080604083850312156130785761307761266d565b5b6000613086858286016126c0565b92505060206130978582860161304c565b9150509250929050565b600080fd5b60008083601f8401126130bc576130bb612a6a565b5b8235905067ffffffffffffffff8111156130d9576130d86130a1565b5b6020830191508360018202830111156130f5576130f4612b16565b5b9250929050565b600080600080606085870312156131165761311561266d565b5b6000613124878288016126c0565b945050602061313587828801612fe0565b935050604085013567ffffffffffffffff81111561315657613155612672565b5b613162878288016130a6565b925092505092959194509250565b600080604083850312156131875761318661266d565b5b600061319585828601612fe0565b92505060206131a68582860161293a565b9150509250929050565b6000819050919050565b60006131d56131d06131cb84612677565b6131b0565b612677565b9050919050565b60006131e7826131ba565b9050919050565b60006131f9826131dc565b9050919050565b613209816131ee565b82525050565b60006020820190506132246000830184613200565b92915050565b600080604083850312156132415761324061266d565b5b600061324f858286016126c0565b9250506020613260858286016126c0565b9150509250929050565b600080600080600060a086880312156132865761328561266d565b5b6000613294888289016126c0565b95505060206132a5888289016126c0565b94505060406132b6888289016126f6565b93505060606132c7888289016126f6565b925050608086013567ffffffffffffffff8111156132e8576132e7612672565b5b6132f488828901612c39565b9150509295509295909350565b7f455243313135353a2061646472657373207a65726f206973206e6f742061207660008201527f616c6964206f776e657200000000000000000000000000000000000000000000602082015250565b600061335d602a83612868565b915061336882613301565b604082019050919050565b6000602082019050818103600083015261338c81613350565b9050919050565b7f4e487b7100000000000000000000000000000000000000000000000000000000600052602260045260246000fd5b600060028204905060018216806133da57607f821691505b6020821081036133ed576133ec613393565b5b50919050565b600081519050613402816126a9565b92915050565b60006020828403121561341e5761341d61266d565b5b600061342c848285016133f3565b91505092915050565b7f54686520636f6e7472616374206d757374206f776e207468652070756e6b0000600082015250565b600061346b601e83612868565b915061347682613435565b602082019050919050565b6000602082019050818103600083015261349a8161345e565b9050919050565b7f4e487b7100000000000000000000000000000000000000000000000000000000600052601160045260246000fd5b60006134db8261298f565b915077ffffffffffffffffffffffffffffffffffffffffffffffff8203613505576135046134a1565b5b600182019050919050565b600061351b8261290f565b915067ffffffffffffffff8203613535576135346134a1565b5b600182019050919050565b7f4e487b7100000000000000000000000000000000000000000000000000000000600052602160045260246000fd5b7f455243313135353a2063616c6c6572206973206e6f7420746f6b656e206f776e60008201527f6572206f7220617070726f766564000000000000000000000000000000000000602082015250565b60006135cb602e83612868565b91506135d68261356f565b604082019050919050565b600060208201905081810360008301526135fa816135be565b9050919050565b7f416363657373436f6e74726f6c3a2063616e206f6e6c792072656e6f756e636560008201527f20726f6c657320666f722073656c660000000000000000000000000000000000602082015250565b600061365d602f83612868565b915061366882613601565b604082019050919050565b6000602082019050818103600083015261368c81613650565b9050919050565b7f455243313135353a206163636f756e747320616e6420696473206c656e67746860008201527f206d69736d617463680000000000000000000000000000000000000000000000602082015250565b60006136ef602983612868565b91506136fa82613693565b604082019050919050565b6000602082019050818103600083015261371e816136e2565b9050919050565b7f4e487b7100000000000000000000000000000000000000000000000000000000600052603260045260246000fd5b600061375f826126d5565b91507fffffffffffffffffffffffffffffffffffffffffffffffffffffffffffffffff8203613791576137906134a1565b5b600182019050919050565b60006137a7826126d5565b91506137b2836126d5565b92508282019050808211156137ca576137c96134a1565b5b92915050565b60006137db826126d5565b91506137e6836126d5565b92508282039050818111156137fe576137fd6134a1565b5b92915050565b7f4f726967696e616c206d75737420626520696e697469616c697a65642066697260008201527f7374000000000000000000000000000000000000000000000000000000000000602082015250565b6000613860602283612868565b915061386b82613804565b604082019050919050565b6000602082019050818103600083015261388f81613853565b9050919050565b600082905092915050565b60008190508160005260206000209050919050565b60006020601f8301049050919050565b600082821b905092915050565b6000600883026139037fffffffffffffffffffffffffffffffffffffffffffffffffffffffffffffffff826138c6565b61390d86836138c6565b95508019841693508086168417925050509392505050565b600061394061393b613936846126d5565b6131b0565b6126d5565b9050919050565b6000819050919050565b61395a83613925565b61396e61396682613947565b8484546138d3565b825550505050565b600090565b613983613976565b61398e818484613951565b505050565b5b818110156139b2576139a760008261397b565b600181019050613994565b5050565b601f8211156139f7576139c8816138a1565b6139d1846138b6565b810160208510156139e0578190505b6139f46139ec856138b6565b830182613993565b50505b505050565b600082821c905092915050565b6000613a1a600019846008026139fc565b1980831691505092915050565b6000613a338383613a09565b9150826002028217905092915050565b613a4d8383613896565b67ffffffffffffffff811115613a6657613a65612a6f565b5b613a7082546133c2565b613a7b8282856139b6565b6000601f831160018114613aaa5760008415613a98578287013590505b613aa28582613a27565b865550613b0a565b601f198416613ab8866138a1565b60005b82811015613ae057848901358255600182019150602085019450602081019050613abb565b86831015613afd5784890135613af9601f891682613a09565b8355505b6001600288020188555050505b50505050505050565b60006fffffffffffffffffffffffffffffffff82169050919050565b6000613b3a82613b13565b91506fffffffffffffffffffffffffffffffff8203613b5c57613b5b6134a1565b5b600182019050919050565b7f455243313135353a2069647320616e6420616d6f756e7473206c656e6774682060008201527f6d69736d61746368000000000000000000000000000000000000000000000000602082015250565b6000613bc3602883612868565b9150613bce82613b67565b604082019050919050565b60006020820190508181036000830152613bf281613bb6565b9050919050565b7f455243313135353a207472616e7366657220746f20746865207a65726f20616460008201527f6472657373000000000000000000000000000000000000000000000000000000602082015250565b6000613c55602583612868565b9150613c6082613bf9565b604082019050919050565b60006020820190508181036000830152613c8481613c48565b9050919050565b7f455243313135353a20696e73756666696369656e742062616c616e636520666f60008201527f72207472616e7366657200000000000000000000000000000000000000000000602082015250565b6000613ce7602a83612868565b9150613cf282613c8b565b604082019050919050565b60006020820190508181036000830152613d1681613cda565b9050919050565b60006040820190508181036000830152613d378185612f11565b90508181036020830152613d4b8184612f11565b90509392505050565b7f455243313135353a2073657474696e6720617070726f76616c2073746174757360008201527f20666f722073656c660000000000000000000000000000000000000000000000602082015250565b6000613db0602983612868565b9150613dbb82613d54565b604082019050919050565b60006020820190508181036000830152613ddf81613da3565b9050919050565b7f455243313135353a206d696e7420746f20746865207a65726f2061646472657360008201527f7300000000000000000000000000000000000000000000000000000000000000602082015250565b6000613e42602183612868565b9150613e4d82613de6565b604082019050919050565b60006020820190508181036000830152613e7181613e35565b9050919050565b6000604082019050613e8d600083018561274b565b613e9a602083018461274b565b9392505050565b600081905092915050565b7f416363657373436f6e74726f6c3a206163636f756e7420000000000000000000600082015250565b6000613ee2601783613ea1565b9150613eed82613eac565b601782019050919050565b6000613f038261285d565b613f0d8185613ea1565b9350613f1d818560208601612879565b80840191505092915050565b7f206973206d697373696e6720726f6c6520000000000000000000000000000000600082015250565b6000613f5f601183613ea1565b9150613f6a82613f29565b601182019050919050565b6000613f8082613ed5565b9150613f8c8285613ef8565b9150613f9782613f52565b9150613fa38284613ef8565b91508190509392505050565b613fb881612697565b82525050565b600081519050919050565b600082825260208201905092915050565b6000613fe582613fbe565b613fef8185613fc9565b9350613fff818560208601612879565b614008816128a3565b840191505092915050565b600060a0820190506140286000830188613faf565b6140356020830187613faf565b81810360408301526140478186612f11565b9050818103606083015261405b8185612f11565b9050818103608083015261406f8184613fda565b90509695505050505050565b60008151905061408a816127a1565b92915050565b6000602082840312156140a6576140a561266d565b5b60006140b48482850161407b565b91505092915050565b60008160e01c9050919050565b600060033d11156140e95760046000803e6140e66000516140bd565b90505b90565b600060443d10614179576140fe612663565b60043d036004823e80513d602482011167ffffffffffffffff82111715614126575050614179565b808201805167ffffffffffffffff8111156141445750505050614179565b80602083010160043d038501811115614161575050505050614179565b61417082602001850186612a9e565b82955050505050505b90565b7f455243313135353a207472616e7366657220746f206e6f6e2d4552433131353560008201527f526563656976657220696d706c656d656e746572000000000000000000000000602082015250565b60006141d8603483612868565b91506141e38261417c565b604082019050919050565b60006020820190508181036000830152614207816141cb565b9050919050565b7f455243313135353a204552433131353552656365697665722072656a6563746560008201527f6420746f6b656e73000000000000000000000000000000000000000000000000602082015250565b600061426a602883612868565b91506142758261420e565b604082019050919050565b600060208201905081810360008301526142998161425d565b9050919050565b600060a0820190506142b56000830188613faf565b6142c26020830187613faf565b6142cf604083018661274b565b6142dc606083018561274b565b81810360808301526142ee8184613fda565b90509695505050505050565b6000614305826126d5565b9150614310836126d5565b925082820261431e816126d5565b91508282048414831517614335576143346134a1565b5b5092915050565b6000614347826126d5565b91506000820361435a576143596134a1565b5b600182039050919050565b7f537472696e67733a20686578206c656e67746820696e73756666696369656e74600082015250565b600061439b602083612868565b91506143a682614365565b602082019050919050565b600060208201905081810360008301526143ca8161438e565b905091905056fea264697066735822122033283c6b88810d4f1692d1cbd2ffb01f7d6c85331cbc140525a6b75b5912e06d64736f6c63430008110033",
  "devdoc": {
    "kind": "dev",
    "methods": {
      "balanceOf(address,uint256)": {
        "details": "See {IERC1155-balanceOf}. Requirements: - `account` cannot be the zero address."
      },
      "balanceOfBatch(address[],uint256[])": {
        "details": "See {IERC1155-balanceOfBatch}. Requirements: - `accounts` and `ids` must have the same length."
      },
      "getRoleAdmin(bytes32)": {
        "details": "Returns the admin role that controls `role`. See {grantRole} and {revokeRole}. To change a role's admin, use {_setRoleAdmin}."
      },
      "grantRole(bytes32,address)": {
        "details": "Grants `role` to `account`. If `account` had not been already granted `role`, emits a {RoleGranted} event. Requirements: - the caller must have ``role``'s admin role. May emit a {RoleGranted} event."
      },
      "hasRole(bytes32,address)": {
        "details": "Returns `true` if `account` has been granted `role`."
      },
      "isApprovedForAll(address,address)": {
        "details": "See {IERC1155-isApprovedForAll}."
      },
      "renounceRole(bytes32,address)": {
        "details": "Revokes `role` from the calling account. Roles are often managed via {grantRole} and {revokeRole}: this function's purpose is to provide a mechanism for accounts to lose their privileges if they are compromised (such as when a trusted device is misplaced). If the calling account had been revoked `role`, emits a {RoleRevoked} event. Requirements: - the caller must be `account`. May emit a {RoleRevoked} event."
      },
      "revokeRole(bytes32,address)": {
        "details": "Revokes `role` from `account`. If `account` had been granted `role`, emits a {RoleRevoked} event. Requirements: - the caller must have ``role``'s admin role. May emit a {RoleRevoked} event."
      },
      "safeBatchTransferFrom(address,address,uint256[],uint256[],bytes)": {
        "details": "See {IERC1155-safeBatchTransferFrom}."
      },
      "safeTransferFrom(address,address,uint256,uint256,bytes)": {
        "details": "See {IERC1155-safeTransferFrom}."
      },
      "setApprovalForAll(address,bool)": {
        "details": "See {IERC1155-setApprovalForAll}."
      }
    },
    "stateVariables": {
      "latestMonoIds": {
        "details": "0 represents the Original; each Mono is assigned an ID starting from 1.      originalId => latestMonoId"
      },
      "latestOriginalId": {
        "details": "used as a `originalId`, starting from 1."
      },
      "metadata": {
        "details": "mosaicId (originalId + monoId) => uri"
      }
    },
    "version": 1
  },
  "userdoc": {
    "kind": "user",
    "methods": {},
    "version": 1
  },
  "storageLayout": {
    "storage": [
      {
        "astId": 468,
        "contract": "src/CryptoPunksMosaicRegistry.sol:CryptoPunksMosaicRegistry",
        "label": "_balances",
        "offset": 0,
        "slot": "0",
        "type": "t_mapping(t_uint256,t_mapping(t_address,t_uint256))"
      },
      {
        "astId": 474,
        "contract": "src/CryptoPunksMosaicRegistry.sol:CryptoPunksMosaicRegistry",
        "label": "_operatorApprovals",
        "offset": 0,
        "slot": "1",
        "type": "t_mapping(t_address,t_mapping(t_address,t_bool))"
      },
      {
        "astId": 476,
        "contract": "src/CryptoPunksMosaicRegistry.sol:CryptoPunksMosaicRegistry",
        "label": "_uri",
        "offset": 0,
        "slot": "2",
        "type": "t_string_storage"
      },
      {
        "astId": 24,
        "contract": "src/CryptoPunksMosaicRegistry.sol:CryptoPunksMosaicRegistry",
        "label": "_roles",
        "offset": 0,
        "slot": "3",
        "type": "t_mapping(t_bytes32,t_struct(RoleData)19_storage)"
      },
      {
        "astId": 5765,
        "contract": "src/CryptoPunksMosaicRegistry.sol:CryptoPunksMosaicRegistry",
        "label": "latestOriginalId",
        "offset": 0,
        "slot": "4",
        "type": "t_uint192"
      },
      {
        "astId": 5770,
        "contract": "src/CryptoPunksMosaicRegistry.sol:CryptoPunksMosaicRegistry",
        "label": "originals",
        "offset": 0,
        "slot": "5",
        "type": "t_mapping(t_uint192,t_struct(Original)6220_storage)"
      },
      {
        "astId": 5775,
        "contract": "src/CryptoPunksMosaicRegistry.sol:CryptoPunksMosaicRegistry",
        "label": "latestMonoIds",
        "offset": 0,
        "slot": "6",
        "type": "t_mapping(t_uint192,t_uint64)"
      },
      {
        "astId": 5780,
        "contract": "src/CryptoPunksMosaicRegistry.sol:CryptoPunksMosaicRegistry",
        "label": "metadata",
        "offset": 0,
        "slot": "7",
        "type": "t_mapping(t_uint256,t_string_storage)"
      }
    ],
    "types": {
      "t_address": {
        "encoding": "inplace",
        "label": "address",
        "numberOfBytes": "20"
      },
      "t_bool": {
        "encoding": "inplace",
        "label": "bool",
        "numberOfBytes": "1"
      },
      "t_bytes32": {
        "encoding": "inplace",
        "label": "bytes32",
        "numberOfBytes": "32"
      },
      "t_enum(OriginalStatus)6224": {
        "encoding": "inplace",
        "label": "enum UsingCryptoPunksMosaicRegistryStructs.OriginalStatus",
        "numberOfBytes": "1"
      },
      "t_mapping(t_address,t_bool)": {
        "encoding": "mapping",
        "key": "t_address",
        "label": "mapping(address => bool)",
        "numberOfBytes": "32",
        "value": "t_bool"
      },
      "t_mapping(t_address,t_mapping(t_address,t_bool))": {
        "encoding": "mapping",
        "key": "t_address",
        "label": "mapping(address => mapping(address => bool))",
        "numberOfBytes": "32",
        "value": "t_mapping(t_address,t_bool)"
      },
      "t_mapping(t_address,t_uint256)": {
        "encoding": "mapping",
        "key": "t_address",
        "label": "mapping(address => uint256)",
        "numberOfBytes": "32",
        "value": "t_uint256"
      },
      "t_mapping(t_bytes32,t_struct(RoleData)19_storage)": {
        "encoding": "mapping",
        "key": "t_bytes32",
        "label": "mapping(bytes32 => struct AccessControl.RoleData)",
        "numberOfBytes": "32",
        "value": "t_struct(RoleData)19_storage"
      },
      "t_mapping(t_uint192,t_struct(Original)6220_storage)": {
        "encoding": "mapping",
        "key": "t_uint192",
        "label": "mapping(uint192 => struct UsingCryptoPunksMosaicRegistryStructs.Original)",
        "numberOfBytes": "32",
        "value": "t_struct(Original)6220_storage"
      },
      "t_mapping(t_uint192,t_uint64)": {
        "encoding": "mapping",
        "key": "t_uint192",
        "label": "mapping(uint192 => uint64)",
        "numberOfBytes": "32",
        "value": "t_uint64"
      },
      "t_mapping(t_uint256,t_mapping(t_address,t_uint256))": {
        "encoding": "mapping",
        "key": "t_uint256",
        "label": "mapping(uint256 => mapping(address => uint256))",
        "numberOfBytes": "32",
        "value": "t_mapping(t_address,t_uint256)"
      },
      "t_mapping(t_uint256,t_string_storage)": {
        "encoding": "mapping",
        "key": "t_uint256",
        "label": "mapping(uint256 => string)",
        "numberOfBytes": "32",
        "value": "t_string_storage"
      },
      "t_string_storage": {
        "encoding": "bytes",
        "label": "string",
        "numberOfBytes": "32"
      },
      "t_struct(Bid)6231_storage": {
        "encoding": "inplace",
        "label": "struct UsingCryptoPunksMosaicRegistryStructs.Bid",
        "members": [
          {
            "astId": 6226,
            "contract": "src/CryptoPunksMosaicRegistry.sol:CryptoPunksMosaicRegistry",
            "label": "bidder",
            "offset": 0,
            "slot": "0",
            "type": "t_address"
          },
          {
            "astId": 6228,
            "contract": "src/CryptoPunksMosaicRegistry.sol:CryptoPunksMosaicRegistry",
            "label": "expiry",
            "offset": 20,
            "slot": "0",
            "type": "t_uint40"
          },
          {
            "astId": 6230,
            "contract": "src/CryptoPunksMosaicRegistry.sol:CryptoPunksMosaicRegistry",
            "label": "price",
            "offset": 0,
            "slot": "1",
            "type": "t_uint256"
          }
        ],
        "numberOfBytes": "64"
      },
      "t_struct(Original)6220_storage": {
        "encoding": "inplace",
        "label": "struct UsingCryptoPunksMosaicRegistryStructs.Original",
        "members": [
          {
            "astId": 6206,
            "contract": "src/CryptoPunksMosaicRegistry.sol:CryptoPunksMosaicRegistry",
            "label": "id",
            "offset": 0,
            "slot": "0",
            "type": "t_uint192"
          },
          {
            "astId": 6208,
            "contract": "src/CryptoPunksMosaicRegistry.sol:CryptoPunksMosaicRegistry",
            "label": "punkId",
            "offset": 0,
            "slot": "1",
            "type": "t_uint256"
          },
          {
            "astId": 6211,
            "contract": "src/CryptoPunksMosaicRegistry.sol:CryptoPunksMosaicRegistry",
            "label": "totalMonoCount",
            "offset": 0,
            "slot": "2",
            "type": "t_uint128"
          },
          {
            "astId": 6213,
            "contract": "src/CryptoPunksMosaicRegistry.sol:CryptoPunksMosaicRegistry",
            "label": "claimedMonoCount",
            "offset": 16,
            "slot": "2",
            "type": "t_uint128"
          },
          {
            "astId": 6216,
            "contract": "src/CryptoPunksMosaicRegistry.sol:CryptoPunksMosaicRegistry",
            "label": "status",
            "offset": 0,
            "slot": "3",
            "type": "t_enum(OriginalStatus)6224"
          },
          {
            "astId": 6219,
            "contract": "src/CryptoPunksMosaicRegistry.sol:CryptoPunksMosaicRegistry",
            "label": "bid",
            "offset": 0,
            "slot": "4",
            "type": "t_struct(Bid)6231_storage"
          }
        ],
        "numberOfBytes": "192"
      },
      "t_struct(RoleData)19_storage": {
        "encoding": "inplace",
        "label": "struct AccessControl.RoleData",
        "members": [
          {
            "astId": 16,
            "contract": "src/CryptoPunksMosaicRegistry.sol:CryptoPunksMosaicRegistry",
            "label": "members",
            "offset": 0,
            "slot": "0",
            "type": "t_mapping(t_address,t_bool)"
          },
          {
            "astId": 18,
            "contract": "src/CryptoPunksMosaicRegistry.sol:CryptoPunksMosaicRegistry",
            "label": "adminRole",
            "offset": 0,
            "slot": "1",
            "type": "t_bytes32"
          }
        ],
        "numberOfBytes": "64"
      },
      "t_uint128": {
        "encoding": "inplace",
        "label": "uint128",
        "numberOfBytes": "16"
      },
      "t_uint192": {
        "encoding": "inplace",
        "label": "uint192",
        "numberOfBytes": "24"
      },
      "t_uint256": {
        "encoding": "inplace",
        "label": "uint256",
        "numberOfBytes": "32"
      },
      "t_uint40": {
        "encoding": "inplace",
        "label": "uint40",
        "numberOfBytes": "5"
      },
      "t_uint64": {
        "encoding": "inplace",
        "label": "uint64",
        "numberOfBytes": "8"
      }
    }
  }
}