{
  "address": "0xfA4608C6F462465d2FFDEd44B92295a3bEeF7852",
  "abi": [
    {
      "inputs": [
        {
          "internalType": "address",
          "name": "cryptoPunksMarketAddress",
          "type": "address"
        },
        {
          "internalType": "address",
          "name": "mosaicRegistryAddress",
          "type": "address"
        }
      ],
      "stateMutability": "nonpayable",
      "type": "constructor"
    },
    {
      "anonymous": false,
      "inputs": [
        {
          "indexed": true,
          "internalType": "address",
          "name": "account",
          "type": "address"
        },
        {
          "indexed": true,
          "internalType": "address",
          "name": "operator",
          "type": "address"
        },
        {
          "indexed": false,
          "internalType": "bool",
          "name": "approved",
          "type": "bool"
        }
      ],
      "name": "ApprovalForAll",
      "type": "event"
    },
    {
      "anonymous": false,
      "inputs": [
        {
          "indexed": true,
          "internalType": "address",
          "name": "claimer",
          "type": "address"
        },
        {
          "indexed": true,
          "internalType": "uint192",
          "name": "groupId",
          "type": "uint192"
        },
        {
          "indexed": true,
          "internalType": "uint256",
          "name": "mosaicId",
          "type": "uint256"
        }
      ],
      "name": "Claimed",
      "type": "event"
    },
    {
      "anonymous": false,
      "inputs": [
        {
          "indexed": true,
          "internalType": "address",
          "name": "contributor",
          "type": "address"
        },
        {
          "indexed": true,
          "internalType": "uint192",
          "name": "groupId",
          "type": "uint192"
        },
        {
          "indexed": true,
          "internalType": "uint96",
          "name": "ticketQuantity",
          "type": "uint96"
        }
      ],
      "name": "Contributed",
      "type": "event"
    },
    {
      "anonymous": false,
      "inputs": [
        {
          "indexed": true,
          "internalType": "uint192",
          "name": "groupId",
          "type": "uint192"
        },
        {
          "indexed": true,
          "internalType": "address",
          "name": "creator",
          "type": "address"
        },
        {
          "indexed": false,
          "internalType": "uint256",
          "name": "targetMaxPrice",
          "type": "uint256"
        },
        {
          "indexed": false,
          "internalType": "uint64",
          "name": "totalTicketSupply",
          "type": "uint64"
        },
        {
          "indexed": false,
          "internalType": "uint256",
          "name": "unitTicketPrice",
          "type": "uint256"
        }
      ],
      "name": "GroupCreated",
      "type": "event"
    },
    {
      "anonymous": false,
      "inputs": [
        {
          "indexed": true,
          "internalType": "uint192",
          "name": "groupId",
          "type": "uint192"
        }
      ],
      "name": "GroupWon",
      "type": "event"
    },
    {
      "anonymous": false,
      "inputs": [
        {
          "indexed": true,
          "internalType": "bytes32",
          "name": "role",
          "type": "bytes32"
        },
        {
          "indexed": true,
          "internalType": "bytes32",
          "name": "previousAdminRole",
          "type": "bytes32"
        },
        {
          "indexed": true,
          "internalType": "bytes32",
          "name": "newAdminRole",
          "type": "bytes32"
        }
      ],
      "name": "RoleAdminChanged",
      "type": "event"
    },
    {
      "anonymous": false,
      "inputs": [
        {
          "indexed": true,
          "internalType": "bytes32",
          "name": "role",
          "type": "bytes32"
        },
        {
          "indexed": true,
          "internalType": "address",
          "name": "account",
          "type": "address"
        },
        {
          "indexed": true,
          "internalType": "address",
          "name": "sender",
          "type": "address"
        }
      ],
      "name": "RoleGranted",
      "type": "event"
    },
    {
      "anonymous": false,
      "inputs": [
        {
          "indexed": true,
          "internalType": "bytes32",
          "name": "role",
          "type": "bytes32"
        },
        {
          "indexed": true,
          "internalType": "address",
          "name": "account",
          "type": "address"
        },
        {
          "indexed": true,
          "internalType": "address",
          "name": "sender",
          "type": "address"
        }
      ],
      "name": "RoleRevoked",
      "type": "event"
    },
    {
      "anonymous": false,
      "inputs": [
        {
          "indexed": true,
          "internalType": "address",
          "name": "operator",
          "type": "address"
        },
        {
          "indexed": true,
          "internalType": "address",
          "name": "from",
          "type": "address"
        },
        {
          "indexed": true,
          "internalType": "address",
          "name": "to",
          "type": "address"
        },
        {
          "indexed": false,
          "internalType": "uint256[]",
          "name": "ids",
          "type": "uint256[]"
        },
        {
          "indexed": false,
          "internalType": "uint256[]",
          "name": "values",
          "type": "uint256[]"
        }
      ],
      "name": "TransferBatch",
      "type": "event"
    },
    {
      "anonymous": false,
      "inputs": [
        {
          "indexed": true,
          "internalType": "address",
          "name": "operator",
          "type": "address"
        },
        {
          "indexed": true,
          "internalType": "address",
          "name": "from",
          "type": "address"
        },
        {
          "indexed": true,
          "internalType": "address",
          "name": "to",
          "type": "address"
        },
        {
          "indexed": false,
          "internalType": "uint256",
          "name": "id",
          "type": "uint256"
        },
        {
          "indexed": false,
          "internalType": "uint256",
          "name": "value",
          "type": "uint256"
        }
      ],
      "name": "TransferSingle",
      "type": "event"
    },
    {
      "anonymous": false,
      "inputs": [
        {
          "indexed": false,
          "internalType": "string",
          "name": "value",
          "type": "string"
        },
        {
          "indexed": true,
          "internalType": "uint256",
          "name": "id",
          "type": "uint256"
        }
      ],
      "name": "URI",
      "type": "event"
    },
    {
      "inputs": [],
      "name": "DEFAULT_ADMIN_ROLE",
      "outputs": [
        {
          "internalType": "bytes32",
          "name": "",
          "type": "bytes32"
        }
      ],
      "stateMutability": "view",
      "type": "function"
    },
    {
      "inputs": [],
      "name": "TICKET_SUPPLY_PER_GROUP",
      "outputs": [
        {
          "internalType": "uint64",
          "name": "",
          "type": "uint64"
        }
      ],
      "stateMutability": "view",
      "type": "function"
    },
    {
      "inputs": [
        {
          "internalType": "address",
          "name": "to",
          "type": "address"
        },
        {
          "internalType": "uint256[]",
          "name": "ids",
          "type": "uint256[]"
        },
        {
          "internalType": "uint256[]",
          "name": "amounts",
          "type": "uint256[]"
        }
      ],
      "name": "airdrop",
      "outputs": [],
      "stateMutability": "nonpayable",
      "type": "function"
    },
    {
      "inputs": [
        {
          "internalType": "address",
          "name": "account",
          "type": "address"
        },
        {
          "internalType": "uint256",
          "name": "id",
          "type": "uint256"
        }
      ],
      "name": "balanceOf",
      "outputs": [
        {
          "internalType": "uint256",
          "name": "",
          "type": "uint256"
        }
      ],
      "stateMutability": "view",
      "type": "function"
    },
    {
      "inputs": [
        {
          "internalType": "address[]",
          "name": "accounts",
          "type": "address[]"
        },
        {
          "internalType": "uint256[]",
          "name": "ids",
          "type": "uint256[]"
        }
      ],
      "name": "balanceOfBatch",
      "outputs": [
        {
          "internalType": "uint256[]",
          "name": "",
          "type": "uint256[]"
        }
      ],
      "stateMutability": "view",
      "type": "function"
    },
    {
      "inputs": [
        {
          "internalType": "uint192",
          "name": "groupId",
          "type": "uint192"
        }
      ],
      "name": "buy",
      "outputs": [],
      "stateMutability": "nonpayable",
      "type": "function"
    },
    {
      "inputs": [
        {
          "internalType": "uint192",
          "name": "groupId",
          "type": "uint192"
        },
        {
          "internalType": "string",
          "name": "metadataUri",
          "type": "string"
        }
      ],
      "name": "claim",
      "outputs": [
        {
          "internalType": "uint256",
          "name": "mosaicId",
          "type": "uint256"
        }
      ],
      "stateMutability": "nonpayable",
      "type": "function"
    },
    {
      "inputs": [
        {
          "internalType": "uint192",
          "name": "groupId",
          "type": "uint192"
        },
        {
          "internalType": "uint64",
          "name": "ticketQuantity",
          "type": "uint64"
        }
      ],
      "name": "contribute",
      "outputs": [],
      "stateMutability": "payable",
      "type": "function"
    },
    {
      "inputs": [
        {
          "internalType": "uint256",
          "name": "targetPunkId",
          "type": "uint256"
        },
        {
          "internalType": "uint256",
          "name": "targetMaxPrice",
          "type": "uint256"
        }
      ],
      "name": "create",
      "outputs": [
        {
          "internalType": "uint192",
          "name": "groupId",
          "type": "uint192"
        }
      ],
      "stateMutability": "nonpayable",
      "type": "function"
    },
    {
      "inputs": [],
      "name": "cryptoPunksMarket",
      "outputs": [
        {
          "internalType": "contract ICryptoPunksMarket",
          "name": "",
          "type": "address"
        }
      ],
      "stateMutability": "view",
      "type": "function"
    },
    {
      "inputs": [
        {
          "internalType": "uint192",
          "name": "groupId",
          "type": "uint192"
        }
      ],
      "name": "finalizeOnLost",
      "outputs": [],
      "stateMutability": "nonpayable",
      "type": "function"
    },
    {
      "inputs": [
        {
          "internalType": "uint192",
          "name": "groupId",
          "type": "uint192"
        }
      ],
      "name": "finalizeOnWon",
      "outputs": [],
      "stateMutability": "nonpayable",
      "type": "function"
    },
    {
      "inputs": [
        {
          "internalType": "uint192",
          "name": "groupId",
          "type": "uint192"
        }
      ],
      "name": "getGroupInfo",
      "outputs": [
        {
          "internalType": "address",
          "name": "creator",
          "type": "address"
        },
        {
          "internalType": "uint256",
          "name": "targetMaxPrice",
          "type": "uint256"
        },
        {
          "internalType": "uint96",
          "name": "ticketsBought",
          "type": "uint96"
        },
        {
          "internalType": "enum UsingCryptoPunksGroupRegistryStructs.GroupStatus",
          "name": "status",
          "type": "uint8"
        }
      ],
      "stateMutability": "view",
      "type": "function"
    },
    {
      "inputs": [
        {
          "internalType": "uint192",
          "name": "groupId",
          "type": "uint192"
        }
      ],
      "name": "getGroupTotalContribution",
      "outputs": [
        {
          "internalType": "uint256",
          "name": "totalContribution",
          "type": "uint256"
        }
      ],
      "stateMutability": "view",
      "type": "function"
    },
    {
      "inputs": [
        {
          "internalType": "bytes32",
          "name": "role",
          "type": "bytes32"
        }
      ],
      "name": "getRoleAdmin",
      "outputs": [
        {
          "internalType": "bytes32",
          "name": "",
          "type": "bytes32"
        }
      ],
      "stateMutability": "view",
      "type": "function"
    },
    {
      "inputs": [
        {
          "internalType": "address",
          "name": "inquired",
          "type": "address"
        },
        {
          "internalType": "uint192",
          "name": "groupId",
          "type": "uint192"
        }
      ],
      "name": "getTickets",
      "outputs": [
        {
          "internalType": "uint256",
          "name": "",
          "type": "uint256"
        }
      ],
      "stateMutability": "view",
      "type": "function"
    },
    {
      "inputs": [
        {
          "internalType": "bytes32",
          "name": "role",
          "type": "bytes32"
        },
        {
          "internalType": "address",
          "name": "account",
          "type": "address"
        }
      ],
      "name": "grantRole",
      "outputs": [],
      "stateMutability": "nonpayable",
      "type": "function"
    },
    {
      "inputs": [
        {
          "internalType": "address",
          "name": "inquired",
          "type": "address"
        },
        {
          "internalType": "uint192",
          "name": "groupId",
          "type": "uint192"
        }
      ],
      "name": "hasContribution",
      "outputs": [
        {
          "internalType": "bool",
          "name": "",
          "type": "bool"
        }
      ],
      "stateMutability": "view",
      "type": "function"
    },
    {
      "inputs": [
        {
          "internalType": "bytes32",
          "name": "role",
          "type": "bytes32"
        },
        {
          "internalType": "address",
          "name": "account",
          "type": "address"
        }
      ],
      "name": "hasRole",
      "outputs": [
        {
          "internalType": "bool",
          "name": "",
          "type": "bool"
        }
      ],
      "stateMutability": "view",
      "type": "function"
    },
    {
      "inputs": [
        {
          "internalType": "address",
          "name": "account",
          "type": "address"
        },
        {
          "internalType": "address",
          "name": "operator",
          "type": "address"
        }
      ],
      "name": "isApprovedForAll",
      "outputs": [
        {
          "internalType": "bool",
          "name": "",
          "type": "bool"
        }
      ],
      "stateMutability": "view",
      "type": "function"
    },
    {
      "inputs": [
        {
          "internalType": "address",
          "name": "inquired",
          "type": "address"
        },
        {
          "internalType": "uint192",
          "name": "groupId",
          "type": "uint192"
        }
      ],
      "name": "isCreator",
      "outputs": [
        {
          "internalType": "bool",
          "name": "",
          "type": "bool"
        }
      ],
      "stateMutability": "view",
      "type": "function"
    },
    {
      "inputs": [],
      "name": "latestGroupId",
      "outputs": [
        {
          "internalType": "uint192",
          "name": "",
          "type": "uint192"
        }
      ],
      "stateMutability": "view",
      "type": "function"
    },
    {
      "inputs": [
        {
          "internalType": "uint192",
          "name": "groupId",
          "type": "uint192"
        }
      ],
      "name": "refund",
      "outputs": [],
      "stateMutability": "nonpayable",
      "type": "function"
    },
    {
      "inputs": [
        {
          "internalType": "bytes32",
          "name": "role",
          "type": "bytes32"
        },
        {
          "internalType": "address",
          "name": "account",
          "type": "address"
        }
      ],
      "name": "renounceRole",
      "outputs": [],
      "stateMutability": "nonpayable",
      "type": "function"
    },
    {
      "inputs": [
        {
          "internalType": "bytes32",
          "name": "role",
          "type": "bytes32"
        },
        {
          "internalType": "address",
          "name": "account",
          "type": "address"
        }
      ],
      "name": "revokeRole",
      "outputs": [],
      "stateMutability": "nonpayable",
      "type": "function"
    },
    {
      "inputs": [
        {
          "internalType": "address",
          "name": "from",
          "type": "address"
        },
        {
          "internalType": "address",
          "name": "to",
          "type": "address"
        },
        {
          "internalType": "uint256[]",
          "name": "ids",
          "type": "uint256[]"
        },
        {
          "internalType": "uint256[]",
          "name": "amounts",
          "type": "uint256[]"
        },
        {
          "internalType": "bytes",
          "name": "data",
          "type": "bytes"
        }
      ],
      "name": "safeBatchTransferFrom",
      "outputs": [],
      "stateMutability": "nonpayable",
      "type": "function"
    },
    {
      "inputs": [
        {
          "internalType": "address",
          "name": "from",
          "type": "address"
        },
        {
          "internalType": "address",
          "name": "to",
          "type": "address"
        },
        {
          "internalType": "uint256",
          "name": "id",
          "type": "uint256"
        },
        {
          "internalType": "uint256",
          "name": "amount",
          "type": "uint256"
        },
        {
          "internalType": "bytes",
          "name": "data",
          "type": "bytes"
        }
      ],
      "name": "safeTransferFrom",
      "outputs": [],
      "stateMutability": "nonpayable",
      "type": "function"
    },
    {
      "inputs": [
        {
          "internalType": "address",
          "name": "operator",
          "type": "address"
        },
        {
          "internalType": "bool",
          "name": "approved",
          "type": "bool"
        }
      ],
      "name": "setApprovalForAll",
      "outputs": [],
      "stateMutability": "nonpayable",
      "type": "function"
    },
    {
      "inputs": [
        {
          "internalType": "bytes4",
          "name": "interfaceId",
          "type": "bytes4"
        }
      ],
      "name": "supportsInterface",
      "outputs": [
        {
          "internalType": "bool",
          "name": "",
          "type": "bool"
        }
      ],
      "stateMutability": "view",
      "type": "function"
    },
    {
      "inputs": [
        {
          "internalType": "uint256",
          "name": "id",
          "type": "uint256"
        }
      ],
      "name": "uri",
      "outputs": [
        {
          "internalType": "string",
          "name": "",
          "type": "string"
        }
      ],
      "stateMutability": "view",
      "type": "function"
    }
  ],
  "transactionHash": "0x0883ae690a12f3107a282fcac1bceea51eaab26d9fc74039cebe0c1a1c4cf2b7",
  "args": [
    "0xcAa3c23aeEF417b00208e150ad04fD6A1878e474",
    "0x77f07731646fbE448F252d8bF211fF112B11330B"
  ],
  "numDeployments": 1,
  "solcInputHash": "2609063c40995d701a998fad141c73a2",
  "bytecode": "0x60a06040523480156200001157600080fd5b506040516200398b3803806200398b833981016040819052620000349162000182565b60408051808201909152601981527f43727970746f50756e6b73204d6f73616963205469636b65740000000000000060208201526200007381620000af565b50600160045562000086600033620000c1565b6001600160a01b03918216608052600580546001600160a01b031916919092161790556200032b565b6002620000bd82826200025f565b5050565b60008281526003602090815260408083206001600160a01b038516845290915290205460ff16620000bd5760008281526003602090815260408083206001600160a01b03851684529091529020805460ff19166001179055620001213390565b6001600160a01b0316816001600160a01b0316837f2f8788117e7eff1d82e926ec794901d17c78024a50270940304540a733656f0d60405160405180910390a45050565b80516001600160a01b03811681146200017d57600080fd5b919050565b600080604083850312156200019657600080fd5b620001a18362000165565b9150620001b16020840162000165565b90509250929050565b634e487b7160e01b600052604160045260246000fd5b600181811c90821680620001e557607f821691505b6020821081036200020657634e487b7160e01b600052602260045260246000fd5b50919050565b601f8211156200025a57600081815260208120601f850160051c81016020861015620002355750805b601f850160051c820191505b81811015620002565782815560010162000241565b5050505b505050565b81516001600160401b038111156200027b576200027b620001ba565b62000293816200028c8454620001d0565b846200020c565b602080601f831160018114620002cb5760008415620002b25750858301515b600019600386901b1c1916600185901b17855562000256565b600085815260208120601f198616915b82811015620002fc57888601518255948401946001909101908401620002db565b50858210156200031b5787850151600019600388901b60f8161c191681555b5050505050600190811b01905550565b60805161362862000363600039600081816105810152818161086c015281816116f0015281816117f2015261187601526136286000f3fe6080604052600436106101cc5760003560e01c806391d14854116100f7578063c7451dad11610095578063ddcef2b611610064578063ddcef2b6146105db578063e985e9c5146105ee578063f242432a14610637578063f77e17591461065757600080fd5b8063c7451dad1461051f578063cdcd57c61461054f578063d0d851d01461056f578063d547741f146105bb57600080fd5b8063a22cb465116100d1578063a22cb4651461049f578063ad649083146104bf578063b4ce873b146104df578063bdd99cdf146104ff57600080fd5b806391d148541461044a5780639f7b45791461046a578063a217fddf1461048a57600080fd5b80632eb2c2d61161016f5780634e1273f41161013e5780634e1273f41461039857806353b92d09146103c557806357ab7f8d1461040c57806391324a0d1461042c57600080fd5b80632eb2c2d6146103185780632f2ff15d1461033857806336568abe1461035857806344b955711461037857600080fd5b80630e89341c116101ab5780630e89341c1461026c57806323b8b46d14610299578063248a9ca3146102c6578063264bcc57146102f657600080fd5b8062fdd58e146101d157806301ffc9a71461020457806304d2c17014610234575b600080fd5b3480156101dd57600080fd5b506101f16101ec3660046128cf565b610677565b6040519081526020015b60405180910390f35b34801561021057600080fd5b5061022461021f366004612911565b610710565b60405190151581526020016101fb565b34801561024057600080fd5b50600654610254906001600160c01b031681565b6040516001600160c01b0390911681526020016101fb565b34801561027857600080fd5b5061028c61028736600461292e565b61072a565b6040516101fb9190612997565b3480156102a557600080fd5b506102ae606481565b6040516001600160401b0390911681526020016101fb565b3480156102d257600080fd5b506101f16102e136600461292e565b60009081526003602052604090206001015490565b34801561030257600080fd5b506103166103113660046129bf565b610735565b005b34801561032457600080fd5b50610316610333366004612b25565b61098c565b34801561034457600080fd5b50610316610353366004612bd2565b6109d8565b34801561036457600080fd5b50610316610373366004612bd2565b610a02565b34801561038457600080fd5b50610224610393366004612c02565b610a80565b3480156103a457600080fd5b506103b86103b3366004612c30565b610a95565b6040516101fb9190612d37565b3480156103d157600080fd5b506102246103e0366004612c02565b6001600160c01b03166000908152600760205260409020600101546001600160a01b0391821691161490565b34801561041857600080fd5b50610316610427366004612d4a565b610bbe565b34801561043857600080fd5b506103166104473660046129bf565b50565b34801561045657600080fd5b50610224610465366004612bd2565b610bea565b34801561047657600080fd5b50610254610485366004612dbf565b610c15565b34801561049657600080fd5b506101f1600081565b3480156104ab57600080fd5b506103166104ba366004612def565b610d91565b3480156104cb57600080fd5b506103166104da3660046129bf565b610d9c565b3480156104eb57600080fd5b506101f16104fa366004612c02565b611020565b34801561050b57600080fd5b506101f161051a3660046129bf565b61103c565b34801561052b57600080fd5b5061053f61053a3660046129bf565b611090565b6040516101fb9493929190612e33565b34801561055b57600080fd5b506101f161056a366004612e8b565b611121565b34801561057b57600080fd5b506105a37f000000000000000000000000000000000000000000000000000000000000000081565b6040516001600160a01b0390911681526020016101fb565b3480156105c757600080fd5b506103166105d6366004612bd2565b61133e565b6103166105e9366004612f0f565b611363565b3480156105fa57600080fd5b50610224610609366004612f49565b6001600160a01b03918216600090815260016020908152604080832093909416825291909152205460ff1690565b34801561064357600080fd5b50610316610652366004612f77565b6115d7565b34801561066357600080fd5b506103166106723660046129bf565b61161c565b60006001600160a01b0383166106e75760405162461bcd60e51b815260206004820152602a60248201527f455243313135353a2061646472657373207a65726f206973206e6f742061207660448201526930b634b21037bbb732b960b11b60648201526084015b60405180910390fd5b506000818152602081815260408083206001600160a01b03861684529091529020545b92915050565b600061071b82611997565b8061070a575061070a826119e7565b606061070a82611a0c565b60065481906001600160c01b0390811690821611156107665760405162461bcd60e51b81526004016106de90612fdf565b6001600160c01b038216600090815260076020526040902060016007820154600160681b900460ff1660038111156107a0576107a0612e1d565b146107e55760405162461bcd60e51b81526020600482015260156024820152742a34329033b937bab8103430b9903737ba103bb7b760591b60448201526064016106de565b6005546001600160a01b031661083d5760405162461bcd60e51b815260206004820152601c60248201527f45786869626974207265676973747279206d757374206265207365740000000060448201526064016106de565b60055460028201546040516322dca8bb60e21b81526001600160a01b03928316600482015260248101919091527f000000000000000000000000000000000000000000000000000000000000000090911690638b72a2ec90604401600060405180830381600087803b1580156108b257600080fd5b505af11580156108c6573d6000803e3d6000fd5b5050600554600284015460078501546040516323e9b7b360e01b815260048101929092526001600160401b031660248201526001600160a01b0390911692506323e9b7b391506044016020604051808303816000875af115801561092e573d6000803e3d6000fd5b505050506040513d601f19601f820116820180604052508101906109529190613008565b6009820180546001600160c01b0319166001600160c01b0392909216919091179055600701805460ff60681b1916600360681b1790555050565b6001600160a01b0385163314806109a857506109a88533610609565b6109c45760405162461bcd60e51b81526004016106de90613025565b6109d18585858585611a9e565b5050505050565b6000828152600360205260409020600101546109f381611c3a565b6109fd8383611c44565b505050565b6001600160a01b0381163314610a725760405162461bcd60e51b815260206004820152602f60248201527f416363657373436f6e74726f6c3a2063616e206f6e6c792072656e6f756e636560448201526e103937b632b9903337b91039b2b63360891b60648201526084016106de565b610a7c8282611cca565b5050565b600080610a8d8484611020565b119392505050565b60608151835114610afa5760405162461bcd60e51b815260206004820152602960248201527f455243313135353a206163636f756e747320616e6420696473206c656e677468604482015268040dad2e6dac2e8c6d60bb1b60648201526084016106de565b600083516001600160401b03811115610b1557610b156129dc565b604051908082528060200260200182016040528015610b3e578160200160208202803683370190505b50905060005b8451811015610bb657610b89858281518110610b6257610b62613073565b6020026020010151858381518110610b7c57610b7c613073565b6020026020010151610677565b828281518110610b9b57610b9b613073565b6020908102919091010152610baf8161309f565b9050610b44565b509392505050565b6000610bc981611c3a565b610be484848460405180602001604052806000815250611d31565b50505050565b60009182526003602090815260408084206001600160a01b0393909316845291905290205460ff1690565b60068054600091908290610c31906001600160c01b03166130b8565b82546001600160c01b039182166101009390930a928302919092021990911617905560646000610c6182856130e6565b6006546001600160c01b0316600081815260076020819052604090912080546001600160c01b0319169092178255600182018054336001600160a01b0319909116179055600282018890556003820187905560048201805467ffffffffffffffff19166001600160401b038716179055600582018390558101805460ff60681b19169055909150610cf54262093a80613108565b60078201805464ffffffffff92909216600160401b026cffffffffff000000000000000019909216919091179055600654604080518781526001600160401b038616602082015290810184905233916001600160c01b0316907f6c41f680bd5046e7b94552360a6d353c3d90e84424808396eb845cb2f0b059da9060600160405180910390a350506006546001600160c01b0316949350505050565b610a7c338383611e7c565b610da4611f5c565b60065481906001600160c01b039081169082161115610dd55760405162461bcd60e51b81526004016106de90612fdf565b6001600160c01b0382166000908152600760205260409020339060036007820154600160681b900460ff166003811115610e1157610e11612e1d565b1480610e2f5750600781015442600160401b90910464ffffffffff16115b610e7b5760405162461bcd60e51b815260206004820152601a60248201527f5468652067726f7570206973206e6f742066696e616c697a656400000000000060448201526064016106de565b6001600160c01b03841660009081526008602090815260408083206001600160a01b0386168452909152902054610f0b5760405162461bcd60e51b815260206004820152602e60248201527f4f6e6c7920726566756e6461626c65207469636b657420686f6c64657273206360448201526d616e2067657420726566756e647360901b60648201526084016106de565b6001600160c01b03841660009081526008602090815260408083206001600160a01b0386168452909152812054610f4183611fb5565b610f4b919061311b565b90506000836001600160a01b03168260405160006040518083038185875af1925050503d8060008114610f9a576040519150601f19603f3d011682016040523d82523d6000602084013e610f9f565b606091505b5050905080610fe35760405162461bcd60e51b815260206004820152601060248201526f11985a5b1959081d1bc81c99599d5b9960821b60448201526064016106de565b5050506001600160c01b03831660009081526008602090815260408083206001600160a01b03909416835292905290812055506104476001600455565b600061103583836001600160c01b0316610677565b9392505050565b60065460009082906001600160c01b0390811690821611156110705760405162461bcd60e51b81526004016106de90612fdf565b50506001600160c01b031660009081526007602052604090206006015490565b60065460009081908190819085906001600160c01b0390811690821611156110ca5760405162461bcd60e51b81526004016106de90612fdf565b505050506001600160c01b039190911660009081526007602081905260409091206001810154600382015491909201546001600160a01b03909216939092506001600160401b03821691600160681b900460ff1690565b600061112b611f5c565b60065484906001600160c01b03908116908216111561115c5760405162461bcd60e51b81526004016106de90612fdf565b6001600160c01b038516600090815260076020526040902060036007820154600160681b900460ff16600381111561119657611196612e1d565b146111e35760405162461bcd60e51b815260206004820152601a60248201527f5468652067726f7570206973206e6f742066696e616c697a656400000000000060448201526064016106de565b6111ed3387610a80565b80611204575060018101546001600160a01b031633145b61125c5760405162461bcd60e51b8152602060048201526024808201527f4f6e6c79207469636b657420686f6c646572732063616e20636c61696d20746f6044820152636b656e7360e01b60648201526084016106de565b61127133876001600160c01b03166001611fff565b600554600982015460405163adea6f3b60e01b81526001600160a01b039092169163adea6f3b916112b49133916001600160c01b0316908a908a90600401613132565b6020604051808303816000875af11580156112d3573d6000803e3d6000fd5b505050506040513d601f19601f820116820180604052508101906112f79190613182565b60405190935083906001600160c01b0388169033907f4c1be2553fae8261d25ff0ad45198f755781d31ad84c58a526837480b4d7fece90600090a450506110356001600455565b60008281526003602052604090206001015461135981611c3a565b6109fd8383611cca565b60065482906001600160c01b0390811690821611156113945760405162461bcd60e51b81526004016106de90612fdf565b6001600160c01b038316600090815260076020819052604082209081015460048201549192916113d0916001600160401b03908116911661319b565b6001600160401b0316905080846001600160401b031611156114435760405162461bcd60e51b815260206004820152602660248201527f4665776572207469636b6574732072656d61696e696e67207468616e207265716044820152651d595cdd195960d21b60648201526084016106de565b60058201543490600090611461906001600160401b0388169061311b565b90508082146114b25760405162461bcd60e51b815260206004820152601a60248201527f436f6e747269627574696f6e206d75737420626520657861637400000000000060448201526064016106de565b6000339050828560060160008282546114cb9190613108565b90915550506007850180548891906000906114f09084906001600160401b03166131c2565b82546101009290920a6001600160401b038181021990931691831602179091556001600160c01b038a1660009081526008602090815260408083206001600160a01b038716845290915281208054928b1693509161154f908490613108565b9250508190555061158381896001600160c01b0316896001600160401b031660405180602001604052806000815250612180565b866001600160401b0316886001600160c01b0316826001600160a01b03167fe666172e6168732cfedfefcdfc03bf3faf2588416f76c21085a3d731dfa9c8a160405160405180910390a45050505050505050565b6001600160a01b0385163314806115f357506115f38533610609565b61160f5760405162461bcd60e51b81526004016106de90613025565b6109d18585858585612251565b611624611f5c565b60065481906001600160c01b0390811690821611156116555760405162461bcd60e51b81526004016106de90612fdf565b6001600160c01b03821660009081526007602052604090206116773384610a80565b6116d25760405162461bcd60e51b815260206004820152602660248201527f4f6e6c79207469636b657420686f6c646572732063616e20696e69746961746560448201526520612062757960d01b60648201526084016106de565b600281015460405163088f11f360e01b8152600481018290526000907f00000000000000000000000000000000000000000000000000000000000000006001600160a01b03169063088f11f39060240160a060405180830381865afa15801561173f573d6000803e3d6000fd5b505050506040513d601f19601f8201168201806040525081019061176391906131e2565b50935050505080836006015410156117dc5760405162461bcd60e51b815260206004820152603660248201527f4f6666657265642070726963652069732067726561746572207468616e207468604482015275329031bab93932b73a1031b7b73a3934b13aba34b7b760511b60648201526084016106de565b60405163104c9fd360e31b8152600481018390527f00000000000000000000000000000000000000000000000000000000000000006001600160a01b031690638264fe989083906024016000604051808303818588803b15801561183f57600080fd5b505af1158015611853573d6000803e3d6000fd5b5050604051630b02f02d60e31b8152600481018690523093506001600160a01b037f000000000000000000000000000000000000000000000000000000000000000016925063581781689150602401602060405180830381865afa1580156118bf573d6000803e3d6000fd5b505050506040513d601f19601f820116820180604052508101906118e39190613243565b6001600160a01b0316146119305760405162461bcd60e51b81526020600482015260146024820152730556e6578706563746564206f776e6572736869760641b60448201526064016106de565b6008830181905560078301805460ff60681b1916600160681b1790556040516001600160c01b038616907fa55364f4cf304b1309b80ba955214c6192d2c9ba9fc0aa3c4b3bc0f11c941d7290600090a261198985610735565b505050506104476001600455565b60006001600160e01b03198216636cdb3d1360e11b14806119c857506001600160e01b031982166303a24d0760e21b145b8061070a57506301ffc9a760e01b6001600160e01b031983161461070a565b60006001600160e01b03198216637965db0b60e01b148061070a575061070a82611997565b60606000611a198361237b565b60010190506000816001600160401b03811115611a3857611a386129dc565b6040519080825280601f01601f191660200182016040528015611a62576020820181803683370190505b5090508181016020015b600019016f181899199a1a9b1b9c1cb0b131b232b360811b600a86061a8153600a8504945084611a6c57509392505050565b8151835114611abf5760405162461bcd60e51b81526004016106de90613260565b6001600160a01b038416611ae55760405162461bcd60e51b81526004016106de906132a8565b3360005b8451811015611bcc576000858281518110611b0657611b06613073565b602002602001015190506000858381518110611b2457611b24613073565b602090810291909101810151600084815280835260408082206001600160a01b038e168352909352919091205490915081811015611b745760405162461bcd60e51b81526004016106de906132ed565b6000838152602081815260408083206001600160a01b038e8116855292528083208585039055908b16825281208054849290611bb1908490613108565b9250508190555050505080611bc59061309f565b9050611ae9565b50846001600160a01b0316866001600160a01b0316826001600160a01b03167f4a39dc06d4c0dbc64b70af90fd698a233a518aa5d07e595d983b8c0526c8f7fb8787604051611c1c929190613337565b60405180910390a4611c32818787878787612453565b505050505050565b61044781336125ae565b611c4e8282610bea565b610a7c5760008281526003602090815260408083206001600160a01b03851684529091529020805460ff19166001179055611c863390565b6001600160a01b0316816001600160a01b0316837f2f8788117e7eff1d82e926ec794901d17c78024a50270940304540a733656f0d60405160405180910390a45050565b611cd48282610bea565b15610a7c5760008281526003602090815260408083206001600160a01b0385168085529252808320805460ff1916905551339285917ff6391f5c32d9c69d2a47ea670b442974b53935d1edc7fd64eb21e047a839171b9190a45050565b6001600160a01b038416611d575760405162461bcd60e51b81526004016106de90613365565b8151835114611d785760405162461bcd60e51b81526004016106de90613260565b3360005b8451811015611e1457838181518110611d9757611d97613073565b6020026020010151600080878481518110611db457611db4613073565b602002602001015181526020019081526020016000206000886001600160a01b03166001600160a01b031681526020019081526020016000206000828254611dfc9190613108565b90915550819050611e0c8161309f565b915050611d7c565b50846001600160a01b031660006001600160a01b0316826001600160a01b03167f4a39dc06d4c0dbc64b70af90fd698a233a518aa5d07e595d983b8c0526c8f7fb8787604051611e65929190613337565b60405180910390a46109d181600087878787612453565b816001600160a01b0316836001600160a01b031603611eef5760405162461bcd60e51b815260206004820152602960248201527f455243313135353a2073657474696e6720617070726f76616c20737461747573604482015268103337b91039b2b63360b91b60648201526084016106de565b6001600160a01b03838116600081815260016020908152604080832094871680845294825291829020805460ff191686151590811790915591519182527f17307eab39ab6107e8899845ad3d59bd9653f200f220920489ca2b5937696c31910160405180910390a3505050565b600260045403611fae5760405162461bcd60e51b815260206004820152601f60248201527f5265656e7472616e637947756172643a207265656e7472616e742063616c6c0060448201526064016106de565b6002600455565b60008160080154826006015411611fce57506000919050565b600082600801548360060154611fe491906133a6565b6007840154909150611035906001600160401b0316826130e6565b6001600160a01b0383166120615760405162461bcd60e51b815260206004820152602360248201527f455243313135353a206275726e2066726f6d20746865207a65726f206164647260448201526265737360e81b60648201526084016106de565b33600061206d84612607565b9050600061207a84612607565b60408051602080820183526000918290528882528181528282206001600160a01b038b16835290522054909150848110156121035760405162461bcd60e51b8152602060048201526024808201527f455243313135353a206275726e20616d6f756e7420657863656564732062616c604482015263616e636560e01b60648201526084016106de565b6000868152602081815260408083206001600160a01b038b81168086529184528285208a8703905582518b81529384018a90529092908816917fc3d58168c5ae7397731d063d5bbf3d657854427343f4c083240f7aacaa2d0f62910160405180910390a46040805160208101909152600090525b50505050505050565b6001600160a01b0384166121a65760405162461bcd60e51b81526004016106de90613365565b3360006121b285612607565b905060006121bf85612607565b90506000868152602081815260408083206001600160a01b038b168452909152812080548792906121f1908490613108565b909155505060408051878152602081018790526001600160a01b03808a1692600092918716917fc3d58168c5ae7397731d063d5bbf3d657854427343f4c083240f7aacaa2d0f62910160405180910390a461217783600089898989612652565b6001600160a01b0384166122775760405162461bcd60e51b81526004016106de906132a8565b33600061228385612607565b9050600061229085612607565b90506000868152602081815260408083206001600160a01b038c168452909152902054858110156122d35760405162461bcd60e51b81526004016106de906132ed565b6000878152602081815260408083206001600160a01b038d8116855292528083208985039055908a16825281208054889290612310908490613108565b909155505060408051888152602081018890526001600160a01b03808b16928c821692918816917fc3d58168c5ae7397731d063d5bbf3d657854427343f4c083240f7aacaa2d0f62910160405180910390a4612370848a8a8a8a8a612652565b505050505050505050565b60008072184f03e93ff9f4daa797ed6e38ed64bf6a1f0160401b83106123ba5772184f03e93ff9f4daa797ed6e38ed64bf6a1f0160401b830492506040015b6d04ee2d6d415b85acef810000000083106123e6576d04ee2d6d415b85acef8100000000830492506020015b662386f26fc10000831061240457662386f26fc10000830492506010015b6305f5e100831061241c576305f5e100830492506008015b612710831061243057612710830492506004015b60648310612442576064830492506002015b600a831061070a5760010192915050565b6001600160a01b0384163b15611c325760405163bc197c8160e01b81526001600160a01b0385169063bc197c819061249790899089908890889088906004016133b9565b6020604051808303816000875af19250505080156124d2575060408051601f3d908101601f191682019092526124cf91810190613417565b60015b61257e576124de613434565b806308c379a00361251757506124f2613450565b806124fd5750612519565b8060405162461bcd60e51b81526004016106de9190612997565b505b60405162461bcd60e51b815260206004820152603460248201527f455243313135353a207472616e7366657220746f206e6f6e2d455243313135356044820152732932b1b2b4bb32b91034b6b83632b6b2b73a32b960611b60648201526084016106de565b6001600160e01b0319811663bc197c8160e01b146121775760405162461bcd60e51b81526004016106de906134d9565b6125b88282610bea565b610a7c576125c58161270d565b6125d083602061271f565b6040516020016125e1929190613521565b60408051601f198184030181529082905262461bcd60e51b82526106de91600401612997565b6040805160018082528183019092526060916000919060208083019080368337019050509050828160008151811061264157612641613073565b602090810291909101015292915050565b6001600160a01b0384163b15611c325760405163f23a6e6160e01b81526001600160a01b0385169063f23a6e61906126969089908990889088908890600401613596565b6020604051808303816000875af19250505080156126d1575060408051601f3d908101601f191682019092526126ce91810190613417565b60015b6126dd576124de613434565b6001600160e01b0319811663f23a6e6160e01b146121775760405162461bcd60e51b81526004016106de906134d9565b606061070a6001600160a01b03831660145b6060600061272e83600261311b565b612739906002613108565b6001600160401b03811115612750576127506129dc565b6040519080825280601f01601f19166020018201604052801561277a576020820181803683370190505b509050600360fc1b8160008151811061279557612795613073565b60200101906001600160f81b031916908160001a905350600f60fb1b816001815181106127c4576127c4613073565b60200101906001600160f81b031916908160001a90535060006127e884600261311b565b6127f3906001613108565b90505b600181111561286b576f181899199a1a9b1b9c1cb0b131b232b360811b85600f166010811061282757612827613073565b1a60f81b82828151811061283d5761283d613073565b60200101906001600160f81b031916908160001a90535060049490941c93612864816135db565b90506127f6565b5083156110355760405162461bcd60e51b815260206004820181905260248201527f537472696e67733a20686578206c656e67746820696e73756666696369656e7460448201526064016106de565b6001600160a01b038116811461044757600080fd5b600080604083850312156128e257600080fd5b82356128ed816128ba565b946020939093013593505050565b6001600160e01b03198116811461044757600080fd5b60006020828403121561292357600080fd5b8135611035816128fb565b60006020828403121561294057600080fd5b5035919050565b60005b8381101561296257818101518382015260200161294a565b50506000910152565b60008151808452612983816020860160208601612947565b601f01601f19169290920160200192915050565b602081526000611035602083018461296b565b6001600160c01b038116811461044757600080fd5b6000602082840312156129d157600080fd5b8135611035816129aa565b634e487b7160e01b600052604160045260246000fd5b601f8201601f191681016001600160401b0381118282101715612a1757612a176129dc565b6040525050565b60006001600160401b03821115612a3757612a376129dc565b5060051b60200190565b600082601f830112612a5257600080fd5b81356020612a5f82612a1e565b604051612a6c82826129f2565b83815260059390931b8501820192828101915086841115612a8c57600080fd5b8286015b84811015612aa75780358352918301918301612a90565b509695505050505050565b600082601f830112612ac357600080fd5b81356001600160401b03811115612adc57612adc6129dc565b604051612af3601f8301601f1916602001826129f2565b818152846020838601011115612b0857600080fd5b816020850160208301376000918101602001919091529392505050565b600080600080600060a08688031215612b3d57600080fd5b8535612b48816128ba565b94506020860135612b58816128ba565b935060408601356001600160401b0380821115612b7457600080fd5b612b8089838a01612a41565b94506060880135915080821115612b9657600080fd5b612ba289838a01612a41565b93506080880135915080821115612bb857600080fd5b50612bc588828901612ab2565b9150509295509295909350565b60008060408385031215612be557600080fd5b823591506020830135612bf7816128ba565b809150509250929050565b60008060408385031215612c1557600080fd5b8235612c20816128ba565b91506020830135612bf7816129aa565b60008060408385031215612c4357600080fd5b82356001600160401b0380821115612c5a57600080fd5b818501915085601f830112612c6e57600080fd5b81356020612c7b82612a1e565b604051612c8882826129f2565b83815260059390931b8501820192828101915089841115612ca857600080fd5b948201945b83861015612ccf578535612cc0816128ba565b82529482019490820190612cad565b96505086013592505080821115612ce557600080fd5b50612cf285828601612a41565b9150509250929050565b600081518084526020808501945080840160005b83811015612d2c57815187529582019590820190600101612d10565b509495945050505050565b6020815260006110356020830184612cfc565b600080600060608486031215612d5f57600080fd5b8335612d6a816128ba565b925060208401356001600160401b0380821115612d8657600080fd5b612d9287838801612a41565b93506040860135915080821115612da857600080fd5b50612db586828701612a41565b9150509250925092565b60008060408385031215612dd257600080fd5b50508035926020909101359150565b801515811461044757600080fd5b60008060408385031215612e0257600080fd5b8235612e0d816128ba565b91506020830135612bf781612de1565b634e487b7160e01b600052602160045260246000fd5b6001600160a01b0385168152602081018490526bffffffffffffffffffffffff831660408201526080810160048310612e7c57634e487b7160e01b600052602160045260246000fd5b82606083015295945050505050565b600080600060408486031215612ea057600080fd5b8335612eab816129aa565b925060208401356001600160401b0380821115612ec757600080fd5b818601915086601f830112612edb57600080fd5b813581811115612eea57600080fd5b876020828501011115612efc57600080fd5b6020830194508093505050509250925092565b60008060408385031215612f2257600080fd5b8235612f2d816129aa565b915060208301356001600160401b0381168114612bf757600080fd5b60008060408385031215612f5c57600080fd5b8235612f67816128ba565b91506020830135612bf7816128ba565b600080600080600060a08688031215612f8f57600080fd5b8535612f9a816128ba565b94506020860135612faa816128ba565b9350604086013592506060860135915060808601356001600160401b03811115612fd357600080fd5b612bc588828901612ab2565b6020808252600f908201526e125b9d985b1a590819dc9bdd5c1259608a1b604082015260600190565b60006020828403121561301a57600080fd5b8151611035816129aa565b6020808252602e908201527f455243313135353a2063616c6c6572206973206e6f7420746f6b656e206f776e60408201526d195c881bdc88185c1c1c9bdd995960921b606082015260800190565b634e487b7160e01b600052603260045260246000fd5b634e487b7160e01b600052601160045260246000fd5b6000600182016130b1576130b1613089565b5060010190565b60006001600160c01b038281166002600160c01b031981016130dc576130dc613089565b6001019392505050565b60008261310357634e487b7160e01b600052601260045260246000fd5b500490565b8082018082111561070a5761070a613089565b808202811582820484141761070a5761070a613089565b6001600160a01b03851681526001600160c01b03841660208201526060604082018190528101829052818360808301376000818301608090810191909152601f909201601f191601019392505050565b60006020828403121561319457600080fd5b5051919050565b6001600160401b038281168282160390808211156131bb576131bb613089565b5092915050565b6001600160401b038181168382160190808211156131bb576131bb613089565b600080600080600060a086880312156131fa57600080fd5b855161320581612de1565b60208701516040880151919650945061321d816128ba565b606087015160808801519194509250613235816128ba565b809150509295509295909350565b60006020828403121561325557600080fd5b8151611035816128ba565b60208082526028908201527f455243313135353a2069647320616e6420616d6f756e7473206c656e677468206040820152670dad2e6dac2e8c6d60c31b606082015260800190565b60208082526025908201527f455243313135353a207472616e7366657220746f20746865207a65726f206164604082015264647265737360d81b606082015260800190565b6020808252602a908201527f455243313135353a20696e73756666696369656e742062616c616e636520666f60408201526939103a3930b739b332b960b11b606082015260800190565b60408152600061334a6040830185612cfc565b828103602084015261335c8185612cfc565b95945050505050565b60208082526021908201527f455243313135353a206d696e7420746f20746865207a65726f206164647265736040820152607360f81b606082015260800190565b8181038181111561070a5761070a613089565b6001600160a01b0386811682528516602082015260a0604082018190526000906133e590830186612cfc565b82810360608401526133f78186612cfc565b9050828103608084015261340b818561296b565b98975050505050505050565b60006020828403121561342957600080fd5b8151611035816128fb565b600060033d111561344d5760046000803e5060005160e01c5b90565b600060443d101561345e5790565b6040516003193d81016004833e81513d6001600160401b03816024840111818411171561348d57505050505090565b82850191508151818111156134a55750505050505090565b843d87010160208285010111156134bf5750505050505090565b6134ce602082860101876129f2565b509095945050505050565b60208082526028908201527f455243313135353a204552433131353552656365697665722072656a656374656040820152676420746f6b656e7360c01b606082015260800190565b7f416363657373436f6e74726f6c3a206163636f756e7420000000000000000000815260008351613559816017850160208801612947565b7001034b99036b4b9b9b4b733903937b6329607d1b601791840191820152835161358a816028840160208801612947565b01602801949350505050565b6001600160a01b03868116825285166020820152604081018490526060810183905260a0608082018190526000906135d09083018461296b565b979650505050505050565b6000816135ea576135ea613089565b50600019019056fea264697066735822122085e9ee0c23edfbd3d3e957d61606029a29f11341b31799c733c9b8716748a6c664736f6c63430008110033",
  "devdoc": {
    "kind": "dev",
    "methods": {
      "balanceOf(address,uint256)": {
        "details": "See {IERC1155-balanceOf}. Requirements: - `account` cannot be the zero address."
      },
      "balanceOfBatch(address[],uint256[])": {
        "details": "See {IERC1155-balanceOfBatch}. Requirements: - `accounts` and `ids` must have the same length."
      },
      "buy(uint192)": {
        "details": "Can be tried as long as the group is OPEN"
      },
      "getRoleAdmin(bytes32)": {
        "details": "Returns the admin role that controls `role`. See {grantRole} and {revokeRole}. To change a role's admin, use {_setRoleAdmin}."
      },
      "grantRole(bytes32,address)": {
        "details": "Grants `role` to `account`. If `account` had not been already granted `role`, emits a {RoleGranted} event. Requirements: - the caller must have ``role``'s admin role. May emit a {RoleGranted} event."
      },
      "hasRole(bytes32,address)": {
        "details": "Returns `true` if `account` has been granted `role`."
      },
      "isApprovedForAll(address,address)": {
        "details": "See {IERC1155-isApprovedForAll}."
      },
      "renounceRole(bytes32,address)": {
        "details": "Revokes `role` from the calling account. Roles are often managed via {grantRole} and {revokeRole}: this function's purpose is to provide a mechanism for accounts to lose their privileges if they are compromised (such as when a trusted device is misplaced). If the calling account had been revoked `role`, emits a {RoleRevoked} event. Requirements: - the caller must be `account`. May emit a {RoleRevoked} event."
      },
      "revokeRole(bytes32,address)": {
        "details": "Revokes `role` from `account`. If `account` had been granted `role`, emits a {RoleRevoked} event. Requirements: - the caller must have ``role``'s admin role. May emit a {RoleRevoked} event."
      },
      "safeBatchTransferFrom(address,address,uint256[],uint256[],bytes)": {
        "details": "See {IERC1155-safeBatchTransferFrom}."
      },
      "safeTransferFrom(address,address,uint256,uint256,bytes)": {
        "details": "See {IERC1155-safeTransferFrom}."
      },
      "setApprovalForAll(address,bool)": {
        "details": "See {IERC1155-setApprovalForAll}."
      }
    },
    "stateVariables": {
      "latestGroupId": {
        "details": "also used as a `groupId`, starting from 1."
      },
      "refundableTickets": {
        "details": "groupId -> address -> shares (= the number of tickets bought)"
      }
    },
    "version": 1
  },
  "userdoc": {
    "kind": "user",
    "methods": {
      "refund(uint192)": {
        "notice": "Refunds any remaining contributions pro rata after finalization"
      }
    },
    "version": 1
  },
  "storageLayout": {
    "storage": [
      {
        "astId": 468,
        "contract": "src/CryptoPunksGroupRegistry.sol:CryptoPunksGroupRegistry",
        "label": "_balances",
        "offset": 0,
        "slot": "0",
        "type": "t_mapping(t_uint256,t_mapping(t_address,t_uint256))"
      },
      {
        "astId": 474,
        "contract": "src/CryptoPunksGroupRegistry.sol:CryptoPunksGroupRegistry",
        "label": "_operatorApprovals",
        "offset": 0,
        "slot": "1",
        "type": "t_mapping(t_address,t_mapping(t_address,t_bool))"
      },
      {
        "astId": 476,
        "contract": "src/CryptoPunksGroupRegistry.sol:CryptoPunksGroupRegistry",
        "label": "_uri",
        "offset": 0,
        "slot": "2",
        "type": "t_string_storage"
      },
      {
        "astId": 24,
        "contract": "src/CryptoPunksGroupRegistry.sol:CryptoPunksGroupRegistry",
        "label": "_roles",
        "offset": 0,
        "slot": "3",
        "type": "t_mapping(t_bytes32,t_struct(RoleData)19_storage)"
      },
      {
        "astId": 399,
        "contract": "src/CryptoPunksGroupRegistry.sol:CryptoPunksGroupRegistry",
        "label": "_status",
        "offset": 0,
        "slot": "4",
        "type": "t_uint256"
      },
      {
        "astId": 4960,
        "contract": "src/CryptoPunksGroupRegistry.sol:CryptoPunksGroupRegistry",
        "label": "mosaicRegistry",
        "offset": 0,
        "slot": "5",
        "type": "t_contract(ICryptoPunksMosaicRegistry)6057"
      },
      {
        "astId": 4963,
        "contract": "src/CryptoPunksGroupRegistry.sol:CryptoPunksGroupRegistry",
        "label": "latestGroupId",
        "offset": 0,
        "slot": "6",
        "type": "t_uint192"
      },
      {
        "astId": 4968,
        "contract": "src/CryptoPunksGroupRegistry.sol:CryptoPunksGroupRegistry",
        "label": "groups",
        "offset": 0,
        "slot": "7",
        "type": "t_mapping(t_uint192,t_struct(Group)6169_storage)"
      },
      {
        "astId": 4975,
        "contract": "src/CryptoPunksGroupRegistry.sol:CryptoPunksGroupRegistry",
        "label": "refundableTickets",
        "offset": 0,
        "slot": "8",
        "type": "t_mapping(t_uint192,t_mapping(t_address,t_uint256))"
      }
    ],
    "types": {
      "t_address": {
        "encoding": "inplace",
        "label": "address",
        "numberOfBytes": "20"
      },
      "t_bool": {
        "encoding": "inplace",
        "label": "bool",
        "numberOfBytes": "1"
      },
      "t_bytes32": {
        "encoding": "inplace",
        "label": "bytes32",
        "numberOfBytes": "32"
      },
      "t_contract(ICryptoPunksMosaicRegistry)6057": {
        "encoding": "inplace",
        "label": "contract ICryptoPunksMosaicRegistry",
        "numberOfBytes": "20"
      },
      "t_enum(GroupStatus)6143": {
        "encoding": "inplace",
        "label": "enum UsingCryptoPunksGroupRegistryStructs.GroupStatus",
        "numberOfBytes": "1"
      },
      "t_mapping(t_address,t_bool)": {
        "encoding": "mapping",
        "key": "t_address",
        "label": "mapping(address => bool)",
        "numberOfBytes": "32",
        "value": "t_bool"
      },
      "t_mapping(t_address,t_mapping(t_address,t_bool))": {
        "encoding": "mapping",
        "key": "t_address",
        "label": "mapping(address => mapping(address => bool))",
        "numberOfBytes": "32",
        "value": "t_mapping(t_address,t_bool)"
      },
      "t_mapping(t_address,t_uint256)": {
        "encoding": "mapping",
        "key": "t_address",
        "label": "mapping(address => uint256)",
        "numberOfBytes": "32",
        "value": "t_uint256"
      },
      "t_mapping(t_bytes32,t_struct(RoleData)19_storage)": {
        "encoding": "mapping",
        "key": "t_bytes32",
        "label": "mapping(bytes32 => struct AccessControl.RoleData)",
        "numberOfBytes": "32",
        "value": "t_struct(RoleData)19_storage"
      },
      "t_mapping(t_uint192,t_mapping(t_address,t_uint256))": {
        "encoding": "mapping",
        "key": "t_uint192",
        "label": "mapping(uint192 => mapping(address => uint256))",
        "numberOfBytes": "32",
        "value": "t_mapping(t_address,t_uint256)"
      },
      "t_mapping(t_uint192,t_struct(Group)6169_storage)": {
        "encoding": "mapping",
        "key": "t_uint192",
        "label": "mapping(uint192 => struct UsingCryptoPunksGroupRegistryStructs.Group)",
        "numberOfBytes": "32",
        "value": "t_struct(Group)6169_storage"
      },
      "t_mapping(t_uint256,t_mapping(t_address,t_uint256))": {
        "encoding": "mapping",
        "key": "t_uint256",
        "label": "mapping(uint256 => mapping(address => uint256))",
        "numberOfBytes": "32",
        "value": "t_mapping(t_address,t_uint256)"
      },
      "t_string_storage": {
        "encoding": "bytes",
        "label": "string",
        "numberOfBytes": "32"
      },
      "t_struct(Group)6169_storage": {
        "encoding": "inplace",
        "label": "struct UsingCryptoPunksGroupRegistryStructs.Group",
        "members": [
          {
            "astId": 6145,
            "contract": "src/CryptoPunksGroupRegistry.sol:CryptoPunksGroupRegistry",
            "label": "id",
            "offset": 0,
            "slot": "0",
            "type": "t_uint192"
          },
          {
            "astId": 6147,
            "contract": "src/CryptoPunksGroupRegistry.sol:CryptoPunksGroupRegistry",
            "label": "creator",
            "offset": 0,
            "slot": "1",
            "type": "t_address"
          },
          {
            "astId": 6149,
            "contract": "src/CryptoPunksGroupRegistry.sol:CryptoPunksGroupRegistry",
            "label": "targetPunkId",
            "offset": 0,
            "slot": "2",
            "type": "t_uint256"
          },
          {
            "astId": 6151,
            "contract": "src/CryptoPunksGroupRegistry.sol:CryptoPunksGroupRegistry",
            "label": "targetMaxPrice",
            "offset": 0,
            "slot": "3",
            "type": "t_uint256"
          },
          {
            "astId": 6153,
            "contract": "src/CryptoPunksGroupRegistry.sol:CryptoPunksGroupRegistry",
            "label": "totalTicketSupply",
            "offset": 0,
            "slot": "4",
            "type": "t_uint64"
          },
          {
            "astId": 6155,
            "contract": "src/CryptoPunksGroupRegistry.sol:CryptoPunksGroupRegistry",
            "label": "unitTicketPrice",
            "offset": 0,
            "slot": "5",
            "type": "t_uint256"
          },
          {
            "astId": 6157,
            "contract": "src/CryptoPunksGroupRegistry.sol:CryptoPunksGroupRegistry",
            "label": "totalContribution",
            "offset": 0,
            "slot": "6",
            "type": "t_uint256"
          },
          {
            "astId": 6159,
            "contract": "src/CryptoPunksGroupRegistry.sol:CryptoPunksGroupRegistry",
            "label": "ticketsBought",
            "offset": 0,
            "slot": "7",
            "type": "t_uint64"
          },
          {
            "astId": 6161,
            "contract": "src/CryptoPunksGroupRegistry.sol:CryptoPunksGroupRegistry",
            "label": "expiry",
            "offset": 8,
            "slot": "7",
            "type": "t_uint40"
          },
          {
            "astId": 6164,
            "contract": "src/CryptoPunksGroupRegistry.sol:CryptoPunksGroupRegistry",
            "label": "status",
            "offset": 13,
            "slot": "7",
            "type": "t_enum(GroupStatus)6143"
          },
          {
            "astId": 6166,
            "contract": "src/CryptoPunksGroupRegistry.sol:CryptoPunksGroupRegistry",
            "label": "purchasePrice",
            "offset": 0,
            "slot": "8",
            "type": "t_uint256"
          },
          {
            "astId": 6168,
            "contract": "src/CryptoPunksGroupRegistry.sol:CryptoPunksGroupRegistry",
            "label": "originalId",
            "offset": 0,
            "slot": "9",
            "type": "t_uint192"
          }
        ],
        "numberOfBytes": "320"
      },
      "t_struct(RoleData)19_storage": {
        "encoding": "inplace",
        "label": "struct AccessControl.RoleData",
        "members": [
          {
            "astId": 16,
            "contract": "src/CryptoPunksGroupRegistry.sol:CryptoPunksGroupRegistry",
            "label": "members",
            "offset": 0,
            "slot": "0",
            "type": "t_mapping(t_address,t_bool)"
          },
          {
            "astId": 18,
            "contract": "src/CryptoPunksGroupRegistry.sol:CryptoPunksGroupRegistry",
            "label": "adminRole",
            "offset": 0,
            "slot": "1",
            "type": "t_bytes32"
          }
        ],
        "numberOfBytes": "64"
      },
      "t_uint192": {
        "encoding": "inplace",
        "label": "uint192",
        "numberOfBytes": "24"
      },
      "t_uint256": {
        "encoding": "inplace",
        "label": "uint256",
        "numberOfBytes": "32"
      },
      "t_uint40": {
        "encoding": "inplace",
        "label": "uint40",
        "numberOfBytes": "5"
      },
      "t_uint64": {
        "encoding": "inplace",
        "label": "uint64",
        "numberOfBytes": "8"
      }
    }
  }
}