{
  "address": "0x418ea964e402a75F6105bdA72B933201BCA7158a",
  "abi": [
    {
      "inputs": [
        {
          "internalType": "address",
          "name": "cryptoPunksMarketAddress",
          "type": "address"
        },
        {
          "internalType": "address",
          "name": "mosaicRegistryAddress",
          "type": "address"
        }
      ],
      "stateMutability": "nonpayable",
      "type": "constructor"
    },
    {
      "anonymous": false,
      "inputs": [
        {
          "indexed": true,
          "internalType": "address",
          "name": "account",
          "type": "address"
        },
        {
          "indexed": true,
          "internalType": "address",
          "name": "operator",
          "type": "address"
        },
        {
          "indexed": false,
          "internalType": "bool",
          "name": "approved",
          "type": "bool"
        }
      ],
      "name": "ApprovalForAll",
      "type": "event"
    },
    {
      "anonymous": false,
      "inputs": [
        {
          "indexed": true,
          "internalType": "address",
          "name": "claimer",
          "type": "address"
        },
        {
          "indexed": true,
          "internalType": "uint192",
          "name": "groupId",
          "type": "uint192"
        },
        {
          "indexed": true,
          "internalType": "uint256",
          "name": "mosaicId",
          "type": "uint256"
        }
      ],
      "name": "Claimed",
      "type": "event"
    },
    {
      "anonymous": false,
      "inputs": [
        {
          "indexed": true,
          "internalType": "address",
          "name": "contributor",
          "type": "address"
        },
        {
          "indexed": true,
          "internalType": "uint192",
          "name": "groupId",
          "type": "uint192"
        },
        {
          "indexed": true,
          "internalType": "uint96",
          "name": "ticketQuantity",
          "type": "uint96"
        }
      ],
      "name": "Contributed",
      "type": "event"
    },
    {
      "anonymous": false,
      "inputs": [
        {
          "indexed": true,
          "internalType": "uint192",
          "name": "groupId",
          "type": "uint192"
        },
        {
          "indexed": true,
          "internalType": "address",
          "name": "creator",
          "type": "address"
        },
        {
          "indexed": false,
          "internalType": "uint256",
          "name": "targetMaxPrice",
          "type": "uint256"
        },
        {
          "indexed": false,
          "internalType": "uint64",
          "name": "totalTicketSupply",
          "type": "uint64"
        },
        {
          "indexed": false,
          "internalType": "uint256",
          "name": "unitTicketPrice",
          "type": "uint256"
        }
      ],
      "name": "GroupCreated",
      "type": "event"
    },
    {
      "anonymous": false,
      "inputs": [
        {
          "indexed": true,
          "internalType": "uint192",
          "name": "groupId",
          "type": "uint192"
        }
      ],
      "name": "GroupWon",
      "type": "event"
    },
    {
      "anonymous": false,
      "inputs": [
        {
          "indexed": true,
          "internalType": "bytes32",
          "name": "role",
          "type": "bytes32"
        },
        {
          "indexed": true,
          "internalType": "bytes32",
          "name": "previousAdminRole",
          "type": "bytes32"
        },
        {
          "indexed": true,
          "internalType": "bytes32",
          "name": "newAdminRole",
          "type": "bytes32"
        }
      ],
      "name": "RoleAdminChanged",
      "type": "event"
    },
    {
      "anonymous": false,
      "inputs": [
        {
          "indexed": true,
          "internalType": "bytes32",
          "name": "role",
          "type": "bytes32"
        },
        {
          "indexed": true,
          "internalType": "address",
          "name": "account",
          "type": "address"
        },
        {
          "indexed": true,
          "internalType": "address",
          "name": "sender",
          "type": "address"
        }
      ],
      "name": "RoleGranted",
      "type": "event"
    },
    {
      "anonymous": false,
      "inputs": [
        {
          "indexed": true,
          "internalType": "bytes32",
          "name": "role",
          "type": "bytes32"
        },
        {
          "indexed": true,
          "internalType": "address",
          "name": "account",
          "type": "address"
        },
        {
          "indexed": true,
          "internalType": "address",
          "name": "sender",
          "type": "address"
        }
      ],
      "name": "RoleRevoked",
      "type": "event"
    },
    {
      "anonymous": false,
      "inputs": [
        {
          "indexed": true,
          "internalType": "address",
          "name": "operator",
          "type": "address"
        },
        {
          "indexed": true,
          "internalType": "address",
          "name": "from",
          "type": "address"
        },
        {
          "indexed": true,
          "internalType": "address",
          "name": "to",
          "type": "address"
        },
        {
          "indexed": false,
          "internalType": "uint256[]",
          "name": "ids",
          "type": "uint256[]"
        },
        {
          "indexed": false,
          "internalType": "uint256[]",
          "name": "values",
          "type": "uint256[]"
        }
      ],
      "name": "TransferBatch",
      "type": "event"
    },
    {
      "anonymous": false,
      "inputs": [
        {
          "indexed": true,
          "internalType": "address",
          "name": "operator",
          "type": "address"
        },
        {
          "indexed": true,
          "internalType": "address",
          "name": "from",
          "type": "address"
        },
        {
          "indexed": true,
          "internalType": "address",
          "name": "to",
          "type": "address"
        },
        {
          "indexed": false,
          "internalType": "uint256",
          "name": "id",
          "type": "uint256"
        },
        {
          "indexed": false,
          "internalType": "uint256",
          "name": "value",
          "type": "uint256"
        }
      ],
      "name": "TransferSingle",
      "type": "event"
    },
    {
      "anonymous": false,
      "inputs": [
        {
          "indexed": false,
          "internalType": "string",
          "name": "value",
          "type": "string"
        },
        {
          "indexed": true,
          "internalType": "uint256",
          "name": "id",
          "type": "uint256"
        }
      ],
      "name": "URI",
      "type": "event"
    },
    {
      "inputs": [],
      "name": "CURATOR_ROLE",
      "outputs": [
        {
          "internalType": "bytes32",
          "name": "",
          "type": "bytes32"
        }
      ],
      "stateMutability": "view",
      "type": "function"
    },
    {
      "inputs": [],
      "name": "DEFAULT_ADMIN_ROLE",
      "outputs": [
        {
          "internalType": "bytes32",
          "name": "",
          "type": "bytes32"
        }
      ],
      "stateMutability": "view",
      "type": "function"
    },
    {
      "inputs": [],
      "name": "MAX_RESERVE_PRICE_BPS",
      "outputs": [
        {
          "internalType": "uint64",
          "name": "",
          "type": "uint64"
        }
      ],
      "stateMutability": "view",
      "type": "function"
    },
    {
      "inputs": [],
      "name": "MIN_RESERVE_PRICE_BPS",
      "outputs": [
        {
          "internalType": "uint64",
          "name": "",
          "type": "uint64"
        }
      ],
      "stateMutability": "view",
      "type": "function"
    },
    {
      "inputs": [],
      "name": "TICKET_SUPPLY_PER_GROUP",
      "outputs": [
        {
          "internalType": "uint64",
          "name": "",
          "type": "uint64"
        }
      ],
      "stateMutability": "view",
      "type": "function"
    },
    {
      "inputs": [
        {
          "internalType": "address",
          "name": "to",
          "type": "address"
        },
        {
          "internalType": "uint256[]",
          "name": "ids",
          "type": "uint256[]"
        },
        {
          "internalType": "uint256[]",
          "name": "amounts",
          "type": "uint256[]"
        }
      ],
      "name": "airdrop",
      "outputs": [],
      "stateMutability": "nonpayable",
      "type": "function"
    },
    {
      "inputs": [
        {
          "internalType": "address",
          "name": "account",
          "type": "address"
        },
        {
          "internalType": "uint256",
          "name": "id",
          "type": "uint256"
        }
      ],
      "name": "balanceOf",
      "outputs": [
        {
          "internalType": "uint256",
          "name": "",
          "type": "uint256"
        }
      ],
      "stateMutability": "view",
      "type": "function"
    },
    {
      "inputs": [
        {
          "internalType": "address[]",
          "name": "accounts",
          "type": "address[]"
        },
        {
          "internalType": "uint256[]",
          "name": "ids",
          "type": "uint256[]"
        }
      ],
      "name": "balanceOfBatch",
      "outputs": [
        {
          "internalType": "uint256[]",
          "name": "",
          "type": "uint256[]"
        }
      ],
      "stateMutability": "view",
      "type": "function"
    },
    {
      "inputs": [
        {
          "internalType": "uint192",
          "name": "groupId",
          "type": "uint192"
        }
      ],
      "name": "buy",
      "outputs": [],
      "stateMutability": "nonpayable",
      "type": "function"
    },
    {
      "inputs": [
        {
          "internalType": "uint256",
          "name": "purchasePrice",
          "type": "uint256"
        }
      ],
      "name": "calculateMaxReservePrice",
      "outputs": [
        {
          "internalType": "uint256",
          "name": "maxReservePrice",
          "type": "uint256"
        }
      ],
      "stateMutability": "pure",
      "type": "function"
    },
    {
      "inputs": [
        {
          "internalType": "uint256",
          "name": "purchasePrice",
          "type": "uint256"
        }
      ],
      "name": "calculateMinReservePrice",
      "outputs": [
        {
          "internalType": "uint256",
          "name": "minReservePrice",
          "type": "uint256"
        }
      ],
      "stateMutability": "pure",
      "type": "function"
    },
    {
      "inputs": [
        {
          "internalType": "uint192",
          "name": "groupId",
          "type": "uint192"
        }
      ],
      "name": "claim",
      "outputs": [
        {
          "internalType": "uint256[]",
          "name": "mosaicIds",
          "type": "uint256[]"
        }
      ],
      "stateMutability": "nonpayable",
      "type": "function"
    },
    {
      "inputs": [
        {
          "internalType": "uint192",
          "name": "groupId",
          "type": "uint192"
        },
        {
          "internalType": "uint64",
          "name": "ticketQuantity",
          "type": "uint64"
        }
      ],
      "name": "contribute",
      "outputs": [],
      "stateMutability": "payable",
      "type": "function"
    },
    {
      "inputs": [
        {
          "internalType": "uint256",
          "name": "targetPunkId",
          "type": "uint256"
        },
        {
          "internalType": "uint256",
          "name": "targetMaxPrice",
          "type": "uint256"
        }
      ],
      "name": "create",
      "outputs": [
        {
          "internalType": "uint192",
          "name": "groupId",
          "type": "uint192"
        }
      ],
      "stateMutability": "nonpayable",
      "type": "function"
    },
    {
      "inputs": [],
      "name": "cryptoPunksMarket",
      "outputs": [
        {
          "internalType": "contract ICryptoPunksMarket",
          "name": "",
          "type": "address"
        }
      ],
      "stateMutability": "view",
      "type": "function"
    },
    {
      "inputs": [
        {
          "internalType": "uint192",
          "name": "groupId",
          "type": "uint192"
        }
      ],
      "name": "getGroup",
      "outputs": [
        {
          "components": [
            {
              "internalType": "uint192",
              "name": "id",
              "type": "uint192"
            },
            {
              "internalType": "address",
              "name": "creator",
              "type": "address"
            },
            {
              "internalType": "uint256",
              "name": "targetPunkId",
              "type": "uint256"
            },
            {
              "internalType": "uint256",
              "name": "targetMaxPrice",
              "type": "uint256"
            },
            {
              "internalType": "uint64",
              "name": "totalTicketSupply",
              "type": "uint64"
            },
            {
              "internalType": "uint256",
              "name": "unitTicketPrice",
              "type": "uint256"
            },
            {
              "internalType": "uint256",
              "name": "totalContribution",
              "type": "uint256"
            },
            {
              "internalType": "uint64",
              "name": "ticketsBought",
              "type": "uint64"
            },
            {
              "internalType": "uint40",
              "name": "expiry",
              "type": "uint40"
            },
            {
              "internalType": "enum UsingCryptoPunksGroupRegistryStructs.GroupStatus",
              "name": "status",
              "type": "uint8"
            },
            {
              "internalType": "uint256",
              "name": "purchasePrice",
              "type": "uint256"
            },
            {
              "internalType": "uint192",
              "name": "originalId",
              "type": "uint192"
            },
            {
              "internalType": "string",
              "name": "metadataUri",
              "type": "string"
            }
          ],
          "internalType": "struct UsingCryptoPunksGroupRegistryStructs.Group",
          "name": "",
          "type": "tuple"
        }
      ],
      "stateMutability": "view",
      "type": "function"
    },
    {
      "inputs": [
        {
          "internalType": "uint192",
          "name": "groupId",
          "type": "uint192"
        }
      ],
      "name": "getGroupLifeCycle",
      "outputs": [
        {
          "internalType": "enum UsingCryptoPunksGroupRegistryStructs.GroupLifeCycle",
          "name": "",
          "type": "uint8"
        }
      ],
      "stateMutability": "view",
      "type": "function"
    },
    {
      "inputs": [
        {
          "internalType": "uint192",
          "name": "groupId",
          "type": "uint192"
        }
      ],
      "name": "getGroupTotalContribution",
      "outputs": [
        {
          "internalType": "uint256",
          "name": "totalContribution",
          "type": "uint256"
        }
      ],
      "stateMutability": "view",
      "type": "function"
    },
    {
      "inputs": [
        {
          "internalType": "bytes32",
          "name": "role",
          "type": "bytes32"
        }
      ],
      "name": "getRoleAdmin",
      "outputs": [
        {
          "internalType": "bytes32",
          "name": "",
          "type": "bytes32"
        }
      ],
      "stateMutability": "view",
      "type": "function"
    },
    {
      "inputs": [
        {
          "internalType": "address",
          "name": "inquired",
          "type": "address"
        },
        {
          "internalType": "uint192",
          "name": "groupId",
          "type": "uint192"
        }
      ],
      "name": "getTickets",
      "outputs": [
        {
          "internalType": "uint256",
          "name": "",
          "type": "uint256"
        }
      ],
      "stateMutability": "view",
      "type": "function"
    },
    {
      "inputs": [
        {
          "internalType": "bytes32",
          "name": "role",
          "type": "bytes32"
        },
        {
          "internalType": "address",
          "name": "account",
          "type": "address"
        }
      ],
      "name": "grantRole",
      "outputs": [],
      "stateMutability": "nonpayable",
      "type": "function"
    },
    {
      "inputs": [
        {
          "internalType": "address",
          "name": "inquired",
          "type": "address"
        },
        {
          "internalType": "uint192",
          "name": "groupId",
          "type": "uint192"
        }
      ],
      "name": "hasContribution",
      "outputs": [
        {
          "internalType": "bool",
          "name": "",
          "type": "bool"
        }
      ],
      "stateMutability": "view",
      "type": "function"
    },
    {
      "inputs": [
        {
          "internalType": "bytes32",
          "name": "role",
          "type": "bytes32"
        },
        {
          "internalType": "address",
          "name": "account",
          "type": "address"
        }
      ],
      "name": "hasRole",
      "outputs": [
        {
          "internalType": "bool",
          "name": "",
          "type": "bool"
        }
      ],
      "stateMutability": "view",
      "type": "function"
    },
    {
      "inputs": [
        {
          "internalType": "address",
          "name": "account",
          "type": "address"
        },
        {
          "internalType": "address",
          "name": "operator",
          "type": "address"
        }
      ],
      "name": "isApprovedForAll",
      "outputs": [
        {
          "internalType": "bool",
          "name": "",
          "type": "bool"
        }
      ],
      "stateMutability": "view",
      "type": "function"
    },
    {
      "inputs": [
        {
          "internalType": "address",
          "name": "inquired",
          "type": "address"
        },
        {
          "internalType": "uint192",
          "name": "groupId",
          "type": "uint192"
        }
      ],
      "name": "isCreator",
      "outputs": [
        {
          "internalType": "bool",
          "name": "",
          "type": "bool"
        }
      ],
      "stateMutability": "view",
      "type": "function"
    },
    {
      "inputs": [],
      "name": "latestGroupId",
      "outputs": [
        {
          "internalType": "uint192",
          "name": "",
          "type": "uint192"
        }
      ],
      "stateMutability": "view",
      "type": "function"
    },
    {
      "inputs": [
        {
          "internalType": "uint192",
          "name": "groupId",
          "type": "uint192"
        }
      ],
      "name": "refundExpired",
      "outputs": [],
      "stateMutability": "nonpayable",
      "type": "function"
    },
    {
      "inputs": [
        {
          "internalType": "bytes32",
          "name": "role",
          "type": "bytes32"
        },
        {
          "internalType": "address",
          "name": "account",
          "type": "address"
        }
      ],
      "name": "renounceRole",
      "outputs": [],
      "stateMutability": "nonpayable",
      "type": "function"
    },
    {
      "inputs": [
        {
          "internalType": "bytes32",
          "name": "role",
          "type": "bytes32"
        },
        {
          "internalType": "address",
          "name": "account",
          "type": "address"
        }
      ],
      "name": "revokeRole",
      "outputs": [],
      "stateMutability": "nonpayable",
      "type": "function"
    },
    {
      "inputs": [
        {
          "internalType": "address",
          "name": "from",
          "type": "address"
        },
        {
          "internalType": "address",
          "name": "to",
          "type": "address"
        },
        {
          "internalType": "uint256[]",
          "name": "ids",
          "type": "uint256[]"
        },
        {
          "internalType": "uint256[]",
          "name": "amounts",
          "type": "uint256[]"
        },
        {
          "internalType": "bytes",
          "name": "data",
          "type": "bytes"
        }
      ],
      "name": "safeBatchTransferFrom",
      "outputs": [],
      "stateMutability": "nonpayable",
      "type": "function"
    },
    {
      "inputs": [
        {
          "internalType": "address",
          "name": "from",
          "type": "address"
        },
        {
          "internalType": "address",
          "name": "to",
          "type": "address"
        },
        {
          "internalType": "uint256",
          "name": "id",
          "type": "uint256"
        },
        {
          "internalType": "uint256",
          "name": "amount",
          "type": "uint256"
        },
        {
          "internalType": "bytes",
          "name": "data",
          "type": "bytes"
        }
      ],
      "name": "safeTransferFrom",
      "outputs": [],
      "stateMutability": "nonpayable",
      "type": "function"
    },
    {
      "inputs": [
        {
          "internalType": "address",
          "name": "operator",
          "type": "address"
        },
        {
          "internalType": "bool",
          "name": "approved",
          "type": "bool"
        }
      ],
      "name": "setApprovalForAll",
      "outputs": [],
      "stateMutability": "nonpayable",
      "type": "function"
    },
    {
      "inputs": [
        {
          "internalType": "bytes4",
          "name": "interfaceId",
          "type": "bytes4"
        }
      ],
      "name": "supportsInterface",
      "outputs": [
        {
          "internalType": "bool",
          "name": "",
          "type": "bool"
        }
      ],
      "stateMutability": "view",
      "type": "function"
    },
    {
      "inputs": [
        {
          "internalType": "uint256",
          "name": "groupId",
          "type": "uint256"
        }
      ],
      "name": "uri",
      "outputs": [
        {
          "internalType": "string",
          "name": "",
          "type": "string"
        }
      ],
      "stateMutability": "view",
      "type": "function"
    }
  ],
  "transactionHash": "0x3cbac2b4b27ac473da30d4afe3eb2fb917b555bdd97e1d713f4cd9a5fceb9368",
  "args": [
    "0x16C2980c709900003Aabbdd687aC7A3498D1E955",
    "0xb9CdC263446573a8A5554B7cbbbE09c6caEE3d3a"
  ],
  "numDeployments": 3,
  "solcInputHash": "26149d5e1abf9e2cd55b921c7d27a865",
  "bytecode": "0x60a06040523480156200001157600080fd5b5060405162003d9438038062003d948339810160408190526200003491620001ae565b60408051808201909152601981527f43727970746f50756e6b73204d6f73616963205469636b65740000000000000060208201526200007381620000db565b50600160045562000086600033620000ed565b620000b27f850d585eb7f024ccee5e68e55f2c26cc72e1e6ee456acf62135757a5eb9d4a1033620000ed565b6001600160a01b03918216608052600580546001600160a01b0319169190921617905562000357565b6002620000e982826200028b565b5050565b60008281526003602090815260408083206001600160a01b038516845290915290205460ff16620000e95760008281526003602090815260408083206001600160a01b03851684529091529020805460ff191660011790556200014d3390565b6001600160a01b0316816001600160a01b0316837f2f8788117e7eff1d82e926ec794901d17c78024a50270940304540a733656f0d60405160405180910390a45050565b80516001600160a01b0381168114620001a957600080fd5b919050565b60008060408385031215620001c257600080fd5b620001cd8362000191565b9150620001dd6020840162000191565b90509250929050565b634e487b7160e01b600052604160045260246000fd5b600181811c908216806200021157607f821691505b6020821081036200023257634e487b7160e01b600052602260045260246000fd5b50919050565b601f8211156200028657600081815260208120601f850160051c81016020861015620002615750805b601f850160051c820191505b8181101562000282578281556001016200026d565b5050505b505050565b81516001600160401b03811115620002a757620002a7620001e6565b620002bf81620002b88454620001fc565b8462000238565b602080601f831160018114620002f75760008415620002de5750858301515b600019600386901b1c1916600185901b17855562000282565b600085815260208120601f198616915b82811015620003285788860151825594840194600190910190840162000307565b5085821015620003475787850151600019600388901b60f8161c191681555b5050505050600190811b01905550565b608051613a056200038f6000396000818161063901528181611a1a01528181611b6b01528181611bef0152611cd80152613a056000f3fe6080604052600436106101f85760003560e01c806391d148541161010d578063bafb0ebc116100a0578063d547741f1161006f578063d547741f14610673578063ddcef2b614610693578063e985e9c5146106a6578063f242432a146106ef578063f77e17591461070f57600080fd5b8063bafb0ebc146105ba578063bdd99cdf146105da578063c02a209e146105fa578063d0d851d01461062757600080fd5b8063a217fddf116100dc578063a217fddf1461054f578063a22cb46514610564578063aaad804b14610584578063b4ce873b1461059a57600080fd5b806391d14854146104d9578063962fc1aa146104f95780639bad761f146105195780639f7b45791461052f57600080fd5b8063248a9ca31161019057806344b955711161015f57806344b95571146103fe5780634a2cfb541461041e5780634e1273f41461045257806353b92d091461047257806357ab7f8d146104b957600080fd5b8063248a9ca31461036e5780632eb2c2d61461039e5780632f2ff15d146103be57806336568abe146103de57600080fd5b80630e89341c116101cc5780630e89341c146102ba57806319cd758f146102e75780632368a9541461031457806323b8b46d1461034157600080fd5b8062fdd58e146101fd57806301ffc9a71461023057806304d2c170146102605780630ac4573914610298575b600080fd5b34801561020957600080fd5b5061021d610218366004612c6e565b61072f565b6040519081526020015b60405180910390f35b34801561023c57600080fd5b5061025061024b366004612cb0565b6107c8565b6040519015158152602001610227565b34801561026c57600080fd5b50600654610280906001600160c01b031681565b6040516001600160c01b039091168152602001610227565b3480156102a457600080fd5b506102b86102b3366004612ce2565b6107e2565b005b3480156102c657600080fd5b506102da6102d5366004612cff565b6109dd565b6040516102279190612d68565b3480156102f357600080fd5b50610307610302366004612ce2565b610a8f565b6040516102279190612d91565b34801561032057600080fd5b5061033461032f366004612ce2565b610b6d565b6040516102279190612de6565b34801561034d57600080fd5b50610356606481565b6040516001600160401b039091168152602001610227565b34801561037a57600080fd5b5061021d610389366004612cff565b60009081526003602052604090206001015490565b3480156103aa57600080fd5b506102b86103b9366004612f42565b610ea8565b3480156103ca57600080fd5b506102b86103d9366004612fef565b610ef4565b3480156103ea57600080fd5b506102b86103f9366004612fef565b610f1e565b34801561040a57600080fd5b5061025061041936600461301f565b610f9c565b34801561042a57600080fd5b5061021d7f850d585eb7f024ccee5e68e55f2c26cc72e1e6ee456acf62135757a5eb9d4a1081565b34801561045e57600080fd5b5061033461046d36600461304d565b610fb1565b34801561047e57600080fd5b5061025061048d36600461301f565b6001600160c01b03166000908152600760205260409020600101546001600160a01b0391821691161490565b3480156104c557600080fd5b506102b86104d4366004613119565b6110da565b3480156104e557600080fd5b506102506104f4366004612fef565b611106565b34801561050557600080fd5b5061021d610514366004612cff565b611131565b34801561052557600080fd5b50610356611b5881565b34801561053b57600080fd5b5061028061054a36600461318e565b61113f565b34801561055b57600080fd5b5061021d600081565b34801561057057600080fd5b506102b861057f3660046131be565b611359565b34801561059057600080fd5b5061035661c35081565b3480156105a657600080fd5b5061021d6105b536600461301f565b611364565b3480156105c657600080fd5b5061021d6105d5366004612cff565b611380565b3480156105e657600080fd5b5061021d6105f5366004612ce2565b61138e565b34801561060657600080fd5b5061061a610615366004612ce2565b6113e2565b6040516102279190613200565b34801561063357600080fd5b5061065b7f000000000000000000000000000000000000000000000000000000000000000081565b6040516001600160a01b039091168152602001610227565b34801561067f57600080fd5b506102b861068e366004612fef565b611610565b6102b86106a136600461330f565b611635565b3480156106b257600080fd5b506102506106c1366004613349565b6001600160a01b03918216600090815260016020908152604080832093909416825291909152205460ff1690565b3480156106fb57600080fd5b506102b861070a366004613377565b6118a9565b34801561071b57600080fd5b506102b861072a366004612ce2565b6118ee565b60006001600160a01b03831661079f5760405162461bcd60e51b815260206004820152602a60248201527f455243313135353a2061646472657373207a65726f206973206e6f742061207660448201526930b634b21037bbb732b960b11b60648201526084015b60405180910390fd5b506000818152602081815260408083206001600160a01b03861684529091529020545b92915050565b60006107d382611e6f565b806107c257506107c282611ebf565b6107ea611ee4565b60065481906001600160c01b03908116908216111561081b5760405162461bcd60e51b8152600401610796906133df565b6001600160c01b03821660009081526007602052604090203390600261084085610a8f565b600381111561085157610851612d7b565b1461089e5760405162461bcd60e51b815260206004820152601960248201527f5468652067726f7570206d7573742062652065787069726564000000000000006044820152606401610796565b60006108aa3386611364565b9050600081116109085760405162461bcd60e51b815260206004820152602360248201527f4f6e6c79207469636b657420686f6c646572732063616e2067657420726566756044820152626e647360e81b6064820152608401610796565b61091c33866001600160c01b031683611f3d565b600081610928846120be565b610932919061341e565b90506000846001600160a01b03168260405160006040518083038185875af1925050503d8060008114610981576040519150601f19603f3d011682016040523d82523d6000602084013e610986565b606091505b50509050806109ca5760405162461bcd60e51b815260206004820152601060248201526f11985a5b1959081d1bc81c99599d5b9960821b6044820152606401610796565b5050505050506109da6001600455565b50565b6001600160c01b0381166000908152600760205260409020600a810180546060929190610a0990613435565b80601f0160208091040260200160405190810160405280929190818152602001828054610a3590613435565b8015610a825780601f10610a5757610100808354040283529160200191610a82565b820191906000526020600020905b815481529060010190602001808311610a6557829003601f168201915b5050505050915050919050565b60065460009082906001600160c01b039081169082161115610ac35760405162461bcd60e51b8152600401610796906133df565b6001600160c01b038316600090815260076020526040902060026007820154600160681b900460ff166002811115610afd57610afd612d7b565b03610b0c576003925050610b67565b60016007820154600160681b900460ff166002811115610b2e57610b2e612d7b565b03610b6157600781015442600160401b90910464ffffffffff1610610b57576001925050610b67565b6002925050610b67565b60009250505b50919050565b6060610b77611ee4565b60065482906001600160c01b039081169082161115610ba85760405162461bcd60e51b8152600401610796906133df565b6001600160c01b038316600090815260076020526040902060026007820154600160681b900460ff166002811115610be257610be2612d7b565b14610c2f5760405162461bcd60e51b815260206004820152601a60248201527f5468652067726f7570206973206e6f742066696e616c697a65640000000000006044820152606401610796565b6000610c3b3386611364565b905060008111610c995760405162461bcd60e51b8152602060048201526024808201527f4f6e6c79207469636b657420686f6c646572732063616e20636c61696d20746f6044820152636b656e7360e01b6064820152608401610796565b610cad33866001600160c01b031683611f3d565b600081610cb9846120be565b610cc3919061341e565b604051909150600090339083908381818185875af1925050503d8060008114610d08576040519150601f19603f3d011682016040523d82523d6000602084013e610d0d565b606091505b5050905080610d515760405162461bcd60e51b815260206004820152601060248201526f11985a5b1959081d1bc81c99599d5b9960821b6044820152606401610796565b6000836001600160401b03811115610d6b57610d6b612df9565b604051908082528060200260200182016040528015610d94578160200160208202803683370190505b50905060005b84811015610e91576005546009870154604051630818bcb960e21b81523360048201526001600160c01b0390911660248201526000916001600160a01b031690632062f2e4906044016020604051808303816000875af1158015610e02573d6000803e3d6000fd5b505050506040513d601f19601f82011682018060405250810190610e269190613469565b905080838381518110610e3b57610e3b613482565b602090810291909101015260405181906001600160c01b038c169033907f4c1be2553fae8261d25ff0ad45198f755781d31ad84c58a526837480b4d7fece90600090a45080610e8981613498565b915050610d9a565b5095505050505050610ea36001600455565b919050565b6001600160a01b038516331480610ec45750610ec485336106c1565b610ee05760405162461bcd60e51b8152600401610796906134b1565b610eed8585858585612108565b5050505050565b600082815260036020526040902060010154610f0f816122a4565b610f1983836122ae565b505050565b6001600160a01b0381163314610f8e5760405162461bcd60e51b815260206004820152602f60248201527f416363657373436f6e74726f6c3a2063616e206f6e6c792072656e6f756e636560448201526e103937b632b9903337b91039b2b63360891b6064820152608401610796565b610f988282612334565b5050565b600080610fa98484611364565b119392505050565b606081518351146110165760405162461bcd60e51b815260206004820152602960248201527f455243313135353a206163636f756e747320616e6420696473206c656e677468604482015268040dad2e6dac2e8c6d60bb1b6064820152608401610796565b600083516001600160401b0381111561103157611031612df9565b60405190808252806020026020018201604052801561105a578160200160208202803683370190505b50905060005b84518110156110d2576110a585828151811061107e5761107e613482565b602002602001015185838151811061109857611098613482565b602002602001015161072f565b8282815181106110b7576110b7613482565b60209081029190910101526110cb81613498565b9050611060565b509392505050565b60006110e5816122a4565b6111008484846040518060200160405280600081525061239b565b50505050565b60009182526003602090815260408084206001600160a01b0393909316845291905290205460ff1690565b60006107c28261c3506124e6565b60007f850d585eb7f024ccee5e68e55f2c26cc72e1e6ee456acf62135757a5eb9d4a1061116b816122a4565b6001600654611182906001600160c01b0316610a8f565b600381111561119357611193612d7b565b036111d75760405162461bcd60e51b81526020600482015260146024820152734f6e676f696e672067726f75702065786973747360601b6044820152606401610796565b600680546000906111f0906001600160c01b03166134ff565b82546001600160c01b039182166101009390930a928302919092021990911617905560646000611220828661352d565b6006546001600160c01b0316600081815260076020819052604090912080546001600160c01b03191690921782556001820180546001600160a01b0319163317905560028201899055600382018890556004820180546001600160401b03871667ffffffffffffffff19909116179055600582018390558101805460ff60681b1916600160681b1790559091506112ba4262093a8061354f565b60078201805464ffffffffff92909216600160401b026cffffffffff000000000000000019909216919091179055600654604080518881526001600160401b038616602082015290810184905233916001600160c01b0316907f6c41f680bd5046e7b94552360a6d353c3d90e84424808396eb845cb2f0b059da9060600160405180910390a350506006546001600160c01b03169250505b5092915050565b610f98338383612517565b600061137983836001600160c01b031661072f565b9392505050565b60006107c282611b586124e6565b60065460009082906001600160c01b0390811690821611156113c25760405162461bcd60e51b8152600401610796906133df565b50506001600160c01b031660009081526007602052604090206006015490565b61144d604080516101a081018252600080825260208201819052918101829052606081018290526080810182905260a0810182905260c0810182905260e081018290526101008101829052906101208201908152600060208201819052604082015260609081015290565b60065482906001600160c01b03908116908216111561147e5760405162461bcd60e51b8152600401610796906133df565b6001600160c01b0383811660009081526007602081815260409283902083516101a0810185528154909516855260018101546001600160a01b031691850191909152600280820154938501939093526003810154606085015260048101546001600160401b039081166080860152600582015460a0860152600682015460c08601529181015491821660e0850152600160401b820464ffffffffff1661010085015291610120840191600160681b900460ff169081111561154157611541612d7b565b600281111561155257611552612d7b565b81526008820154602082015260098201546001600160c01b03166040820152600a8201805460609092019161158690613435565b80601f01602080910402602001604051908101604052809291908181526020018280546115b290613435565b80156115ff5780601f106115d4576101008083540402835291602001916115ff565b820191906000526020600020905b8154815290600101906020018083116115e257829003601f168201915b505050505081525050915050919050565b60008281526003602052604090206001015461162b816122a4565b610f198383612334565b60065482906001600160c01b0390811690821611156116665760405162461bcd60e51b8152600401610796906133df565b6001600160c01b038316600090815260076020819052604082209081015460048201549192916116a2916001600160401b039081169116613562565b6001600160401b0316905080846001600160401b031611156117155760405162461bcd60e51b815260206004820152602660248201527f4665776572207469636b6574732072656d61696e696e67207468616e207265716044820152651d595cdd195960d21b6064820152608401610796565b60058201543490600090611733906001600160401b0388169061341e565b90508082146117845760405162461bcd60e51b815260206004820152601a60248201527f436f6e747269627574696f6e206d7573742062652065786163740000000000006044820152606401610796565b60003390508285600601600082825461179d919061354f565b90915550506007850180548891906000906117c29084906001600160401b0316613582565b82546101009290920a6001600160401b038181021990931691831602179091556001600160c01b038a1660009081526008602090815260408083206001600160a01b038716845290915281208054928b1693509161182190849061354f565b9250508190555061185581896001600160c01b0316896001600160401b0316604051806020016040528060008152506125f7565b866001600160401b0316886001600160c01b0316826001600160a01b03167fe666172e6168732cfedfefcdfc03bf3faf2588416f76c21085a3d731dfa9c8a160405160405180910390a45050505050505050565b6001600160a01b0385163314806118c557506118c585336106c1565b6118e15760405162461bcd60e51b8152600401610796906134b1565b610eed85858585856126c8565b6118f6611ee4565b60065481906001600160c01b0390811690821611156119275760405162461bcd60e51b8152600401610796906133df565b6005546001600160a01b031661197f5760405162461bcd60e51b815260206004820152601c60248201527f45786869626974207265676973747279206d75737420626520736574000000006044820152606401610796565b6001600160c01b03821660009081526007602052604090206119a13384610f9c565b6119fc5760405162461bcd60e51b815260206004820152602660248201527f4f6e6c79207469636b657420686f6c646572732063616e20696e69746961746560448201526520612062757960d01b6064820152608401610796565b600281015460405163088f11f360e01b8152600481018290526000907f00000000000000000000000000000000000000000000000000000000000000006001600160a01b03169063088f11f39060240160a060405180830381865afa158015611a69573d6000803e3d6000fd5b505050506040513d601f19601f82011682018060405250810190611a8d91906135a2565b5060078701549094506001600160401b03166064149250611ae29150505760405162461bcd60e51b815260206004820152600c60248201526b139bdd081cdbdb19081bdd5d60a21b6044820152606401610796565b8083600601541015611b555760405162461bcd60e51b815260206004820152603660248201527f4f6666657265642070726963652069732067726561746572207468616e207468604482015275329031bab93932b73a1031b7b73a3934b13aba34b7b760511b6064820152608401610796565b60405163104c9fd360e31b8152600481018390527f00000000000000000000000000000000000000000000000000000000000000006001600160a01b031690638264fe989083906024016000604051808303818588803b158015611bb857600080fd5b505af1158015611bcc573d6000803e3d6000fd5b5050604051630b02f02d60e31b8152600481018690523093506001600160a01b037f000000000000000000000000000000000000000000000000000000000000000016925063581781689150602401602060405180830381865afa158015611c38573d6000803e3d6000fd5b505050506040513d601f19601f82011682018060405250810190611c5c9190613603565b6001600160a01b031614611ca95760405162461bcd60e51b81526020600482015260146024820152730556e6578706563746564206f776e6572736869760641b6044820152606401610796565b60055460028401546040516322dca8bb60e21b81526001600160a01b03928316600482015260248101919091527f000000000000000000000000000000000000000000000000000000000000000090911690638b72a2ec90604401600060405180830381600087803b158015611d1e57600080fd5b505af1158015611d32573d6000803e3d6000fd5b5050505060088301819055600554600284015460078501546001600160a01b039092169163512137ed91906001600160401b031684611d7081611380565b611d7d8960080154611131565b6040516001600160e01b031960e088901b16815260048101959095526001600160401b03909316602485015260448401919091526064830152608482015260a4016020604051808303816000875af1158015611ddd573d6000803e3d6000fd5b505050506040513d601f19601f82011682018060405250810190611e019190613620565b6009840180546001600160c01b0319166001600160c01b0392831617905560078401805460ff60681b1916600160691b179055604051908616907fa55364f4cf304b1309b80ba955214c6192d2c9ba9fc0aa3c4b3bc0f11c941d7290600090a2505050506109da6001600455565b60006001600160e01b03198216636cdb3d1360e11b1480611ea057506001600160e01b031982166303a24d0760e21b145b806107c257506301ffc9a760e01b6001600160e01b03198316146107c2565b60006001600160e01b03198216637965db0b60e01b14806107c257506107c282611e6f565b600260045403611f365760405162461bcd60e51b815260206004820152601f60248201527f5265656e7472616e637947756172643a207265656e7472616e742063616c6c006044820152606401610796565b6002600455565b6001600160a01b038316611f9f5760405162461bcd60e51b815260206004820152602360248201527f455243313135353a206275726e2066726f6d20746865207a65726f206164647260448201526265737360e81b6064820152608401610796565b336000611fab846127f2565b90506000611fb8846127f2565b60408051602080820183526000918290528882528181528282206001600160a01b038b16835290522054909150848110156120415760405162461bcd60e51b8152602060048201526024808201527f455243313135353a206275726e20616d6f756e7420657863656564732062616c604482015263616e636560e01b6064820152608401610796565b6000868152602081815260408083206001600160a01b038b81168086529184528285208a8703905582518b81529384018a90529092908816917fc3d58168c5ae7397731d063d5bbf3d657854427343f4c083240f7aacaa2d0f62910160405180910390a46040805160208101909152600090525b50505050505050565b600081600801548260060154116120d757506000919050565b6000826008015483600601546120ed919061363d565b6007840154909150611379906001600160401b03168261352d565b81518351146121295760405162461bcd60e51b815260040161079690613650565b6001600160a01b03841661214f5760405162461bcd60e51b815260040161079690613698565b3360005b845181101561223657600085828151811061217057612170613482565b60200260200101519050600085838151811061218e5761218e613482565b602090810291909101810151600084815280835260408082206001600160a01b038e1683529093529190912054909150818110156121de5760405162461bcd60e51b8152600401610796906136dd565b6000838152602081815260408083206001600160a01b038e8116855292528083208585039055908b1682528120805484929061221b90849061354f565b925050819055505050508061222f90613498565b9050612153565b50846001600160a01b0316866001600160a01b0316826001600160a01b03167f4a39dc06d4c0dbc64b70af90fd698a233a518aa5d07e595d983b8c0526c8f7fb8787604051612286929190613727565b60405180910390a461229c81878787878761283d565b505050505050565b6109da8133612998565b6122b88282611106565b610f985760008281526003602090815260408083206001600160a01b03851684529091529020805460ff191660011790556122f03390565b6001600160a01b0316816001600160a01b0316837f2f8788117e7eff1d82e926ec794901d17c78024a50270940304540a733656f0d60405160405180910390a45050565b61233e8282611106565b15610f985760008281526003602090815260408083206001600160a01b0385168085529252808320805460ff1916905551339285917ff6391f5c32d9c69d2a47ea670b442974b53935d1edc7fd64eb21e047a839171b9190a45050565b6001600160a01b0384166123c15760405162461bcd60e51b815260040161079690613755565b81518351146123e25760405162461bcd60e51b815260040161079690613650565b3360005b845181101561247e5783818151811061240157612401613482565b602002602001015160008087848151811061241e5761241e613482565b602002602001015181526020019081526020016000206000886001600160a01b03166001600160a01b031681526020019081526020016000206000828254612466919061354f565b9091555081905061247681613498565b9150506123e6565b50846001600160a01b031660006001600160a01b0316826001600160a01b03167f4a39dc06d4c0dbc64b70af90fd698a233a518aa5d07e595d983b8c0526c8f7fb87876040516124cf929190613727565b60405180910390a4610eed8160008787878761283d565b60006127106124f5838561341e565b101561250057600080fd5b61271061250d838561341e565b611379919061352d565b816001600160a01b0316836001600160a01b03160361258a5760405162461bcd60e51b815260206004820152602960248201527f455243313135353a2073657474696e6720617070726f76616c20737461747573604482015268103337b91039b2b63360b91b6064820152608401610796565b6001600160a01b03838116600081815260016020908152604080832094871680845294825291829020805460ff191686151590811790915591519182527f17307eab39ab6107e8899845ad3d59bd9653f200f220920489ca2b5937696c31910160405180910390a3505050565b6001600160a01b03841661261d5760405162461bcd60e51b815260040161079690613755565b336000612629856127f2565b90506000612636856127f2565b90506000868152602081815260408083206001600160a01b038b1684529091528120805487929061266890849061354f565b909155505060408051878152602081018790526001600160a01b03808a1692600092918716917fc3d58168c5ae7397731d063d5bbf3d657854427343f4c083240f7aacaa2d0f62910160405180910390a46120b5836000898989896129f1565b6001600160a01b0384166126ee5760405162461bcd60e51b815260040161079690613698565b3360006126fa856127f2565b90506000612707856127f2565b90506000868152602081815260408083206001600160a01b038c1684529091529020548581101561274a5760405162461bcd60e51b8152600401610796906136dd565b6000878152602081815260408083206001600160a01b038d8116855292528083208985039055908a1682528120805488929061278790849061354f565b909155505060408051888152602081018890526001600160a01b03808b16928c821692918816917fc3d58168c5ae7397731d063d5bbf3d657854427343f4c083240f7aacaa2d0f62910160405180910390a46127e7848a8a8a8a8a6129f1565b505050505050505050565b6040805160018082528183019092526060916000919060208083019080368337019050509050828160008151811061282c5761282c613482565b602090810291909101015292915050565b6001600160a01b0384163b1561229c5760405163bc197c8160e01b81526001600160a01b0385169063bc197c81906128819089908990889088908890600401613796565b6020604051808303816000875af19250505080156128bc575060408051601f3d908101601f191682019092526128b9918101906137f4565b60015b612968576128c8613811565b806308c379a00361290157506128dc61382d565b806128e75750612903565b8060405162461bcd60e51b81526004016107969190612d68565b505b60405162461bcd60e51b815260206004820152603460248201527f455243313135353a207472616e7366657220746f206e6f6e2d455243313135356044820152732932b1b2b4bb32b91034b6b83632b6b2b73a32b960611b6064820152608401610796565b6001600160e01b0319811663bc197c8160e01b146120b55760405162461bcd60e51b8152600401610796906138b6565b6129a28282611106565b610f98576129af81612aac565b6129ba836020612abe565b6040516020016129cb9291906138fe565b60408051601f198184030181529082905262461bcd60e51b825261079691600401612d68565b6001600160a01b0384163b1561229c5760405163f23a6e6160e01b81526001600160a01b0385169063f23a6e6190612a359089908990889088908890600401613973565b6020604051808303816000875af1925050508015612a70575060408051601f3d908101601f19168201909252612a6d918101906137f4565b60015b612a7c576128c8613811565b6001600160e01b0319811663f23a6e6160e01b146120b55760405162461bcd60e51b8152600401610796906138b6565b60606107c26001600160a01b03831660145b60606000612acd83600261341e565b612ad890600261354f565b6001600160401b03811115612aef57612aef612df9565b6040519080825280601f01601f191660200182016040528015612b19576020820181803683370190505b509050600360fc1b81600081518110612b3457612b34613482565b60200101906001600160f81b031916908160001a905350600f60fb1b81600181518110612b6357612b63613482565b60200101906001600160f81b031916908160001a9053506000612b8784600261341e565b612b9290600161354f565b90505b6001811115612c0a576f181899199a1a9b1b9c1cb0b131b232b360811b85600f1660108110612bc657612bc6613482565b1a60f81b828281518110612bdc57612bdc613482565b60200101906001600160f81b031916908160001a90535060049490941c93612c03816139b8565b9050612b95565b5083156113795760405162461bcd60e51b815260206004820181905260248201527f537472696e67733a20686578206c656e67746820696e73756666696369656e746044820152606401610796565b6001600160a01b03811681146109da57600080fd5b60008060408385031215612c8157600080fd5b8235612c8c81612c59565b946020939093013593505050565b6001600160e01b0319811681146109da57600080fd5b600060208284031215612cc257600080fd5b813561137981612c9a565b6001600160c01b03811681146109da57600080fd5b600060208284031215612cf457600080fd5b813561137981612ccd565b600060208284031215612d1157600080fd5b5035919050565b60005b83811015612d33578181015183820152602001612d1b565b50506000910152565b60008151808452612d54816020860160208601612d18565b601f01601f19169290920160200192915050565b6020815260006113796020830184612d3c565b634e487b7160e01b600052602160045260246000fd5b6020810160048310612da557612da5612d7b565b91905290565b600081518084526020808501945080840160005b83811015612ddb57815187529582019590820190600101612dbf565b509495945050505050565b6020815260006113796020830184612dab565b634e487b7160e01b600052604160045260246000fd5b601f8201601f191681016001600160401b0381118282101715612e3457612e34612df9565b6040525050565b60006001600160401b03821115612e5457612e54612df9565b5060051b60200190565b600082601f830112612e6f57600080fd5b81356020612e7c82612e3b565b604051612e898282612e0f565b83815260059390931b8501820192828101915086841115612ea957600080fd5b8286015b84811015612ec45780358352918301918301612ead565b509695505050505050565b600082601f830112612ee057600080fd5b81356001600160401b03811115612ef957612ef9612df9565b604051612f10601f8301601f191660200182612e0f565b818152846020838601011115612f2557600080fd5b816020850160208301376000918101602001919091529392505050565b600080600080600060a08688031215612f5a57600080fd5b8535612f6581612c59565b94506020860135612f7581612c59565b935060408601356001600160401b0380821115612f9157600080fd5b612f9d89838a01612e5e565b94506060880135915080821115612fb357600080fd5b612fbf89838a01612e5e565b93506080880135915080821115612fd557600080fd5b50612fe288828901612ecf565b9150509295509295909350565b6000806040838503121561300257600080fd5b82359150602083013561301481612c59565b809150509250929050565b6000806040838503121561303257600080fd5b823561303d81612c59565b9150602083013561301481612ccd565b6000806040838503121561306057600080fd5b82356001600160401b038082111561307757600080fd5b818501915085601f83011261308b57600080fd5b8135602061309882612e3b565b6040516130a58282612e0f565b83815260059390931b85018201928281019150898411156130c557600080fd5b948201945b838610156130ec5785356130dd81612c59565b825294820194908201906130ca565b9650508601359250508082111561310257600080fd5b5061310f85828601612e5e565b9150509250929050565b60008060006060848603121561312e57600080fd5b833561313981612c59565b925060208401356001600160401b038082111561315557600080fd5b61316187838801612e5e565b9350604086013591508082111561317757600080fd5b5061318486828701612e5e565b9150509250925092565b600080604083850312156131a157600080fd5b50508035926020909101359150565b80151581146109da57600080fd5b600080604083850312156131d157600080fd5b82356131dc81612c59565b91506020830135613014816131b0565b600381106131fc576131fc612d7b565b9052565b6020815261321a6020820183516001600160c01b03169052565b6000602083015161323660408401826001600160a01b03169052565b506040830151606083015260608301516080830152608083015161326560a08401826001600160401b03169052565b5060a083015160c083015260c083015160e083015260e0830151610100613296818501836001600160401b03169052565b84015190506101206132b08482018364ffffffffff169052565b84015190506101406132c4848201836131ec565b8401516101608481019190915284015190506101806132ed818501836001600160c01b03169052565b8401516101a08481015290506133076101c0840182612d3c565b949350505050565b6000806040838503121561332257600080fd5b823561332d81612ccd565b915060208301356001600160401b038116811461301457600080fd5b6000806040838503121561335c57600080fd5b823561336781612c59565b9150602083013561301481612c59565b600080600080600060a0868803121561338f57600080fd5b853561339a81612c59565b945060208601356133aa81612c59565b9350604086013592506060860135915060808601356001600160401b038111156133d357600080fd5b612fe288828901612ecf565b6020808252600f908201526e125b9d985b1a590819dc9bdd5c1259608a1b604082015260600190565b634e487b7160e01b600052601160045260246000fd5b80820281158282048414176107c2576107c2613408565b600181811c9082168061344957607f821691505b602082108103610b6757634e487b7160e01b600052602260045260246000fd5b60006020828403121561347b57600080fd5b5051919050565b634e487b7160e01b600052603260045260246000fd5b6000600182016134aa576134aa613408565b5060010190565b6020808252602e908201527f455243313135353a2063616c6c6572206973206e6f7420746f6b656e206f776e60408201526d195c881bdc88185c1c1c9bdd995960921b606082015260800190565b60006001600160c01b038281166002600160c01b0319810161352357613523613408565b6001019392505050565b60008261354a57634e487b7160e01b600052601260045260246000fd5b500490565b808201808211156107c2576107c2613408565b6001600160401b0382811682821603908082111561135257611352613408565b6001600160401b0381811683821601908082111561135257611352613408565b600080600080600060a086880312156135ba57600080fd5b85516135c5816131b0565b6020870151604088015191965094506135dd81612c59565b6060870151608088015191945092506135f581612c59565b809150509295509295909350565b60006020828403121561361557600080fd5b815161137981612c59565b60006020828403121561363257600080fd5b815161137981612ccd565b818103818111156107c2576107c2613408565b60208082526028908201527f455243313135353a2069647320616e6420616d6f756e7473206c656e677468206040820152670dad2e6dac2e8c6d60c31b606082015260800190565b60208082526025908201527f455243313135353a207472616e7366657220746f20746865207a65726f206164604082015264647265737360d81b606082015260800190565b6020808252602a908201527f455243313135353a20696e73756666696369656e742062616c616e636520666f60408201526939103a3930b739b332b960b11b606082015260800190565b60408152600061373a6040830185612dab565b828103602084015261374c8185612dab565b95945050505050565b60208082526021908201527f455243313135353a206d696e7420746f20746865207a65726f206164647265736040820152607360f81b606082015260800190565b6001600160a01b0386811682528516602082015260a0604082018190526000906137c290830186612dab565b82810360608401526137d48186612dab565b905082810360808401526137e88185612d3c565b98975050505050505050565b60006020828403121561380657600080fd5b815161137981612c9a565b600060033d111561382a5760046000803e5060005160e01c5b90565b600060443d101561383b5790565b6040516003193d81016004833e81513d6001600160401b03816024840111818411171561386a57505050505090565b82850191508151818111156138825750505050505090565b843d870101602082850101111561389c5750505050505090565b6138ab60208286010187612e0f565b509095945050505050565b60208082526028908201527f455243313135353a204552433131353552656365697665722072656a656374656040820152676420746f6b656e7360c01b606082015260800190565b7f416363657373436f6e74726f6c3a206163636f756e7420000000000000000000815260008351613936816017850160208801612d18565b7001034b99036b4b9b9b4b733903937b6329607d1b6017918401918201528351613967816028840160208801612d18565b01602801949350505050565b6001600160a01b03868116825285166020820152604081018490526060810183905260a0608082018190526000906139ad90830184612d3c565b979650505050505050565b6000816139c7576139c7613408565b50600019019056fea2646970667358221220e0c5b17ac507db41ba308d8376d3b0bfd4a2e9a79be90560b6c44fdbded08d5464736f6c63430008110033",
  "devdoc": {
    "kind": "dev",
    "methods": {
      "balanceOf(address,uint256)": {
        "details": "See {IERC1155-balanceOf}. Requirements: - `account` cannot be the zero address."
      },
      "balanceOfBatch(address[],uint256[])": {
        "details": "See {IERC1155-balanceOfBatch}. Requirements: - `accounts` and `ids` must have the same length."
      },
      "buy(uint192)": {
        "details": "Can be tried as long as the group is OPEN"
      },
      "getRoleAdmin(bytes32)": {
        "details": "Returns the admin role that controls `role`. See {grantRole} and {revokeRole}. To change a role's admin, use {_setRoleAdmin}."
      },
      "grantRole(bytes32,address)": {
        "details": "Grants `role` to `account`. If `account` had not been already granted `role`, emits a {RoleGranted} event. Requirements: - the caller must have ``role``'s admin role. May emit a {RoleGranted} event."
      },
      "hasRole(bytes32,address)": {
        "details": "Returns `true` if `account` has been granted `role`."
      },
      "isApprovedForAll(address,address)": {
        "details": "See {IERC1155-isApprovedForAll}."
      },
      "renounceRole(bytes32,address)": {
        "details": "Revokes `role` from the calling account. Roles are often managed via {grantRole} and {revokeRole}: this function's purpose is to provide a mechanism for accounts to lose their privileges if they are compromised (such as when a trusted device is misplaced). If the calling account had been revoked `role`, emits a {RoleRevoked} event. Requirements: - the caller must be `account`. May emit a {RoleRevoked} event."
      },
      "revokeRole(bytes32,address)": {
        "details": "Revokes `role` from `account`. If `account` had been granted `role`, emits a {RoleRevoked} event. Requirements: - the caller must have ``role``'s admin role. May emit a {RoleRevoked} event."
      },
      "safeBatchTransferFrom(address,address,uint256[],uint256[],bytes)": {
        "details": "See {IERC1155-safeBatchTransferFrom}."
      },
      "safeTransferFrom(address,address,uint256,uint256,bytes)": {
        "details": "See {IERC1155-safeTransferFrom}."
      },
      "setApprovalForAll(address,bool)": {
        "details": "See {IERC1155-setApprovalForAll}."
      }
    },
    "stateVariables": {
      "CURATOR_ROLE": {
        "details": "can create and curate the active group"
      },
      "latestGroupId": {
        "details": "Starts from 1.  Must increment this first when creating a new group."
      },
      "refundableTickets": {
        "details": "groupId -> address -> shares (= the number of tickets bought)"
      }
    },
    "version": 1
  },
  "userdoc": {
    "kind": "user",
    "methods": {
      "MIN_RESERVE_PRICE_BPS()": {
        "notice": "Arithmetic constants"
      },
      "TICKET_SUPPLY_PER_GROUP()": {
        "notice": "Business logic constants TODO: Introduce a global explicit storage contract"
      }
    },
    "version": 1
  },
  "storageLayout": {
    "storage": [
      {
        "astId": 468,
        "contract": "src/CryptoPunksGroupRegistry.sol:CryptoPunksGroupRegistry",
        "label": "_balances",
        "offset": 0,
        "slot": "0",
        "type": "t_mapping(t_uint256,t_mapping(t_address,t_uint256))"
      },
      {
        "astId": 474,
        "contract": "src/CryptoPunksGroupRegistry.sol:CryptoPunksGroupRegistry",
        "label": "_operatorApprovals",
        "offset": 0,
        "slot": "1",
        "type": "t_mapping(t_address,t_mapping(t_address,t_bool))"
      },
      {
        "astId": 476,
        "contract": "src/CryptoPunksGroupRegistry.sol:CryptoPunksGroupRegistry",
        "label": "_uri",
        "offset": 0,
        "slot": "2",
        "type": "t_string_storage"
      },
      {
        "astId": 24,
        "contract": "src/CryptoPunksGroupRegistry.sol:CryptoPunksGroupRegistry",
        "label": "_roles",
        "offset": 0,
        "slot": "3",
        "type": "t_mapping(t_bytes32,t_struct(RoleData)19_storage)"
      },
      {
        "astId": 399,
        "contract": "src/CryptoPunksGroupRegistry.sol:CryptoPunksGroupRegistry",
        "label": "_status",
        "offset": 0,
        "slot": "4",
        "type": "t_uint256"
      },
      {
        "astId": 5965,
        "contract": "src/CryptoPunksGroupRegistry.sol:CryptoPunksGroupRegistry",
        "label": "mosaicRegistry",
        "offset": 0,
        "slot": "5",
        "type": "t_contract(ICryptoPunksMosaicRegistry)8163"
      },
      {
        "astId": 5968,
        "contract": "src/CryptoPunksGroupRegistry.sol:CryptoPunksGroupRegistry",
        "label": "latestGroupId",
        "offset": 0,
        "slot": "6",
        "type": "t_uint192"
      },
      {
        "astId": 5973,
        "contract": "src/CryptoPunksGroupRegistry.sol:CryptoPunksGroupRegistry",
        "label": "groups",
        "offset": 0,
        "slot": "7",
        "type": "t_mapping(t_uint192,t_struct(Group)8281_storage)"
      },
      {
        "astId": 5980,
        "contract": "src/CryptoPunksGroupRegistry.sol:CryptoPunksGroupRegistry",
        "label": "refundableTickets",
        "offset": 0,
        "slot": "8",
        "type": "t_mapping(t_uint192,t_mapping(t_address,t_uint256))"
      }
    ],
    "types": {
      "t_address": {
        "encoding": "inplace",
        "label": "address",
        "numberOfBytes": "20"
      },
      "t_bool": {
        "encoding": "inplace",
        "label": "bool",
        "numberOfBytes": "1"
      },
      "t_bytes32": {
        "encoding": "inplace",
        "label": "bytes32",
        "numberOfBytes": "32"
      },
      "t_contract(ICryptoPunksMosaicRegistry)8163": {
        "encoding": "inplace",
        "label": "contract ICryptoPunksMosaicRegistry",
        "numberOfBytes": "20"
      },
      "t_enum(GroupStatus)8248": {
        "encoding": "inplace",
        "label": "enum UsingCryptoPunksGroupRegistryStructs.GroupStatus",
        "numberOfBytes": "1"
      },
      "t_mapping(t_address,t_bool)": {
        "encoding": "mapping",
        "key": "t_address",
        "label": "mapping(address => bool)",
        "numberOfBytes": "32",
        "value": "t_bool"
      },
      "t_mapping(t_address,t_mapping(t_address,t_bool))": {
        "encoding": "mapping",
        "key": "t_address",
        "label": "mapping(address => mapping(address => bool))",
        "numberOfBytes": "32",
        "value": "t_mapping(t_address,t_bool)"
      },
      "t_mapping(t_address,t_uint256)": {
        "encoding": "mapping",
        "key": "t_address",
        "label": "mapping(address => uint256)",
        "numberOfBytes": "32",
        "value": "t_uint256"
      },
      "t_mapping(t_bytes32,t_struct(RoleData)19_storage)": {
        "encoding": "mapping",
        "key": "t_bytes32",
        "label": "mapping(bytes32 => struct AccessControl.RoleData)",
        "numberOfBytes": "32",
        "value": "t_struct(RoleData)19_storage"
      },
      "t_mapping(t_uint192,t_mapping(t_address,t_uint256))": {
        "encoding": "mapping",
        "key": "t_uint192",
        "label": "mapping(uint192 => mapping(address => uint256))",
        "numberOfBytes": "32",
        "value": "t_mapping(t_address,t_uint256)"
      },
      "t_mapping(t_uint192,t_struct(Group)8281_storage)": {
        "encoding": "mapping",
        "key": "t_uint192",
        "label": "mapping(uint192 => struct UsingCryptoPunksGroupRegistryStructs.Group)",
        "numberOfBytes": "32",
        "value": "t_struct(Group)8281_storage"
      },
      "t_mapping(t_uint256,t_mapping(t_address,t_uint256))": {
        "encoding": "mapping",
        "key": "t_uint256",
        "label": "mapping(uint256 => mapping(address => uint256))",
        "numberOfBytes": "32",
        "value": "t_mapping(t_address,t_uint256)"
      },
      "t_string_storage": {
        "encoding": "bytes",
        "label": "string",
        "numberOfBytes": "32"
      },
      "t_struct(Group)8281_storage": {
        "encoding": "inplace",
        "label": "struct UsingCryptoPunksGroupRegistryStructs.Group",
        "members": [
          {
            "astId": 8255,
            "contract": "src/CryptoPunksGroupRegistry.sol:CryptoPunksGroupRegistry",
            "label": "id",
            "offset": 0,
            "slot": "0",
            "type": "t_uint192"
          },
          {
            "astId": 8257,
            "contract": "src/CryptoPunksGroupRegistry.sol:CryptoPunksGroupRegistry",
            "label": "creator",
            "offset": 0,
            "slot": "1",
            "type": "t_address"
          },
          {
            "astId": 8259,
            "contract": "src/CryptoPunksGroupRegistry.sol:CryptoPunksGroupRegistry",
            "label": "targetPunkId",
            "offset": 0,
            "slot": "2",
            "type": "t_uint256"
          },
          {
            "astId": 8261,
            "contract": "src/CryptoPunksGroupRegistry.sol:CryptoPunksGroupRegistry",
            "label": "targetMaxPrice",
            "offset": 0,
            "slot": "3",
            "type": "t_uint256"
          },
          {
            "astId": 8263,
            "contract": "src/CryptoPunksGroupRegistry.sol:CryptoPunksGroupRegistry",
            "label": "totalTicketSupply",
            "offset": 0,
            "slot": "4",
            "type": "t_uint64"
          },
          {
            "astId": 8265,
            "contract": "src/CryptoPunksGroupRegistry.sol:CryptoPunksGroupRegistry",
            "label": "unitTicketPrice",
            "offset": 0,
            "slot": "5",
            "type": "t_uint256"
          },
          {
            "astId": 8267,
            "contract": "src/CryptoPunksGroupRegistry.sol:CryptoPunksGroupRegistry",
            "label": "totalContribution",
            "offset": 0,
            "slot": "6",
            "type": "t_uint256"
          },
          {
            "astId": 8269,
            "contract": "src/CryptoPunksGroupRegistry.sol:CryptoPunksGroupRegistry",
            "label": "ticketsBought",
            "offset": 0,
            "slot": "7",
            "type": "t_uint64"
          },
          {
            "astId": 8271,
            "contract": "src/CryptoPunksGroupRegistry.sol:CryptoPunksGroupRegistry",
            "label": "expiry",
            "offset": 8,
            "slot": "7",
            "type": "t_uint40"
          },
          {
            "astId": 8274,
            "contract": "src/CryptoPunksGroupRegistry.sol:CryptoPunksGroupRegistry",
            "label": "status",
            "offset": 13,
            "slot": "7",
            "type": "t_enum(GroupStatus)8248"
          },
          {
            "astId": 8276,
            "contract": "src/CryptoPunksGroupRegistry.sol:CryptoPunksGroupRegistry",
            "label": "purchasePrice",
            "offset": 0,
            "slot": "8",
            "type": "t_uint256"
          },
          {
            "astId": 8278,
            "contract": "src/CryptoPunksGroupRegistry.sol:CryptoPunksGroupRegistry",
            "label": "originalId",
            "offset": 0,
            "slot": "9",
            "type": "t_uint192"
          },
          {
            "astId": 8280,
            "contract": "src/CryptoPunksGroupRegistry.sol:CryptoPunksGroupRegistry",
            "label": "metadataUri",
            "offset": 0,
            "slot": "10",
            "type": "t_string_storage"
          }
        ],
        "numberOfBytes": "352"
      },
      "t_struct(RoleData)19_storage": {
        "encoding": "inplace",
        "label": "struct AccessControl.RoleData",
        "members": [
          {
            "astId": 16,
            "contract": "src/CryptoPunksGroupRegistry.sol:CryptoPunksGroupRegistry",
            "label": "members",
            "offset": 0,
            "slot": "0",
            "type": "t_mapping(t_address,t_bool)"
          },
          {
            "astId": 18,
            "contract": "src/CryptoPunksGroupRegistry.sol:CryptoPunksGroupRegistry",
            "label": "adminRole",
            "offset": 0,
            "slot": "1",
            "type": "t_bytes32"
          }
        ],
        "numberOfBytes": "64"
      },
      "t_uint192": {
        "encoding": "inplace",
        "label": "uint192",
        "numberOfBytes": "24"
      },
      "t_uint256": {
        "encoding": "inplace",
        "label": "uint256",
        "numberOfBytes": "32"
      },
      "t_uint40": {
        "encoding": "inplace",
        "label": "uint40",
        "numberOfBytes": "5"
      },
      "t_uint64": {
        "encoding": "inplace",
        "label": "uint64",
        "numberOfBytes": "8"
      }
    }
  }
}