{
  "address": "0xC8d12A0df921F0Dc7D4822469B1b9E710925Dce7",
  "abi": [
    {
      "inputs": [
        {
          "internalType": "address",
          "name": "museumAddress",
          "type": "address"
        }
      ],
      "stateMutability": "nonpayable",
      "type": "constructor"
    },
    {
      "anonymous": false,
      "inputs": [
        {
          "indexed": true,
          "internalType": "address",
          "name": "owner",
          "type": "address"
        },
        {
          "indexed": true,
          "internalType": "address",
          "name": "approved",
          "type": "address"
        },
        {
          "indexed": true,
          "internalType": "uint256",
          "name": "tokenId",
          "type": "uint256"
        }
      ],
      "name": "Approval",
      "type": "event"
    },
    {
      "anonymous": false,
      "inputs": [
        {
          "indexed": true,
          "internalType": "address",
          "name": "owner",
          "type": "address"
        },
        {
          "indexed": true,
          "internalType": "address",
          "name": "operator",
          "type": "address"
        },
        {
          "indexed": false,
          "internalType": "bool",
          "name": "approved",
          "type": "bool"
        }
      ],
      "name": "ApprovalForAll",
      "type": "event"
    },
    {
      "anonymous": false,
      "inputs": [
        {
          "indexed": true,
          "internalType": "uint256",
          "name": "bidId",
          "type": "uint256"
        },
        {
          "indexed": true,
          "internalType": "uint192",
          "name": "originalId",
          "type": "uint192"
        }
      ],
      "name": "BidAccepted",
      "type": "event"
    },
    {
      "anonymous": false,
      "inputs": [
        {
          "indexed": true,
          "internalType": "uint256",
          "name": "bidId",
          "type": "uint256"
        },
        {
          "indexed": true,
          "internalType": "uint192",
          "name": "originalId",
          "type": "uint192"
        }
      ],
      "name": "BidProposed",
      "type": "event"
    },
    {
      "anonymous": false,
      "inputs": [
        {
          "indexed": true,
          "internalType": "uint256",
          "name": "bidId",
          "type": "uint256"
        },
        {
          "indexed": true,
          "internalType": "uint192",
          "name": "originalId",
          "type": "uint192"
        }
      ],
      "name": "BidRefunded",
      "type": "event"
    },
    {
      "anonymous": false,
      "inputs": [
        {
          "indexed": true,
          "internalType": "uint256",
          "name": "bidId",
          "type": "uint256"
        },
        {
          "indexed": true,
          "internalType": "uint192",
          "name": "originalId",
          "type": "uint192"
        }
      ],
      "name": "BidRejected",
      "type": "event"
    },
    {
      "anonymous": false,
      "inputs": [
        {
          "indexed": true,
          "internalType": "uint256",
          "name": "bidId",
          "type": "uint256"
        },
        {
          "indexed": true,
          "internalType": "uint192",
          "name": "originalId",
          "type": "uint192"
        }
      ],
      "name": "BidWon",
      "type": "event"
    },
    {
      "anonymous": false,
      "inputs": [
        {
          "indexed": true,
          "internalType": "uint192",
          "name": "originalId",
          "type": "uint192"
        },
        {
          "indexed": true,
          "internalType": "address",
          "name": "monoOwner",
          "type": "address"
        }
      ],
      "name": "MonoRefunded",
      "type": "event"
    },
    {
      "anonymous": false,
      "inputs": [
        {
          "indexed": true,
          "internalType": "uint192",
          "name": "originalId",
          "type": "uint192"
        },
        {
          "indexed": true,
          "internalType": "uint256",
          "name": "bidId",
          "type": "uint256"
        }
      ],
      "name": "OriginalSold",
      "type": "event"
    },
    {
      "anonymous": false,
      "inputs": [
        {
          "indexed": true,
          "internalType": "bytes32",
          "name": "role",
          "type": "bytes32"
        },
        {
          "indexed": true,
          "internalType": "bytes32",
          "name": "previousAdminRole",
          "type": "bytes32"
        },
        {
          "indexed": true,
          "internalType": "bytes32",
          "name": "newAdminRole",
          "type": "bytes32"
        }
      ],
      "name": "RoleAdminChanged",
      "type": "event"
    },
    {
      "anonymous": false,
      "inputs": [
        {
          "indexed": true,
          "internalType": "bytes32",
          "name": "role",
          "type": "bytes32"
        },
        {
          "indexed": true,
          "internalType": "address",
          "name": "account",
          "type": "address"
        },
        {
          "indexed": true,
          "internalType": "address",
          "name": "sender",
          "type": "address"
        }
      ],
      "name": "RoleGranted",
      "type": "event"
    },
    {
      "anonymous": false,
      "inputs": [
        {
          "indexed": true,
          "internalType": "bytes32",
          "name": "role",
          "type": "bytes32"
        },
        {
          "indexed": true,
          "internalType": "address",
          "name": "account",
          "type": "address"
        },
        {
          "indexed": true,
          "internalType": "address",
          "name": "sender",
          "type": "address"
        }
      ],
      "name": "RoleRevoked",
      "type": "event"
    },
    {
      "anonymous": false,
      "inputs": [
        {
          "indexed": true,
          "internalType": "address",
          "name": "from",
          "type": "address"
        },
        {
          "indexed": true,
          "internalType": "address",
          "name": "to",
          "type": "address"
        },
        {
          "indexed": true,
          "internalType": "uint256",
          "name": "tokenId",
          "type": "uint256"
        }
      ],
      "name": "Transfer",
      "type": "event"
    },
    {
      "inputs": [],
      "name": "BID_ACCEPTANCE_THRESHOLD_BPS",
      "outputs": [
        {
          "internalType": "uint256",
          "name": "",
          "type": "uint256"
        }
      ],
      "stateMutability": "view",
      "type": "function"
    },
    {
      "inputs": [],
      "name": "BID_EXPIRY",
      "outputs": [
        {
          "internalType": "uint40",
          "name": "",
          "type": "uint40"
        }
      ],
      "stateMutability": "view",
      "type": "function"
    },
    {
      "inputs": [],
      "name": "DEFAULT_ADMIN_ROLE",
      "outputs": [
        {
          "internalType": "bytes32",
          "name": "",
          "type": "bytes32"
        }
      ],
      "stateMutability": "view",
      "type": "function"
    },
    {
      "inputs": [],
      "name": "MINTER_ROLE",
      "outputs": [
        {
          "internalType": "bytes32",
          "name": "",
          "type": "bytes32"
        }
      ],
      "stateMutability": "view",
      "type": "function"
    },
    {
      "inputs": [
        {
          "internalType": "address",
          "name": "to",
          "type": "address"
        },
        {
          "internalType": "uint256",
          "name": "tokenId",
          "type": "uint256"
        }
      ],
      "name": "approve",
      "outputs": [],
      "stateMutability": "nonpayable",
      "type": "function"
    },
    {
      "inputs": [
        {
          "internalType": "address",
          "name": "owner",
          "type": "address"
        }
      ],
      "name": "balanceOf",
      "outputs": [
        {
          "internalType": "uint256",
          "name": "",
          "type": "uint256"
        }
      ],
      "stateMutability": "view",
      "type": "function"
    },
    {
      "inputs": [
        {
          "internalType": "uint192",
          "name": "originalId",
          "type": "uint192"
        },
        {
          "internalType": "uint256",
          "name": "price",
          "type": "uint256"
        }
      ],
      "name": "bid",
      "outputs": [
        {
          "internalType": "uint256",
          "name": "newBidId",
          "type": "uint256"
        }
      ],
      "stateMutability": "payable",
      "type": "function"
    },
    {
      "inputs": [
        {
          "internalType": "uint256",
          "name": "",
          "type": "uint256"
        }
      ],
      "name": "bidDeposits",
      "outputs": [
        {
          "internalType": "uint256",
          "name": "",
          "type": "uint256"
        }
      ],
      "stateMutability": "view",
      "type": "function"
    },
    {
      "inputs": [
        {
          "internalType": "uint256",
          "name": "",
          "type": "uint256"
        }
      ],
      "name": "bids",
      "outputs": [
        {
          "internalType": "uint256",
          "name": "id",
          "type": "uint256"
        },
        {
          "internalType": "address payable",
          "name": "bidder",
          "type": "address"
        },
        {
          "internalType": "uint192",
          "name": "originalId",
          "type": "uint192"
        },
        {
          "internalType": "uint256",
          "name": "price",
          "type": "uint256"
        },
        {
          "internalType": "uint40",
          "name": "createdAt",
          "type": "uint40"
        },
        {
          "internalType": "uint40",
          "name": "expiry",
          "type": "uint40"
        },
        {
          "internalType": "enum UsingCryptoPunksMosaicRegistryStructs.BidState",
          "name": "state",
          "type": "uint8"
        }
      ],
      "stateMutability": "view",
      "type": "function"
    },
    {
      "inputs": [
        {
          "internalType": "uint256",
          "name": "punkId",
          "type": "uint256"
        },
        {
          "internalType": "uint64",
          "name": "totalClaimableCount",
          "type": "uint64"
        },
        {
          "internalType": "uint256",
          "name": "purchasePrice",
          "type": "uint256"
        },
        {
          "internalType": "uint256",
          "name": "minReservePrice",
          "type": "uint256"
        },
        {
          "internalType": "uint256",
          "name": "maxReservePrice",
          "type": "uint256"
        }
      ],
      "name": "create",
      "outputs": [
        {
          "internalType": "uint192",
          "name": "originalId",
          "type": "uint192"
        }
      ],
      "stateMutability": "nonpayable",
      "type": "function"
    },
    {
      "inputs": [
        {
          "internalType": "uint256",
          "name": "bidId",
          "type": "uint256"
        }
      ],
      "name": "finalizeAcceptedBid",
      "outputs": [],
      "stateMutability": "nonpayable",
      "type": "function"
    },
    {
      "inputs": [
        {
          "internalType": "uint256",
          "name": "bidId",
          "type": "uint256"
        }
      ],
      "name": "finalizeProposedBid",
      "outputs": [
        {
          "internalType": "enum UsingCryptoPunksMosaicRegistryStructs.BidState",
          "name": "",
          "type": "uint8"
        }
      ],
      "stateMutability": "nonpayable",
      "type": "function"
    },
    {
      "inputs": [
        {
          "internalType": "uint256",
          "name": "mosaicId",
          "type": "uint256"
        }
      ],
      "name": "fromMosaicId",
      "outputs": [
        {
          "internalType": "uint192",
          "name": "originalId",
          "type": "uint192"
        },
        {
          "internalType": "uint64",
          "name": "monoId",
          "type": "uint64"
        }
      ],
      "stateMutability": "pure",
      "type": "function"
    },
    {
      "inputs": [
        {
          "internalType": "uint256",
          "name": "tokenId",
          "type": "uint256"
        }
      ],
      "name": "getApproved",
      "outputs": [
        {
          "internalType": "address",
          "name": "",
          "type": "address"
        }
      ],
      "stateMutability": "view",
      "type": "function"
    },
    {
      "inputs": [
        {
          "internalType": "uint192",
          "name": "originalId",
          "type": "uint192"
        }
      ],
      "name": "getAverageReservePriceProposals",
      "outputs": [
        {
          "internalType": "uint256",
          "name": "average",
          "type": "uint256"
        }
      ],
      "stateMutability": "view",
      "type": "function"
    },
    {
      "inputs": [
        {
          "internalType": "uint192",
          "name": "originalId",
          "type": "uint192"
        },
        {
          "internalType": "uint64",
          "name": "monoId",
          "type": "uint64"
        }
      ],
      "name": "getMono",
      "outputs": [
        {
          "components": [
            {
              "internalType": "uint256",
              "name": "mosaicId",
              "type": "uint256"
            },
            {
              "internalType": "uint8",
              "name": "presetId",
              "type": "uint8"
            },
            {
              "components": [
                {
                  "internalType": "uint256",
                  "name": "proposedReservePrice",
                  "type": "uint256"
                },
                {
                  "internalType": "enum UsingCryptoPunksMosaicRegistryStructs.MonoBidResponse",
                  "name": "bidResponse",
                  "type": "uint8"
                },
                {
                  "internalType": "uint256",
                  "name": "bidId",
                  "type": "uint256"
                }
              ],
              "internalType": "struct UsingCryptoPunksMosaicRegistryStructs.MonoGovernanceOptions",
              "name": "governanceOptions",
              "type": "tuple"
            }
          ],
          "internalType": "struct UsingCryptoPunksMosaicRegistryStructs.Mono",
          "name": "",
          "type": "tuple"
        }
      ],
      "stateMutability": "view",
      "type": "function"
    },
    {
      "inputs": [
        {
          "internalType": "uint256",
          "name": "mosaicId",
          "type": "uint256"
        }
      ],
      "name": "getMonoLifeCycle",
      "outputs": [
        {
          "internalType": "enum UsingCryptoPunksMosaicRegistryStructs.MonoLifeCycle",
          "name": "",
          "type": "uint8"
        }
      ],
      "stateMutability": "view",
      "type": "function"
    },
    {
      "inputs": [
        {
          "internalType": "uint192",
          "name": "originalId",
          "type": "uint192"
        }
      ],
      "name": "getOriginal",
      "outputs": [
        {
          "components": [
            {
              "internalType": "uint192",
              "name": "id",
              "type": "uint192"
            },
            {
              "internalType": "uint256",
              "name": "punkId",
              "type": "uint256"
            },
            {
              "internalType": "uint96",
              "name": "totalMonoSupply",
              "type": "uint96"
            },
            {
              "internalType": "uint96",
              "name": "claimedMonoCount",
              "type": "uint96"
            },
            {
              "internalType": "uint256",
              "name": "purchasePrice",
              "type": "uint256"
            },
            {
              "internalType": "uint256",
              "name": "minReservePrice",
              "type": "uint256"
            },
            {
              "internalType": "uint256",
              "name": "maxReservePrice",
              "type": "uint256"
            },
            {
              "internalType": "string",
              "name": "metadataBaseUri",
              "type": "string"
            },
            {
              "internalType": "enum UsingCryptoPunksMosaicRegistryStructs.OriginalStatus",
              "name": "status",
              "type": "uint8"
            },
            {
              "internalType": "uint256",
              "name": "activeBidId",
              "type": "uint256"
            }
          ],
          "internalType": "struct UsingCryptoPunksMosaicRegistryStructs.Original",
          "name": "",
          "type": "tuple"
        }
      ],
      "stateMutability": "view",
      "type": "function"
    },
    {
      "inputs": [
        {
          "internalType": "uint256",
          "name": "mosaicId",
          "type": "uint256"
        }
      ],
      "name": "getOriginalFromMosaicId",
      "outputs": [
        {
          "components": [
            {
              "internalType": "uint192",
              "name": "id",
              "type": "uint192"
            },
            {
              "internalType": "uint256",
              "name": "punkId",
              "type": "uint256"
            },
            {
              "internalType": "uint96",
              "name": "totalMonoSupply",
              "type": "uint96"
            },
            {
              "internalType": "uint96",
              "name": "claimedMonoCount",
              "type": "uint96"
            },
            {
              "internalType": "uint256",
              "name": "purchasePrice",
              "type": "uint256"
            },
            {
              "internalType": "uint256",
              "name": "minReservePrice",
              "type": "uint256"
            },
            {
              "internalType": "uint256",
              "name": "maxReservePrice",
              "type": "uint256"
            },
            {
              "internalType": "string",
              "name": "metadataBaseUri",
              "type": "string"
            },
            {
              "internalType": "enum UsingCryptoPunksMosaicRegistryStructs.OriginalStatus",
              "name": "status",
              "type": "uint8"
            },
            {
              "internalType": "uint256",
              "name": "activeBidId",
              "type": "uint256"
            }
          ],
          "internalType": "struct UsingCryptoPunksMosaicRegistryStructs.Original",
          "name": "",
          "type": "tuple"
        }
      ],
      "stateMutability": "view",
      "type": "function"
    },
    {
      "inputs": [
        {
          "internalType": "uint192",
          "name": "originalId",
          "type": "uint192"
        }
      ],
      "name": "getPerMonoResaleFund",
      "outputs": [
        {
          "internalType": "uint256",
          "name": "perMonoResaleFund",
          "type": "uint256"
        }
      ],
      "stateMutability": "view",
      "type": "function"
    },
    {
      "inputs": [
        {
          "internalType": "bytes32",
          "name": "role",
          "type": "bytes32"
        }
      ],
      "name": "getRoleAdmin",
      "outputs": [
        {
          "internalType": "bytes32",
          "name": "",
          "type": "bytes32"
        }
      ],
      "stateMutability": "view",
      "type": "function"
    },
    {
      "inputs": [
        {
          "internalType": "address",
          "name": "addr",
          "type": "address"
        }
      ],
      "name": "grantMintAuthority",
      "outputs": [],
      "stateMutability": "nonpayable",
      "type": "function"
    },
    {
      "inputs": [
        {
          "internalType": "bytes32",
          "name": "role",
          "type": "bytes32"
        },
        {
          "internalType": "address",
          "name": "account",
          "type": "address"
        }
      ],
      "name": "grantRole",
      "outputs": [],
      "stateMutability": "nonpayable",
      "type": "function"
    },
    {
      "inputs": [
        {
          "internalType": "uint192",
          "name": "originalId",
          "type": "uint192"
        }
      ],
      "name": "hasOngoingBid",
      "outputs": [
        {
          "internalType": "bool",
          "name": "",
          "type": "bool"
        }
      ],
      "stateMutability": "view",
      "type": "function"
    },
    {
      "inputs": [
        {
          "internalType": "bytes32",
          "name": "role",
          "type": "bytes32"
        },
        {
          "internalType": "address",
          "name": "account",
          "type": "address"
        }
      ],
      "name": "hasRole",
      "outputs": [
        {
          "internalType": "bool",
          "name": "",
          "type": "bool"
        }
      ],
      "stateMutability": "view",
      "type": "function"
    },
    {
      "inputs": [],
      "name": "invalidMetadataUri",
      "outputs": [
        {
          "internalType": "string",
          "name": "",
          "type": "string"
        }
      ],
      "stateMutability": "view",
      "type": "function"
    },
    {
      "inputs": [
        {
          "internalType": "address",
          "name": "owner",
          "type": "address"
        },
        {
          "internalType": "address",
          "name": "operator",
          "type": "address"
        }
      ],
      "name": "isApprovedForAll",
      "outputs": [
        {
          "internalType": "bool",
          "name": "",
          "type": "bool"
        }
      ],
      "stateMutability": "view",
      "type": "function"
    },
    {
      "inputs": [
        {
          "internalType": "uint192",
          "name": "originalId",
          "type": "uint192"
        }
      ],
      "name": "isBidAcceptable",
      "outputs": [
        {
          "internalType": "bool",
          "name": "",
          "type": "bool"
        }
      ],
      "stateMutability": "view",
      "type": "function"
    },
    {
      "inputs": [],
      "name": "latestOriginalId",
      "outputs": [
        {
          "internalType": "uint192",
          "name": "",
          "type": "uint192"
        }
      ],
      "stateMutability": "view",
      "type": "function"
    },
    {
      "inputs": [
        {
          "internalType": "address",
          "name": "contributor",
          "type": "address"
        },
        {
          "internalType": "uint192",
          "name": "originalId",
          "type": "uint192"
        }
      ],
      "name": "mint",
      "outputs": [
        {
          "internalType": "uint256",
          "name": "mosaicId",
          "type": "uint256"
        }
      ],
      "stateMutability": "nonpayable",
      "type": "function"
    },
    {
      "inputs": [
        {
          "internalType": "uint256",
          "name": "",
          "type": "uint256"
        }
      ],
      "name": "monos",
      "outputs": [
        {
          "internalType": "uint256",
          "name": "mosaicId",
          "type": "uint256"
        },
        {
          "internalType": "uint8",
          "name": "presetId",
          "type": "uint8"
        },
        {
          "components": [
            {
              "internalType": "uint256",
              "name": "proposedReservePrice",
              "type": "uint256"
            },
            {
              "internalType": "enum UsingCryptoPunksMosaicRegistryStructs.MonoBidResponse",
              "name": "bidResponse",
              "type": "uint8"
            },
            {
              "internalType": "uint256",
              "name": "bidId",
              "type": "uint256"
            }
          ],
          "internalType": "struct UsingCryptoPunksMosaicRegistryStructs.MonoGovernanceOptions",
          "name": "governanceOptions",
          "type": "tuple"
        }
      ],
      "stateMutability": "view",
      "type": "function"
    },
    {
      "inputs": [],
      "name": "museum",
      "outputs": [
        {
          "internalType": "contract CryptoPunksMuseum",
          "name": "",
          "type": "address"
        }
      ],
      "stateMutability": "view",
      "type": "function"
    },
    {
      "inputs": [],
      "name": "name",
      "outputs": [
        {
          "internalType": "string",
          "name": "",
          "type": "string"
        }
      ],
      "stateMutability": "view",
      "type": "function"
    },
    {
      "inputs": [
        {
          "internalType": "uint192",
          "name": "",
          "type": "uint192"
        }
      ],
      "name": "nextMonoIds",
      "outputs": [
        {
          "internalType": "uint64",
          "name": "",
          "type": "uint64"
        }
      ],
      "stateMutability": "view",
      "type": "function"
    },
    {
      "inputs": [
        {
          "internalType": "uint192",
          "name": "",
          "type": "uint192"
        }
      ],
      "name": "originals",
      "outputs": [
        {
          "internalType": "uint192",
          "name": "id",
          "type": "uint192"
        },
        {
          "internalType": "uint256",
          "name": "punkId",
          "type": "uint256"
        },
        {
          "internalType": "uint96",
          "name": "totalMonoSupply",
          "type": "uint96"
        },
        {
          "internalType": "uint96",
          "name": "claimedMonoCount",
          "type": "uint96"
        },
        {
          "internalType": "uint256",
          "name": "purchasePrice",
          "type": "uint256"
        },
        {
          "internalType": "uint256",
          "name": "minReservePrice",
          "type": "uint256"
        },
        {
          "internalType": "uint256",
          "name": "maxReservePrice",
          "type": "uint256"
        },
        {
          "internalType": "string",
          "name": "metadataBaseUri",
          "type": "string"
        },
        {
          "internalType": "enum UsingCryptoPunksMosaicRegistryStructs.OriginalStatus",
          "name": "status",
          "type": "uint8"
        },
        {
          "internalType": "uint256",
          "name": "activeBidId",
          "type": "uint256"
        }
      ],
      "stateMutability": "view",
      "type": "function"
    },
    {
      "inputs": [
        {
          "internalType": "uint256",
          "name": "tokenId",
          "type": "uint256"
        }
      ],
      "name": "ownerOf",
      "outputs": [
        {
          "internalType": "address",
          "name": "",
          "type": "address"
        }
      ],
      "stateMutability": "view",
      "type": "function"
    },
    {
      "inputs": [
        {
          "internalType": "uint256",
          "name": "mosaicId",
          "type": "uint256"
        },
        {
          "internalType": "uint256",
          "name": "price",
          "type": "uint256"
        }
      ],
      "name": "proposeReservePrice",
      "outputs": [],
      "stateMutability": "nonpayable",
      "type": "function"
    },
    {
      "inputs": [
        {
          "internalType": "uint256",
          "name": "bidId",
          "type": "uint256"
        }
      ],
      "name": "refundBidDeposit",
      "outputs": [],
      "stateMutability": "nonpayable",
      "type": "function"
    },
    {
      "inputs": [
        {
          "internalType": "uint192",
          "name": "originalId",
          "type": "uint192"
        }
      ],
      "name": "refundOnSold",
      "outputs": [
        {
          "internalType": "uint256",
          "name": "totalResaleFund",
          "type": "uint256"
        }
      ],
      "stateMutability": "nonpayable",
      "type": "function"
    },
    {
      "inputs": [
        {
          "internalType": "bytes32",
          "name": "role",
          "type": "bytes32"
        },
        {
          "internalType": "address",
          "name": "account",
          "type": "address"
        }
      ],
      "name": "renounceRole",
      "outputs": [],
      "stateMutability": "nonpayable",
      "type": "function"
    },
    {
      "inputs": [
        {
          "internalType": "uint192",
          "name": "",
          "type": "uint192"
        }
      ],
      "name": "resalePrices",
      "outputs": [
        {
          "internalType": "uint256",
          "name": "",
          "type": "uint256"
        }
      ],
      "stateMutability": "view",
      "type": "function"
    },
    {
      "inputs": [
        {
          "internalType": "uint256",
          "name": "mosaicId",
          "type": "uint256"
        },
        {
          "internalType": "enum UsingCryptoPunksMosaicRegistryStructs.MonoBidResponse",
          "name": "response",
          "type": "uint8"
        }
      ],
      "name": "respondToBid",
      "outputs": [],
      "stateMutability": "nonpayable",
      "type": "function"
    },
    {
      "inputs": [
        {
          "internalType": "bytes32",
          "name": "role",
          "type": "bytes32"
        },
        {
          "internalType": "address",
          "name": "account",
          "type": "address"
        }
      ],
      "name": "revokeRole",
      "outputs": [],
      "stateMutability": "nonpayable",
      "type": "function"
    },
    {
      "inputs": [
        {
          "internalType": "address",
          "name": "from",
          "type": "address"
        },
        {
          "internalType": "address",
          "name": "to",
          "type": "address"
        },
        {
          "internalType": "uint256",
          "name": "tokenId",
          "type": "uint256"
        }
      ],
      "name": "safeTransferFrom",
      "outputs": [],
      "stateMutability": "nonpayable",
      "type": "function"
    },
    {
      "inputs": [
        {
          "internalType": "address",
          "name": "from",
          "type": "address"
        },
        {
          "internalType": "address",
          "name": "to",
          "type": "address"
        },
        {
          "internalType": "uint256",
          "name": "tokenId",
          "type": "uint256"
        },
        {
          "internalType": "bytes",
          "name": "data",
          "type": "bytes"
        }
      ],
      "name": "safeTransferFrom",
      "outputs": [],
      "stateMutability": "nonpayable",
      "type": "function"
    },
    {
      "inputs": [
        {
          "internalType": "address",
          "name": "operator",
          "type": "address"
        },
        {
          "internalType": "bool",
          "name": "approved",
          "type": "bool"
        }
      ],
      "name": "setApprovalForAll",
      "outputs": [],
      "stateMutability": "nonpayable",
      "type": "function"
    },
    {
      "inputs": [
        {
          "internalType": "string",
          "name": "_uri",
          "type": "string"
        }
      ],
      "name": "setInvalidMetadataUri",
      "outputs": [],
      "stateMutability": "nonpayable",
      "type": "function"
    },
    {
      "inputs": [
        {
          "internalType": "uint192",
          "name": "originalId",
          "type": "uint192"
        },
        {
          "internalType": "string",
          "name": "_uri",
          "type": "string"
        }
      ],
      "name": "setMetadataBaseUri",
      "outputs": [],
      "stateMutability": "nonpayable",
      "type": "function"
    },
    {
      "inputs": [
        {
          "internalType": "uint256",
          "name": "mosaicId",
          "type": "uint256"
        },
        {
          "internalType": "uint8",
          "name": "presetId",
          "type": "uint8"
        }
      ],
      "name": "setPresetId",
      "outputs": [],
      "stateMutability": "nonpayable",
      "type": "function"
    },
    {
      "inputs": [
        {
          "internalType": "uint192",
          "name": "originalId",
          "type": "uint192"
        }
      ],
      "name": "sumBidResponses",
      "outputs": [
        {
          "internalType": "uint64",
          "name": "yes",
          "type": "uint64"
        },
        {
          "internalType": "uint64",
          "name": "no",
          "type": "uint64"
        }
      ],
      "stateMutability": "view",
      "type": "function"
    },
    {
      "inputs": [
        {
          "internalType": "uint192",
          "name": "originalId",
          "type": "uint192"
        }
      ],
      "name": "sumReservePriceProposals",
      "outputs": [
        {
          "internalType": "uint64",
          "name": "validProposalCount",
          "type": "uint64"
        },
        {
          "internalType": "uint256",
          "name": "priceSum",
          "type": "uint256"
        }
      ],
      "stateMutability": "view",
      "type": "function"
    },
    {
      "inputs": [
        {
          "internalType": "bytes4",
          "name": "interfaceId",
          "type": "bytes4"
        }
      ],
      "name": "supportsInterface",
      "outputs": [
        {
          "internalType": "bool",
          "name": "",
          "type": "bool"
        }
      ],
      "stateMutability": "view",
      "type": "function"
    },
    {
      "inputs": [],
      "name": "symbol",
      "outputs": [
        {
          "internalType": "string",
          "name": "",
          "type": "string"
        }
      ],
      "stateMutability": "view",
      "type": "function"
    },
    {
      "inputs": [
        {
          "internalType": "uint192",
          "name": "originalId",
          "type": "uint192"
        },
        {
          "internalType": "address",
          "name": "bidder",
          "type": "address"
        },
        {
          "internalType": "uint256",
          "name": "blockTimestamp",
          "type": "uint256"
        }
      ],
      "name": "toBidId",
      "outputs": [
        {
          "internalType": "uint256",
          "name": "id",
          "type": "uint256"
        }
      ],
      "stateMutability": "pure",
      "type": "function"
    },
    {
      "inputs": [
        {
          "internalType": "uint192",
          "name": "originalId",
          "type": "uint192"
        },
        {
          "internalType": "uint64",
          "name": "monoId",
          "type": "uint64"
        }
      ],
      "name": "toMosaicId",
      "outputs": [
        {
          "internalType": "uint256",
          "name": "mosaicId",
          "type": "uint256"
        }
      ],
      "stateMutability": "pure",
      "type": "function"
    },
    {
      "inputs": [
        {
          "internalType": "uint256",
          "name": "mosaicId",
          "type": "uint256"
        }
      ],
      "name": "tokenURI",
      "outputs": [
        {
          "internalType": "string",
          "name": "",
          "type": "string"
        }
      ],
      "stateMutability": "view",
      "type": "function"
    },
    {
      "inputs": [
        {
          "internalType": "address",
          "name": "from",
          "type": "address"
        },
        {
          "internalType": "address",
          "name": "to",
          "type": "address"
        },
        {
          "internalType": "uint256",
          "name": "tokenId",
          "type": "uint256"
        }
      ],
      "name": "transferFrom",
      "outputs": [],
      "stateMutability": "nonpayable",
      "type": "function"
    }
  ],
  "transactionHash": "0xe10ec8f9e2bccb56052b69cfd406447dfcd36dfa10a33482429b7b52929f1f93",
  "args": [
    "0xAb9815A2D5C0429857C3E4F6fEfb0f0D79CFADb6"
  ],
  "numDeployments": 1,
  "solcInputHash": "d094c13d7d3e6f8ca2ef46f83af822cc",
  "bytecode": "0x60a06040523480156200001157600080fd5b50604051620054fb380380620054fb833981016040819052620000349162000179565b6040518060400160405280601281526020017143727970746f50756e6b73204d6f7361696360701b8152506040518060400160405280600b81526020016a50554e4b534d4f5341494360a81b815250816000908162000094919062000250565b506001620000a3828262000250565b5050506001600160a01b038116608052620000c0600033620000d4565b620000cd600082620000d4565b506200031c565b60008281526006602090815260408083206001600160a01b038516845290915290205460ff16620001755760008281526006602090815260408083206001600160a01b03851684529091529020805460ff19166001179055620001343390565b6001600160a01b0316816001600160a01b0316837f2f8788117e7eff1d82e926ec794901d17c78024a50270940304540a733656f0d60405160405180910390a45b5050565b6000602082840312156200018c57600080fd5b81516001600160a01b0381168114620001a457600080fd5b9392505050565b634e487b7160e01b600052604160045260246000fd5b600181811c90821680620001d657607f821691505b602082108103620001f757634e487b7160e01b600052602260045260246000fd5b50919050565b601f8211156200024b57600081815260208120601f850160051c81016020861015620002265750805b601f850160051c820191505b81811015620002475782815560010162000232565b5050505b505050565b81516001600160401b038111156200026c576200026c620001ab565b62000284816200027d8454620001c1565b84620001fd565b602080601f831160018114620002bc5760008415620002a35750858301515b600019600386901b1c1916600185901b17855562000247565b600085815260208120601f198616915b82811015620002ed57888601518255948401946001909101908401620002cc565b50858210156200030c5787850151600019600388901b60f8161c191681555b5050505050600190811b01905550565b60805161517662000385600039600081816106bb01528181610fe50152818161116c015281816116990152818161180c01528181611b0f01528181611c9601528181611df80152818161209501528181612155015281816127fc0152612c5901526151766000f3fe6080604052600436106103765760003560e01c806376016f4b116101d1578063ac8d616811610102578063c87b56dd116100a0578063e36977cb1161006f578063e36977cb14610bd5578063e6428a2b14610bf5578063e985e9c514610c24578063f3c340cd14610c6d57600080fd5b8063c87b56dd14610b53578063d42de9aa14610b73578063d539139314610b93578063d547741f14610bb557600080fd5b8063b40fd56e116100dc578063b40fd56e14610aa6578063b88d4fde14610ac6578063bf4dc67514610ae6578063c01efa5314610b1357600080fd5b8063ac8d616814610a39578063af07830614610a66578063af4a6c0c14610a8657600080fd5b806395d89b411161016f578063993a379011610149578063993a3790146109b7578063a217fddf146109e4578063a22cb465146109f9578063a5627d9a14610a1957600080fd5b806395d89b4114610927578063970525dd1461093c5780639822ef621461096957600080fd5b80638310a7da116101ab5780638310a7da146108915780638902436a146108b157806391d14854146108d157806393992808146108f157600080fd5b806376016f4b1461083e57806379c07a391461085e57806379f5f1531461087e57600080fd5b8063342834f7116102ab5780634c905789116102495780635d7b88f6116102235780635d7b88f61461079f5780636352211e146107bf57806364f4e5ef146107df57806370a082311461081e57600080fd5b80634c905789146106f3578063512137ed1461072057806354cefb231461075857600080fd5b806342842e0e1161028557806342842e0e146105f95780634423c5f11461061957806345e67a8c146106a95780634bb722c6146106dd57600080fd5b8063342834f71461059957806336568abe146105b95780633a0e7555146105d957600080fd5b80632062f2e4116103185780632594c224116102f25780632594c2241461050c5780632f2ff15d1461052c57806331e781da1461054c578063326d03671461057957600080fd5b80632062f2e41461048e57806323b872dd146104bc578063248a9ca3146104dc57600080fd5b8063095ea7b311610354578063095ea7b31461040a5780630e6a929c1461042c57806318d6a5e7146104595780631df46de71461046e57600080fd5b806301ffc9a71461037b57806306fdde03146103b0578063081812fc146103d2575b600080fd5b34801561038757600080fd5b5061039b610396366004614386565b610c8d565b60405190151581526020015b60405180910390f35b3480156103bc57600080fd5b506103c5610cad565b6040516103a791906143f3565b3480156103de57600080fd5b506103f26103ed366004614406565b610d3f565b6040516001600160a01b0390911681526020016103a7565b34801561041657600080fd5b5061042a610425366004614434565b610d66565b005b34801561043857600080fd5b5061044c610447366004614406565b610e80565b6040516103a79190614486565b34801561046557600080fd5b506103c5610f55565b34801561047a57600080fd5b5061042a610489366004614499565b610fe3565b34801561049a57600080fd5b506104ae6104a93660046144e4565b611168565b6040519081526020016103a7565b3480156104c857600080fd5b5061042a6104d7366004614519565b61142d565b3480156104e857600080fd5b506104ae6104f7366004614406565b60009081526006602052604090206001015490565b34801561051857600080fd5b506104ae61052736600461455a565b61145e565b34801561053857600080fd5b5061042a610547366004614575565b6114ff565b34801561055857600080fd5b5061056c610567366004614406565b611524565b6040516103a791906145ae565b34801561058557600080fd5b5061042a610594366004614667565b611697565b3480156105a557600080fd5b5061042a6105b4366004614406565b61180a565b3480156105c557600080fd5b5061042a6105d4366004614575565b611a8f565b3480156105e557600080fd5b5061042a6105f4366004614406565b611b0d565b34801561060557600080fd5b5061042a610614366004614519565b611dd9565b34801561062557600080fd5b50610696610634366004614406565b600c602052600090815260409020805460018201546002830154600384015460049094015492936001600160a01b03909216926001600160c01b03909116919064ffffffffff80821691600160281b810490911690600160501b900460ff1687565b6040516103a79796959493929190614699565b3480156106b557600080fd5b506103f27f000000000000000000000000000000000000000000000000000000000000000081565b3480156106e957600080fd5b506104ae6113ec81565b3480156106ff57600080fd5b5061071361070e366004614406565b611df4565b6040516103a791906146f3565b34801561072c57600080fd5b5061074061073b366004614718565b612091565b6040516001600160c01b0390911681526020016103a7565b34801561076457600080fd5b50610778610773366004614406565b612483565b604080516001600160c01b0390931683526001600160401b039091166020830152016103a7565b3480156107ab57600080fd5b50600854610740906001600160c01b031681565b3480156107cb57600080fd5b506103f26107da366004614406565b6124b3565b3480156107eb57600080fd5b506107ff6107fa36600461455a565b612513565b604080516001600160401b0390931683526020830191909152016103a7565b34801561082a57600080fd5b506104ae61083936600461475e565b6125bb565b34801561084a57600080fd5b5061056c61085936600461455a565b612641565b34801561086a57600080fd5b5061042a61087936600461477b565b6127a1565b6104ae61088c3660046147a6565b6127f8565b34801561089d57600080fd5b5061039b6108ac36600461455a565b612bff565b3480156108bd57600080fd5b506104ae6108cc36600461455a565b612c55565b3480156108dd57600080fd5b5061039b6108ec366004614575565b612eca565b3480156108fd57600080fd5b5061091161090c36600461455a565b612ef5565b6040516103a79a999897969594939291906147c2565b34801561093357600080fd5b506103c5612fe6565b34801561094857600080fd5b5061095c61095736600461483c565b612ff5565b6040516103a79190614888565b34801561097557600080fd5b5061099f61098436600461455a565b600a602052600090815260409020546001600160401b031681565b6040516001600160401b0390911681526020016103a7565b3480156109c357600080fd5b506104ae6109d236600461455a565b600e6020526000908152604090205481565b3480156109f057600080fd5b506104ae600081565b348015610a0557600080fd5b5061042a610a143660046148c1565b613097565b348015610a2557600080fd5b5061042a610a34366004614937565b6130a2565b348015610a4557600080fd5b50610a5062093a8081565b60405164ffffffffff90911681526020016103a7565b348015610a7257600080fd5b506104ae610a8136600461455a565b6130dc565b348015610a9257600080fd5b506104ae610aa136600461483c565b613102565b348015610ab257600080fd5b5061042a610ac136600461475e565b613120565b348015610ad257600080fd5b5061042a610ae136600461499f565b613143565b348015610af257600080fd5b506104ae610b01366004614406565b600d6020526000908152604090205481565b348015610b1f57600080fd5b50610b33610b2e36600461455a565b61317b565b604080516001600160401b039384168152929091166020830152016103a7565b348015610b5f57600080fd5b506103c5610b6e366004614406565b61328f565b348015610b7f57600080fd5b5061039b610b8e36600461455a565b61345d565b348015610b9f57600080fd5b506104ae60008051602061512183398151915281565b348015610bc157600080fd5b5061042a610bd0366004614575565b6134da565b348015610be157600080fd5b506104ae610bf0366004614a7e565b6134ff565b348015610c0157600080fd5b50610c15610c10366004614406565b61356a565b6040516103a793929190614a9c565b348015610c3057600080fd5b5061039b610c3f366004614ab9565b6001600160a01b03918216600090815260056020908152604080832093909416825291909152205460ff1690565b348015610c7957600080fd5b5061042a610c88366004614ae7565b6135e0565b6000610c98826135f8565b80610ca75750610ca782613648565b92915050565b606060008054610cbc90614b28565b80601f0160208091040260200160405190810160405280929190818152602001828054610ce890614b28565b8015610d355780601f10610d0a57610100808354040283529160200191610d35565b820191906000526020600020905b815481529060010190602001808311610d1857829003601f168201915b5050505050905090565b6000610d4a8261366d565b506000908152600460205260409020546001600160a01b031690565b6000610d71826124b3565b9050806001600160a01b0316836001600160a01b031603610de35760405162461bcd60e51b815260206004820152602160248201527f4552433732313a20617070726f76616c20746f2063757272656e74206f776e656044820152603960f91b60648201526084015b60405180910390fd5b336001600160a01b0382161480610dff5750610dff8133610c3f565b610e715760405162461bcd60e51b815260206004820152603d60248201527f4552433732313a20617070726f76652063616c6c6572206973206e6f7420746f60448201527f6b656e206f776e6572206f7220617070726f76656420666f7220616c6c0000006064820152608401610dda565b610e7b83836136cf565b505050565b600080610e8c83612483565b506008549091506001600160c01b039081169082161115610ee45760405162461bcd60e51b8152602060048201526012602482015271125b9d985b1a59081bdc9a59da5b985b125960721b6044820152606401610dda565b6001600160c01b03811660009081526009602052604090206001600782015460ff166001811115610f1757610f17614460565b03610f26575060029392505050565b6000848152600b602052604081206001015460ff169003610f4b575060009392505050565b5060019392505050565b60078054610f6290614b28565b80601f0160208091040260200160405190810160405280929190818152602001828054610f8e90614b28565b8015610fdb5780601f10610fb057610100808354040283529160200191610fdb565b820191906000526020600020905b815481529060010190602001808311610fbe57829003601f168201915b505050505081565b7f00000000000000000000000000000000000000000000000000000000000000006001600160a01b03166322f3e2d46040518163ffffffff1660e01b8152600401602060405180830381865afa158015611041573d6000803e3d6000fd5b505050506040513d601f19601f820116820180604052508101906110659190614b62565b6110815760405162461bcd60e51b8152600401610dda90614b7f565b813361108c826124b3565b6001600160a01b0316146110b25760405162461bcd60e51b8152600401610dda90614bae565b60006110bd84612483565b5090506110c98161345d565b6111065760405162461bcd60e51b815260206004820152600e60248201526d4e6f20626964206f6e676f696e6760901b6044820152606401610dda565b6000848152600b602090815260408083206001600160c01b0385168452600990925290912060080154600482015560038101805460029283019286929160ff191690600190849081111561115c5761115c614460565b02179055505050505050565b60007f00000000000000000000000000000000000000000000000000000000000000006001600160a01b03166322f3e2d46040518163ffffffff1660e01b8152600401602060405180830381865afa1580156111c8573d6000803e3d6000fd5b505050506040513d601f19601f820116820180604052508101906111ec9190614b62565b6112085760405162461bcd60e51b8152600401610dda90614b7f565b6000805160206151218339815191526112208161373d565b6001600160c01b0383166000908152600a60205260409020546001600160401b03166112995760405162461bcd60e51b815260206004820152602260248201527f4f726967696e616c206d75737420626520696e697469616c697a6564206669726044820152611cdd60f21b6064820152608401610dda565b6001600160c01b0383166000908152600a6020526040812080546001600160401b031690826112c783614bf1565b91906101000a8154816001600160401b0302191690836001600160401b0316021790555090506112f78482613102565b92506040518060600160405280848152602001600060ff1681526020016040518060600160405280600081526020016000600281111561133957611339614460565b81526000602091820181905291909252858152600b825260409081902083518155838301516001808301805460ff90931660ff19938416179055928501518051600280850191825595820151600385018054959793969295919490939116919084908111156113aa576113aa614460565b02179055506040918201516002918201556001600160c01b0388166000908152600960205291909120018054600160601b90046001600160601b031692509050600c6113f583614c17565b91906101000a8154816001600160601b0302191690836001600160601b03160217905550506114248584613747565b505b5092915050565b6114373382613761565b6114535760405162461bcd60e51b8152600401610dda90614c33565b610e7b8383836137df565b6001600160c01b0381166000908152600e6020526040812054806114ba5760405162461bcd60e51b8152602060048201526013602482015272139bc81c995cd85b19481c1c9a58d9481cd95d606a1b6044820152606401610dda565b6001600160c01b0383166000908152600960205260408120600201546114eb906001600160601b0316612710614c80565b90506114f78282613950565b949350505050565b60008281526006602052604090206001015461151a8161373d565b610e7b8383613988565b61152c6142de565b600061153783612483565b506001600160c01b038082166000908152600960209081526040918290208251610140810184528154909416845260018101549184019190915260028101546001600160601b0380821693850193909352600160601b9004909116606083015260038101546080830152600481015460a0830152600581015460c08301526006810180549394509192909160e08401916115d090614b28565b80601f01602080910402602001604051908101604052809291908181526020018280546115fc90614b28565b80156116495780601f1061161e57610100808354040283529160200191611649565b820191906000526020600020905b81548152906001019060200180831161162c57829003601f168201915b5050509183525050600782015460209091019060ff16600181111561167057611670614460565b600181111561168157611681614460565b8152602001600882015481525050915050919050565b7f00000000000000000000000000000000000000000000000000000000000000006001600160a01b03166322f3e2d46040518163ffffffff1660e01b8152600401602060405180830381865afa1580156116f5573d6000803e3d6000fd5b505050506040513d601f19601f820116820180604052508101906117199190614b62565b6117355760405162461bcd60e51b8152600401610dda90614b7f565b8133611740826124b3565b6001600160a01b0316146117665760405162461bcd60e51b8152600401610dda90614bae565b600061177184612483565b506001600160c01b038116600090815260096020526040902060048101549192509084108015906117a6575080600501548411155b6117f25760405162461bcd60e51b815260206004820152601860248201527f4d7573742062652077697468696e207468652072616e676500000000000000006044820152606401610dda565b5050506000918252600b602052604090912060020155565b7f00000000000000000000000000000000000000000000000000000000000000006001600160a01b03166322f3e2d46040518163ffffffff1660e01b8152600401602060405180830381865afa158015611868573d6000803e3d6000fd5b505050506040513d601f19601f8201168201806040525081019061188c9190614b62565b6118a85760405162461bcd60e51b8152600401610dda90614b7f565b6000818152600c602052604090206002600482810154600160501b900460ff16908111156118d8576118d8614460565b146119305760405162461bcd60e51b815260206004820152602260248201527f4f6e6c792072656a656374656420626964732063616e20626520726566756e64604482015261195960f21b6064820152608401610dda565b60018101546001600160a01b0316331461199e5760405162461bcd60e51b815260206004820152602960248201527f4f6e6c7920746865206269646465722063616e20726574726965766520697473604482015268081bdddb88199d5b9960ba1b6064820152608401610dda565b6000828152600d6020526040808220549051909190339083908381818185875af1925050503d80600081146119ef576040519150601f19603f3d011682016040523d82523d6000602084013e6119f4565b606091505b5050905080611a385760405162461bcd60e51b815260206004820152601060248201526f11985a5b1959081d1bc81c99599d5b9960821b6044820152606401610dda565b60048301805460ff60501b1916600160521b17905560028301546040516001600160c01b039091169085907f45368e9994df879f0e9d3c8e00a81f2745c25f6f5c8519296d97d1992ba2233190600090a350505050565b6001600160a01b0381163314611aff5760405162461bcd60e51b815260206004820152602f60248201527f416363657373436f6e74726f6c3a2063616e206f6e6c792072656e6f756e636560448201526e103937b632b9903337b91039b2b63360891b6064820152608401610dda565b611b098282613a0e565b5050565b7f00000000000000000000000000000000000000000000000000000000000000006001600160a01b03166322f3e2d46040518163ffffffff1660e01b8152600401602060405180830381865afa158015611b6b573d6000803e3d6000fd5b505050506040513d601f19601f82011682018060405250810190611b8f9190614b62565b611bab5760405162461bcd60e51b8152600401610dda90614b7f565b6000818152600c602052604090206001600482810154600160501b900460ff1690811115611bdb57611bdb614460565b14611c1f5760405162461bcd60e51b8152602060048201526014602482015273109a59081b5d5cdd081899481858d8d95c1d195960621b6044820152606401610dda565b6002810180546001600160c01b0390811660009081526009602090815260408083206003870154815486168552600e9093528184209290925560078201805460ff19166001179055935493519093869316917fc8af5b62fdee6b689bb033af55802065de039199e8773211c391e2bc629f9bff91a37f00000000000000000000000000000000000000000000000000000000000000006001600160a01b031663d0d851d06040518163ffffffff1660e01b8152600401602060405180830381865afa158015611cf2573d6000803e3d6000fd5b505050506040513d601f19601f82011682018060405250810190611d169190614ca2565b600183810154908301546040516322dca8bb60e21b81526001600160a01b0392831660048201526024810191909152911690638b72a2ec90604401600060405180830381600087803b158015611d6b57600080fd5b505af1158015611d7f573d6000803e3d6000fd5b5050505060048201805460ff60501b1916600360501b17905560028201546040516001600160c01b039091169084907f99df1ef09da39d623befdb16807aa77c3019cdab1513e0911a6a9b5cbeb7717190600090a3505050565b610e7b83838360405180602001604052806000815250613143565b60007f00000000000000000000000000000000000000000000000000000000000000006001600160a01b03166322f3e2d46040518163ffffffff1660e01b8152600401602060405180830381865afa158015611e54573d6000803e3d6000fd5b505050506040513d601f19601f82011682018060405250810190611e789190614b62565b611e945760405162461bcd60e51b8152600401610dda90614b7f565b6000828152600c6020526040812090600482810154600160501b900460ff1690811115611ec357611ec3614460565b14611f1c5760405162461bcd60e51b8152602060048201526024808201527f4f6e6c79206269647320696e2070726f706f73616c2063616e20626520757064604482015263185d195960e21b6064820152608401610dda565b60048101544290611f3d9064ffffffffff600160281b820481169116614cbf565b64ffffffffff1610611f875760405162461bcd60e51b815260206004820152601360248201527242696420766f7465206973206f6e676f696e6760681b6044820152606401610dda565b6002810154611f9e906001600160c01b0316612bff565b611fa9576002611fac565b60015b81600401600a6101000a81548160ff02191690836004811115611fd157611fd1614460565b02179055506001600482810154600160501b900460ff1690811115611ff857611ff8614460565b0361203e5760028101546040516001600160c01b039091169084907fb3da334e87bb12429fffd68719932238d83910609c56e8c29aa40a792ad13a2190600090a361207b565b60028101546040516001600160c01b039091169084907fef7c1c563e3b3cbcb87042244eb19ffd95036cade90e0e582f71e3d276a8e8b990600090a35b60040154600160501b900460ff1690505b919050565b60007f00000000000000000000000000000000000000000000000000000000000000006001600160a01b03166322f3e2d46040518163ffffffff1660e01b8152600401602060405180830381865afa1580156120f1573d6000803e3d6000fd5b505050506040513d601f19601f820116820180604052508101906121159190614b62565b6121315760405162461bcd60e51b8152600401610dda90614b7f565b6000805160206151218339815191526121498161373d565b306001600160a01b03167f00000000000000000000000000000000000000000000000000000000000000006001600160a01b031663d0d851d06040518163ffffffff1660e01b8152600401602060405180830381865afa1580156121b1573d6000803e3d6000fd5b505050506040513d601f19601f820116820180604052508101906121d59190614ca2565b6001600160a01b03166358178168896040518263ffffffff1660e01b815260040161220291815260200190565b602060405180830381865afa15801561221f573d6000803e3d6000fd5b505050506040513d601f19601f820116820180604052508101906122439190614ca2565b6001600160a01b0316146122995760405162461bcd60e51b815260206004820152601e60248201527f54686520636f6e7472616374206d757374206f776e207468652070756e6b00006044820152606401610dda565b600880546000906122b2906001600160c01b0316614cdd565b82546001600160c01b038083166101009490940a848102910219909116179092556000908152600a602052604081208054929450916122f9906001600160401b0316614bf1565b91906101000a8154816001600160401b0302191690836001600160401b03160217905550604051806101400160405280836001600160c01b03168152602001888152602001876001600160401b03166001600160601b0316815260200160006001600160601b03168152602001868152602001858152602001848152602001604051806020016040528060008152508152602001600060018111156123a0576123a0614460565b8152600060209182018190526001600160c01b038086168252600983526040918290208451815492166001600160c01b03199283161781559284015160018401559083015160028301805460608601516001600160601b03908116600160601b029190941693909216929092171790556080820151600382015560a0820151600482015560c0820151600582015560e082015160068201906124429082614d47565b5061010082015160078201805460ff19166001838181111561246657612466614460565b021790555061012082015181600801559050505095945050505050565b600080604083901c60016040600161249b9190614e06565b6001901b6124a99190614e19565b9094931692915050565b6000818152600260205260408120546001600160a01b031680610ca75760405162461bcd60e51b8152602060048201526018602482015277115490cdcc8c4e881a5b9d985b1a59081d1bdad95b88125160421b6044820152606401610dda565b6001600160c01b0381166000908152600a602052604081205481906001600160401b031660015b816001600160401b0316816001600160401b031610156125b4576000600b60006125648885613102565b815260208101919091526040016000206002810154909150156125a1578461258b81614bf1565b600283015490965061259e915085614e06565b93505b50806125ac81614bf1565b91505061253a565b5050915091565b60006001600160a01b0382166126255760405162461bcd60e51b815260206004820152602960248201527f4552433732313a2061646472657373207a65726f206973206e6f7420612076616044820152683634b21037bbb732b960b91b6064820152608401610dda565b506001600160a01b031660009081526003602052604090205490565b6126496142de565b6001600160c01b038083166000908152600960209081526040918290208251610140810184528154909416845260018101549184019190915260028101546001600160601b0380821693850193909352600160601b9004909116606083015260038101546080830152600481015460a0830152600581015460c083015260068101805460e0840191906126db90614b28565b80601f016020809104026020016040519081016040528092919081815260200182805461270790614b28565b80156127545780601f1061272957610100808354040283529160200191612754565b820191906000526020600020905b81548152906001019060200180831161273757829003601f168201915b5050509183525050600782015460209091019060ff16600181111561277b5761277b614460565b600181111561278c5761278c614460565b81526020016008820154815250509050919050565b81336127ac826124b3565b6001600160a01b0316146127d25760405162461bcd60e51b8152600401610dda90614bae565b506000918252600b6020526040909120600101805460ff191660ff909216919091179055565b60007f00000000000000000000000000000000000000000000000000000000000000006001600160a01b03166322f3e2d46040518163ffffffff1660e01b8152600401602060405180830381865afa158015612858573d6000803e3d6000fd5b505050506040513d601f19601f8201168201806040525081019061287c9190614b62565b6128985760405162461bcd60e51b8152600401610dda90614b7f565b8260006001600160c01b03821660009081526009602052604090206007015460ff1660018111156128cb576128cb614460565b146129055760405162461bcd60e51b815260206004820152600a6024820152694e6f742061637469766560b01b6044820152606401610dda565b6001600160c01b0384166000908152600960205260409020600481015484108015906129395750612935856130dc565b8410155b8015612949575080600501548411155b6129ae5760405162461bcd60e51b815260206004820152603060248201527f426964207072696365206d7573742062652077697468696e207468652072657360448201526f657276652070726963652072616e676560801b6064820152608401610dda565b833414612a0b5760405162461bcd60e51b815260206004820152602560248201527f4d7573742073656e64207468652065786163742076616c75652061732070726f6044820152641c1bdcd95960da1b6064820152608401610dda565b60088101548015612a90576000612a2182611df4565b90506002816004811115612a3757612a37614460565b14612a8e5760405162461bcd60e51b815260206004820152602160248201527f5468652070726576696f757320626964206d7573742062652072656a656374656044820152601960fa1b6064820152608401610dda565b505b6000612a9d8733426134ff565b6040805160e0810182528281523360208083019182526001600160c01b038c8116848601908152606085018d81524264ffffffffff9081166080880190815262093a8060a08901908152600060c08a018181528c8252600c909852999099208851815596516001880180546001600160a01b0319166001600160a01b0390921691909117905592516002870180546001600160c01b03191691909516179093555160038501555160048085018054975192841669ffffffffffffffffffff1990981697909717600160281b929093169190910291909117808655915195965092949193919260ff60501b1990911690600160501b908490811115612ba357612ba3614460565b021790555050506000818152600d602052604080822034905560088501839055516001600160c01b0389169183917f8533454634e1656b9e2daf5da3b90e4d937516874c552e83bec683277b6109a69190a39695505050505050565b600080612c0b8361317b565b506001600160c01b0384166000908152600960205260409020600201549091506001600160601b0316612c40816113ec613950565b826001600160401b0316101592505050919050565b60007f00000000000000000000000000000000000000000000000000000000000000006001600160a01b03166322f3e2d46040518163ffffffff1660e01b8152600401602060405180830381865afa158015612cb5573d6000803e3d6000fd5b505050506040513d601f19601f82011682018060405250810190612cd99190614b62565b612cf55760405162461bcd60e51b8152600401610dda90614b7f565b6001600160c01b0382166000908152600a60205260408120546001600160401b031660015b816001600160401b0316816001600160401b03161015612d9a576000612d408683613102565b905033612d62826000908152600260205260409020546001600160a01b031690565b6001600160a01b031603612d8757612d7981613a75565b83612d8381614e2c565b9450505b5080612d9281614bf1565b915050612d1a565b5060008211612deb5760405162461bcd60e51b815260206004820152601860248201527f4e6f204d6f6e6f73206f776e656420746f20726566756e6400000000000000006044820152606401610dda565b612df48461145e565b612dfe9083614e45565b604051909350600090339085908381818185875af1925050503d8060008114612e43576040519150601f19603f3d011682016040523d82523d6000602084013e612e48565b606091505b5050905080612e8c5760405162461bcd60e51b815260206004820152601060248201526f11985a5b1959081d1bc81c99599d5b9960821b6044820152606401610dda565b60405133906001600160c01b038716907fc6d91402e00d43c03e126a374dddd6386f8764fd6bbd8453dabf5e2e37545f0890600090a3505050919050565b60009182526006602090815260408084206001600160a01b0393909316845291905290205460ff1690565b60096020526000908152604090208054600182015460028301546003840154600485015460058601546006870180546001600160c01b039097169795966001600160601b0380871697600160601b90970416959190612f5390614b28565b80601f0160208091040260200160405190810160405280929190818152602001828054612f7f90614b28565b8015612fcc5780601f10612fa157610100808354040283529160200191612fcc565b820191906000526020600020905b815481529060010190602001808311612faf57829003601f168201915b505050506007830154600890930154919260ff169190508a565b606060018054610cbc90614b28565b612ffd614332565b600b600061300b8585613102565b8152602080820192909252604090810160002081516060808201845282548252600183015460ff908116838701528451918201855260028085018054845260038601549497959688019593949093850192169081111561306d5761306d614460565b600281111561307e5761307e614460565b8152600291909101546020909101529052509392505050565b611b09338383613b18565b60006130ad8161373d565b6001600160c01b0384166000908152600960205260409020600681016130d4848683614e5c565b505050505050565b60008060006130ea84612513565b90925090506114f76001600160401b03831682614c80565b6001600160401b031660409190911b67ffffffffffffffff19161790565b600061312b8161373d565b611b0960008051602061512183398151915283613988565b61314d3383613761565b6131695760405162461bcd60e51b8152600401610dda90614c33565b61317584848484613be6565b50505050565b6000806131878361345d565b61319657506000928392509050565b6001600160c01b0383166000908152600a60209081526040808320546009909252909120600801546001600160401b039091169060015b826001600160401b0316816001600160401b03161015613287576000600b60006131f78985613102565b81526020019081526020016000206002019050828160020154036132745760018082015460ff16600281111561322f5761322f614460565b03613246578561323e81614bf1565b965050613274565b6002600182015460ff16600281111561326157613261614460565b03613274578461327081614bf1565b9550505b508061327f81614bf1565b9150506131cd565b505050915091565b6060600061329c83612483565b506001600160c01b03811660009081526009602052604090209091506001600782015460ff1660018111156132d3576132d3614460565b0361336c57600780546132e590614b28565b80601f016020809104026020016040519081016040528092919081815260200182805461331190614b28565b801561335e5780601f106133335761010080835404028352916020019161335e565b820191906000526020600020905b81548152906001019060200180831161334157829003601f168201915b505050505092505050919050565b600081600601805461337d90614b28565b80601f01602080910402602001604051908101604052809291908181526020018280546133a990614b28565b80156133f65780601f106133cb576101008083540402835291602001916133f6565b820191906000526020600020905b8154815290600101906020018083116133d957829003601f168201915b5050506000888152600b602052604090206001908101549086015493945060ff16928492506134259150613c19565b6134318360ff16613c19565b60405160200161344393929190614f1c565b604051602081830303815290604052945050505050919050565b6001600160c01b038116600090815260096020908152604080832060080154808452600c909252822081158015906134a1575060018101546001600160a01b031615155b80156114f75750600481015442906134c99064ffffffffff600160281b820481169116614cbf565b64ffffffffff161015949350505050565b6000828152600660205260409020600101546134f58161373d565b610e7b8383613a0e565b604080519084901b67ffffffffffffffff19166020820152606083901b6bffffffffffffffffffffffff1916603882015260d882901b6001600160d81b031916604c82015260009060510160408051601f198184030181529190528051602090910120949350505050565b600b60209081526000918252604091829020805460018201548451606081019095526002808401805487526003850154939660ff9384169690949193908501929116908111156135bc576135bc614460565b60028111156135cd576135cd614460565b8152602001600282015481525050905083565b60006135eb8161373d565b6007613175838583614e5c565b60006001600160e01b031982166380ac58cd60e01b148061362957506001600160e01b03198216635b5e139f60e01b145b80610ca757506301ffc9a760e01b6001600160e01b0319831614610ca7565b60006001600160e01b03198216637965db0b60e01b1480610ca75750610ca7826135f8565b6000818152600260205260409020546001600160a01b03166136cc5760405162461bcd60e51b8152602060048201526018602482015277115490cdcc8c4e881a5b9d985b1a59081d1bdad95b88125160421b6044820152606401610dda565b50565b600081815260046020526040902080546001600160a01b0319166001600160a01b0384169081179091558190613704826124b3565b6001600160a01b03167f8c5be1e5ebec7d5bd14f71427d1e84f3dd0314c0f7b2291e5b200ac8c7c3b92560405160405180910390a45050565b6136cc8133613cab565b611b09828260405180602001604052806000815250613d04565b60008061376d836124b3565b9050806001600160a01b0316846001600160a01b031614806137b457506001600160a01b0380821660009081526005602090815260408083209388168352929052205460ff165b806114f75750836001600160a01b03166137cd84610d3f565b6001600160a01b031614949350505050565b826001600160a01b03166137f2826124b3565b6001600160a01b0316146138185760405162461bcd60e51b8152600401610dda90614f8d565b6001600160a01b03821661387a5760405162461bcd60e51b8152602060048201526024808201527f4552433732313a207472616e7366657220746f20746865207a65726f206164646044820152637265737360e01b6064820152608401610dda565b6138878383836001613d37565b826001600160a01b031661389a826124b3565b6001600160a01b0316146138c05760405162461bcd60e51b8152600401610dda90614f8d565b600081815260046020908152604080832080546001600160a01b03199081169091556001600160a01b0387811680865260038552838620805460001901905590871680865283862080546001019055868652600290945282852080549092168417909155905184937fddf252ad1be2c89b69c2b068fc378daa952ba7f163c4a11628f55a4df523b3ef91a4505050565b600061271061395f8385614e45565b101561396a57600080fd5b6127106139778385614e45565b6139819190614c80565b9392505050565b6139928282612eca565b611b095760008281526006602090815260408083206001600160a01b03851684529091529020805460ff191660011790556139ca3390565b6001600160a01b0316816001600160a01b0316837f2f8788117e7eff1d82e926ec794901d17c78024a50270940304540a733656f0d60405160405180910390a45050565b613a188282612eca565b15611b095760008281526006602090815260408083206001600160a01b0385168085529252808320805460ff1916905551339285917ff6391f5c32d9c69d2a47ea670b442974b53935d1edc7fd64eb21e047a839171b9190a45050565b6000613a80826124b3565b9050613a90816000846001613d37565b613a99826124b3565b600083815260046020908152604080832080546001600160a01b03199081169091556001600160a01b0385168085526003845282852080546000190190558785526002909352818420805490911690555192935084927fddf252ad1be2c89b69c2b068fc378daa952ba7f163c4a11628f55a4df523b3ef908390a45050565b816001600160a01b0316836001600160a01b031603613b795760405162461bcd60e51b815260206004820152601960248201527f4552433732313a20617070726f766520746f2063616c6c6572000000000000006044820152606401610dda565b6001600160a01b03838116600081815260056020908152604080832094871680845294825291829020805460ff191686151590811790915591519182527f17307eab39ab6107e8899845ad3d59bd9653f200f220920489ca2b5937696c31910160405180910390a3505050565b613bf18484846137df565b613bfd84848484613dbf565b6131755760405162461bcd60e51b8152600401610dda90614fd2565b60606000613c2683613ec0565b60010190506000816001600160401b03811115613c4557613c45614989565b6040519080825280601f01601f191660200182016040528015613c6f576020820181803683370190505b5090508181016020015b600019016f181899199a1a9b1b9c1cb0b131b232b360811b600a86061a8153600a8504945084613c7957509392505050565b613cb58282612eca565b611b0957613cc281613f98565b613ccd836020613faa565b604051602001613cde929190615024565b60408051601f198184030181529082905262461bcd60e51b8252610dda916004016143f3565b613d0e8383614145565b613d1b6000848484613dbf565b610e7b5760405162461bcd60e51b8152600401610dda90614fd2565b6001811115613175576001600160a01b03841615613d7d576001600160a01b03841660009081526003602052604081208054839290613d77908490614e19565b90915550505b6001600160a01b03831615613175576001600160a01b03831660009081526003602052604081208054839290613db4908490614e06565b909155505050505050565b60006001600160a01b0384163b15613eb557604051630a85bd0160e11b81526001600160a01b0385169063150b7a0290613e03903390899088908890600401615099565b6020604051808303816000875af1925050508015613e3e575060408051601f3d908101601f19168201909252613e3b918101906150d6565b60015b613e9b573d808015613e6c576040519150601f19603f3d011682016040523d82523d6000602084013e613e71565b606091505b508051600003613e935760405162461bcd60e51b8152600401610dda90614fd2565b805181602001fd5b6001600160e01b031916630a85bd0160e11b1490506114f7565b506001949350505050565b60008072184f03e93ff9f4daa797ed6e38ed64bf6a1f0160401b8310613eff5772184f03e93ff9f4daa797ed6e38ed64bf6a1f0160401b830492506040015b6d04ee2d6d415b85acef81000000008310613f2b576d04ee2d6d415b85acef8100000000830492506020015b662386f26fc100008310613f4957662386f26fc10000830492506010015b6305f5e1008310613f61576305f5e100830492506008015b6127108310613f7557612710830492506004015b60648310613f87576064830492506002015b600a8310610ca75760010192915050565b6060610ca76001600160a01b03831660145b60606000613fb9836002614e45565b613fc4906002614e06565b6001600160401b03811115613fdb57613fdb614989565b6040519080825280601f01601f191660200182016040528015614005576020820181803683370190505b509050600360fc1b81600081518110614020576140206150f3565b60200101906001600160f81b031916908160001a905350600f60fb1b8160018151811061404f5761404f6150f3565b60200101906001600160f81b031916908160001a9053506000614073846002614e45565b61407e906001614e06565b90505b60018111156140f6576f181899199a1a9b1b9c1cb0b131b232b360811b85600f16601081106140b2576140b26150f3565b1a60f81b8282815181106140c8576140c86150f3565b60200101906001600160f81b031916908160001a90535060049490941c936140ef81615109565b9050614081565b5083156139815760405162461bcd60e51b815260206004820181905260248201527f537472696e67733a20686578206c656e67746820696e73756666696369656e746044820152606401610dda565b6001600160a01b03821661419b5760405162461bcd60e51b815260206004820181905260248201527f4552433732313a206d696e7420746f20746865207a65726f20616464726573736044820152606401610dda565b6000818152600260205260409020546001600160a01b0316156142005760405162461bcd60e51b815260206004820152601c60248201527f4552433732313a20746f6b656e20616c7265616479206d696e746564000000006044820152606401610dda565b61420e600083836001613d37565b6000818152600260205260409020546001600160a01b0316156142735760405162461bcd60e51b815260206004820152601c60248201527f4552433732313a20746f6b656e20616c7265616479206d696e746564000000006044820152606401610dda565b6001600160a01b038216600081815260036020908152604080832080546001019055848352600290915280822080546001600160a01b0319168417905551839291907fddf252ad1be2c89b69c2b068fc378daa952ba7f163c4a11628f55a4df523b3ef908290a45050565b604080516101408101825260008082526020820181905291810182905260608082018390526080820183905260a0820183905260c0820183905260e0820152906101008201905b8152602001600081525090565b6040805160608101825260008082526020820152908101614351614356565b905290565b604080516060810190915260008082526020820190614325565b6001600160e01b0319811681146136cc57600080fd5b60006020828403121561439857600080fd5b813561398181614370565b60005b838110156143be5781810151838201526020016143a6565b50506000910152565b600081518084526143df8160208601602086016143a3565b601f01601f19169290920160200192915050565b60208152600061398160208301846143c7565b60006020828403121561441857600080fd5b5035919050565b6001600160a01b03811681146136cc57600080fd5b6000806040838503121561444757600080fd5b82356144528161441f565b946020939093013593505050565b634e487b7160e01b600052602160045260246000fd5b600381106136cc576136cc614460565b6020810161449383614476565b91905290565b600080604083850312156144ac57600080fd5b823591506020830135600381106144c257600080fd5b809150509250929050565b80356001600160c01b038116811461208c57600080fd5b600080604083850312156144f757600080fd5b82356145028161441f565b9150614510602084016144cd565b90509250929050565b60008060006060848603121561452e57600080fd5b83356145398161441f565b925060208401356145498161441f565b929592945050506040919091013590565b60006020828403121561456c57600080fd5b613981826144cd565b6000806040838503121561458857600080fd5b8235915060208301356144c28161441f565b600281106145aa576145aa614460565b9052565b602081526145c86020820183516001600160c01b03169052565b60208201516040820152600060408301516145ee60608401826001600160601b03169052565b5060608301516001600160601b038116608084015250608083015160a083015260a083015160c083015260c083015160e083015260e083015161014061010081818601526146406101608601846143c7565b908601519092506101206146568682018361459a565b959095015193019290925250919050565b6000806040838503121561467a57600080fd5b50508035926020909101359150565b600581106145aa576145aa614460565b8781526001600160a01b03871660208201526001600160c01b03861660408201526060810185905264ffffffffff8481166080830152831660a082015260e081016146e760c0830184614689565b98975050505050505050565b60208101610ca78284614689565b80356001600160401b038116811461208c57600080fd5b600080600080600060a0868803121561473057600080fd5b8535945061474060208701614701565b94979496505050506040830135926060810135926080909101359150565b60006020828403121561477057600080fd5b81356139818161441f565b6000806040838503121561478e57600080fd5b82359150602083013560ff811681146144c257600080fd5b600080604083850312156147b957600080fd5b614452836144cd565b600061014060018060c01b038d1683528b60208401526001600160601b03808c166040850152808b166060850152508860808401528760a08401528660c08401528060e0840152614815818401876143c7565b91505061482661010083018561459a565b826101208301529b9a5050505050505050505050565b6000806040838503121561484f57600080fd5b614858836144cd565b915061451060208401614701565b80518252602081015161487881614476565b6020830152604090810151910152565b600060a0820190508251825260ff602084015116602083015260408301516114266040840182614866565b80151581146136cc57600080fd5b600080604083850312156148d457600080fd5b82356148df8161441f565b915060208301356144c2816148b3565b60008083601f84011261490157600080fd5b5081356001600160401b0381111561491857600080fd5b60208301915083602082850101111561493057600080fd5b9250929050565b60008060006040848603121561494c57600080fd5b614955846144cd565b925060208401356001600160401b0381111561497057600080fd5b61497c868287016148ef565b9497909650939450505050565b634e487b7160e01b600052604160045260246000fd5b600080600080608085870312156149b557600080fd5b84356149c08161441f565b935060208501356149d08161441f565b92506040850135915060608501356001600160401b03808211156149f357600080fd5b818701915087601f830112614a0757600080fd5b813581811115614a1957614a19614989565b604051601f8201601f19908116603f01168101908382118183101715614a4157614a41614989565b816040528281528a6020848701011115614a5a57600080fd5b82602086016020830137600060208483010152809550505050505092959194509250565b600080600060608486031215614a9357600080fd5b614539846144cd565b83815260ff8316602082015260a081016114f76040830184614866565b60008060408385031215614acc57600080fd5b8235614ad78161441f565b915060208301356144c28161441f565b60008060208385031215614afa57600080fd5b82356001600160401b03811115614b1057600080fd5b614b1c858286016148ef565b90969095509350505050565b600181811c90821680614b3c57607f821691505b602082108103614b5c57634e487b7160e01b600052602260045260246000fd5b50919050565b600060208284031215614b7457600080fd5b8151613981816148b3565b6020808252601590820152744d757365756d206d7573742062652061637469766560581b604082015260600190565b6020808252601390820152724d757374206f776e20746865204d6f7361696360681b604082015260600190565b634e487b7160e01b600052601160045260246000fd5b60006001600160401b03808316818103614c0d57614c0d614bdb565b6001019392505050565b60006001600160601b03808316818103614c0d57614c0d614bdb565b6020808252602d908201527f4552433732313a2063616c6c6572206973206e6f7420746f6b656e206f776e6560408201526c1c881bdc88185c1c1c9bdd9959609a1b606082015260800190565b600082614c9d57634e487b7160e01b600052601260045260246000fd5b500490565b600060208284031215614cb457600080fd5b81516139818161441f565b64ffffffffff81811683821601908082111561142657611426614bdb565b60006001600160c01b038281166002600160c01b03198101614c0d57614c0d614bdb565b601f821115610e7b57600081815260208120601f850160051c81016020861015614d285750805b601f850160051c820191505b818110156130d457828155600101614d34565b81516001600160401b03811115614d6057614d60614989565b614d7481614d6e8454614b28565b84614d01565b602080601f831160018114614da95760008415614d915750858301515b600019600386901b1c1916600185901b1785556130d4565b600085815260208120601f198616915b82811015614dd857888601518255948401946001909101908401614db9565b5085821015614df65787850151600019600388901b60f8161c191681555b5050505050600190811b01905550565b80820180821115610ca757610ca7614bdb565b81810381811115610ca757610ca7614bdb565b600060018201614e3e57614e3e614bdb565b5060010190565b8082028115828204841417610ca757610ca7614bdb565b6001600160401b03831115614e7357614e73614989565b614e8783614e818354614b28565b83614d01565b6000601f841160018114614ebb5760008515614ea35750838201355b600019600387901b1c1916600186901b178355614f15565b600083815260209020601f19861690835b82811015614eec5786850135825560209485019460019092019101614ecc565b5086821015614f095760001960f88860031b161c19848701351681555b505060018560011b0183555b5050505050565b60008451614f2e8184602089016143a3565b602f60f81b9083019081528451614f4c8160018401602089016143a3565b605f60f81b600192909101918201528351614f6e8160028401602088016143a3565b64173539b7b760d91b6002929091019182015260070195945050505050565b60208082526025908201527f4552433732313a207472616e736665722066726f6d20696e636f72726563742060408201526437bbb732b960d91b606082015260800190565b60208082526032908201527f4552433732313a207472616e7366657220746f206e6f6e20455243373231526560408201527131b2b4bb32b91034b6b83632b6b2b73a32b960711b606082015260800190565b7f416363657373436f6e74726f6c3a206163636f756e742000000000000000000081526000835161505c8160178501602088016143a3565b7001034b99036b4b9b9b4b733903937b6329607d1b601791840191820152835161508d8160288401602088016143a3565b01602801949350505050565b6001600160a01b03858116825284166020820152604081018390526080606082018190526000906150cc908301846143c7565b9695505050505050565b6000602082840312156150e857600080fd5b815161398181614370565b634e487b7160e01b600052603260045260246000fd5b60008161511857615118614bdb565b50600019019056fe9f2df0fed2c77648de5860a4cc508cd0818c85b8b8a1ab4ceeef8d981c8956a6a26469706673582212207a14ff6c20cb8008c958ec74aada1414b581b36455e076557b55b058529e582b64736f6c63430008110033",
  "devdoc": {
    "kind": "dev",
    "methods": {
      "approve(address,uint256)": {
        "details": "See {IERC721-approve}."
      },
      "balanceOf(address)": {
        "details": "See {IERC721-balanceOf}."
      },
      "getApproved(uint256)": {
        "details": "See {IERC721-getApproved}."
      },
      "getRoleAdmin(bytes32)": {
        "details": "Returns the admin role that controls `role`. See {grantRole} and {revokeRole}. To change a role's admin, use {_setRoleAdmin}."
      },
      "grantRole(bytes32,address)": {
        "details": "Grants `role` to `account`. If `account` had not been already granted `role`, emits a {RoleGranted} event. Requirements: - the caller must have ``role``'s admin role. May emit a {RoleGranted} event."
      },
      "hasRole(bytes32,address)": {
        "details": "Returns `true` if `account` has been granted `role`."
      },
      "isApprovedForAll(address,address)": {
        "details": "See {IERC721-isApprovedForAll}."
      },
      "name()": {
        "details": "See {IERC721Metadata-name}."
      },
      "ownerOf(uint256)": {
        "details": "See {IERC721-ownerOf}."
      },
      "renounceRole(bytes32,address)": {
        "details": "Revokes `role` from the calling account. Roles are often managed via {grantRole} and {revokeRole}: this function's purpose is to provide a mechanism for accounts to lose their privileges if they are compromised (such as when a trusted device is misplaced). If the calling account had been revoked `role`, emits a {RoleRevoked} event. Requirements: - the caller must be `account`. May emit a {RoleRevoked} event."
      },
      "revokeRole(bytes32,address)": {
        "details": "Revokes `role` from `account`. If `account` had been granted `role`, emits a {RoleRevoked} event. Requirements: - the caller must have ``role``'s admin role. May emit a {RoleRevoked} event."
      },
      "safeTransferFrom(address,address,uint256)": {
        "details": "See {IERC721-safeTransferFrom}."
      },
      "safeTransferFrom(address,address,uint256,bytes)": {
        "details": "See {IERC721-safeTransferFrom}."
      },
      "setApprovalForAll(address,bool)": {
        "details": "See {IERC721-setApprovalForAll}."
      },
      "symbol()": {
        "details": "See {IERC721Metadata-symbol}."
      },
      "transferFrom(address,address,uint256)": {
        "details": "See {IERC721-transferFrom}."
      }
    },
    "version": 1
  },
  "userdoc": {
    "kind": "user",
    "methods": {},
    "version": 1
  },
  "storageLayout": {
    "storage": [
      {
        "astId": 5106,
        "contract": "src/CryptoPunksMosaicRegistry.sol:CryptoPunksMosaicRegistry",
        "label": "_name",
        "offset": 0,
        "slot": "0",
        "type": "t_string_storage"
      },
      {
        "astId": 5108,
        "contract": "src/CryptoPunksMosaicRegistry.sol:CryptoPunksMosaicRegistry",
        "label": "_symbol",
        "offset": 0,
        "slot": "1",
        "type": "t_string_storage"
      },
      {
        "astId": 5112,
        "contract": "src/CryptoPunksMosaicRegistry.sol:CryptoPunksMosaicRegistry",
        "label": "_owners",
        "offset": 0,
        "slot": "2",
        "type": "t_mapping(t_uint256,t_address)"
      },
      {
        "astId": 5116,
        "contract": "src/CryptoPunksMosaicRegistry.sol:CryptoPunksMosaicRegistry",
        "label": "_balances",
        "offset": 0,
        "slot": "3",
        "type": "t_mapping(t_address,t_uint256)"
      },
      {
        "astId": 5120,
        "contract": "src/CryptoPunksMosaicRegistry.sol:CryptoPunksMosaicRegistry",
        "label": "_tokenApprovals",
        "offset": 0,
        "slot": "4",
        "type": "t_mapping(t_uint256,t_address)"
      },
      {
        "astId": 5126,
        "contract": "src/CryptoPunksMosaicRegistry.sol:CryptoPunksMosaicRegistry",
        "label": "_operatorApprovals",
        "offset": 0,
        "slot": "5",
        "type": "t_mapping(t_address,t_mapping(t_address,t_bool))"
      },
      {
        "astId": 4326,
        "contract": "src/CryptoPunksMosaicRegistry.sol:CryptoPunksMosaicRegistry",
        "label": "_roles",
        "offset": 0,
        "slot": "6",
        "type": "t_mapping(t_bytes32,t_struct(RoleData)4321_storage)"
      },
      {
        "astId": 10320,
        "contract": "src/CryptoPunksMosaicRegistry.sol:CryptoPunksMosaicRegistry",
        "label": "invalidMetadataUri",
        "offset": 0,
        "slot": "7",
        "type": "t_string_storage"
      },
      {
        "astId": 10322,
        "contract": "src/CryptoPunksMosaicRegistry.sol:CryptoPunksMosaicRegistry",
        "label": "latestOriginalId",
        "offset": 0,
        "slot": "8",
        "type": "t_uint192"
      },
      {
        "astId": 10327,
        "contract": "src/CryptoPunksMosaicRegistry.sol:CryptoPunksMosaicRegistry",
        "label": "originals",
        "offset": 0,
        "slot": "9",
        "type": "t_mapping(t_uint192,t_struct(Original)12086_storage)"
      },
      {
        "astId": 10331,
        "contract": "src/CryptoPunksMosaicRegistry.sol:CryptoPunksMosaicRegistry",
        "label": "nextMonoIds",
        "offset": 0,
        "slot": "10",
        "type": "t_mapping(t_uint192,t_uint64)"
      },
      {
        "astId": 10336,
        "contract": "src/CryptoPunksMosaicRegistry.sol:CryptoPunksMosaicRegistry",
        "label": "monos",
        "offset": 0,
        "slot": "11",
        "type": "t_mapping(t_uint256,t_struct(Mono)12103_storage)"
      },
      {
        "astId": 10341,
        "contract": "src/CryptoPunksMosaicRegistry.sol:CryptoPunksMosaicRegistry",
        "label": "bids",
        "offset": 0,
        "slot": "12",
        "type": "t_mapping(t_uint256,t_struct(Bid)12141_storage)"
      },
      {
        "astId": 10345,
        "contract": "src/CryptoPunksMosaicRegistry.sol:CryptoPunksMosaicRegistry",
        "label": "bidDeposits",
        "offset": 0,
        "slot": "13",
        "type": "t_mapping(t_uint256,t_uint256)"
      },
      {
        "astId": 10349,
        "contract": "src/CryptoPunksMosaicRegistry.sol:CryptoPunksMosaicRegistry",
        "label": "resalePrices",
        "offset": 0,
        "slot": "14",
        "type": "t_mapping(t_uint192,t_uint256)"
      }
    ],
    "types": {
      "t_address": {
        "encoding": "inplace",
        "label": "address",
        "numberOfBytes": "20"
      },
      "t_address_payable": {
        "encoding": "inplace",
        "label": "address payable",
        "numberOfBytes": "20"
      },
      "t_bool": {
        "encoding": "inplace",
        "label": "bool",
        "numberOfBytes": "1"
      },
      "t_bytes32": {
        "encoding": "inplace",
        "label": "bytes32",
        "numberOfBytes": "32"
      },
      "t_enum(BidState)12147": {
        "encoding": "inplace",
        "label": "enum UsingCryptoPunksMosaicRegistryStructs.BidState",
        "numberOfBytes": "1"
      },
      "t_enum(MonoBidResponse)12119": {
        "encoding": "inplace",
        "label": "enum UsingCryptoPunksMosaicRegistryStructs.MonoBidResponse",
        "numberOfBytes": "1"
      },
      "t_enum(OriginalStatus)12089": {
        "encoding": "inplace",
        "label": "enum UsingCryptoPunksMosaicRegistryStructs.OriginalStatus",
        "numberOfBytes": "1"
      },
      "t_mapping(t_address,t_bool)": {
        "encoding": "mapping",
        "key": "t_address",
        "label": "mapping(address => bool)",
        "numberOfBytes": "32",
        "value": "t_bool"
      },
      "t_mapping(t_address,t_mapping(t_address,t_bool))": {
        "encoding": "mapping",
        "key": "t_address",
        "label": "mapping(address => mapping(address => bool))",
        "numberOfBytes": "32",
        "value": "t_mapping(t_address,t_bool)"
      },
      "t_mapping(t_address,t_uint256)": {
        "encoding": "mapping",
        "key": "t_address",
        "label": "mapping(address => uint256)",
        "numberOfBytes": "32",
        "value": "t_uint256"
      },
      "t_mapping(t_bytes32,t_struct(RoleData)4321_storage)": {
        "encoding": "mapping",
        "key": "t_bytes32",
        "label": "mapping(bytes32 => struct AccessControl.RoleData)",
        "numberOfBytes": "32",
        "value": "t_struct(RoleData)4321_storage"
      },
      "t_mapping(t_uint192,t_struct(Original)12086_storage)": {
        "encoding": "mapping",
        "key": "t_uint192",
        "label": "mapping(uint192 => struct UsingCryptoPunksMosaicRegistryStructs.Original)",
        "numberOfBytes": "32",
        "value": "t_struct(Original)12086_storage"
      },
      "t_mapping(t_uint192,t_uint256)": {
        "encoding": "mapping",
        "key": "t_uint192",
        "label": "mapping(uint192 => uint256)",
        "numberOfBytes": "32",
        "value": "t_uint256"
      },
      "t_mapping(t_uint192,t_uint64)": {
        "encoding": "mapping",
        "key": "t_uint192",
        "label": "mapping(uint192 => uint64)",
        "numberOfBytes": "32",
        "value": "t_uint64"
      },
      "t_mapping(t_uint256,t_address)": {
        "encoding": "mapping",
        "key": "t_uint256",
        "label": "mapping(uint256 => address)",
        "numberOfBytes": "32",
        "value": "t_address"
      },
      "t_mapping(t_uint256,t_struct(Bid)12141_storage)": {
        "encoding": "mapping",
        "key": "t_uint256",
        "label": "mapping(uint256 => struct UsingCryptoPunksMosaicRegistryStructs.Bid)",
        "numberOfBytes": "32",
        "value": "t_struct(Bid)12141_storage"
      },
      "t_mapping(t_uint256,t_struct(Mono)12103_storage)": {
        "encoding": "mapping",
        "key": "t_uint256",
        "label": "mapping(uint256 => struct UsingCryptoPunksMosaicRegistryStructs.Mono)",
        "numberOfBytes": "32",
        "value": "t_struct(Mono)12103_storage"
      },
      "t_mapping(t_uint256,t_uint256)": {
        "encoding": "mapping",
        "key": "t_uint256",
        "label": "mapping(uint256 => uint256)",
        "numberOfBytes": "32",
        "value": "t_uint256"
      },
      "t_string_storage": {
        "encoding": "bytes",
        "label": "string",
        "numberOfBytes": "32"
      },
      "t_struct(Bid)12141_storage": {
        "encoding": "inplace",
        "label": "struct UsingCryptoPunksMosaicRegistryStructs.Bid",
        "members": [
          {
            "astId": 12127,
            "contract": "src/CryptoPunksMosaicRegistry.sol:CryptoPunksMosaicRegistry",
            "label": "id",
            "offset": 0,
            "slot": "0",
            "type": "t_uint256"
          },
          {
            "astId": 12129,
            "contract": "src/CryptoPunksMosaicRegistry.sol:CryptoPunksMosaicRegistry",
            "label": "bidder",
            "offset": 0,
            "slot": "1",
            "type": "t_address_payable"
          },
          {
            "astId": 12131,
            "contract": "src/CryptoPunksMosaicRegistry.sol:CryptoPunksMosaicRegistry",
            "label": "originalId",
            "offset": 0,
            "slot": "2",
            "type": "t_uint192"
          },
          {
            "astId": 12133,
            "contract": "src/CryptoPunksMosaicRegistry.sol:CryptoPunksMosaicRegistry",
            "label": "price",
            "offset": 0,
            "slot": "3",
            "type": "t_uint256"
          },
          {
            "astId": 12135,
            "contract": "src/CryptoPunksMosaicRegistry.sol:CryptoPunksMosaicRegistry",
            "label": "createdAt",
            "offset": 0,
            "slot": "4",
            "type": "t_uint40"
          },
          {
            "astId": 12137,
            "contract": "src/CryptoPunksMosaicRegistry.sol:CryptoPunksMosaicRegistry",
            "label": "expiry",
            "offset": 5,
            "slot": "4",
            "type": "t_uint40"
          },
          {
            "astId": 12140,
            "contract": "src/CryptoPunksMosaicRegistry.sol:CryptoPunksMosaicRegistry",
            "label": "state",
            "offset": 10,
            "slot": "4",
            "type": "t_enum(BidState)12147"
          }
        ],
        "numberOfBytes": "160"
      },
      "t_struct(Mono)12103_storage": {
        "encoding": "inplace",
        "label": "struct UsingCryptoPunksMosaicRegistryStructs.Mono",
        "members": [
          {
            "astId": 12097,
            "contract": "src/CryptoPunksMosaicRegistry.sol:CryptoPunksMosaicRegistry",
            "label": "mosaicId",
            "offset": 0,
            "slot": "0",
            "type": "t_uint256"
          },
          {
            "astId": 12099,
            "contract": "src/CryptoPunksMosaicRegistry.sol:CryptoPunksMosaicRegistry",
            "label": "presetId",
            "offset": 0,
            "slot": "1",
            "type": "t_uint8"
          },
          {
            "astId": 12102,
            "contract": "src/CryptoPunksMosaicRegistry.sol:CryptoPunksMosaicRegistry",
            "label": "governanceOptions",
            "offset": 0,
            "slot": "2",
            "type": "t_struct(MonoGovernanceOptions)12115_storage"
          }
        ],
        "numberOfBytes": "160"
      },
      "t_struct(MonoGovernanceOptions)12115_storage": {
        "encoding": "inplace",
        "label": "struct UsingCryptoPunksMosaicRegistryStructs.MonoGovernanceOptions",
        "members": [
          {
            "astId": 12109,
            "contract": "src/CryptoPunksMosaicRegistry.sol:CryptoPunksMosaicRegistry",
            "label": "proposedReservePrice",
            "offset": 0,
            "slot": "0",
            "type": "t_uint256"
          },
          {
            "astId": 12112,
            "contract": "src/CryptoPunksMosaicRegistry.sol:CryptoPunksMosaicRegistry",
            "label": "bidResponse",
            "offset": 0,
            "slot": "1",
            "type": "t_enum(MonoBidResponse)12119"
          },
          {
            "astId": 12114,
            "contract": "src/CryptoPunksMosaicRegistry.sol:CryptoPunksMosaicRegistry",
            "label": "bidId",
            "offset": 0,
            "slot": "2",
            "type": "t_uint256"
          }
        ],
        "numberOfBytes": "96"
      },
      "t_struct(Original)12086_storage": {
        "encoding": "inplace",
        "label": "struct UsingCryptoPunksMosaicRegistryStructs.Original",
        "members": [
          {
            "astId": 12065,
            "contract": "src/CryptoPunksMosaicRegistry.sol:CryptoPunksMosaicRegistry",
            "label": "id",
            "offset": 0,
            "slot": "0",
            "type": "t_uint192"
          },
          {
            "astId": 12067,
            "contract": "src/CryptoPunksMosaicRegistry.sol:CryptoPunksMosaicRegistry",
            "label": "punkId",
            "offset": 0,
            "slot": "1",
            "type": "t_uint256"
          },
          {
            "astId": 12070,
            "contract": "src/CryptoPunksMosaicRegistry.sol:CryptoPunksMosaicRegistry",
            "label": "totalMonoSupply",
            "offset": 0,
            "slot": "2",
            "type": "t_uint96"
          },
          {
            "astId": 12072,
            "contract": "src/CryptoPunksMosaicRegistry.sol:CryptoPunksMosaicRegistry",
            "label": "claimedMonoCount",
            "offset": 12,
            "slot": "2",
            "type": "t_uint96"
          },
          {
            "astId": 12074,
            "contract": "src/CryptoPunksMosaicRegistry.sol:CryptoPunksMosaicRegistry",
            "label": "purchasePrice",
            "offset": 0,
            "slot": "3",
            "type": "t_uint256"
          },
          {
            "astId": 12076,
            "contract": "src/CryptoPunksMosaicRegistry.sol:CryptoPunksMosaicRegistry",
            "label": "minReservePrice",
            "offset": 0,
            "slot": "4",
            "type": "t_uint256"
          },
          {
            "astId": 12078,
            "contract": "src/CryptoPunksMosaicRegistry.sol:CryptoPunksMosaicRegistry",
            "label": "maxReservePrice",
            "offset": 0,
            "slot": "5",
            "type": "t_uint256"
          },
          {
            "astId": 12080,
            "contract": "src/CryptoPunksMosaicRegistry.sol:CryptoPunksMosaicRegistry",
            "label": "metadataBaseUri",
            "offset": 0,
            "slot": "6",
            "type": "t_string_storage"
          },
          {
            "astId": 12083,
            "contract": "src/CryptoPunksMosaicRegistry.sol:CryptoPunksMosaicRegistry",
            "label": "status",
            "offset": 0,
            "slot": "7",
            "type": "t_enum(OriginalStatus)12089"
          },
          {
            "astId": 12085,
            "contract": "src/CryptoPunksMosaicRegistry.sol:CryptoPunksMosaicRegistry",
            "label": "activeBidId",
            "offset": 0,
            "slot": "8",
            "type": "t_uint256"
          }
        ],
        "numberOfBytes": "288"
      },
      "t_struct(RoleData)4321_storage": {
        "encoding": "inplace",
        "label": "struct AccessControl.RoleData",
        "members": [
          {
            "astId": 4318,
            "contract": "src/CryptoPunksMosaicRegistry.sol:CryptoPunksMosaicRegistry",
            "label": "members",
            "offset": 0,
            "slot": "0",
            "type": "t_mapping(t_address,t_bool)"
          },
          {
            "astId": 4320,
            "contract": "src/CryptoPunksMosaicRegistry.sol:CryptoPunksMosaicRegistry",
            "label": "adminRole",
            "offset": 0,
            "slot": "1",
            "type": "t_bytes32"
          }
        ],
        "numberOfBytes": "64"
      },
      "t_uint192": {
        "encoding": "inplace",
        "label": "uint192",
        "numberOfBytes": "24"
      },
      "t_uint256": {
        "encoding": "inplace",
        "label": "uint256",
        "numberOfBytes": "32"
      },
      "t_uint40": {
        "encoding": "inplace",
        "label": "uint40",
        "numberOfBytes": "5"
      },
      "t_uint64": {
        "encoding": "inplace",
        "label": "uint64",
        "numberOfBytes": "8"
      },
      "t_uint8": {
        "encoding": "inplace",
        "label": "uint8",
        "numberOfBytes": "1"
      },
      "t_uint96": {
        "encoding": "inplace",
        "label": "uint96",
        "numberOfBytes": "12"
      }
    }
  }
}