{
  "address": "0xb9CdC263446573a8A5554B7cbbbE09c6caEE3d3a",
  "abi": [
    {
      "inputs": [
        {
          "internalType": "address",
          "name": "_mintAuthority",
          "type": "address"
        },
        {
          "internalType": "address",
          "name": "cryptoPunksMarketAddress",
          "type": "address"
        }
      ],
      "stateMutability": "nonpayable",
      "type": "constructor"
    },
    {
      "anonymous": false,
      "inputs": [
        {
          "indexed": true,
          "internalType": "address",
          "name": "owner",
          "type": "address"
        },
        {
          "indexed": true,
          "internalType": "address",
          "name": "approved",
          "type": "address"
        },
        {
          "indexed": true,
          "internalType": "uint256",
          "name": "tokenId",
          "type": "uint256"
        }
      ],
      "name": "Approval",
      "type": "event"
    },
    {
      "anonymous": false,
      "inputs": [
        {
          "indexed": true,
          "internalType": "address",
          "name": "owner",
          "type": "address"
        },
        {
          "indexed": true,
          "internalType": "address",
          "name": "operator",
          "type": "address"
        },
        {
          "indexed": false,
          "internalType": "bool",
          "name": "approved",
          "type": "bool"
        }
      ],
      "name": "ApprovalForAll",
      "type": "event"
    },
    {
      "anonymous": false,
      "inputs": [
        {
          "indexed": true,
          "internalType": "bytes32",
          "name": "role",
          "type": "bytes32"
        },
        {
          "indexed": true,
          "internalType": "bytes32",
          "name": "previousAdminRole",
          "type": "bytes32"
        },
        {
          "indexed": true,
          "internalType": "bytes32",
          "name": "newAdminRole",
          "type": "bytes32"
        }
      ],
      "name": "RoleAdminChanged",
      "type": "event"
    },
    {
      "anonymous": false,
      "inputs": [
        {
          "indexed": true,
          "internalType": "bytes32",
          "name": "role",
          "type": "bytes32"
        },
        {
          "indexed": true,
          "internalType": "address",
          "name": "account",
          "type": "address"
        },
        {
          "indexed": true,
          "internalType": "address",
          "name": "sender",
          "type": "address"
        }
      ],
      "name": "RoleGranted",
      "type": "event"
    },
    {
      "anonymous": false,
      "inputs": [
        {
          "indexed": true,
          "internalType": "bytes32",
          "name": "role",
          "type": "bytes32"
        },
        {
          "indexed": true,
          "internalType": "address",
          "name": "account",
          "type": "address"
        },
        {
          "indexed": true,
          "internalType": "address",
          "name": "sender",
          "type": "address"
        }
      ],
      "name": "RoleRevoked",
      "type": "event"
    },
    {
      "anonymous": false,
      "inputs": [
        {
          "indexed": true,
          "internalType": "address",
          "name": "from",
          "type": "address"
        },
        {
          "indexed": true,
          "internalType": "address",
          "name": "to",
          "type": "address"
        },
        {
          "indexed": true,
          "internalType": "uint256",
          "name": "tokenId",
          "type": "uint256"
        }
      ],
      "name": "Transfer",
      "type": "event"
    },
    {
      "inputs": [],
      "name": "BID_ACCEPTANCE_THRESHOLD_BPS",
      "outputs": [
        {
          "internalType": "uint256",
          "name": "",
          "type": "uint256"
        }
      ],
      "stateMutability": "view",
      "type": "function"
    },
    {
      "inputs": [],
      "name": "BID_EXPIRY",
      "outputs": [
        {
          "internalType": "uint40",
          "name": "",
          "type": "uint40"
        }
      ],
      "stateMutability": "view",
      "type": "function"
    },
    {
      "inputs": [],
      "name": "DEFAULT_ADMIN_ROLE",
      "outputs": [
        {
          "internalType": "bytes32",
          "name": "",
          "type": "bytes32"
        }
      ],
      "stateMutability": "view",
      "type": "function"
    },
    {
      "inputs": [],
      "name": "MINTER_ROLE",
      "outputs": [
        {
          "internalType": "bytes32",
          "name": "",
          "type": "bytes32"
        }
      ],
      "stateMutability": "view",
      "type": "function"
    },
    {
      "inputs": [
        {
          "internalType": "address",
          "name": "to",
          "type": "address"
        },
        {
          "internalType": "uint256",
          "name": "tokenId",
          "type": "uint256"
        }
      ],
      "name": "approve",
      "outputs": [],
      "stateMutability": "nonpayable",
      "type": "function"
    },
    {
      "inputs": [
        {
          "internalType": "address",
          "name": "owner",
          "type": "address"
        }
      ],
      "name": "balanceOf",
      "outputs": [
        {
          "internalType": "uint256",
          "name": "",
          "type": "uint256"
        }
      ],
      "stateMutability": "view",
      "type": "function"
    },
    {
      "inputs": [
        {
          "internalType": "uint192",
          "name": "originalId",
          "type": "uint192"
        },
        {
          "internalType": "uint256",
          "name": "price",
          "type": "uint256"
        }
      ],
      "name": "bid",
      "outputs": [
        {
          "internalType": "uint256",
          "name": "newBidId",
          "type": "uint256"
        }
      ],
      "stateMutability": "payable",
      "type": "function"
    },
    {
      "inputs": [
        {
          "internalType": "uint256",
          "name": "",
          "type": "uint256"
        }
      ],
      "name": "bidDeposits",
      "outputs": [
        {
          "internalType": "uint256",
          "name": "",
          "type": "uint256"
        }
      ],
      "stateMutability": "view",
      "type": "function"
    },
    {
      "inputs": [
        {
          "internalType": "uint256",
          "name": "",
          "type": "uint256"
        }
      ],
      "name": "bids",
      "outputs": [
        {
          "internalType": "uint256",
          "name": "id",
          "type": "uint256"
        },
        {
          "internalType": "address payable",
          "name": "bidder",
          "type": "address"
        },
        {
          "internalType": "uint192",
          "name": "originalId",
          "type": "uint192"
        },
        {
          "internalType": "uint256",
          "name": "price",
          "type": "uint256"
        },
        {
          "internalType": "uint40",
          "name": "createdAt",
          "type": "uint40"
        },
        {
          "internalType": "uint40",
          "name": "expiry",
          "type": "uint40"
        },
        {
          "internalType": "enum UsingCryptoPunksMosaicRegistryStructs.BidState",
          "name": "state",
          "type": "uint8"
        }
      ],
      "stateMutability": "view",
      "type": "function"
    },
    {
      "inputs": [
        {
          "internalType": "uint256",
          "name": "punkId",
          "type": "uint256"
        },
        {
          "internalType": "uint64",
          "name": "totalClaimableCount",
          "type": "uint64"
        },
        {
          "internalType": "uint256",
          "name": "purchasePrice",
          "type": "uint256"
        },
        {
          "internalType": "uint256",
          "name": "minReservePrice",
          "type": "uint256"
        },
        {
          "internalType": "uint256",
          "name": "maxReservePrice",
          "type": "uint256"
        }
      ],
      "name": "create",
      "outputs": [
        {
          "internalType": "uint192",
          "name": "originalId",
          "type": "uint192"
        }
      ],
      "stateMutability": "nonpayable",
      "type": "function"
    },
    {
      "inputs": [],
      "name": "cryptoPunksMarket",
      "outputs": [
        {
          "internalType": "contract ICryptoPunksMarket",
          "name": "",
          "type": "address"
        }
      ],
      "stateMutability": "view",
      "type": "function"
    },
    {
      "inputs": [
        {
          "internalType": "uint256",
          "name": "bidId",
          "type": "uint256"
        }
      ],
      "name": "finalizeAcceptedBid",
      "outputs": [],
      "stateMutability": "nonpayable",
      "type": "function"
    },
    {
      "inputs": [
        {
          "internalType": "uint256",
          "name": "bidId",
          "type": "uint256"
        }
      ],
      "name": "finalizeProposedBid",
      "outputs": [
        {
          "internalType": "enum UsingCryptoPunksMosaicRegistryStructs.BidState",
          "name": "",
          "type": "uint8"
        }
      ],
      "stateMutability": "nonpayable",
      "type": "function"
    },
    {
      "inputs": [
        {
          "internalType": "uint256",
          "name": "mosaicId",
          "type": "uint256"
        }
      ],
      "name": "fromMosaicId",
      "outputs": [
        {
          "internalType": "uint192",
          "name": "originalId",
          "type": "uint192"
        },
        {
          "internalType": "uint64",
          "name": "monoId",
          "type": "uint64"
        }
      ],
      "stateMutability": "pure",
      "type": "function"
    },
    {
      "inputs": [
        {
          "internalType": "uint256",
          "name": "tokenId",
          "type": "uint256"
        }
      ],
      "name": "getApproved",
      "outputs": [
        {
          "internalType": "address",
          "name": "",
          "type": "address"
        }
      ],
      "stateMutability": "view",
      "type": "function"
    },
    {
      "inputs": [
        {
          "internalType": "uint192",
          "name": "originalId",
          "type": "uint192"
        },
        {
          "internalType": "uint64",
          "name": "monoId",
          "type": "uint64"
        }
      ],
      "name": "getMono",
      "outputs": [
        {
          "components": [
            {
              "internalType": "uint256",
              "name": "mosaicId",
              "type": "uint256"
            },
            {
              "internalType": "uint8",
              "name": "presetId",
              "type": "uint8"
            },
            {
              "components": [
                {
                  "internalType": "uint256",
                  "name": "proposedReservePrice",
                  "type": "uint256"
                },
                {
                  "internalType": "enum UsingCryptoPunksMosaicRegistryStructs.MonoBidResponse",
                  "name": "bidResponse",
                  "type": "uint8"
                },
                {
                  "internalType": "uint256",
                  "name": "bidId",
                  "type": "uint256"
                }
              ],
              "internalType": "struct UsingCryptoPunksMosaicRegistryStructs.MonoGovernanceOptions",
              "name": "governanceOptions",
              "type": "tuple"
            }
          ],
          "internalType": "struct UsingCryptoPunksMosaicRegistryStructs.Mono",
          "name": "",
          "type": "tuple"
        }
      ],
      "stateMutability": "view",
      "type": "function"
    },
    {
      "inputs": [
        {
          "internalType": "uint256",
          "name": "mosaicId",
          "type": "uint256"
        }
      ],
      "name": "getMonoLifeCycle",
      "outputs": [
        {
          "internalType": "enum UsingCryptoPunksMosaicRegistryStructs.MonoLifeCycle",
          "name": "",
          "type": "uint8"
        }
      ],
      "stateMutability": "view",
      "type": "function"
    },
    {
      "inputs": [
        {
          "internalType": "uint192",
          "name": "originalId",
          "type": "uint192"
        }
      ],
      "name": "getOriginal",
      "outputs": [
        {
          "components": [
            {
              "internalType": "uint192",
              "name": "id",
              "type": "uint192"
            },
            {
              "internalType": "uint256",
              "name": "punkId",
              "type": "uint256"
            },
            {
              "internalType": "uint128",
              "name": "totalMonoSupply",
              "type": "uint128"
            },
            {
              "internalType": "uint128",
              "name": "claimedMonoCount",
              "type": "uint128"
            },
            {
              "internalType": "uint256",
              "name": "purchasePrice",
              "type": "uint256"
            },
            {
              "internalType": "uint256",
              "name": "minReservePrice",
              "type": "uint256"
            },
            {
              "internalType": "uint256",
              "name": "maxReservePrice",
              "type": "uint256"
            },
            {
              "internalType": "string",
              "name": "metadataBaseUri",
              "type": "string"
            },
            {
              "internalType": "enum UsingCryptoPunksMosaicRegistryStructs.OriginalStatus",
              "name": "status",
              "type": "uint8"
            },
            {
              "internalType": "uint256",
              "name": "activeBidId",
              "type": "uint256"
            }
          ],
          "internalType": "struct UsingCryptoPunksMosaicRegistryStructs.Original",
          "name": "",
          "type": "tuple"
        }
      ],
      "stateMutability": "view",
      "type": "function"
    },
    {
      "inputs": [
        {
          "internalType": "uint256",
          "name": "mosaicId",
          "type": "uint256"
        }
      ],
      "name": "getOriginalFromMosaicId",
      "outputs": [
        {
          "components": [
            {
              "internalType": "uint192",
              "name": "id",
              "type": "uint192"
            },
            {
              "internalType": "uint256",
              "name": "punkId",
              "type": "uint256"
            },
            {
              "internalType": "uint128",
              "name": "totalMonoSupply",
              "type": "uint128"
            },
            {
              "internalType": "uint128",
              "name": "claimedMonoCount",
              "type": "uint128"
            },
            {
              "internalType": "uint256",
              "name": "purchasePrice",
              "type": "uint256"
            },
            {
              "internalType": "uint256",
              "name": "minReservePrice",
              "type": "uint256"
            },
            {
              "internalType": "uint256",
              "name": "maxReservePrice",
              "type": "uint256"
            },
            {
              "internalType": "string",
              "name": "metadataBaseUri",
              "type": "string"
            },
            {
              "internalType": "enum UsingCryptoPunksMosaicRegistryStructs.OriginalStatus",
              "name": "status",
              "type": "uint8"
            },
            {
              "internalType": "uint256",
              "name": "activeBidId",
              "type": "uint256"
            }
          ],
          "internalType": "struct UsingCryptoPunksMosaicRegistryStructs.Original",
          "name": "",
          "type": "tuple"
        }
      ],
      "stateMutability": "view",
      "type": "function"
    },
    {
      "inputs": [
        {
          "internalType": "uint192",
          "name": "originalId",
          "type": "uint192"
        }
      ],
      "name": "getPerMonoResaleFund",
      "outputs": [
        {
          "internalType": "uint256",
          "name": "perMonoResaleFund",
          "type": "uint256"
        }
      ],
      "stateMutability": "view",
      "type": "function"
    },
    {
      "inputs": [
        {
          "internalType": "bytes32",
          "name": "role",
          "type": "bytes32"
        }
      ],
      "name": "getRoleAdmin",
      "outputs": [
        {
          "internalType": "bytes32",
          "name": "",
          "type": "bytes32"
        }
      ],
      "stateMutability": "view",
      "type": "function"
    },
    {
      "inputs": [
        {
          "internalType": "bytes32",
          "name": "role",
          "type": "bytes32"
        },
        {
          "internalType": "address",
          "name": "account",
          "type": "address"
        }
      ],
      "name": "grantRole",
      "outputs": [],
      "stateMutability": "nonpayable",
      "type": "function"
    },
    {
      "inputs": [
        {
          "internalType": "uint192",
          "name": "originalId",
          "type": "uint192"
        }
      ],
      "name": "hasOngoingBid",
      "outputs": [
        {
          "internalType": "bool",
          "name": "",
          "type": "bool"
        }
      ],
      "stateMutability": "view",
      "type": "function"
    },
    {
      "inputs": [
        {
          "internalType": "bytes32",
          "name": "role",
          "type": "bytes32"
        },
        {
          "internalType": "address",
          "name": "account",
          "type": "address"
        }
      ],
      "name": "hasRole",
      "outputs": [
        {
          "internalType": "bool",
          "name": "",
          "type": "bool"
        }
      ],
      "stateMutability": "view",
      "type": "function"
    },
    {
      "inputs": [],
      "name": "invalidMetadataUri",
      "outputs": [
        {
          "internalType": "string",
          "name": "",
          "type": "string"
        }
      ],
      "stateMutability": "view",
      "type": "function"
    },
    {
      "inputs": [
        {
          "internalType": "address",
          "name": "owner",
          "type": "address"
        },
        {
          "internalType": "address",
          "name": "operator",
          "type": "address"
        }
      ],
      "name": "isApprovedForAll",
      "outputs": [
        {
          "internalType": "bool",
          "name": "",
          "type": "bool"
        }
      ],
      "stateMutability": "view",
      "type": "function"
    },
    {
      "inputs": [
        {
          "internalType": "uint192",
          "name": "originalId",
          "type": "uint192"
        }
      ],
      "name": "isBidAcceptable",
      "outputs": [
        {
          "internalType": "bool",
          "name": "",
          "type": "bool"
        }
      ],
      "stateMutability": "view",
      "type": "function"
    },
    {
      "inputs": [
        {
          "internalType": "uint192",
          "name": "",
          "type": "uint192"
        }
      ],
      "name": "latestMonoIds",
      "outputs": [
        {
          "internalType": "uint64",
          "name": "",
          "type": "uint64"
        }
      ],
      "stateMutability": "view",
      "type": "function"
    },
    {
      "inputs": [],
      "name": "latestOriginalId",
      "outputs": [
        {
          "internalType": "uint192",
          "name": "",
          "type": "uint192"
        }
      ],
      "stateMutability": "view",
      "type": "function"
    },
    {
      "inputs": [
        {
          "internalType": "address",
          "name": "contributor",
          "type": "address"
        },
        {
          "internalType": "uint192",
          "name": "originalId",
          "type": "uint192"
        }
      ],
      "name": "mint",
      "outputs": [
        {
          "internalType": "uint256",
          "name": "mosaicId",
          "type": "uint256"
        }
      ],
      "stateMutability": "nonpayable",
      "type": "function"
    },
    {
      "inputs": [
        {
          "internalType": "uint256",
          "name": "",
          "type": "uint256"
        }
      ],
      "name": "monos",
      "outputs": [
        {
          "internalType": "uint256",
          "name": "mosaicId",
          "type": "uint256"
        },
        {
          "internalType": "uint8",
          "name": "presetId",
          "type": "uint8"
        },
        {
          "components": [
            {
              "internalType": "uint256",
              "name": "proposedReservePrice",
              "type": "uint256"
            },
            {
              "internalType": "enum UsingCryptoPunksMosaicRegistryStructs.MonoBidResponse",
              "name": "bidResponse",
              "type": "uint8"
            },
            {
              "internalType": "uint256",
              "name": "bidId",
              "type": "uint256"
            }
          ],
          "internalType": "struct UsingCryptoPunksMosaicRegistryStructs.MonoGovernanceOptions",
          "name": "governanceOptions",
          "type": "tuple"
        }
      ],
      "stateMutability": "view",
      "type": "function"
    },
    {
      "inputs": [],
      "name": "name",
      "outputs": [
        {
          "internalType": "string",
          "name": "",
          "type": "string"
        }
      ],
      "stateMutability": "view",
      "type": "function"
    },
    {
      "inputs": [
        {
          "internalType": "uint192",
          "name": "",
          "type": "uint192"
        }
      ],
      "name": "originals",
      "outputs": [
        {
          "internalType": "uint192",
          "name": "id",
          "type": "uint192"
        },
        {
          "internalType": "uint256",
          "name": "punkId",
          "type": "uint256"
        },
        {
          "internalType": "uint128",
          "name": "totalMonoSupply",
          "type": "uint128"
        },
        {
          "internalType": "uint128",
          "name": "claimedMonoCount",
          "type": "uint128"
        },
        {
          "internalType": "uint256",
          "name": "purchasePrice",
          "type": "uint256"
        },
        {
          "internalType": "uint256",
          "name": "minReservePrice",
          "type": "uint256"
        },
        {
          "internalType": "uint256",
          "name": "maxReservePrice",
          "type": "uint256"
        },
        {
          "internalType": "string",
          "name": "metadataBaseUri",
          "type": "string"
        },
        {
          "internalType": "enum UsingCryptoPunksMosaicRegistryStructs.OriginalStatus",
          "name": "status",
          "type": "uint8"
        },
        {
          "internalType": "uint256",
          "name": "activeBidId",
          "type": "uint256"
        }
      ],
      "stateMutability": "view",
      "type": "function"
    },
    {
      "inputs": [
        {
          "internalType": "uint256",
          "name": "tokenId",
          "type": "uint256"
        }
      ],
      "name": "ownerOf",
      "outputs": [
        {
          "internalType": "address",
          "name": "",
          "type": "address"
        }
      ],
      "stateMutability": "view",
      "type": "function"
    },
    {
      "inputs": [
        {
          "internalType": "uint256",
          "name": "mosaicId",
          "type": "uint256"
        },
        {
          "internalType": "uint256",
          "name": "price",
          "type": "uint256"
        }
      ],
      "name": "proposeReservePrice",
      "outputs": [],
      "stateMutability": "nonpayable",
      "type": "function"
    },
    {
      "inputs": [
        {
          "internalType": "uint256",
          "name": "bidId",
          "type": "uint256"
        }
      ],
      "name": "refundBidDeposit",
      "outputs": [],
      "stateMutability": "nonpayable",
      "type": "function"
    },
    {
      "inputs": [
        {
          "internalType": "uint192",
          "name": "originalId",
          "type": "uint192"
        }
      ],
      "name": "refundOnSold",
      "outputs": [
        {
          "internalType": "uint256",
          "name": "totalResaleFund",
          "type": "uint256"
        }
      ],
      "stateMutability": "nonpayable",
      "type": "function"
    },
    {
      "inputs": [
        {
          "internalType": "bytes32",
          "name": "role",
          "type": "bytes32"
        },
        {
          "internalType": "address",
          "name": "account",
          "type": "address"
        }
      ],
      "name": "renounceRole",
      "outputs": [],
      "stateMutability": "nonpayable",
      "type": "function"
    },
    {
      "inputs": [
        {
          "internalType": "uint192",
          "name": "",
          "type": "uint192"
        }
      ],
      "name": "resalePrices",
      "outputs": [
        {
          "internalType": "uint256",
          "name": "",
          "type": "uint256"
        }
      ],
      "stateMutability": "view",
      "type": "function"
    },
    {
      "inputs": [
        {
          "internalType": "uint256",
          "name": "mosaicId",
          "type": "uint256"
        },
        {
          "internalType": "enum UsingCryptoPunksMosaicRegistryStructs.MonoBidResponse",
          "name": "response",
          "type": "uint8"
        }
      ],
      "name": "respondToBid",
      "outputs": [],
      "stateMutability": "nonpayable",
      "type": "function"
    },
    {
      "inputs": [
        {
          "internalType": "bytes32",
          "name": "role",
          "type": "bytes32"
        },
        {
          "internalType": "address",
          "name": "account",
          "type": "address"
        }
      ],
      "name": "revokeRole",
      "outputs": [],
      "stateMutability": "nonpayable",
      "type": "function"
    },
    {
      "inputs": [
        {
          "internalType": "address",
          "name": "from",
          "type": "address"
        },
        {
          "internalType": "address",
          "name": "to",
          "type": "address"
        },
        {
          "internalType": "uint256",
          "name": "tokenId",
          "type": "uint256"
        }
      ],
      "name": "safeTransferFrom",
      "outputs": [],
      "stateMutability": "nonpayable",
      "type": "function"
    },
    {
      "inputs": [
        {
          "internalType": "address",
          "name": "from",
          "type": "address"
        },
        {
          "internalType": "address",
          "name": "to",
          "type": "address"
        },
        {
          "internalType": "uint256",
          "name": "tokenId",
          "type": "uint256"
        },
        {
          "internalType": "bytes",
          "name": "data",
          "type": "bytes"
        }
      ],
      "name": "safeTransferFrom",
      "outputs": [],
      "stateMutability": "nonpayable",
      "type": "function"
    },
    {
      "inputs": [
        {
          "internalType": "address",
          "name": "operator",
          "type": "address"
        },
        {
          "internalType": "bool",
          "name": "approved",
          "type": "bool"
        }
      ],
      "name": "setApprovalForAll",
      "outputs": [],
      "stateMutability": "nonpayable",
      "type": "function"
    },
    {
      "inputs": [
        {
          "internalType": "string",
          "name": "_uri",
          "type": "string"
        }
      ],
      "name": "setInvalidMetadataUri",
      "outputs": [],
      "stateMutability": "nonpayable",
      "type": "function"
    },
    {
      "inputs": [
        {
          "internalType": "uint192",
          "name": "originalId",
          "type": "uint192"
        },
        {
          "internalType": "string",
          "name": "_uri",
          "type": "string"
        }
      ],
      "name": "setMetadataBaseUri",
      "outputs": [],
      "stateMutability": "nonpayable",
      "type": "function"
    },
    {
      "inputs": [
        {
          "internalType": "uint256",
          "name": "mosaicId",
          "type": "uint256"
        },
        {
          "internalType": "uint8",
          "name": "presetId",
          "type": "uint8"
        }
      ],
      "name": "setPresetId",
      "outputs": [],
      "stateMutability": "nonpayable",
      "type": "function"
    },
    {
      "inputs": [
        {
          "internalType": "uint192",
          "name": "originalId",
          "type": "uint192"
        }
      ],
      "name": "sumBidResponses",
      "outputs": [
        {
          "internalType": "uint64",
          "name": "yes",
          "type": "uint64"
        },
        {
          "internalType": "uint64",
          "name": "no",
          "type": "uint64"
        }
      ],
      "stateMutability": "view",
      "type": "function"
    },
    {
      "inputs": [
        {
          "internalType": "uint192",
          "name": "originalId",
          "type": "uint192"
        }
      ],
      "name": "sumReservePriceProposals",
      "outputs": [
        {
          "internalType": "uint64",
          "name": "validProposalCount",
          "type": "uint64"
        },
        {
          "internalType": "uint256",
          "name": "priceSum",
          "type": "uint256"
        }
      ],
      "stateMutability": "view",
      "type": "function"
    },
    {
      "inputs": [
        {
          "internalType": "bytes4",
          "name": "interfaceId",
          "type": "bytes4"
        }
      ],
      "name": "supportsInterface",
      "outputs": [
        {
          "internalType": "bool",
          "name": "",
          "type": "bool"
        }
      ],
      "stateMutability": "view",
      "type": "function"
    },
    {
      "inputs": [],
      "name": "symbol",
      "outputs": [
        {
          "internalType": "string",
          "name": "",
          "type": "string"
        }
      ],
      "stateMutability": "view",
      "type": "function"
    },
    {
      "inputs": [
        {
          "internalType": "uint192",
          "name": "originalId",
          "type": "uint192"
        },
        {
          "internalType": "uint64",
          "name": "monoId",
          "type": "uint64"
        }
      ],
      "name": "toMosaicId",
      "outputs": [
        {
          "internalType": "uint256",
          "name": "mosaicId",
          "type": "uint256"
        }
      ],
      "stateMutability": "pure",
      "type": "function"
    },
    {
      "inputs": [
        {
          "internalType": "uint256",
          "name": "mosaicId",
          "type": "uint256"
        }
      ],
      "name": "tokenURI",
      "outputs": [
        {
          "internalType": "string",
          "name": "",
          "type": "string"
        }
      ],
      "stateMutability": "view",
      "type": "function"
    },
    {
      "inputs": [
        {
          "internalType": "address",
          "name": "from",
          "type": "address"
        },
        {
          "internalType": "address",
          "name": "to",
          "type": "address"
        },
        {
          "internalType": "uint256",
          "name": "tokenId",
          "type": "uint256"
        }
      ],
      "name": "transferFrom",
      "outputs": [],
      "stateMutability": "nonpayable",
      "type": "function"
    }
  ],
  "transactionHash": "0xf7c48d3d235ee9a33dd61f49df8f622e15afb464c25ac72cf808aa1479955221",
  "args": [
    "0x4eF26a3129b91Ee21d5E9Ed963e6549B531C3744",
    "0x16C2980c709900003Aabbdd687aC7A3498D1E955"
  ],
  "numDeployments": 2,
  "solcInputHash": "5a5a33568f95fff03d28e834aaa4c986",
  "bytecode": "0x60a06040523480156200001157600080fd5b5060405162004a4d38038062004a4d8339810160408190526200003491620001b6565b6040518060400160405280601281526020017143727970746f50756e6b73204d6f7361696360701b8152506040518060400160405280600b81526020016a50554e4b534d4f5341494360a81b815250816000908162000094919062000293565b506001620000a3828262000293565b50620000b591506000905033620000f4565b620000e17f9f2df0fed2c77648de5860a4cc508cd0818c85b8b8a1ab4ceeef8d981c8956a683620000f4565b6001600160a01b0316608052506200035f565b60008281526006602090815260408083206001600160a01b038516845290915290205460ff16620001955760008281526006602090815260408083206001600160a01b03851684529091529020805460ff19166001179055620001543390565b6001600160a01b0316816001600160a01b0316837f2f8788117e7eff1d82e926ec794901d17c78024a50270940304540a733656f0d60405160405180910390a45b5050565b80516001600160a01b0381168114620001b157600080fd5b919050565b60008060408385031215620001ca57600080fd5b620001d58362000199565b9150620001e56020840162000199565b90509250929050565b634e487b7160e01b600052604160045260246000fd5b600181811c908216806200021957607f821691505b6020821081036200023a57634e487b7160e01b600052602260045260246000fd5b50919050565b601f8211156200028e57600081815260208120601f850160051c81016020861015620002695750805b601f850160051c820191505b818110156200028a5782815560010162000275565b5050505b505050565b81516001600160401b03811115620002af57620002af620001ee565b620002c781620002c0845462000204565b8462000240565b602080601f831160018114620002ff5760008415620002e65750858301515b600019600386901b1c1916600185901b1785556200028a565b600085815260208120601f198616915b8281101562000330578886015182559484019460019091019084016200030f565b50858210156200034f5787850151600019600388901b60f8161c191681555b5050505050600190811b01905550565b6080516146c46200038960003960008181610ad0015281816118090152611a3d01526146c46000f3fe6080604052600436106103355760003560e01c806376016f4b116101ab578063a5627d9a116100f7578063d0d851d011610095578063d547741f1161006f578063d547741f14610b46578063e6428a2b14610b66578063e985e9c514610b95578063f3c340cd14610bde57600080fd5b8063d0d851d014610abe578063d42de9aa14610af2578063d539139314610b1257600080fd5b8063b88d4fde116100d1578063b88d4fde14610a11578063bf4dc67514610a31578063c01efa5314610a5e578063c87b56dd14610a9e57600080fd5b8063a5627d9a146109a4578063ac8d6168146109c4578063af4a6c0c146109f157600080fd5b80639399280811610164578063993a37901161013e578063993a3790146108f4578063a217fddf14610921578063a22cb46514610936578063a39147ab1461095657600080fd5b8063939928081461087c57806395d89b41146108b2578063970525dd146108c757600080fd5b806376016f4b146107c957806379c07a39146107e957806379f5f153146108095780638310a7da1461081c5780638902436a1461083c57806391d148541461085c57600080fd5b8063326d0367116102855780634c905789116102235780635d7b88f6116101fd5780635d7b88f61461072a5780636352211e1461074a57806364f4e5ef1461076a57806370a08231146107a957600080fd5b80634c9057891461067e578063512137ed146106ab57806354cefb23146106e357600080fd5b80633a0e75551161025f5780633a0e75551461059857806342842e0e146105b85780634423c5f1146105d85780634bb722c61461066857600080fd5b8063326d036714610538578063342834f71461055857806336568abe1461057857600080fd5b80631df46de7116102f2578063248a9ca3116102cc578063248a9ca31461049b5780632594c224146104cb5780632f2ff15d146104eb57806331e781da1461050b57600080fd5b80631df46de71461042d5780632062f2e41461044d57806323b872dd1461047b57600080fd5b806301ffc9a71461033a57806306fdde031461036f578063081812fc14610391578063095ea7b3146103c95780630e6a929c146103eb57806318d6a5e714610418575b600080fd5b34801561034657600080fd5b5061035a610355366004613962565b610bfe565b60405190151581526020015b60405180910390f35b34801561037b57600080fd5b50610384610c1e565b60405161036691906139cf565b34801561039d57600080fd5b506103b16103ac3660046139e2565b610cb0565b6040516001600160a01b039091168152602001610366565b3480156103d557600080fd5b506103e96103e4366004613a10565b610cd7565b005b3480156103f757600080fd5b5061040b6104063660046139e2565b610df1565b6040516103669190613a62565b34801561042457600080fd5b50610384610e75565b34801561043957600080fd5b506103e9610448366004613a75565b610f03565b34801561045957600080fd5b5061046d610468366004613ac5565b610fea565b604051908152602001610366565b34801561048757600080fd5b506103e9610496366004613afa565b611223565b3480156104a757600080fd5b5061046d6104b63660046139e2565b60009081526006602052604090206001015490565b3480156104d757600080fd5b5061046d6104e6366004613b3b565b611254565b3480156104f757600080fd5b506103e9610506366004613b56565b6112f5565b34801561051757600080fd5b5061052b6105263660046139e2565b61131a565b6040516103669190613b8f565b34801561054457600080fd5b506103e9610553366004613c48565b61148d565b34801561056457600080fd5b506103e96105733660046139e2565b611562565b34801561058457600080fd5b506103e9610593366004613b56565b61169d565b3480156105a457600080fd5b506103e96105b33660046139e2565b61171b565b3480156105c457600080fd5b506103e96105d3366004613afa565b611880565b3480156105e457600080fd5b506106556105f33660046139e2565b600c602052600090815260409020805460018201546002830154600384015460049094015492936001600160a01b03909216926001600160c01b03909116919064ffffffffff80821691600160281b810490911690600160501b900460ff1687565b6040516103669796959493929190613c7a565b34801561067457600080fd5b5061046d6113ec81565b34801561068a57600080fd5b5061069e6106993660046139e2565b61189b565b6040516103669190613cd4565b3480156106b757600080fd5b506106cb6106c6366004613cf9565b6119f1565b6040516001600160c01b039091168152602001610366565b3480156106ef57600080fd5b506107036106fe3660046139e2565b611cdd565b604080516001600160c01b0390931683526001600160401b03909116602083015201610366565b34801561073657600080fd5b506008546106cb906001600160c01b031681565b34801561075657600080fd5b506103b16107653660046139e2565b611d0d565b34801561077657600080fd5b5061078a610785366004613b3b565b611d6d565b604080516001600160401b039093168352602083019190915201610366565b3480156107b557600080fd5b5061046d6107c4366004613d3f565b611e15565b3480156107d557600080fd5b5061052b6107e4366004613b3b565b611e9b565b3480156107f557600080fd5b506103e9610804366004613d5c565b611ffb565b61046d610817366004613d87565b612052565b34801561082857600080fd5b5061035a610837366004613b3b565b6123be565b34801561084857600080fd5b5061046d610857366004613b3b565b612414565b34801561086857600080fd5b5061035a610877366004613b56565b612565565b34801561088857600080fd5b5061089c610897366004613b3b565b612590565b6040516103669a99989796959493929190613da3565b3480156108be57600080fd5b50610384612681565b3480156108d357600080fd5b506108e76108e2366004613e1d565b612690565b6040516103669190613e69565b34801561090057600080fd5b5061046d61090f366004613b3b565b600e6020526000908152604090205481565b34801561092d57600080fd5b5061046d600081565b34801561094257600080fd5b506103e9610951366004613e94565b612732565b34801561096257600080fd5b5061098c610971366004613b3b565b600a602052600090815260409020546001600160401b031681565b6040516001600160401b039091168152602001610366565b3480156109b057600080fd5b506103e96109bf366004613f0f565b61273d565b3480156109d057600080fd5b506109db62093a8081565b60405164ffffffffff9091168152602001610366565b3480156109fd57600080fd5b5061046d610a0c366004613e1d565b612777565b348015610a1d57600080fd5b506103e9610a2c366004613f77565b612795565b348015610a3d57600080fd5b5061046d610a4c3660046139e2565b600d6020526000908152604090205481565b348015610a6a57600080fd5b50610a7e610a79366004613b3b565b6127cd565b604080516001600160401b03938416815292909116602083015201610366565b348015610aaa57600080fd5b50610384610ab93660046139e2565b6128e1565b348015610aca57600080fd5b506103b17f000000000000000000000000000000000000000000000000000000000000000081565b348015610afe57600080fd5b5061035a610b0d366004613b3b565b612aaf565b348015610b1e57600080fd5b5061046d7f9f2df0fed2c77648de5860a4cc508cd0818c85b8b8a1ab4ceeef8d981c8956a681565b348015610b5257600080fd5b506103e9610b61366004613b56565b612b2c565b348015610b7257600080fd5b50610b86610b813660046139e2565b612b51565b60405161036693929190614056565b348015610ba157600080fd5b5061035a610bb0366004614073565b6001600160a01b03918216600090815260056020908152604080832093909416825291909152205460ff1690565b348015610bea57600080fd5b506103e9610bf93660046140a1565b612bc7565b6000610c0982612bdf565b80610c185750610c1882612c2f565b92915050565b606060008054610c2d906140e2565b80601f0160208091040260200160405190810160405280929190818152602001828054610c59906140e2565b8015610ca65780601f10610c7b57610100808354040283529160200191610ca6565b820191906000526020600020905b815481529060010190602001808311610c8957829003601f168201915b5050505050905090565b6000610cbb82612c54565b506000908152600460205260409020546001600160a01b031690565b6000610ce282611d0d565b9050806001600160a01b0316836001600160a01b031603610d545760405162461bcd60e51b815260206004820152602160248201527f4552433732313a20617070726f76616c20746f2063757272656e74206f776e656044820152603960f91b60648201526084015b60405180910390fd5b336001600160a01b0382161480610d705750610d708133610bb0565b610de25760405162461bcd60e51b815260206004820152603d60248201527f4552433732313a20617070726f76652063616c6c6572206973206e6f7420746f60448201527f6b656e206f776e6572206f7220617070726f76656420666f7220616c6c0000006064820152608401610d4b565b610dec8383612cb6565b505050565b6000818152600b6020526040812081610e0984611cdd565b506001600160c01b03811660009081526009602052604090209091506001600782015460ff166001811115610e4057610e40613a3c565b03610e5057506002949350505050565b600183015460ff16600003610e6a57506000949350505050565b506001949350505050565b60078054610e82906140e2565b80601f0160208091040260200160405190810160405280929190818152602001828054610eae906140e2565b8015610efb5780601f10610ed057610100808354040283529160200191610efb565b820191906000526020600020905b815481529060010190602001808311610ede57829003601f168201915b505050505081565b8133610f0e82611d0d565b6001600160a01b031614610f345760405162461bcd60e51b8152600401610d4b9061411c565b6000610f3f84611cdd565b509050610f4b81612aaf565b610f885760405162461bcd60e51b815260206004820152600e60248201526d4e6f20626964206f6e676f696e6760901b6044820152606401610d4b565b6000848152600b602090815260408083206001600160c01b0385168452600990925290912060080154600482015560038101805460029283019286929160ff1916906001908490811115610fde57610fde613a3c565b02179055505050505050565b60007f9f2df0fed2c77648de5860a4cc508cd0818c85b8b8a1ab4ceeef8d981c8956a661101681612d24565b6001600160c01b0383166000908152600a60205260409020546001600160401b031661108f5760405162461bcd60e51b815260206004820152602260248201527f4f726967696e616c206d75737420626520696e697469616c697a6564206669726044820152611cdd60f21b6064820152608401610d4b565b6001600160c01b0383166000908152600a6020526040812080546001600160401b031690826110bd8361415f565b91906101000a8154816001600160401b0302191690836001600160401b0316021790555090506110ed8482612777565b92506040518060600160405280848152602001600060ff1681526020016040518060600160405280600081526020016000600281111561112f5761112f613a3c565b81526000602091820181905291909252858152600b825260409081902083518155838301516001808301805460ff90931660ff19938416179055928501518051600280850191825595820151600385018054959793969295919490939116919084908111156111a0576111a0613a3c565b02179055506040918201516002918201556001600160c01b0388166000908152600960205291909120018054600160801b90046001600160801b03169250905060106111eb83614185565b91906101000a8154816001600160801b0302191690836001600160801b031602179055505061121a8584612d2e565b505b5092915050565b61122d3382612d48565b6112495760405162461bcd60e51b8152600401610d4b906141a1565b610dec838383612dc6565b6001600160c01b0381166000908152600e6020526040812054806112b05760405162461bcd60e51b8152602060048201526013602482015272139bc81c995cd85b19481c1c9a58d9481cd95d606a1b6044820152606401610d4b565b6001600160c01b0383166000908152600960205260408120600201546112e1906001600160801b03166127106141ee565b90506112ed8282612f37565b949350505050565b60008281526006602052604090206001015461131081612d24565b610dec8383612f6f565b6113226138ba565b600061132d83611cdd565b506001600160c01b038082166000908152600960209081526040918290208251610140810184528154909416845260018101549184019190915260028101546001600160801b0380821693850193909352600160801b9004909116606083015260038101546080830152600481015460a0830152600581015460c08301526006810180549394509192909160e08401916113c6906140e2565b80601f01602080910402602001604051908101604052809291908181526020018280546113f2906140e2565b801561143f5780601f106114145761010080835404028352916020019161143f565b820191906000526020600020905b81548152906001019060200180831161142257829003601f168201915b5050509183525050600782015460209091019060ff16600181111561146657611466613a3c565b600181111561147757611477613a3c565b8152602001600882015481525050915050919050565b813361149882611d0d565b6001600160a01b0316146114be5760405162461bcd60e51b8152600401610d4b9061411c565b60006114c984611cdd565b506001600160c01b038116600090815260096020526040902060048101549192509084108015906114fe575080600501548411155b61154a5760405162461bcd60e51b815260206004820152601860248201527f4d7573742062652077697468696e207468652072616e676500000000000000006044820152606401610d4b565b5050506000918252600b602052604090912060020155565b6000818152600c602052604090206002600482810154600160501b900460ff169081111561159257611592613a3c565b146115ea5760405162461bcd60e51b815260206004820152602260248201527f4f6e6c792072656a656374656420626964732063616e20626520726566756e64604482015261195960f21b6064820152608401610d4b565b6000828152600d6020526040808220549051909190339083908381818185875af1925050503d806000811461163b576040519150601f19603f3d011682016040523d82523d6000602084013e611640565b606091505b50509050806116845760405162461bcd60e51b815260206004820152601060248201526f11985a5b1959081d1bc81c99599d5b9960821b6044820152606401610d4b565b5050600401805460ff60501b1916600160521b17905550565b6001600160a01b038116331461170d5760405162461bcd60e51b815260206004820152602f60248201527f416363657373436f6e74726f6c3a2063616e206f6e6c792072656e6f756e636560448201526e103937b632b9903337b91039b2b63360891b6064820152608401610d4b565b6117178282612ff5565b5050565b6000818152600c602052604090206001600482810154600160501b900460ff169081111561174b5761174b613a3c565b1461178f5760405162461bcd60e51b8152602060048201526014602482015273109a59081b5d5cdd081899481858d8d95c1d195960621b6044820152606401610d4b565b60028101546001600160c01b039081166000908152600960209081526040808320600386015481549095168452600e909252918290209290925560078201805460ff19166001908117909155808401549083015491516322dca8bb60e21b81526001600160a01b03918216600482015260248101929092527f00000000000000000000000000000000000000000000000000000000000000001690638b72a2ec90604401600060405180830381600087803b15801561184d57600080fd5b505af1158015611861573d6000803e3d6000fd5b50505050600491909101805460ff60501b1916600360501b1790555050565b610dec83838360405180602001604052806000815250612795565b6000818152600c6020526040812081600482810154600160501b900460ff16908111156118ca576118ca613a3c565b146119235760405162461bcd60e51b8152602060048201526024808201527f4f6e6c79206269647320696e2070726f706f73616c2063616e20626520757064604482015263185d195960e21b6064820152608401610d4b565b600481015442906119449064ffffffffff600160281b820481169116614210565b64ffffffffff161061198e5760405162461bcd60e51b815260206004820152601360248201527242696420766f7465206973206f6e676f696e6760681b6044820152606401610d4b565b60028101546119a5906001600160c01b03166123be565b6119b05760026119b3565b60015b81600401600a6101000a81548160ff021916908360048111156119d8576119d8613a3c565b021790555060040154600160501b900460ff1692915050565b60007f9f2df0fed2c77648de5860a4cc508cd0818c85b8b8a1ab4ceeef8d981c8956a6611a1d81612d24565b604051630b02f02d60e31b81526004810188905230906001600160a01b037f00000000000000000000000000000000000000000000000000000000000000001690635817816890602401602060405180830381865afa158015611a84573d6000803e3d6000fd5b505050506040513d601f19601f82011682018060405250810190611aa8919061422e565b6001600160a01b031614611afe5760405162461bcd60e51b815260206004820152601e60248201527f54686520636f6e7472616374206d757374206f776e207468652070756e6b00006044820152606401610d4b565b60088054600090611b17906001600160c01b031661424b565b82546001600160c01b038083166101009490940a848102910219909116179092556000908152600a60205260408120805492945091611b5e906001600160401b031661415f565b91906101000a8154816001600160401b0302191690836001600160401b03160217905550604051806101400160405280836001600160c01b03168152602001888152602001876001600160401b03166001600160801b0316815260200160006001600160801b0316815260200186815260200185815260200184815260200160405180602001604052806000815250815260200160006001811115611c0557611c05613a3c565b8152600060209182018190526001600160c01b038086168252600983526040918290208451815492166001600160c01b031990921691909117815591830151600183015582015160608301516001600160801b03908116600160801b0291161760028201556080820151600382015560a0820151600482015560c0820151600582015560e08201516006820190611c9c90826142b5565b5061010082015160078201805460ff191660018381811115611cc057611cc0613a3c565b021790555061012082015181600801559050505095945050505050565b600080604083901c600160406001611cf59190614374565b6001901b611d039190614387565b9094931692915050565b6000818152600260205260408120546001600160a01b031680610c185760405162461bcd60e51b8152602060048201526018602482015277115490cdcc8c4e881a5b9d985b1a59081d1bdad95b88125160421b6044820152606401610d4b565b6001600160c01b0381166000908152600a602052604081205481906001600160401b031660015b816001600160401b0316816001600160401b03161015611e0e576000600b6000611dbe8885612777565b81526020810191909152604001600020600281015490915015611dfb5784611de58161415f565b6002830154909650611df8915085614374565b93505b5080611e068161415f565b915050611d94565b5050915091565b60006001600160a01b038216611e7f5760405162461bcd60e51b815260206004820152602960248201527f4552433732313a2061646472657373207a65726f206973206e6f7420612076616044820152683634b21037bbb732b960b91b6064820152608401610d4b565b506001600160a01b031660009081526003602052604090205490565b611ea36138ba565b6001600160c01b038083166000908152600960209081526040918290208251610140810184528154909416845260018101549184019190915260028101546001600160801b0380821693850193909352600160801b9004909116606083015260038101546080830152600481015460a0830152600581015460c083015260068101805460e084019190611f35906140e2565b80601f0160208091040260200160405190810160405280929190818152602001828054611f61906140e2565b8015611fae5780601f10611f8357610100808354040283529160200191611fae565b820191906000526020600020905b815481529060010190602001808311611f9157829003601f168201915b5050509183525050600782015460209091019060ff166001811115611fd557611fd5613a3c565b6001811115611fe657611fe6613a3c565b81526020016008820154815250509050919050565b813361200682611d0d565b6001600160a01b03161461202c5760405162461bcd60e51b8152600401610d4b9061411c565b506000918252600b6020526040909120600101805460ff191660ff909216919091179055565b600082816001600160c01b03821660009081526009602052604090206007015460ff16600181111561208657612086613a3c565b146120c05760405162461bcd60e51b815260206004820152600a6024820152694e6f742061637469766560b01b6044820152606401610d4b565b6001600160c01b0384166000908152600960205260409020600481015484108015906120f0575080600501548411155b6121555760405162461bcd60e51b815260206004820152603060248201527f426964207072696365206d7573742062652077697468696e207468652072657360448201526f657276652070726963652072616e676560801b6064820152608401610d4b565b8334146121b25760405162461bcd60e51b815260206004820152602560248201527f4d7573742073656e64207468652065786163742076616c75652061732070726f6044820152641c1bdcd95960da1b6064820152608401610d4b565b600881015480156122375760006121c88261189b565b905060028160048111156121de576121de613a3c565b146122355760405162461bcd60e51b815260206004820152602160248201527f5468652070726576696f757320626964206d7573742062652072656a656374656044820152601960fa1b6064820152608401610d4b565b505b604080519087901b67ffffffffffffffff191660208201523360601b6bffffffffffffffffffffffff191660388201524260d81b6001600160d81b031916604c82015260009060510160408051808303601f19018152828252805160209182012060e084018352808452338285019081526001600160c01b038c8116868601908152606087018d81524264ffffffffff90811660808a0190815262093a8060a08b01908152600060c08c01818152898252600c909a52999099208a51815595516001870180546001600160a01b0319166001600160a01b0390921691909117905592516002860180546001600160c01b03191691909516179093555160038401555160048084018054975192841669ffffffffffffffffffff1990981697909717600160281b92909316919091029190911780865593519296509093919260ff60501b191690600160501b90849081111561239457612394613a3c565b021790555050506000818152600d6020526040902034905560089092018290555091505092915050565b6000806123ca836127cd565b506001600160c01b0384166000908152600960205260409020600201549091506001600160801b03166123ff816113ec612f37565b826001600160401b0316101592505050919050565b6001600160c01b0381166000908152600a602052604081205481906001600160401b031660015b816001600160401b0316816001600160401b031610156124bb5760006124618683612777565b905033612483826000908152600260205260409020546001600160a01b031690565b6001600160a01b0316036124a85761249a8161305c565b836124a48161439a565b9450505b50806124b38161415f565b91505061243b565b506124c584611254565b6124cf90836143b3565b604051909350600090339085908381818185875af1925050503d8060008114612514576040519150601f19603f3d011682016040523d82523d6000602084013e612519565b606091505b505090508061255d5760405162461bcd60e51b815260206004820152601060248201526f11985a5b1959081d1bc81c99599d5b9960821b6044820152606401610d4b565b505050919050565b60009182526006602090815260408084206001600160a01b0393909316845291905290205460ff1690565b60096020526000908152604090208054600182015460028301546003840154600485015460058601546006870180546001600160c01b039097169795966001600160801b0380871697600160801b909704169591906125ee906140e2565b80601f016020809104026020016040519081016040528092919081815260200182805461261a906140e2565b80156126675780601f1061263c57610100808354040283529160200191612667565b820191906000526020600020905b81548152906001019060200180831161264a57829003601f168201915b505050506007830154600890930154919260ff169190508a565b606060018054610c2d906140e2565b61269861390e565b600b60006126a68585612777565b8152602080820192909252604090810160002081516060808201845282548252600183015460ff908116838701528451918201855260028085018054845260038601549497959688019593949093850192169081111561270857612708613a3c565b600281111561271957612719613a3c565b8152600291909101546020909101529052509392505050565b6117173383836130ff565b600061274881612d24565b6001600160c01b03841660009081526009602052604090206006810161276f8486836143ca565b505050505050565b6001600160401b031660409190911b67ffffffffffffffff19161790565b61279f3383612d48565b6127bb5760405162461bcd60e51b8152600401610d4b906141a1565b6127c7848484846131cd565b50505050565b6000806127d983612aaf565b6127e857506000928392509050565b6001600160c01b0383166000908152600a60209081526040808320546009909252909120600801546001600160401b039091169060015b826001600160401b0316816001600160401b031610156128d9576000600b60006128498985612777565b81526020019081526020016000206002019050828160020154036128c65760018082015460ff16600281111561288157612881613a3c565b0361289857856128908161415f565b9650506128c6565b6002600182015460ff1660028111156128b3576128b3613a3c565b036128c657846128c28161415f565b9550505b50806128d18161415f565b91505061281f565b505050915091565b606060006128ee83611cdd565b506001600160c01b03811660009081526009602052604090209091506001600782015460ff16600181111561292557612925613a3c565b036129be5760078054612937906140e2565b80601f0160208091040260200160405190810160405280929190818152602001828054612963906140e2565b80156129b05780601f10612985576101008083540402835291602001916129b0565b820191906000526020600020905b81548152906001019060200180831161299357829003601f168201915b505050505092505050919050565b60008160060180546129cf906140e2565b80601f01602080910402602001604051908101604052809291908181526020018280546129fb906140e2565b8015612a485780601f10612a1d57610100808354040283529160200191612a48565b820191906000526020600020905b815481529060010190602001808311612a2b57829003601f168201915b5050506000888152600b602052604090206001908101549086015493945060ff1692849250612a779150613200565b612a838360ff16613200565b604051602001612a959392919061448a565b604051602081830303815290604052945050505050919050565b6001600160c01b038116600090815260096020908152604080832060080154808452600c90925282208115801590612af3575060018101546001600160a01b031615155b80156112ed575060048101544290612b1b9064ffffffffff600160281b820481169116614210565b64ffffffffff161015949350505050565b600082815260066020526040902060010154612b4781612d24565b610dec8383612ff5565b600b60209081526000918252604091829020805460018201548451606081019095526002808401805487526003850154939660ff938416969094919390850192911690811115612ba357612ba3613a3c565b6002811115612bb457612bb4613a3c565b8152602001600282015481525050905083565b6000612bd281612d24565b60076127c78385836143ca565b60006001600160e01b031982166380ac58cd60e01b1480612c1057506001600160e01b03198216635b5e139f60e01b145b80610c1857506301ffc9a760e01b6001600160e01b0319831614610c18565b60006001600160e01b03198216637965db0b60e01b1480610c185750610c1882612bdf565b6000818152600260205260409020546001600160a01b0316612cb35760405162461bcd60e51b8152602060048201526018602482015277115490cdcc8c4e881a5b9d985b1a59081d1bdad95b88125160421b6044820152606401610d4b565b50565b600081815260046020526040902080546001600160a01b0319166001600160a01b0384169081179091558190612ceb82611d0d565b6001600160a01b03167f8c5be1e5ebec7d5bd14f71427d1e84f3dd0314c0f7b2291e5b200ac8c7c3b92560405160405180910390a45050565b612cb38133613292565b6117178282604051806020016040528060008152506132eb565b600080612d5483611d0d565b9050806001600160a01b0316846001600160a01b03161480612d9b57506001600160a01b0380821660009081526005602090815260408083209388168352929052205460ff165b806112ed5750836001600160a01b0316612db484610cb0565b6001600160a01b031614949350505050565b826001600160a01b0316612dd982611d0d565b6001600160a01b031614612dff5760405162461bcd60e51b8152600401610d4b906144fb565b6001600160a01b038216612e615760405162461bcd60e51b8152602060048201526024808201527f4552433732313a207472616e7366657220746f20746865207a65726f206164646044820152637265737360e01b6064820152608401610d4b565b612e6e838383600161331e565b826001600160a01b0316612e8182611d0d565b6001600160a01b031614612ea75760405162461bcd60e51b8152600401610d4b906144fb565b600081815260046020908152604080832080546001600160a01b03199081169091556001600160a01b0387811680865260038552838620805460001901905590871680865283862080546001019055868652600290945282852080549092168417909155905184937fddf252ad1be2c89b69c2b068fc378daa952ba7f163c4a11628f55a4df523b3ef91a4505050565b6000612710612f4683856143b3565b1015612f5157600080fd5b612710612f5e83856143b3565b612f6891906141ee565b9392505050565b612f798282612565565b6117175760008281526006602090815260408083206001600160a01b03851684529091529020805460ff19166001179055612fb13390565b6001600160a01b0316816001600160a01b0316837f2f8788117e7eff1d82e926ec794901d17c78024a50270940304540a733656f0d60405160405180910390a45050565b612fff8282612565565b156117175760008281526006602090815260408083206001600160a01b0385168085529252808320805460ff1916905551339285917ff6391f5c32d9c69d2a47ea670b442974b53935d1edc7fd64eb21e047a839171b9190a45050565b600061306782611d0d565b905061307781600084600161331e565b61308082611d0d565b600083815260046020908152604080832080546001600160a01b03199081169091556001600160a01b0385168085526003845282852080546000190190558785526002909352818420805490911690555192935084927fddf252ad1be2c89b69c2b068fc378daa952ba7f163c4a11628f55a4df523b3ef908390a45050565b816001600160a01b0316836001600160a01b0316036131605760405162461bcd60e51b815260206004820152601960248201527f4552433732313a20617070726f766520746f2063616c6c6572000000000000006044820152606401610d4b565b6001600160a01b03838116600081815260056020908152604080832094871680845294825291829020805460ff191686151590811790915591519182527f17307eab39ab6107e8899845ad3d59bd9653f200f220920489ca2b5937696c31910160405180910390a3505050565b6131d8848484612dc6565b6131e4848484846133a6565b6127c75760405162461bcd60e51b8152600401610d4b90614540565b6060600061320d8361349c565b60010190506000816001600160401b0381111561322c5761322c613f61565b6040519080825280601f01601f191660200182016040528015613256576020820181803683370190505b5090508181016020015b600019016f181899199a1a9b1b9c1cb0b131b232b360811b600a86061a8153600a850494508461326057509392505050565b61329c8282612565565b611717576132a981613574565b6132b4836020613586565b6040516020016132c5929190614592565b60408051601f198184030181529082905262461bcd60e51b8252610d4b916004016139cf565b6132f58383613721565b61330260008484846133a6565b610dec5760405162461bcd60e51b8152600401610d4b90614540565b60018111156127c7576001600160a01b03841615613364576001600160a01b0384166000908152600360205260408120805483929061335e908490614387565b90915550505b6001600160a01b038316156127c7576001600160a01b0383166000908152600360205260408120805483929061339b908490614374565b909155505050505050565b60006001600160a01b0384163b15610e6a57604051630a85bd0160e11b81526001600160a01b0385169063150b7a02906133ea903390899088908890600401614607565b6020604051808303816000875af1925050508015613425575060408051601f3d908101601f1916820190925261342291810190614644565b60015b613482573d808015613453576040519150601f19603f3d011682016040523d82523d6000602084013e613458565b606091505b50805160000361347a5760405162461bcd60e51b8152600401610d4b90614540565b805181602001fd5b6001600160e01b031916630a85bd0160e11b1490506112ed565b60008072184f03e93ff9f4daa797ed6e38ed64bf6a1f0160401b83106134db5772184f03e93ff9f4daa797ed6e38ed64bf6a1f0160401b830492506040015b6d04ee2d6d415b85acef81000000008310613507576d04ee2d6d415b85acef8100000000830492506020015b662386f26fc10000831061352557662386f26fc10000830492506010015b6305f5e100831061353d576305f5e100830492506008015b612710831061355157612710830492506004015b60648310613563576064830492506002015b600a8310610c185760010192915050565b6060610c186001600160a01b03831660145b606060006135958360026143b3565b6135a0906002614374565b6001600160401b038111156135b7576135b7613f61565b6040519080825280601f01601f1916602001820160405280156135e1576020820181803683370190505b509050600360fc1b816000815181106135fc576135fc614661565b60200101906001600160f81b031916908160001a905350600f60fb1b8160018151811061362b5761362b614661565b60200101906001600160f81b031916908160001a905350600061364f8460026143b3565b61365a906001614374565b90505b60018111156136d2576f181899199a1a9b1b9c1cb0b131b232b360811b85600f166010811061368e5761368e614661565b1a60f81b8282815181106136a4576136a4614661565b60200101906001600160f81b031916908160001a90535060049490941c936136cb81614677565b905061365d565b508315612f685760405162461bcd60e51b815260206004820181905260248201527f537472696e67733a20686578206c656e67746820696e73756666696369656e746044820152606401610d4b565b6001600160a01b0382166137775760405162461bcd60e51b815260206004820181905260248201527f4552433732313a206d696e7420746f20746865207a65726f20616464726573736044820152606401610d4b565b6000818152600260205260409020546001600160a01b0316156137dc5760405162461bcd60e51b815260206004820152601c60248201527f4552433732313a20746f6b656e20616c7265616479206d696e746564000000006044820152606401610d4b565b6137ea60008383600161331e565b6000818152600260205260409020546001600160a01b03161561384f5760405162461bcd60e51b815260206004820152601c60248201527f4552433732313a20746f6b656e20616c7265616479206d696e746564000000006044820152606401610d4b565b6001600160a01b038216600081815260036020908152604080832080546001019055848352600290915280822080546001600160a01b0319168417905551839291907fddf252ad1be2c89b69c2b068fc378daa952ba7f163c4a11628f55a4df523b3ef908290a45050565b604080516101408101825260008082526020820181905291810182905260608082018390526080820183905260a0820183905260c0820183905260e0820152906101008201905b8152602001600081525090565b604080516060810182526000808252602082015290810161392d613932565b905290565b604080516060810190915260008082526020820190613901565b6001600160e01b031981168114612cb357600080fd5b60006020828403121561397457600080fd5b8135612f688161394c565b60005b8381101561399a578181015183820152602001613982565b50506000910152565b600081518084526139bb81602086016020860161397f565b601f01601f19169290920160200192915050565b602081526000612f6860208301846139a3565b6000602082840312156139f457600080fd5b5035919050565b6001600160a01b0381168114612cb357600080fd5b60008060408385031215613a2357600080fd5b8235613a2e816139fb565b946020939093013593505050565b634e487b7160e01b600052602160045260246000fd5b60038110612cb357612cb3613a3c565b60208101613a6f83613a52565b91905290565b60008060408385031215613a8857600080fd5b82359150602083013560038110613a9e57600080fd5b809150509250929050565b80356001600160c01b0381168114613ac057600080fd5b919050565b60008060408385031215613ad857600080fd5b8235613ae3816139fb565b9150613af160208401613aa9565b90509250929050565b600080600060608486031215613b0f57600080fd5b8335613b1a816139fb565b92506020840135613b2a816139fb565b929592945050506040919091013590565b600060208284031215613b4d57600080fd5b612f6882613aa9565b60008060408385031215613b6957600080fd5b823591506020830135613a9e816139fb565b60028110613b8b57613b8b613a3c565b9052565b60208152613ba96020820183516001600160c01b03169052565b6020820151604082015260006040830151613bcf60608401826001600160801b03169052565b5060608301516001600160801b038116608084015250608083015160a083015260a083015160c083015260c083015160e083015260e08301516101406101008181860152613c216101608601846139a3565b90860151909250610120613c3786820183613b7b565b959095015193019290925250919050565b60008060408385031215613c5b57600080fd5b50508035926020909101359150565b60058110613b8b57613b8b613a3c565b8781526001600160a01b03871660208201526001600160c01b03861660408201526060810185905264ffffffffff8481166080830152831660a082015260e08101613cc860c0830184613c6a565b98975050505050505050565b60208101610c188284613c6a565b80356001600160401b0381168114613ac057600080fd5b600080600080600060a08688031215613d1157600080fd5b85359450613d2160208701613ce2565b94979496505050506040830135926060810135926080909101359150565b600060208284031215613d5157600080fd5b8135612f68816139fb565b60008060408385031215613d6f57600080fd5b82359150602083013560ff81168114613a9e57600080fd5b60008060408385031215613d9a57600080fd5b613a2e83613aa9565b600061014060018060c01b038d1683528b60208401526001600160801b03808c166040850152808b166060850152508860808401528760a08401528660c08401528060e0840152613df6818401876139a3565b915050613e07610100830185613b7b565b826101208301529b9a5050505050505050505050565b60008060408385031215613e3057600080fd5b613e3983613aa9565b9150613af160208401613ce2565b805182526020810151613e5981613a52565b6020830152604090810151910152565b600060a0820190508251825260ff6020840151166020830152604083015161121c6040840182613e47565b60008060408385031215613ea757600080fd5b8235613eb2816139fb565b915060208301358015158114613a9e57600080fd5b60008083601f840112613ed957600080fd5b5081356001600160401b03811115613ef057600080fd5b602083019150836020828501011115613f0857600080fd5b9250929050565b600080600060408486031215613f2457600080fd5b613f2d84613aa9565b925060208401356001600160401b03811115613f4857600080fd5b613f5486828701613ec7565b9497909650939450505050565b634e487b7160e01b600052604160045260246000fd5b60008060008060808587031215613f8d57600080fd5b8435613f98816139fb565b93506020850135613fa8816139fb565b92506040850135915060608501356001600160401b0380821115613fcb57600080fd5b818701915087601f830112613fdf57600080fd5b813581811115613ff157613ff1613f61565b604051601f8201601f19908116603f0116810190838211818310171561401957614019613f61565b816040528281528a602084870101111561403257600080fd5b82602086016020830137600060208483010152809550505050505092959194509250565b83815260ff8316602082015260a081016112ed6040830184613e47565b6000806040838503121561408657600080fd5b8235614091816139fb565b91506020830135613a9e816139fb565b600080602083850312156140b457600080fd5b82356001600160401b038111156140ca57600080fd5b6140d685828601613ec7565b90969095509350505050565b600181811c908216806140f657607f821691505b60208210810361411657634e487b7160e01b600052602260045260246000fd5b50919050565b6020808252601390820152724d757374206f776e20746865204d6f7361696360681b604082015260600190565b634e487b7160e01b600052601160045260246000fd5b60006001600160401b0380831681810361417b5761417b614149565b6001019392505050565b60006001600160801b0380831681810361417b5761417b614149565b6020808252602d908201527f4552433732313a2063616c6c6572206973206e6f7420746f6b656e206f776e6560408201526c1c881bdc88185c1c1c9bdd9959609a1b606082015260800190565b60008261420b57634e487b7160e01b600052601260045260246000fd5b500490565b64ffffffffff81811683821601908082111561121c5761121c614149565b60006020828403121561424057600080fd5b8151612f68816139fb565b60006001600160c01b038281166002600160c01b0319810161417b5761417b614149565b601f821115610dec57600081815260208120601f850160051c810160208610156142965750805b601f850160051c820191505b8181101561276f578281556001016142a2565b81516001600160401b038111156142ce576142ce613f61565b6142e2816142dc84546140e2565b8461426f565b602080601f83116001811461431757600084156142ff5750858301515b600019600386901b1c1916600185901b17855561276f565b600085815260208120601f198616915b8281101561434657888601518255948401946001909101908401614327565b50858210156143645787850151600019600388901b60f8161c191681555b5050505050600190811b01905550565b80820180821115610c1857610c18614149565b81810381811115610c1857610c18614149565b6000600182016143ac576143ac614149565b5060010190565b8082028115828204841417610c1857610c18614149565b6001600160401b038311156143e1576143e1613f61565b6143f5836143ef83546140e2565b8361426f565b6000601f84116001811461442957600085156144115750838201355b600019600387901b1c1916600186901b178355614483565b600083815260209020601f19861690835b8281101561445a578685013582556020948501946001909201910161443a565b50868210156144775760001960f88860031b161c19848701351681555b505060018560011b0183555b5050505050565b6000845161449c81846020890161397f565b602f60f81b90830190815284516144ba81600184016020890161397f565b605f60f81b6001929091019182015283516144dc81600284016020880161397f565b64173539b7b760d91b6002929091019182015260070195945050505050565b60208082526025908201527f4552433732313a207472616e736665722066726f6d20696e636f72726563742060408201526437bbb732b960d91b606082015260800190565b60208082526032908201527f4552433732313a207472616e7366657220746f206e6f6e20455243373231526560408201527131b2b4bb32b91034b6b83632b6b2b73a32b960711b606082015260800190565b7f416363657373436f6e74726f6c3a206163636f756e74200000000000000000008152600083516145ca81601785016020880161397f565b7001034b99036b4b9b9b4b733903937b6329607d1b60179184019182015283516145fb81602884016020880161397f565b01602801949350505050565b6001600160a01b038581168252841660208201526040810183905260806060820181905260009061463a908301846139a3565b9695505050505050565b60006020828403121561465657600080fd5b8151612f688161394c565b634e487b7160e01b600052603260045260246000fd5b60008161468657614686614149565b50600019019056fea2646970667358221220acbf13f0c5a6b9ce935eae9586f91c52db32f6cf3d7a27673d2bbcc0a5f2d51d64736f6c63430008110033",
  "devdoc": {
    "kind": "dev",
    "methods": {
      "approve(address,uint256)": {
        "details": "See {IERC721-approve}."
      },
      "balanceOf(address)": {
        "details": "See {IERC721-balanceOf}."
      },
      "getApproved(uint256)": {
        "details": "See {IERC721-getApproved}."
      },
      "getRoleAdmin(bytes32)": {
        "details": "Returns the admin role that controls `role`. See {grantRole} and {revokeRole}. To change a role's admin, use {_setRoleAdmin}."
      },
      "grantRole(bytes32,address)": {
        "details": "Grants `role` to `account`. If `account` had not been already granted `role`, emits a {RoleGranted} event. Requirements: - the caller must have ``role``'s admin role. May emit a {RoleGranted} event."
      },
      "hasRole(bytes32,address)": {
        "details": "Returns `true` if `account` has been granted `role`."
      },
      "isApprovedForAll(address,address)": {
        "details": "See {IERC721-isApprovedForAll}."
      },
      "name()": {
        "details": "See {IERC721Metadata-name}."
      },
      "ownerOf(uint256)": {
        "details": "See {IERC721-ownerOf}."
      },
      "renounceRole(bytes32,address)": {
        "details": "Revokes `role` from the calling account. Roles are often managed via {grantRole} and {revokeRole}: this function's purpose is to provide a mechanism for accounts to lose their privileges if they are compromised (such as when a trusted device is misplaced). If the calling account had been revoked `role`, emits a {RoleRevoked} event. Requirements: - the caller must be `account`. May emit a {RoleRevoked} event."
      },
      "revokeRole(bytes32,address)": {
        "details": "Revokes `role` from `account`. If `account` had been granted `role`, emits a {RoleRevoked} event. Requirements: - the caller must have ``role``'s admin role. May emit a {RoleRevoked} event."
      },
      "safeTransferFrom(address,address,uint256)": {
        "details": "See {IERC721-safeTransferFrom}."
      },
      "safeTransferFrom(address,address,uint256,bytes)": {
        "details": "See {IERC721-safeTransferFrom}."
      },
      "setApprovalForAll(address,bool)": {
        "details": "See {IERC721-setApprovalForAll}."
      },
      "symbol()": {
        "details": "See {IERC721Metadata-symbol}."
      },
      "transferFrom(address,address,uint256)": {
        "details": "See {IERC721-transferFrom}."
      }
    },
    "version": 1
  },
  "userdoc": {
    "kind": "user",
    "methods": {},
    "version": 1
  },
  "storageLayout": {
    "storage": [
      {
        "astId": 1869,
        "contract": "src/CryptoPunksMosaicRegistry.sol:CryptoPunksMosaicRegistry",
        "label": "_name",
        "offset": 0,
        "slot": "0",
        "type": "t_string_storage"
      },
      {
        "astId": 1871,
        "contract": "src/CryptoPunksMosaicRegistry.sol:CryptoPunksMosaicRegistry",
        "label": "_symbol",
        "offset": 0,
        "slot": "1",
        "type": "t_string_storage"
      },
      {
        "astId": 1875,
        "contract": "src/CryptoPunksMosaicRegistry.sol:CryptoPunksMosaicRegistry",
        "label": "_owners",
        "offset": 0,
        "slot": "2",
        "type": "t_mapping(t_uint256,t_address)"
      },
      {
        "astId": 1879,
        "contract": "src/CryptoPunksMosaicRegistry.sol:CryptoPunksMosaicRegistry",
        "label": "_balances",
        "offset": 0,
        "slot": "3",
        "type": "t_mapping(t_address,t_uint256)"
      },
      {
        "astId": 1883,
        "contract": "src/CryptoPunksMosaicRegistry.sol:CryptoPunksMosaicRegistry",
        "label": "_tokenApprovals",
        "offset": 0,
        "slot": "4",
        "type": "t_mapping(t_uint256,t_address)"
      },
      {
        "astId": 1889,
        "contract": "src/CryptoPunksMosaicRegistry.sol:CryptoPunksMosaicRegistry",
        "label": "_operatorApprovals",
        "offset": 0,
        "slot": "5",
        "type": "t_mapping(t_address,t_mapping(t_address,t_bool))"
      },
      {
        "astId": 24,
        "contract": "src/CryptoPunksMosaicRegistry.sol:CryptoPunksMosaicRegistry",
        "label": "_roles",
        "offset": 0,
        "slot": "6",
        "type": "t_mapping(t_bytes32,t_struct(RoleData)19_storage)"
      },
      {
        "astId": 6887,
        "contract": "src/CryptoPunksMosaicRegistry.sol:CryptoPunksMosaicRegistry",
        "label": "invalidMetadataUri",
        "offset": 0,
        "slot": "7",
        "type": "t_string_storage"
      },
      {
        "astId": 6889,
        "contract": "src/CryptoPunksMosaicRegistry.sol:CryptoPunksMosaicRegistry",
        "label": "latestOriginalId",
        "offset": 0,
        "slot": "8",
        "type": "t_uint192"
      },
      {
        "astId": 6894,
        "contract": "src/CryptoPunksMosaicRegistry.sol:CryptoPunksMosaicRegistry",
        "label": "originals",
        "offset": 0,
        "slot": "9",
        "type": "t_mapping(t_uint192,t_struct(Original)8332_storage)"
      },
      {
        "astId": 6898,
        "contract": "src/CryptoPunksMosaicRegistry.sol:CryptoPunksMosaicRegistry",
        "label": "latestMonoIds",
        "offset": 0,
        "slot": "10",
        "type": "t_mapping(t_uint192,t_uint64)"
      },
      {
        "astId": 6903,
        "contract": "src/CryptoPunksMosaicRegistry.sol:CryptoPunksMosaicRegistry",
        "label": "monos",
        "offset": 0,
        "slot": "11",
        "type": "t_mapping(t_uint256,t_struct(Mono)8343_storage)"
      },
      {
        "astId": 6908,
        "contract": "src/CryptoPunksMosaicRegistry.sol:CryptoPunksMosaicRegistry",
        "label": "bids",
        "offset": 0,
        "slot": "12",
        "type": "t_mapping(t_uint256,t_struct(Bid)8375_storage)"
      },
      {
        "astId": 6912,
        "contract": "src/CryptoPunksMosaicRegistry.sol:CryptoPunksMosaicRegistry",
        "label": "bidDeposits",
        "offset": 0,
        "slot": "13",
        "type": "t_mapping(t_uint256,t_uint256)"
      },
      {
        "astId": 6916,
        "contract": "src/CryptoPunksMosaicRegistry.sol:CryptoPunksMosaicRegistry",
        "label": "resalePrices",
        "offset": 0,
        "slot": "14",
        "type": "t_mapping(t_uint192,t_uint256)"
      }
    ],
    "types": {
      "t_address": {
        "encoding": "inplace",
        "label": "address",
        "numberOfBytes": "20"
      },
      "t_address_payable": {
        "encoding": "inplace",
        "label": "address payable",
        "numberOfBytes": "20"
      },
      "t_bool": {
        "encoding": "inplace",
        "label": "bool",
        "numberOfBytes": "1"
      },
      "t_bytes32": {
        "encoding": "inplace",
        "label": "bytes32",
        "numberOfBytes": "32"
      },
      "t_enum(BidState)8381": {
        "encoding": "inplace",
        "label": "enum UsingCryptoPunksMosaicRegistryStructs.BidState",
        "numberOfBytes": "1"
      },
      "t_enum(MonoBidResponse)8359": {
        "encoding": "inplace",
        "label": "enum UsingCryptoPunksMosaicRegistryStructs.MonoBidResponse",
        "numberOfBytes": "1"
      },
      "t_enum(OriginalStatus)8335": {
        "encoding": "inplace",
        "label": "enum UsingCryptoPunksMosaicRegistryStructs.OriginalStatus",
        "numberOfBytes": "1"
      },
      "t_mapping(t_address,t_bool)": {
        "encoding": "mapping",
        "key": "t_address",
        "label": "mapping(address => bool)",
        "numberOfBytes": "32",
        "value": "t_bool"
      },
      "t_mapping(t_address,t_mapping(t_address,t_bool))": {
        "encoding": "mapping",
        "key": "t_address",
        "label": "mapping(address => mapping(address => bool))",
        "numberOfBytes": "32",
        "value": "t_mapping(t_address,t_bool)"
      },
      "t_mapping(t_address,t_uint256)": {
        "encoding": "mapping",
        "key": "t_address",
        "label": "mapping(address => uint256)",
        "numberOfBytes": "32",
        "value": "t_uint256"
      },
      "t_mapping(t_bytes32,t_struct(RoleData)19_storage)": {
        "encoding": "mapping",
        "key": "t_bytes32",
        "label": "mapping(bytes32 => struct AccessControl.RoleData)",
        "numberOfBytes": "32",
        "value": "t_struct(RoleData)19_storage"
      },
      "t_mapping(t_uint192,t_struct(Original)8332_storage)": {
        "encoding": "mapping",
        "key": "t_uint192",
        "label": "mapping(uint192 => struct UsingCryptoPunksMosaicRegistryStructs.Original)",
        "numberOfBytes": "32",
        "value": "t_struct(Original)8332_storage"
      },
      "t_mapping(t_uint192,t_uint256)": {
        "encoding": "mapping",
        "key": "t_uint192",
        "label": "mapping(uint192 => uint256)",
        "numberOfBytes": "32",
        "value": "t_uint256"
      },
      "t_mapping(t_uint192,t_uint64)": {
        "encoding": "mapping",
        "key": "t_uint192",
        "label": "mapping(uint192 => uint64)",
        "numberOfBytes": "32",
        "value": "t_uint64"
      },
      "t_mapping(t_uint256,t_address)": {
        "encoding": "mapping",
        "key": "t_uint256",
        "label": "mapping(uint256 => address)",
        "numberOfBytes": "32",
        "value": "t_address"
      },
      "t_mapping(t_uint256,t_struct(Bid)8375_storage)": {
        "encoding": "mapping",
        "key": "t_uint256",
        "label": "mapping(uint256 => struct UsingCryptoPunksMosaicRegistryStructs.Bid)",
        "numberOfBytes": "32",
        "value": "t_struct(Bid)8375_storage"
      },
      "t_mapping(t_uint256,t_struct(Mono)8343_storage)": {
        "encoding": "mapping",
        "key": "t_uint256",
        "label": "mapping(uint256 => struct UsingCryptoPunksMosaicRegistryStructs.Mono)",
        "numberOfBytes": "32",
        "value": "t_struct(Mono)8343_storage"
      },
      "t_mapping(t_uint256,t_uint256)": {
        "encoding": "mapping",
        "key": "t_uint256",
        "label": "mapping(uint256 => uint256)",
        "numberOfBytes": "32",
        "value": "t_uint256"
      },
      "t_string_storage": {
        "encoding": "bytes",
        "label": "string",
        "numberOfBytes": "32"
      },
      "t_struct(Bid)8375_storage": {
        "encoding": "inplace",
        "label": "struct UsingCryptoPunksMosaicRegistryStructs.Bid",
        "members": [
          {
            "astId": 8361,
            "contract": "src/CryptoPunksMosaicRegistry.sol:CryptoPunksMosaicRegistry",
            "label": "id",
            "offset": 0,
            "slot": "0",
            "type": "t_uint256"
          },
          {
            "astId": 8363,
            "contract": "src/CryptoPunksMosaicRegistry.sol:CryptoPunksMosaicRegistry",
            "label": "bidder",
            "offset": 0,
            "slot": "1",
            "type": "t_address_payable"
          },
          {
            "astId": 8365,
            "contract": "src/CryptoPunksMosaicRegistry.sol:CryptoPunksMosaicRegistry",
            "label": "originalId",
            "offset": 0,
            "slot": "2",
            "type": "t_uint192"
          },
          {
            "astId": 8367,
            "contract": "src/CryptoPunksMosaicRegistry.sol:CryptoPunksMosaicRegistry",
            "label": "price",
            "offset": 0,
            "slot": "3",
            "type": "t_uint256"
          },
          {
            "astId": 8369,
            "contract": "src/CryptoPunksMosaicRegistry.sol:CryptoPunksMosaicRegistry",
            "label": "createdAt",
            "offset": 0,
            "slot": "4",
            "type": "t_uint40"
          },
          {
            "astId": 8371,
            "contract": "src/CryptoPunksMosaicRegistry.sol:CryptoPunksMosaicRegistry",
            "label": "expiry",
            "offset": 5,
            "slot": "4",
            "type": "t_uint40"
          },
          {
            "astId": 8374,
            "contract": "src/CryptoPunksMosaicRegistry.sol:CryptoPunksMosaicRegistry",
            "label": "state",
            "offset": 10,
            "slot": "4",
            "type": "t_enum(BidState)8381"
          }
        ],
        "numberOfBytes": "160"
      },
      "t_struct(Mono)8343_storage": {
        "encoding": "inplace",
        "label": "struct UsingCryptoPunksMosaicRegistryStructs.Mono",
        "members": [
          {
            "astId": 8337,
            "contract": "src/CryptoPunksMosaicRegistry.sol:CryptoPunksMosaicRegistry",
            "label": "mosaicId",
            "offset": 0,
            "slot": "0",
            "type": "t_uint256"
          },
          {
            "astId": 8339,
            "contract": "src/CryptoPunksMosaicRegistry.sol:CryptoPunksMosaicRegistry",
            "label": "presetId",
            "offset": 0,
            "slot": "1",
            "type": "t_uint8"
          },
          {
            "astId": 8342,
            "contract": "src/CryptoPunksMosaicRegistry.sol:CryptoPunksMosaicRegistry",
            "label": "governanceOptions",
            "offset": 0,
            "slot": "2",
            "type": "t_struct(MonoGovernanceOptions)8355_storage"
          }
        ],
        "numberOfBytes": "160"
      },
      "t_struct(MonoGovernanceOptions)8355_storage": {
        "encoding": "inplace",
        "label": "struct UsingCryptoPunksMosaicRegistryStructs.MonoGovernanceOptions",
        "members": [
          {
            "astId": 8349,
            "contract": "src/CryptoPunksMosaicRegistry.sol:CryptoPunksMosaicRegistry",
            "label": "proposedReservePrice",
            "offset": 0,
            "slot": "0",
            "type": "t_uint256"
          },
          {
            "astId": 8352,
            "contract": "src/CryptoPunksMosaicRegistry.sol:CryptoPunksMosaicRegistry",
            "label": "bidResponse",
            "offset": 0,
            "slot": "1",
            "type": "t_enum(MonoBidResponse)8359"
          },
          {
            "astId": 8354,
            "contract": "src/CryptoPunksMosaicRegistry.sol:CryptoPunksMosaicRegistry",
            "label": "bidId",
            "offset": 0,
            "slot": "2",
            "type": "t_uint256"
          }
        ],
        "numberOfBytes": "96"
      },
      "t_struct(Original)8332_storage": {
        "encoding": "inplace",
        "label": "struct UsingCryptoPunksMosaicRegistryStructs.Original",
        "members": [
          {
            "astId": 8311,
            "contract": "src/CryptoPunksMosaicRegistry.sol:CryptoPunksMosaicRegistry",
            "label": "id",
            "offset": 0,
            "slot": "0",
            "type": "t_uint192"
          },
          {
            "astId": 8313,
            "contract": "src/CryptoPunksMosaicRegistry.sol:CryptoPunksMosaicRegistry",
            "label": "punkId",
            "offset": 0,
            "slot": "1",
            "type": "t_uint256"
          },
          {
            "astId": 8316,
            "contract": "src/CryptoPunksMosaicRegistry.sol:CryptoPunksMosaicRegistry",
            "label": "totalMonoSupply",
            "offset": 0,
            "slot": "2",
            "type": "t_uint128"
          },
          {
            "astId": 8318,
            "contract": "src/CryptoPunksMosaicRegistry.sol:CryptoPunksMosaicRegistry",
            "label": "claimedMonoCount",
            "offset": 16,
            "slot": "2",
            "type": "t_uint128"
          },
          {
            "astId": 8320,
            "contract": "src/CryptoPunksMosaicRegistry.sol:CryptoPunksMosaicRegistry",
            "label": "purchasePrice",
            "offset": 0,
            "slot": "3",
            "type": "t_uint256"
          },
          {
            "astId": 8322,
            "contract": "src/CryptoPunksMosaicRegistry.sol:CryptoPunksMosaicRegistry",
            "label": "minReservePrice",
            "offset": 0,
            "slot": "4",
            "type": "t_uint256"
          },
          {
            "astId": 8324,
            "contract": "src/CryptoPunksMosaicRegistry.sol:CryptoPunksMosaicRegistry",
            "label": "maxReservePrice",
            "offset": 0,
            "slot": "5",
            "type": "t_uint256"
          },
          {
            "astId": 8326,
            "contract": "src/CryptoPunksMosaicRegistry.sol:CryptoPunksMosaicRegistry",
            "label": "metadataBaseUri",
            "offset": 0,
            "slot": "6",
            "type": "t_string_storage"
          },
          {
            "astId": 8329,
            "contract": "src/CryptoPunksMosaicRegistry.sol:CryptoPunksMosaicRegistry",
            "label": "status",
            "offset": 0,
            "slot": "7",
            "type": "t_enum(OriginalStatus)8335"
          },
          {
            "astId": 8331,
            "contract": "src/CryptoPunksMosaicRegistry.sol:CryptoPunksMosaicRegistry",
            "label": "activeBidId",
            "offset": 0,
            "slot": "8",
            "type": "t_uint256"
          }
        ],
        "numberOfBytes": "288"
      },
      "t_struct(RoleData)19_storage": {
        "encoding": "inplace",
        "label": "struct AccessControl.RoleData",
        "members": [
          {
            "astId": 16,
            "contract": "src/CryptoPunksMosaicRegistry.sol:CryptoPunksMosaicRegistry",
            "label": "members",
            "offset": 0,
            "slot": "0",
            "type": "t_mapping(t_address,t_bool)"
          },
          {
            "astId": 18,
            "contract": "src/CryptoPunksMosaicRegistry.sol:CryptoPunksMosaicRegistry",
            "label": "adminRole",
            "offset": 0,
            "slot": "1",
            "type": "t_bytes32"
          }
        ],
        "numberOfBytes": "64"
      },
      "t_uint128": {
        "encoding": "inplace",
        "label": "uint128",
        "numberOfBytes": "16"
      },
      "t_uint192": {
        "encoding": "inplace",
        "label": "uint192",
        "numberOfBytes": "24"
      },
      "t_uint256": {
        "encoding": "inplace",
        "label": "uint256",
        "numberOfBytes": "32"
      },
      "t_uint40": {
        "encoding": "inplace",
        "label": "uint40",
        "numberOfBytes": "5"
      },
      "t_uint64": {
        "encoding": "inplace",
        "label": "uint64",
        "numberOfBytes": "8"
      },
      "t_uint8": {
        "encoding": "inplace",
        "label": "uint8",
        "numberOfBytes": "1"
      }
    }
  }
}