{
  "address": "0x8C7c7dE28875A3088bA2888A08c6bE809618b1Cb",
  "abi": [
    {
      "inputs": [
        {
          "internalType": "enum UsingCryptoPunksMosaicRegistryStructs.BidState",
          "name": "given",
          "type": "uint8"
        },
        {
          "internalType": "enum UsingCryptoPunksMosaicRegistryStructs.BidState",
          "name": "required",
          "type": "uint8"
        }
      ],
      "name": "IllegalBidStateTransition",
      "type": "error"
    },
    {
      "inputs": [],
      "name": "NotActive",
      "type": "error"
    },
    {
      "inputs": [],
      "name": "NotEnoughFund",
      "type": "error"
    },
    {
      "inputs": [
        {
          "internalType": "uint64",
          "name": "validCount",
          "type": "uint64"
        },
        {
          "internalType": "uint256",
          "name": "thresholdBps",
          "type": "uint256"
        }
      ],
      "name": "NotEnoughProposals",
      "type": "error"
    },
    {
      "inputs": [
        {
          "internalType": "uint256",
          "name": "expectedGte",
          "type": "uint256"
        },
        {
          "internalType": "uint256",
          "name": "expectedLte",
          "type": "uint256"
        }
      ],
      "name": "OutOfExpectedRange",
      "type": "error"
    },
    {
      "inputs": [
        {
          "internalType": "address",
          "name": "expected",
          "type": "address"
        }
      ],
      "name": "Unauthorized",
      "type": "error"
    },
    {
      "anonymous": false,
      "inputs": [
        {
          "indexed": false,
          "internalType": "address",
          "name": "previousAdmin",
          "type": "address"
        },
        {
          "indexed": false,
          "internalType": "address",
          "name": "newAdmin",
          "type": "address"
        }
      ],
      "name": "AdminChanged",
      "type": "event"
    },
    {
      "anonymous": false,
      "inputs": [
        {
          "indexed": true,
          "internalType": "address",
          "name": "owner",
          "type": "address"
        },
        {
          "indexed": true,
          "internalType": "address",
          "name": "approved",
          "type": "address"
        },
        {
          "indexed": true,
          "internalType": "uint256",
          "name": "tokenId",
          "type": "uint256"
        }
      ],
      "name": "Approval",
      "type": "event"
    },
    {
      "anonymous": false,
      "inputs": [
        {
          "indexed": true,
          "internalType": "address",
          "name": "owner",
          "type": "address"
        },
        {
          "indexed": true,
          "internalType": "address",
          "name": "operator",
          "type": "address"
        },
        {
          "indexed": false,
          "internalType": "bool",
          "name": "approved",
          "type": "bool"
        }
      ],
      "name": "ApprovalForAll",
      "type": "event"
    },
    {
      "anonymous": false,
      "inputs": [
        {
          "indexed": true,
          "internalType": "address",
          "name": "beacon",
          "type": "address"
        }
      ],
      "name": "BeaconUpgraded",
      "type": "event"
    },
    {
      "anonymous": false,
      "inputs": [
        {
          "indexed": true,
          "internalType": "uint256",
          "name": "bidId",
          "type": "uint256"
        },
        {
          "indexed": true,
          "internalType": "uint192",
          "name": "originalId",
          "type": "uint192"
        }
      ],
      "name": "BidAccepted",
      "type": "event"
    },
    {
      "anonymous": false,
      "inputs": [
        {
          "indexed": true,
          "internalType": "uint256",
          "name": "bidId",
          "type": "uint256"
        },
        {
          "indexed": true,
          "internalType": "uint192",
          "name": "originalId",
          "type": "uint192"
        }
      ],
      "name": "BidProposed",
      "type": "event"
    },
    {
      "anonymous": false,
      "inputs": [
        {
          "indexed": true,
          "internalType": "uint256",
          "name": "bidId",
          "type": "uint256"
        },
        {
          "indexed": true,
          "internalType": "uint192",
          "name": "originalId",
          "type": "uint192"
        }
      ],
      "name": "BidRefunded",
      "type": "event"
    },
    {
      "anonymous": false,
      "inputs": [
        {
          "indexed": true,
          "internalType": "uint256",
          "name": "bidId",
          "type": "uint256"
        },
        {
          "indexed": true,
          "internalType": "uint192",
          "name": "originalId",
          "type": "uint192"
        }
      ],
      "name": "BidRejected",
      "type": "event"
    },
    {
      "anonymous": false,
      "inputs": [
        {
          "indexed": true,
          "internalType": "uint256",
          "name": "bidId",
          "type": "uint256"
        },
        {
          "indexed": true,
          "internalType": "uint192",
          "name": "originalId",
          "type": "uint192"
        }
      ],
      "name": "BidWon",
      "type": "event"
    },
    {
      "anonymous": false,
      "inputs": [
        {
          "indexed": false,
          "internalType": "uint8",
          "name": "version",
          "type": "uint8"
        }
      ],
      "name": "Initialized",
      "type": "event"
    },
    {
      "anonymous": false,
      "inputs": [
        {
          "indexed": true,
          "internalType": "uint192",
          "name": "originalId",
          "type": "uint192"
        },
        {
          "indexed": true,
          "internalType": "address",
          "name": "monoOwner",
          "type": "address"
        }
      ],
      "name": "MonoRefunded",
      "type": "event"
    },
    {
      "anonymous": false,
      "inputs": [
        {
          "indexed": true,
          "internalType": "uint192",
          "name": "originalId",
          "type": "uint192"
        },
        {
          "indexed": true,
          "internalType": "uint256",
          "name": "bidId",
          "type": "uint256"
        }
      ],
      "name": "OriginalSold",
      "type": "event"
    },
    {
      "anonymous": false,
      "inputs": [
        {
          "indexed": true,
          "internalType": "bytes32",
          "name": "role",
          "type": "bytes32"
        },
        {
          "indexed": true,
          "internalType": "bytes32",
          "name": "previousAdminRole",
          "type": "bytes32"
        },
        {
          "indexed": true,
          "internalType": "bytes32",
          "name": "newAdminRole",
          "type": "bytes32"
        }
      ],
      "name": "RoleAdminChanged",
      "type": "event"
    },
    {
      "anonymous": false,
      "inputs": [
        {
          "indexed": true,
          "internalType": "bytes32",
          "name": "role",
          "type": "bytes32"
        },
        {
          "indexed": true,
          "internalType": "address",
          "name": "account",
          "type": "address"
        },
        {
          "indexed": true,
          "internalType": "address",
          "name": "sender",
          "type": "address"
        }
      ],
      "name": "RoleGranted",
      "type": "event"
    },
    {
      "anonymous": false,
      "inputs": [
        {
          "indexed": true,
          "internalType": "bytes32",
          "name": "role",
          "type": "bytes32"
        },
        {
          "indexed": true,
          "internalType": "address",
          "name": "account",
          "type": "address"
        },
        {
          "indexed": true,
          "internalType": "address",
          "name": "sender",
          "type": "address"
        }
      ],
      "name": "RoleRevoked",
      "type": "event"
    },
    {
      "anonymous": false,
      "inputs": [
        {
          "indexed": true,
          "internalType": "address",
          "name": "from",
          "type": "address"
        },
        {
          "indexed": true,
          "internalType": "address",
          "name": "to",
          "type": "address"
        },
        {
          "indexed": true,
          "internalType": "uint256",
          "name": "tokenId",
          "type": "uint256"
        }
      ],
      "name": "Transfer",
      "type": "event"
    },
    {
      "anonymous": false,
      "inputs": [
        {
          "indexed": true,
          "internalType": "address",
          "name": "implementation",
          "type": "address"
        }
      ],
      "name": "Upgraded",
      "type": "event"
    },
    {
      "inputs": [],
      "name": "BID_ACCEPTANCE_THRESHOLD_BPS",
      "outputs": [
        {
          "internalType": "uint256",
          "name": "",
          "type": "uint256"
        }
      ],
      "stateMutability": "view",
      "type": "function"
    },
    {
      "inputs": [],
      "name": "BID_EXPIRY_BLOCK_SECONDS",
      "outputs": [
        {
          "internalType": "uint40",
          "name": "",
          "type": "uint40"
        }
      ],
      "stateMutability": "view",
      "type": "function"
    },
    {
      "inputs": [],
      "name": "DEFAULT_ADMIN_ROLE",
      "outputs": [
        {
          "internalType": "bytes32",
          "name": "",
          "type": "bytes32"
        }
      ],
      "stateMutability": "view",
      "type": "function"
    },
    {
      "inputs": [],
      "name": "MINTER_ROLE",
      "outputs": [
        {
          "internalType": "bytes32",
          "name": "",
          "type": "bytes32"
        }
      ],
      "stateMutability": "view",
      "type": "function"
    },
    {
      "inputs": [],
      "name": "RESERVE_PRICE_PROPOSAL_TURNOUT_THRESHOLD_BPS",
      "outputs": [
        {
          "internalType": "uint256",
          "name": "",
          "type": "uint256"
        }
      ],
      "stateMutability": "view",
      "type": "function"
    },
    {
      "inputs": [
        {
          "internalType": "address",
          "name": "to",
          "type": "address"
        },
        {
          "internalType": "uint256",
          "name": "tokenId",
          "type": "uint256"
        }
      ],
      "name": "approve",
      "outputs": [],
      "stateMutability": "nonpayable",
      "type": "function"
    },
    {
      "inputs": [
        {
          "internalType": "address",
          "name": "owner",
          "type": "address"
        }
      ],
      "name": "balanceOf",
      "outputs": [
        {
          "internalType": "uint256",
          "name": "",
          "type": "uint256"
        }
      ],
      "stateMutability": "view",
      "type": "function"
    },
    {
      "inputs": [
        {
          "internalType": "uint192",
          "name": "originalId",
          "type": "uint192"
        },
        {
          "internalType": "uint256",
          "name": "price",
          "type": "uint256"
        }
      ],
      "name": "bid",
      "outputs": [
        {
          "internalType": "uint256",
          "name": "newBidId",
          "type": "uint256"
        }
      ],
      "stateMutability": "payable",
      "type": "function"
    },
    {
      "inputs": [
        {
          "internalType": "uint256",
          "name": "punkId",
          "type": "uint256"
        },
        {
          "internalType": "uint64",
          "name": "totalClaimableCount",
          "type": "uint64"
        },
        {
          "internalType": "uint256",
          "name": "purchasePrice",
          "type": "uint256"
        },
        {
          "internalType": "uint256",
          "name": "minReservePrice",
          "type": "uint256"
        },
        {
          "internalType": "uint256",
          "name": "maxReservePrice",
          "type": "uint256"
        }
      ],
      "name": "create",
      "outputs": [
        {
          "internalType": "uint192",
          "name": "originalId",
          "type": "uint192"
        }
      ],
      "stateMutability": "nonpayable",
      "type": "function"
    },
    {
      "inputs": [
        {
          "internalType": "uint256",
          "name": "bidId",
          "type": "uint256"
        }
      ],
      "name": "finalizeAcceptedBid",
      "outputs": [],
      "stateMutability": "nonpayable",
      "type": "function"
    },
    {
      "inputs": [
        {
          "internalType": "uint256",
          "name": "bidId",
          "type": "uint256"
        }
      ],
      "name": "finalizeProposedBid",
      "outputs": [
        {
          "internalType": "enum UsingCryptoPunksMosaicRegistryStructs.BidState",
          "name": "",
          "type": "uint8"
        }
      ],
      "stateMutability": "nonpayable",
      "type": "function"
    },
    {
      "inputs": [
        {
          "internalType": "uint256",
          "name": "mosaicId",
          "type": "uint256"
        }
      ],
      "name": "fromMosaicId",
      "outputs": [
        {
          "internalType": "uint192",
          "name": "originalId",
          "type": "uint192"
        },
        {
          "internalType": "uint64",
          "name": "monoId",
          "type": "uint64"
        }
      ],
      "stateMutability": "pure",
      "type": "function"
    },
    {
      "inputs": [
        {
          "internalType": "uint256",
          "name": "tokenId",
          "type": "uint256"
        }
      ],
      "name": "getApproved",
      "outputs": [
        {
          "internalType": "address",
          "name": "",
          "type": "address"
        }
      ],
      "stateMutability": "view",
      "type": "function"
    },
    {
      "inputs": [
        {
          "internalType": "uint192",
          "name": "originalId",
          "type": "uint192"
        }
      ],
      "name": "getAverageReservePriceProposals",
      "outputs": [
        {
          "internalType": "uint256",
          "name": "average",
          "type": "uint256"
        }
      ],
      "stateMutability": "view",
      "type": "function"
    },
    {
      "inputs": [
        {
          "internalType": "uint256",
          "name": "bidId",
          "type": "uint256"
        }
      ],
      "name": "getBid",
      "outputs": [
        {
          "components": [
            {
              "internalType": "uint256",
              "name": "id",
              "type": "uint256"
            },
            {
              "internalType": "address payable",
              "name": "bidder",
              "type": "address"
            },
            {
              "internalType": "uint192",
              "name": "originalId",
              "type": "uint192"
            },
            {
              "internalType": "uint256",
              "name": "price",
              "type": "uint256"
            },
            {
              "internalType": "uint40",
              "name": "createdAt",
              "type": "uint40"
            },
            {
              "internalType": "uint40",
              "name": "expiry",
              "type": "uint40"
            },
            {
              "internalType": "enum UsingCryptoPunksMosaicRegistryStructs.BidState",
              "name": "state",
              "type": "uint8"
            }
          ],
          "internalType": "struct UsingCryptoPunksMosaicRegistryStructs.Bid",
          "name": "bid",
          "type": "tuple"
        },
        {
          "internalType": "uint256",
          "name": "deposit",
          "type": "uint256"
        }
      ],
      "stateMutability": "view",
      "type": "function"
    },
    {
      "inputs": [
        {
          "internalType": "uint192",
          "name": "originalId",
          "type": "uint192"
        }
      ],
      "name": "getDistributionStatus",
      "outputs": [
        {
          "internalType": "enum UsingCryptoPunksMosaicRegistryStructs.DistributionStatus",
          "name": "",
          "type": "uint8"
        }
      ],
      "stateMutability": "view",
      "type": "function"
    },
    {
      "inputs": [],
      "name": "getLatestOriginalId",
      "outputs": [
        {
          "internalType": "uint192",
          "name": "latestOriginalId",
          "type": "uint192"
        }
      ],
      "stateMutability": "view",
      "type": "function"
    },
    {
      "inputs": [
        {
          "internalType": "uint192",
          "name": "originalId",
          "type": "uint192"
        },
        {
          "internalType": "uint64",
          "name": "monoId",
          "type": "uint64"
        }
      ],
      "name": "getMono",
      "outputs": [
        {
          "components": [
            {
              "internalType": "uint256",
              "name": "mosaicId",
              "type": "uint256"
            },
            {
              "internalType": "uint8",
              "name": "presetId",
              "type": "uint8"
            },
            {
              "components": [
                {
                  "internalType": "uint256",
                  "name": "proposedReservePrice",
                  "type": "uint256"
                },
                {
                  "internalType": "enum UsingCryptoPunksMosaicRegistryStructs.MonoBidResponse",
                  "name": "bidResponse",
                  "type": "uint8"
                },
                {
                  "internalType": "uint256",
                  "name": "bidId",
                  "type": "uint256"
                }
              ],
              "internalType": "struct UsingCryptoPunksMosaicRegistryStructs.MonoGovernanceOptions",
              "name": "governanceOptions",
              "type": "tuple"
            }
          ],
          "internalType": "struct UsingCryptoPunksMosaicRegistryStructs.Mono",
          "name": "",
          "type": "tuple"
        }
      ],
      "stateMutability": "view",
      "type": "function"
    },
    {
      "inputs": [
        {
          "internalType": "uint256",
          "name": "mosaicId",
          "type": "uint256"
        }
      ],
      "name": "getMonoLifeCycle",
      "outputs": [
        {
          "internalType": "enum UsingCryptoPunksMosaicRegistryStructs.MonoLifeCycle",
          "name": "",
          "type": "uint8"
        }
      ],
      "stateMutability": "view",
      "type": "function"
    },
    {
      "inputs": [
        {
          "internalType": "uint192",
          "name": "originalId",
          "type": "uint192"
        }
      ],
      "name": "getOriginal",
      "outputs": [
        {
          "components": [
            {
              "internalType": "uint192",
              "name": "id",
              "type": "uint192"
            },
            {
              "internalType": "uint256",
              "name": "punkId",
              "type": "uint256"
            },
            {
              "internalType": "uint96",
              "name": "totalMonoSupply",
              "type": "uint96"
            },
            {
              "internalType": "uint96",
              "name": "claimedMonoCount",
              "type": "uint96"
            },
            {
              "internalType": "uint256",
              "name": "purchasePrice",
              "type": "uint256"
            },
            {
              "internalType": "uint256",
              "name": "minReservePrice",
              "type": "uint256"
            },
            {
              "internalType": "uint256",
              "name": "maxReservePrice",
              "type": "uint256"
            },
            {
              "internalType": "string",
              "name": "metadataBaseUri",
              "type": "string"
            },
            {
              "internalType": "enum UsingCryptoPunksMosaicRegistryStructs.OriginalState",
              "name": "state",
              "type": "uint8"
            },
            {
              "internalType": "uint256",
              "name": "activeBidId",
              "type": "uint256"
            }
          ],
          "internalType": "struct UsingCryptoPunksMosaicRegistryStructs.Original",
          "name": "",
          "type": "tuple"
        }
      ],
      "stateMutability": "view",
      "type": "function"
    },
    {
      "inputs": [
        {
          "internalType": "uint192",
          "name": "originalId",
          "type": "uint192"
        }
      ],
      "name": "getPerMonoResaleFund",
      "outputs": [
        {
          "internalType": "uint256",
          "name": "perMonoResaleFund",
          "type": "uint256"
        }
      ],
      "stateMutability": "view",
      "type": "function"
    },
    {
      "inputs": [
        {
          "internalType": "uint192",
          "name": "originalId",
          "type": "uint192"
        }
      ],
      "name": "getReconstitutionStatus",
      "outputs": [
        {
          "internalType": "enum UsingCryptoPunksMosaicRegistryStructs.ReconstitutionStatus",
          "name": "",
          "type": "uint8"
        }
      ],
      "stateMutability": "view",
      "type": "function"
    },
    {
      "inputs": [
        {
          "internalType": "bytes32",
          "name": "role",
          "type": "bytes32"
        }
      ],
      "name": "getRoleAdmin",
      "outputs": [
        {
          "internalType": "bytes32",
          "name": "",
          "type": "bytes32"
        }
      ],
      "stateMutability": "view",
      "type": "function"
    },
    {
      "inputs": [
        {
          "internalType": "address",
          "name": "addr",
          "type": "address"
        }
      ],
      "name": "grantMintAuthority",
      "outputs": [],
      "stateMutability": "nonpayable",
      "type": "function"
    },
    {
      "inputs": [
        {
          "internalType": "bytes32",
          "name": "role",
          "type": "bytes32"
        },
        {
          "internalType": "address",
          "name": "account",
          "type": "address"
        }
      ],
      "name": "grantRole",
      "outputs": [],
      "stateMutability": "nonpayable",
      "type": "function"
    },
    {
      "inputs": [
        {
          "internalType": "bytes32",
          "name": "role",
          "type": "bytes32"
        },
        {
          "internalType": "address",
          "name": "account",
          "type": "address"
        }
      ],
      "name": "hasRole",
      "outputs": [
        {
          "internalType": "bool",
          "name": "",
          "type": "bool"
        }
      ],
      "stateMutability": "view",
      "type": "function"
    },
    {
      "inputs": [
        {
          "internalType": "uint192",
          "name": "originalId",
          "type": "uint192"
        }
      ],
      "name": "hasVotableActiveBid",
      "outputs": [
        {
          "internalType": "bool",
          "name": "",
          "type": "bool"
        }
      ],
      "stateMutability": "view",
      "type": "function"
    },
    {
      "inputs": [
        {
          "internalType": "address",
          "name": "museumAddress",
          "type": "address"
        }
      ],
      "name": "initialize",
      "outputs": [],
      "stateMutability": "nonpayable",
      "type": "function"
    },
    {
      "inputs": [
        {
          "internalType": "address",
          "name": "owner",
          "type": "address"
        },
        {
          "internalType": "address",
          "name": "operator",
          "type": "address"
        }
      ],
      "name": "isApprovedForAll",
      "outputs": [
        {
          "internalType": "bool",
          "name": "",
          "type": "bool"
        }
      ],
      "stateMutability": "view",
      "type": "function"
    },
    {
      "inputs": [
        {
          "internalType": "uint192",
          "name": "originalId",
          "type": "uint192"
        }
      ],
      "name": "isBidAcceptable",
      "outputs": [
        {
          "internalType": "bool",
          "name": "",
          "type": "bool"
        }
      ],
      "stateMutability": "view",
      "type": "function"
    },
    {
      "inputs": [
        {
          "internalType": "address",
          "name": "contributor",
          "type": "address"
        },
        {
          "internalType": "uint192",
          "name": "originalId",
          "type": "uint192"
        }
      ],
      "name": "mint",
      "outputs": [
        {
          "internalType": "uint256",
          "name": "mosaicId",
          "type": "uint256"
        }
      ],
      "stateMutability": "nonpayable",
      "type": "function"
    },
    {
      "inputs": [],
      "name": "museum",
      "outputs": [
        {
          "internalType": "contract CryptoPunksMuseum",
          "name": "",
          "type": "address"
        }
      ],
      "stateMutability": "view",
      "type": "function"
    },
    {
      "inputs": [],
      "name": "name",
      "outputs": [
        {
          "internalType": "string",
          "name": "",
          "type": "string"
        }
      ],
      "stateMutability": "view",
      "type": "function"
    },
    {
      "inputs": [
        {
          "internalType": "uint256",
          "name": "tokenId",
          "type": "uint256"
        }
      ],
      "name": "ownerOf",
      "outputs": [
        {
          "internalType": "address",
          "name": "",
          "type": "address"
        }
      ],
      "stateMutability": "view",
      "type": "function"
    },
    {
      "inputs": [
        {
          "internalType": "uint256",
          "name": "mosaicId",
          "type": "uint256"
        },
        {
          "internalType": "uint256",
          "name": "price",
          "type": "uint256"
        }
      ],
      "name": "proposeReservePrice",
      "outputs": [],
      "stateMutability": "nonpayable",
      "type": "function"
    },
    {
      "inputs": [
        {
          "internalType": "uint192",
          "name": "originalId",
          "type": "uint192"
        },
        {
          "internalType": "uint256",
          "name": "price",
          "type": "uint256"
        }
      ],
      "name": "proposeReservePriceBatch",
      "outputs": [],
      "stateMutability": "nonpayable",
      "type": "function"
    },
    {
      "inputs": [],
      "name": "proxiableUUID",
      "outputs": [
        {
          "internalType": "bytes32",
          "name": "",
          "type": "bytes32"
        }
      ],
      "stateMutability": "view",
      "type": "function"
    },
    {
      "inputs": [
        {
          "internalType": "uint256",
          "name": "bidId",
          "type": "uint256"
        }
      ],
      "name": "refundBidDeposit",
      "outputs": [],
      "stateMutability": "nonpayable",
      "type": "function"
    },
    {
      "inputs": [
        {
          "internalType": "uint192",
          "name": "originalId",
          "type": "uint192"
        }
      ],
      "name": "refundOnSold",
      "outputs": [
        {
          "internalType": "uint256",
          "name": "totalResaleFund",
          "type": "uint256"
        }
      ],
      "stateMutability": "nonpayable",
      "type": "function"
    },
    {
      "inputs": [
        {
          "internalType": "bytes32",
          "name": "role",
          "type": "bytes32"
        },
        {
          "internalType": "address",
          "name": "account",
          "type": "address"
        }
      ],
      "name": "renounceRole",
      "outputs": [],
      "stateMutability": "nonpayable",
      "type": "function"
    },
    {
      "inputs": [
        {
          "internalType": "uint192",
          "name": "originalId",
          "type": "uint192"
        },
        {
          "internalType": "enum UsingCryptoPunksMosaicRegistryStructs.MonoBidResponse",
          "name": "response",
          "type": "uint8"
        }
      ],
      "name": "respondToBidBatch",
      "outputs": [
        {
          "internalType": "uint256",
          "name": "bidId",
          "type": "uint256"
        },
        {
          "internalType": "uint64",
          "name": "changedMonoCount",
          "type": "uint64"
        }
      ],
      "stateMutability": "nonpayable",
      "type": "function"
    },
    {
      "inputs": [
        {
          "internalType": "bytes32",
          "name": "role",
          "type": "bytes32"
        },
        {
          "internalType": "address",
          "name": "account",
          "type": "address"
        }
      ],
      "name": "revokeRole",
      "outputs": [],
      "stateMutability": "nonpayable",
      "type": "function"
    },
    {
      "inputs": [
        {
          "internalType": "address",
          "name": "from",
          "type": "address"
        },
        {
          "internalType": "address",
          "name": "to",
          "type": "address"
        },
        {
          "internalType": "uint256",
          "name": "tokenId",
          "type": "uint256"
        }
      ],
      "name": "safeTransferFrom",
      "outputs": [],
      "stateMutability": "nonpayable",
      "type": "function"
    },
    {
      "inputs": [
        {
          "internalType": "address",
          "name": "from",
          "type": "address"
        },
        {
          "internalType": "address",
          "name": "to",
          "type": "address"
        },
        {
          "internalType": "uint256",
          "name": "tokenId",
          "type": "uint256"
        },
        {
          "internalType": "bytes",
          "name": "data",
          "type": "bytes"
        }
      ],
      "name": "safeTransferFrom",
      "outputs": [],
      "stateMutability": "nonpayable",
      "type": "function"
    },
    {
      "inputs": [
        {
          "internalType": "bool",
          "name": "isSet",
          "type": "bool"
        },
        {
          "internalType": "uint256",
          "name": "reservePriceProposalTurnoutThresholdBps",
          "type": "uint256"
        },
        {
          "internalType": "uint40",
          "name": "bidExpiryBlockSeconds",
          "type": "uint40"
        },
        {
          "internalType": "uint256",
          "name": "bidAcceptanceThresholdBps",
          "type": "uint256"
        }
      ],
      "name": "setAdminGovernanceOptions",
      "outputs": [],
      "stateMutability": "nonpayable",
      "type": "function"
    },
    {
      "inputs": [
        {
          "internalType": "address",
          "name": "operator",
          "type": "address"
        },
        {
          "internalType": "bool",
          "name": "approved",
          "type": "bool"
        }
      ],
      "name": "setApprovalForAll",
      "outputs": [],
      "stateMutability": "nonpayable",
      "type": "function"
    },
    {
      "inputs": [
        {
          "internalType": "string",
          "name": "_uri",
          "type": "string"
        }
      ],
      "name": "setInvalidMetadataUri",
      "outputs": [],
      "stateMutability": "nonpayable",
      "type": "function"
    },
    {
      "inputs": [
        {
          "internalType": "uint192",
          "name": "originalId",
          "type": "uint192"
        },
        {
          "internalType": "string",
          "name": "_uri",
          "type": "string"
        }
      ],
      "name": "setMetadataBaseUri",
      "outputs": [],
      "stateMutability": "nonpayable",
      "type": "function"
    },
    {
      "inputs": [
        {
          "internalType": "uint192",
          "name": "originalId",
          "type": "uint192"
        },
        {
          "internalType": "uint256",
          "name": "minReservePrice",
          "type": "uint256"
        },
        {
          "internalType": "uint256",
          "name": "maxReservePrice",
          "type": "uint256"
        }
      ],
      "name": "setOriginalReservePrice",
      "outputs": [],
      "stateMutability": "nonpayable",
      "type": "function"
    },
    {
      "inputs": [
        {
          "internalType": "uint256",
          "name": "mosaicId",
          "type": "uint256"
        },
        {
          "internalType": "uint8",
          "name": "presetId",
          "type": "uint8"
        }
      ],
      "name": "setPresetId",
      "outputs": [],
      "stateMutability": "nonpayable",
      "type": "function"
    },
    {
      "inputs": [
        {
          "internalType": "uint192",
          "name": "originalId",
          "type": "uint192"
        }
      ],
      "name": "sumBidResponses",
      "outputs": [
        {
          "internalType": "uint64",
          "name": "yes",
          "type": "uint64"
        },
        {
          "internalType": "uint64",
          "name": "no",
          "type": "uint64"
        }
      ],
      "stateMutability": "view",
      "type": "function"
    },
    {
      "inputs": [
        {
          "internalType": "uint192",
          "name": "originalId",
          "type": "uint192"
        }
      ],
      "name": "sumReservePriceProposals",
      "outputs": [
        {
          "internalType": "uint256",
          "name": "priceSum",
          "type": "uint256"
        },
        {
          "internalType": "uint64",
          "name": "validProposalCount",
          "type": "uint64"
        },
        {
          "internalType": "uint64",
          "name": "invalidProposalCount",
          "type": "uint64"
        }
      ],
      "stateMutability": "view",
      "type": "function"
    },
    {
      "inputs": [
        {
          "internalType": "bytes4",
          "name": "interfaceId",
          "type": "bytes4"
        }
      ],
      "name": "supportsInterface",
      "outputs": [
        {
          "internalType": "bool",
          "name": "",
          "type": "bool"
        }
      ],
      "stateMutability": "view",
      "type": "function"
    },
    {
      "inputs": [],
      "name": "symbol",
      "outputs": [
        {
          "internalType": "string",
          "name": "",
          "type": "string"
        }
      ],
      "stateMutability": "view",
      "type": "function"
    },
    {
      "inputs": [
        {
          "internalType": "uint192",
          "name": "originalId",
          "type": "uint192"
        },
        {
          "internalType": "address",
          "name": "bidder",
          "type": "address"
        },
        {
          "internalType": "uint256",
          "name": "blockTimestamp",
          "type": "uint256"
        }
      ],
      "name": "toBidId",
      "outputs": [
        {
          "internalType": "uint256",
          "name": "id",
          "type": "uint256"
        }
      ],
      "stateMutability": "pure",
      "type": "function"
    },
    {
      "inputs": [
        {
          "internalType": "uint192",
          "name": "originalId",
          "type": "uint192"
        },
        {
          "internalType": "uint64",
          "name": "monoId",
          "type": "uint64"
        }
      ],
      "name": "toMosaicId",
      "outputs": [
        {
          "internalType": "uint256",
          "name": "mosaicId",
          "type": "uint256"
        }
      ],
      "stateMutability": "pure",
      "type": "function"
    },
    {
      "inputs": [
        {
          "internalType": "uint256",
          "name": "mosaicId",
          "type": "uint256"
        }
      ],
      "name": "tokenURI",
      "outputs": [
        {
          "internalType": "string",
          "name": "",
          "type": "string"
        }
      ],
      "stateMutability": "view",
      "type": "function"
    },
    {
      "inputs": [
        {
          "internalType": "address",
          "name": "from",
          "type": "address"
        },
        {
          "internalType": "address",
          "name": "to",
          "type": "address"
        },
        {
          "internalType": "uint256",
          "name": "tokenId",
          "type": "uint256"
        }
      ],
      "name": "transferFrom",
      "outputs": [],
      "stateMutability": "nonpayable",
      "type": "function"
    },
    {
      "inputs": [
        {
          "internalType": "address",
          "name": "newImplementation",
          "type": "address"
        }
      ],
      "name": "upgradeTo",
      "outputs": [],
      "stateMutability": "nonpayable",
      "type": "function"
    },
    {
      "inputs": [
        {
          "internalType": "address",
          "name": "newImplementation",
          "type": "address"
        },
        {
          "internalType": "bytes",
          "name": "data",
          "type": "bytes"
        }
      ],
      "name": "upgradeToAndCall",
      "outputs": [],
      "stateMutability": "payable",
      "type": "function"
    }
  ],
  "transactionHash": "0x2cb5b6ef23a03b2b6ac4c49541fad511a40e3fb8c8e7a75ded1e5f17e8980aa4",
  "args": [],
  "numDeployments": 3,
  "solcInputHash": "e0730c09df5d6d7e52ea98cf4db30373",
  "bytecode": "0x60a06040523060805234801561001457600080fd5b50608051615faa6200004d60003960008181611ad501528181611b150152818161222c0152818161226c01526126c70152615faa6000f3fe6080604052600436106103575760003560e01c806370a08231116101bc578063af078306116100f2578063c87b56dd116100a0578063e985e9c51161006f578063e985e9c514610b3b578063f01456bc14610b5b578063f3b0db6b14610b7b578063f3c340cd14610ba857600080fd5b8063c87b56dd14610ab9578063d539139314610ad9578063d547741f14610afb578063e36977cb14610b1b57600080fd5b8063af078306146109b9578063af4a6c0c146109d9578063b1dd57b0146109f9578063b40fd56e14610a19578063b88d4fde14610a39578063c01efa5314610a59578063c4d66de814610a9957600080fd5b80638b04db051161016a578063a217fddf11610139578063a217fddf14610964578063a22cb46514610979578063a5627d9a14610999578063ac252ca2146106be57600080fd5b80638b04db05146108e257806391d148541461090257806395d89b4114610922578063970525dd1461093757600080fd5b806370a08231146107f557806376016f4b1461081557806379c07a391461084257806379f5f153146108625780637c49f10e146108755780638310a7da146108a25780638902436a146108c257600080fd5b8063342834f7116102915780634bb722c61161023f57806352d1902d1161020e57806352d1902d1461073457806354cefb23146107495780636352211e1461079057806364f4e5ef146107b057600080fd5b80634bb722c6146106be5780634c905789146106d45780634f1ef28614610701578063512137ed1461071457600080fd5b8063342834f7146105cf57806336568abe146105ef5780633659cfe61461060f5780633a0e75551461062f5780633c889e6f1461064f57806342842e0e1461067d57806345e67a8c1461069d57600080fd5b80632062f2e4116103095780632977d697116102d85780632977d697146105425780632f2ff15d1461056257806331233aa114610582578063326d0367146105af57600080fd5b80632062f2e4146104a457806323b872dd146104d2578063248a9ca3146104f25780632594c2241461052257600080fd5b806301ffc9a71461035c578063033d05f11461039157806306fdde03146103be578063081812fc146103e0578063095ea7b3146104185780630c1bb9d81461043a5780630e6a929c14610477575b600080fd5b34801561036857600080fd5b5061037c610377366004614fc3565b610bc8565b60405190151581526020015b60405180910390f35b34801561039d57600080fd5b506103a6610be8565b6040516001600160c01b039091168152602001610388565b3480156103ca57600080fd5b506103d3610c04565b6040516103889190615030565b3480156103ec57600080fd5b506104006103fb366004615043565b610c96565b6040516001600160a01b039091168152602001610388565b34801561042457600080fd5b50610438610433366004615071565b610cbd565b005b34801561044657600080fd5b5061045a6104553660046150b4565b610dd7565b604080519283526001600160401b03909116602083015201610388565b34801561048357600080fd5b50610497610492366004615043565b610fdb565b6040516103889190615115565b3480156104b057600080fd5b506104c46104bf366004615128565b61109c565b604051908152602001610388565b3480156104de57600080fd5b506104386104ed36600461515d565b611365565b3480156104fe57600080fd5b506104c461050d366004615043565b600090815260fb602052604090206001015490565b34801561052e57600080fd5b506104c461053d36600461519e565b611396565b34801561054e57600080fd5b5061043861055d3660046151b9565b61141a565b34801561056e57600080fd5b5061043861057d3660046151d5565b611602565b34801561058e57600080fd5b5061059962093a8081565b60405164ffffffffff9091168152602001610388565b3480156105bb57600080fd5b506104386105ca3660046151fa565b611627565b3480156105db57600080fd5b506104386105ea366004615043565b6117d8565b3480156105fb57600080fd5b5061043861060a3660046151d5565b611a4d565b34801561061b57600080fd5b5061043861062a36600461521c565b611acb565b34801561063b57600080fd5b5061043861064a366004615043565b611b90565b34801561065b57600080fd5b5061066f61066a366004615043565b611ea1565b60405161038892919061524d565b34801561068957600080fd5b5061043861069836600461515d565b611f84565b3480156106a957600080fd5b5061015f54610400906001600160a01b031681565b3480156106ca57600080fd5b506104c4610bb881565b3480156106e057600080fd5b506106f46106ef366004615043565b611f9f565b60405161038891906152ca565b61043861070f36600461537a565b612222565b34801561072057600080fd5b506103a661072f3660046153e0565b6122d7565b34801561074057600080fd5b506104c46126ba565b34801561075557600080fd5b50610769610764366004615043565b612768565b604080516001600160c01b0390931683526001600160401b03909116602083015201610388565b34801561079c57600080fd5b506104006107ab366004615043565b612798565b3480156107bc57600080fd5b506107d06107cb36600461519e565b6127f7565b604080519384526001600160401b039283166020850152911690820152606001610388565b34801561080157600080fd5b506104c461081036600461521c565b6128ce565b34801561082157600080fd5b5061083561083036600461519e565b612954565b604051610388919061543f565b34801561084e57600080fd5b5061043861085d3660046154f8565b612abf565b6104c46108703660046151b9565b612b13565b34801561088157600080fd5b5061089561089036600461519e565b612fb3565b6040516103889190615523565b3480156108ae57600080fd5b5061037c6108bd36600461519e565b61308e565b3480156108ce57600080fd5b506104c46108dd36600461519e565b6130f9565b3480156108ee57600080fd5b506104386108fd366004615537565b613330565b34801561090e57600080fd5b5061037c61091d3660046151d5565b6133cb565b34801561092e57600080fd5b506103d36133f6565b34801561094357600080fd5b5061095761095236600461556a565b613405565b6040516103889190615594565b34801561097057600080fd5b506104c4600081565b34801561098557600080fd5b506104386109943660046155ec565b6134b0565b3480156109a557600080fd5b506104386109b436600461565b565b6134bb565b3480156109c557600080fd5b506104c46109d436600461519e565b613505565b3480156109e557600080fd5b506104c46109f436600461556a565b6135a5565b348015610a0557600080fd5b50610438610a143660046156ad565b6135c3565b348015610a2557600080fd5b50610438610a3436600461521c565b613617565b348015610a4557600080fd5b50610438610a543660046156ff565b61363a565b348015610a6557600080fd5b50610a79610a7436600461519e565b613672565b604080516001600160401b03938416815292909116602083015201610388565b348015610aa557600080fd5b50610438610ab436600461521c565b61379f565b348015610ac557600080fd5b506103d3610ad4366004615043565b613945565b348015610ae557600080fd5b506104c4600080516020615f5583398151915281565b348015610b0757600080fd5b50610438610b163660046151d5565b613b38565b348015610b2757600080fd5b506104c4610b3636600461576a565b613b5d565b348015610b4757600080fd5b5061037c610b56366004615788565b613bc4565b348015610b6757600080fd5b5061037c610b7636600461519e565b613bf2565b348015610b8757600080fd5b50610b9b610b9636600461519e565b613c8f565b60405161038891906157b6565b348015610bb457600080fd5b50610438610bc33660046157c3565b613ce6565b6000610bd382613d07565b80610be25750610be282613d57565b92915050565b6000610bf2613d7c565b600101546001600160c01b0316919050565b606060658054610c1390615804565b80601f0160208091040260200160405190810160405280929190818152602001828054610c3f90615804565b8015610c8c5780601f10610c6157610100808354040283529160200191610c8c565b820191906000526020600020905b815481529060010190602001808311610c6f57829003601f168201915b5050505050905090565b6000610ca182613da0565b506000908152606960205260409020546001600160a01b031690565b6000610cc882612798565b9050806001600160a01b0316836001600160a01b031603610d3a5760405162461bcd60e51b815260206004820152602160248201527f4552433732313a20617070726f76616c20746f2063757272656e74206f776e656044820152603960f91b60648201526084015b60405180910390fd5b336001600160a01b0382161480610d565750610d568133613bc4565b610dc85760405162461bcd60e51b815260206004820152603d60248201527f4552433732313a20617070726f76652063616c6c6572206973206e6f7420746f60448201527f6b656e206f776e6572206f7220617070726f76656420666f7220616c6c0000006064820152608401610d31565b610dd28383613df0565b505050565b61015f5460009081906001600160a01b03161580610e6a575061015f60009054906101000a90046001600160a01b03166001600160a01b03166322f3e2d46040518163ffffffff1660e01b8152600401602060405180830381865afa158015610e44573d6000803e3d6000fd5b505050506040513d601f19601f82011682018060405250810190610e68919061583e565b155b80610e7a5750610e78613e5e565b155b15610e9857604051634065aaf160e11b815260040160405180910390fd5b610ea184613bf2565b610ebe57604051634065aaf160e11b815260040160405180910390fd5b6000610ec8613d7c565b6001600160c01b038616600090815260039190910160205260408120546001600160401b03169150610ef8613d7c565b6001600160c01b03871660009081526002919091016020526040902060080154905060015b826001600160401b0316816001600160401b03161015610fcf576000610f4388836135a5565b905033610f4f82613ead565b6001600160a01b031603610fbc5784610f6781615871565b9550506000610f74613d7c565b6000838152600491820160205260409020908101859055600381018054600292830193508a9260ff19909116906001908490811115610fb557610fb56150ef565b0217905550505b5080610fc781615871565b915050610f1d565b509250505b9250929050565b600080610fe783612768565b509050610ff2613d7c565b600101546001600160c01b03908116908216111561100f57600080fd5b6000611019613d7c565b6001600160c01b03831660009081526002919091016020526040902090506001600782015460ff166001811115611052576110526150ef565b03611061575060029392505050565b611069613d7c565b6000858152600491909101602052604081206001015460ff169003611092575060009392505050565b5060019392505050565b61015f546000906001600160a01b0316158061112d575061015f60009054906101000a90046001600160a01b03166001600160a01b03166322f3e2d46040518163ffffffff1660e01b8152600401602060405180830381865afa158015611107573d6000803e3d6000fd5b505050506040513d601f19601f8201168201806040525081019061112b919061583e565b155b8061113d575061113b613e5e565b155b1561115b57604051634065aaf160e11b815260040160405180910390fd5b600080516020615f5583398151915261117381613ec8565b600061117d613d7c565b6001600160c01b038516600090815260039190910160205260409020546001600160401b0316116111ad57600080fd5b60006111b7613d7c565b6001600160c01b03851660009081526003919091016020526040812080546001600160401b0316916111e883615871565b91906101000a8154816001600160401b0302191690836001600160401b03160217905550905061121884826135a5565b92506040518060600160405280848152602001600060ff1681526020016040518060600160405280600081526020016000600281111561125a5761125a6150ef565b81526000602090910152905261126e613d7c565b6000858152600491909101602090815260409182902083518155838201516001808301805460ff90931660ff199384161790559385015180516002808501918255948201516003850180549597939692959194909391169184908111156112d7576112d76150ef565b02179055506040820151816002015550509050506112f3613d7c565b6001600160c01b0385166000908152600291820160205260409020018054600160601b90046001600160601b031690600c61132d83615897565b91906101000a8154816001600160601b0302191690836001600160601b031602179055505061135c8584613ed2565b505b5092915050565b61136f3382613eec565b61138b5760405162461bcd60e51b8152600401610d31906158b3565b610dd2838383613f4a565b6000806113a1613d7c565b6001600160c01b038416600090815260079190910160205260409020549050806113ca57600080fd5b60006113d4613d7c565b6001600160c01b03851660009081526002918201602052604090200154611406906001600160601b0316612710615900565b905061141282826140bb565b949350505050565b61015f546001600160a01b031615806114a8575061015f60009054906101000a90046001600160a01b03166001600160a01b03166322f3e2d46040518163ffffffff1660e01b8152600401602060405180830381865afa158015611482573d6000803e3d6000fd5b505050506040513d601f19601f820116820180604052508101906114a6919061583e565b155b806114b857506114b6613e5e565b155b156114d657604051634065aaf160e11b815260040160405180910390fd5b60006114e0613d7c565b6002016000846001600160c01b03166001600160c01b03168152602001908152602001600020905081816004015411158015611520575080600501548211155b61154f57600480820154600583015460405163ad19f65f60e01b8152610d319301918252602082015260400190565b6000611559613d7c565b6001600160c01b038516600090815260039190910160205260409020546001600160401b0316905060015b816001600160401b0316816001600160401b031610156115fb5760006115aa86836135a5565b9050336115b682613ead565b6001600160a01b0316036115e85760006115ce613d7c565b600083815260049190910160205260409020600201869055505b50806115f381615871565b915050611584565b5050505050565b600082815260fb602052604090206001015461161d81613ec8565b610dd283836140ec565b61015f546001600160a01b031615806116b5575061015f60009054906101000a90046001600160a01b03166001600160a01b03166322f3e2d46040518163ffffffff1660e01b8152600401602060405180830381865afa15801561168f573d6000803e3d6000fd5b505050506040513d601f19601f820116820180604052508101906116b3919061583e565b155b806116c557506116c3613e5e565b155b156116e357604051634065aaf160e11b815260040160405180910390fd5b81336116ee82612798565b6001600160a01b03161461172a5761170581612798565b60405163472511eb60e11b81526001600160a01b039091166004820152602401610d31565b600061173584612768565b5090506000611742613d7c565b6002016000836001600160c01b03166001600160c01b03168152602001908152602001600020905083816004015411158015611782575080600501548411155b6117b157600480820154600583015460405163ad19f65f60e01b8152610d319301918252602082015260400190565b60006117bb613d7c565b600096875260040160205250506040909320600201919091555050565b6117e0614172565b61015f546001600160a01b0316158061186e575061015f60009054906101000a90046001600160a01b03166001600160a01b03166322f3e2d46040518163ffffffff1660e01b8152600401602060405180830381865afa158015611848573d6000803e3d6000fd5b505050506040513d601f19601f8201168201806040525081019061186c919061583e565b155b8061187e575061187c613e5e565b155b1561189c57604051634065aaf160e11b815260040160405180910390fd5b60006118a6613d7c565b600083815260059190910160205260409020805490915082146118c857600080fd5b60036004820154600160501b900460ff1660058111156118ea576118ea6150ef565b1461191e5780600401600a9054906101000a900460ff166003604051633915cf4f60e11b8152600401610d31929190615922565b60018101546001600160a01b0316331461195c57600181015460405163472511eb60e11b81526001600160a01b039091166004820152602401610d31565b6000611966613d7c565b60008481526006919091016020526040808220549051909250339083908381818185875af1925050503d80600081146119bb576040519150601f19603f3d011682016040523d82523d6000602084013e6119c0565b606091505b50509050806119ce57600080fd5b60006119d8613d7c565b600086815260069190910160205260408082209290925560048501805460ff60501b1916600560501b179055600285015491516001600160c01b039092169186917f45368e9994df879f0e9d3c8e00a81f2745c25f6f5c8519296d97d1992ba2233191a3505050611a4a600161012d55565b50565b6001600160a01b0381163314611abd5760405162461bcd60e51b815260206004820152602f60248201527f416363657373436f6e74726f6c3a2063616e206f6e6c792072656e6f756e636560448201526e103937b632b9903337b91039b2b63360891b6064820152608401610d31565b611ac782826141cd565b5050565b6001600160a01b037f0000000000000000000000000000000000000000000000000000000000000000163003611b135760405162461bcd60e51b8152600401610d319061593d565b7f00000000000000000000000000000000000000000000000000000000000000006001600160a01b0316611b45614234565b6001600160a01b031614611b6b5760405162461bcd60e51b8152600401610d3190615989565b611b7481614250565b60408051600080825260208201909252611a4a9183919061425b565b61015f546001600160a01b03161580611c1e575061015f60009054906101000a90046001600160a01b03166001600160a01b03166322f3e2d46040518163ffffffff1660e01b8152600401602060405180830381865afa158015611bf8573d6000803e3d6000fd5b505050506040513d601f19601f82011682018060405250810190611c1c919061583e565b155b80611c2e5750611c2c613e5e565b155b15611c4c57604051634065aaf160e11b815260040160405180910390fd5b6000611c56613d7c565b60008381526005919091016020526040902080549091508214611c7857600080fd5b60026004820154600160501b900460ff166005811115611c9a57611c9a6150ef565b14611cce5780600401600a9054906101000a900460ff166002604051633915cf4f60e11b8152600401610d31929190615922565b6000611cd8613d7c565b6002838101546001600160c01b031660009081529101602052604090206003830154909150611d05613d7c565b82546001600160c01b0390811660009081526007928301602052604080822094909455918401805460ff19166001179055600285015492518693909116917fc8af5b62fdee6b689bb033af55802065de039199e8773211c391e2bc629f9bff91a361015f60009054906101000a90046001600160a01b03166001600160a01b031663d0d851d06040518163ffffffff1660e01b8152600401602060405180830381865afa158015611dba573d6000803e3d6000fd5b505050506040513d601f19601f82011682018060405250810190611dde91906159d5565b600183810154908301546040516322dca8bb60e21b81526001600160a01b0392831660048201526024810191909152911690638b72a2ec90604401600060405180830381600087803b158015611e3357600080fd5b505af1158015611e47573d6000803e3d6000fd5b5050505060048201805460ff60501b1916600160521b17905560028201546040516001600160c01b039091169084907f99df1ef09da39d623befdb16807aa77c3019cdab1513e0911a6a9b5cbeb7717190600090a3505050565b611ea9614ee8565b6000611eb3613d7c565b600084815260059190910160205260409020611ecd613d7c565b6000858152600691909101602090815260409182902054825160e0810184528454815260018501546001600160a01b03169281019290925260028401546001600160c01b03169282019290925260038301546060820152600483015464ffffffffff8082166080840152600160281b82041660a0830152839060c0830190600160501b900460ff166005811115611f6657611f666150ef565b6005811115611f7757611f776150ef565b9052509590945092505050565b610dd28383836040518060200160405280600081525061363a565b61015f546000906001600160a01b03161580612030575061015f60009054906101000a90046001600160a01b03166001600160a01b03166322f3e2d46040518163ffffffff1660e01b8152600401602060405180830381865afa15801561200a573d6000803e3d6000fd5b505050506040513d601f19601f8201168201806040525081019061202e919061583e565b155b80612040575061203e613e5e565b155b1561205e57604051634065aaf160e11b815260040160405180910390fd5b6000612068613d7c565b6000848152600591909101602052604090208054909150831461208a57600080fd5b60016004820154600160501b900460ff1660058111156120ac576120ac6150ef565b146120e05780600401600a9054906101000a900460ff166001604051633915cf4f60e11b8152600401610d31929190615922565b600481015442906121019064ffffffffff600160281b8204811691166159f2565b64ffffffffff16106121485760405162461bcd60e51b815260206004820152601060248201526f42696420766f7465206f6e676f696e6760801b6044820152606401610d31565b600281015461215f906001600160c01b031661308e565b156121ba5760048101805460ff60501b1916600160511b17905560028101546040516001600160c01b039091169084907fb3da334e87bb12429fffd68719932238d83910609c56e8c29aa40a792ad13a2190600090a361220c565b60048101805460ff60501b1916600360501b17905560028101546040516001600160c01b039091169084907fef7c1c563e3b3cbcb87042244eb19ffd95036cade90e0e582f71e3d276a8e8b990600090a35b60040154600160501b900460ff1690505b919050565b6001600160a01b037f000000000000000000000000000000000000000000000000000000000000000016300361226a5760405162461bcd60e51b8152600401610d319061593d565b7f00000000000000000000000000000000000000000000000000000000000000006001600160a01b031661229c614234565b6001600160a01b0316146122c25760405162461bcd60e51b8152600401610d3190615989565b6122cb82614250565b611ac78282600161425b565b61015f546000906001600160a01b03161580612368575061015f60009054906101000a90046001600160a01b03166001600160a01b03166322f3e2d46040518163ffffffff1660e01b8152600401602060405180830381865afa158015612342573d6000803e3d6000fd5b505050506040513d601f19601f82011682018060405250810190612366919061583e565b155b806123785750612376613e5e565b155b1561239657604051634065aaf160e11b815260040160405180910390fd5b600080516020615f558339815191526123ae81613ec8565b61015f5460408051630d0d851d60e41b8152905130926001600160a01b03169163d0d851d09160048083019260209291908290030181865afa1580156123f8573d6000803e3d6000fd5b505050506040513d601f19601f8201168201806040525081019061241c91906159d5565b6001600160a01b03166358178168896040518263ffffffff1660e01b815260040161244991815260200190565b602060405180830381865afa158015612466573d6000803e3d6000fd5b505050506040513d601f19601f8201168201806040525081019061248a91906159d5565b6001600160a01b03161461249d57600080fd5b6124a5613d7c565b60010180546000906124bf906001600160c01b0316615a10565b91906101000a8154816001600160c01b0302191690836001600160c01b03160217905591506124ec613d7c565b6001600160c01b038316600090815260039190910160205260408120805490919061251f906001600160401b0316615871565b91906101000a8154816001600160401b0302191690836001600160401b03160217905550604051806101400160405280836001600160c01b03168152602001888152602001876001600160401b03166001600160601b0316815260200160006001600160601b03168152602001868152602001858152602001848152602001604051806020016040528060008152508152602001600060018111156125c6576125c66150ef565b815260200160008152506125d8613d7c565b6001600160c01b038085166000908152600292830160209081526040918290208551815494166001600160c01b031994851617815590850151600182015590840151928101805460608601516001600160601b03908116600160601b029190941693909416929092179290921790556080820151600382015560a0820151600482015560c0820151600582015560e082015160068201906126799082615a7a565b5061010082015160078201805460ff19166001838181111561269d5761269d6150ef565b021790555061012082015181600801559050505095945050505050565b6000306001600160a01b037f000000000000000000000000000000000000000000000000000000000000000016146127555760405162461bcd60e51b815260206004820152603860248201527f555550535570677261646561626c653a206d757374206e6f742062652063616c6044820152771b1959081d1a1c9bdd59da0819195b1959d85d1958d85b1b60421b6064820152608401610d31565b50600080516020615f0e83398151915290565b600080604083901c6001604060016127809190615b39565b6001901b61278e9190615b4c565b9094931692915050565b6000806127a483613ead565b90506001600160a01b038116610be25760405162461bcd60e51b8152602060048201526018602482015277115490cdcc8c4e881a5b9d985b1a59081d1bdad95b88125160421b6044820152606401610d31565b600080600080612805613d7c565b6001600160c01b038616600090815260039190910160205260409020546001600160401b0316905060015b816001600160401b0316816001600160401b031610156128c5576000612854613d7c565b600401600061286389856135a5565b815260208101919091526040016000206002810154909150156128a4578461288a81615871565b600283015490965061289d915087615b39565b95506128b2565b836128ae81615871565b9450505b50806128bd81615871565b915050612830565b50509193909250565b60006001600160a01b0382166129385760405162461bcd60e51b815260206004820152602960248201527f4552433732313a2061646472657373207a65726f206973206e6f7420612076616044820152683634b21037bbb732b960b91b6064820152608401610d31565b506001600160a01b031660009081526068602052604090205490565b61295c614f25565b612964613d7c565b6001600160c01b0380841660009081526002928301602090815260409182902082516101408101845281549094168452600181015491840191909152928301546001600160601b0380821692840192909252600160601b900416606082015260038201546080820152600482015460a0820152600582015460c082015260068201805491929160e0840191906129f990615804565b80601f0160208091040260200160405190810160405280929190818152602001828054612a2590615804565b8015612a725780601f10612a4757610100808354040283529160200191612a72565b820191906000526020600020905b815481529060010190602001808311612a5557829003601f168201915b5050509183525050600782015460209091019060ff166001811115612a9957612a996150ef565b6001811115612aaa57612aaa6150ef565b81526020016008820154815250509050919050565b8133612aca82612798565b6001600160a01b031614612ae15761170581612798565b6000612aeb613d7c565b600094855260040160205250506040909120600101805460ff191660ff909216919091179055565b61015f546000906001600160a01b03161580612ba4575061015f60009054906101000a90046001600160a01b03166001600160a01b03166322f3e2d46040518163ffffffff1660e01b8152600401602060405180830381865afa158015612b7e573d6000803e3d6000fd5b505050506040513d601f19601f82011682018060405250810190612ba2919061583e565b155b80612bb45750612bb2613e5e565b155b15612bd257604051634065aaf160e11b815260040160405180910390fd5b826000612bdd613d7c565b6001600160c01b0383166000908152600291909101602052604090206007015460ff166001811115612c1157612c116150ef565b14612c2f57604051634065aaf160e11b815260040160405180910390fd5b823414612c3b57600080fd5b6000612c4685613505565b90506000612c52613d7c565b6001600160c01b03871660009081526002919091016020526040902060048101549091508510801590612c855750818510155b8015612c95575080600501548511155b612cc257600581015460405163ad19f65f60e01b8152610d31918491600401918252602082015260400190565b6000600782015460ff166001811115612cdd57612cdd6150ef565b14612ce757600080fd5b60088101548015612dfd576000612cfc613d7c565b60008381526005919091016020526040902060040154600160501b900460ff1690506002816005811115612d3257612d326150ef565b14158015612d5257506004816005811115612d4f57612d4f6150ef565b14155b612d5b57600080fd5b6001816005811115612d6f57612d6f6150ef565b03612dfb57604051634c90578960e01b8152600481018390526000903090634c905789906024016020604051808303816000875af1158015612db5573d6000803e3d6000fd5b505050506040513d601f19601f82011682018060405250810190612dd99190615b5f565b90506003816005811115612def57612def6150ef565b14612df957600080fd5b505b505b6000612e0a883342613b5d565b90506040518060e00160405280828152602001336001600160a01b03168152602001896001600160c01b031681526020018881526020014264ffffffffff168152602001612e566143c6565b6002015464ffffffffff16815260200160019052612e72613d7c565b60008381526005918201602090815260409182902084518155908401516001820180546001600160a01b039092166001600160a01b0319909216919091179055908301516002820180546001600160c01b039092166001600160c01b031990921691909117905560608301516003820155608083015160048201805460a086015164ffffffffff908116600160281b0269ffffffffffffffffffff199092169316929092179190911780825560c0850151929360ff60501b1990911690600160501b908490811115612f4657612f466150ef565b021790555090505034612f57613d7c565b60008381526006919091016020526040808220929092556008850183905590516001600160c01b038a169183917f8533454634e1656b9e2daf5da3b90e4d937516874c552e83bec683277b6109a69190a3979650505050505050565b600080612fbe613d7c565b6001600160c01b03841660009081526002919091016020526040902090506001600782015460ff166001811115612ff757612ff76150ef565b036130055750600392915050565b61300e83613bf2565b1561301c5750600192915050565b6000613026613d7c565b6008830154600081815260059290920160205260409091209150158061304b57508054155b80613075575060036004820154600160501b900460ff166005811115613073576130736150ef565b145b15613084575060009392505050565b5060029392505050565b60008061309a83613672565b50905060006130a7613d7c565b6001600160c01b038516600090815260029182016020526040902001546001600160601b031690506130e4816130db6143c6565b600301546140bb565b826001600160401b0316101592505050919050565b6000613103614172565b61015f546001600160a01b03161580613191575061015f60009054906101000a90046001600160a01b03166001600160a01b03166322f3e2d46040518163ffffffff1660e01b8152600401602060405180830381865afa15801561316b573d6000803e3d6000fd5b505050506040513d601f19601f8201168201806040525081019061318f919061583e565b155b806131a1575061319f613e5e565b155b156131bf57604051634065aaf160e11b815260040160405180910390fd5b6000806131ca613d7c565b6001600160c01b038516600090815260039190910160205260409020546001600160401b0316905060015b816001600160401b0316816001600160401b0316101561325f57600061321b86836135a5565b90503361322782613ead565b6001600160a01b03160361324c5761323e816143ea565b8361324881615b80565b9450505b508061325781615871565b9150506131f5565b508160000361328157604051634a531cfd60e01b815260040160405180910390fd5b61328a84611396565b6132949083615b99565b604051909350600090339085908381818185875af1925050503d80600081146132d9576040519150601f19603f3d011682016040523d82523d6000602084013e6132de565b606091505b50509050806132ec57600080fd5b60405133906001600160c01b038716907fc6d91402e00d43c03e126a374dddd6386f8764fd6bbd8453dabf5e2e37545f0890600090a350505061221d600161012d55565b600061333b81613ec8565b6000613345613d7c565b6001600160c01b038087166000908152600292909201602052604090912054161161336f57600080fd5b82613378613d7c565b6001600160c01b03861660009081526002919091016020526040902060040155816133a1613d7c565b6001600160c01b039095166000908152600295909501602052604090942060050193909355505050565b600091825260fb602090815260408084206001600160a01b0393909316845291905290205460ff1690565b606060668054610c1390615804565b61340d614f79565b613415613d7c565b600401600061342485856135a5565b8152602080820192909252604090810160002081516060808201845282548252600183015460ff9081168387015284519182018552600280850180548452600386015494979596880195939490938501921690811115613486576134866150ef565b6002811115613497576134976150ef565b8152600291909101546020909101529052509392505050565b611ac733838361448d565b60006134c681613ec8565b60006134d0613d7c565b6001600160c01b0386166000908152600291909101602052604090209050600681016134fd848683615bb0565b505050505050565b600080600080613514856127f7565b919450925090506135426135288284615c6f565b6001600160401b03166135396143c6565b600101546140bb565b826001600160401b03161015613589578161355b6143c6565b600101546040516310fb379160e21b81526001600160401b0390921660048301526024820152604401610d31565b61359c6001600160401b03831684615900565b95945050505050565b6001600160401b031660409190911b67ffffffffffffffff19161790565b60006135ce81613ec8565b60006135d86143c6565b805460ff19169615159690961786555050600184019290925560028301805464ffffffffff191664ffffffffff92909216919091179055600390910155565b600061362281613ec8565b611ac7600080516020615f55833981519152836140ec565b6136443383613eec565b6136605760405162461bcd60e51b8152600401610d31906158b3565b61366c8484848461455b565b50505050565b600080600061367f613d7c565b6001600160c01b038516600090815260039190910160205260408120546001600160401b031691506136af613d7c565b6001600160c01b03861660009081526002919091016020526040902060080154905060015b826001600160401b0316816001600160401b031610156137975760006136f8613d7c565b600401600061370789856135a5565b81526020019081526020016000206002019050828160020154036137845760018082015460ff16600281111561373f5761373f6150ef565b03613756578561374e81615871565b965050613784565b6002600182015460ff166002811115613771576137716150ef565b03613784578461378081615871565b9550505b508061378f81615871565b9150506136d4565b505050915091565b600054610100900460ff16158080156137bf5750600054600160ff909116105b806137d95750303b1580156137d9575060005460ff166001145b61383c5760405162461bcd60e51b815260206004820152602e60248201527f496e697469616c697a61626c653a20636f6e747261637420697320616c72656160448201526d191e481a5b9a5d1a585b1a5e995960921b6064820152608401610d31565b6000805460ff19166001179055801561385f576000805461ff0019166101001790555b6138b66040518060400160405280601281526020017143727970746f50756e6b73204d6f7361696360701b8152506040518060400160405280600b81526020016a50554e4b534d4f5341494360a81b81525061458e565b61015f80546001600160a01b0319166001600160a01b0384161790556138dd6000336140ec565b6138e86000836140ec565b6138fc6001610bb862093a80610bb86135c3565b8015611ac7576000805461ff0019169055604051600181527f7f26b83ff96e1f2b6a682f133852f6798a09c465da95921460cefb38474024989060200160405180910390a15050565b6060600061395283612768565b509050600061395f613d7c565b6001600160c01b03831660009081526002919091016020526040902090506001600782015460ff166001811115613998576139986150ef565b03613a37576139a5613d7c565b80546139b090615804565b80601f01602080910402602001604051908101604052809291908181526020018280546139dc90615804565b8015613a295780601f106139fe57610100808354040283529160200191613a29565b820191906000526020600020905b815481529060010190602001808311613a0c57829003601f168201915b505050505092505050919050565b6000816006018054613a4890615804565b80601f0160208091040260200160405190810160405280929190818152602001828054613a7490615804565b8015613ac15780601f10613a9657610100808354040283529160200191613ac1565b820191906000526020600020905b815481529060010190602001808311613aa457829003601f168201915b505050505090506000613ad2613d7c565b6000878152600491909101602052604090206001908101549084015460ff90911691508290613b00906145bf565b613b0c8360ff166145bf565b604051602001613b1e93929190615c8f565b604051602081830303815290604052945050505050919050565b600082815260fb6020526040902060010154613b5381613ec8565b610dd283836141cd565b6040805167ffffffffffffffff1985831b166020808301919091526bffffffffffffffffffffffff19606086901b1660388301526001600160d81b031960d885901b16604c83015282516031818403018152605190920190925280519101205b9392505050565b6001600160a01b039182166000908152606a6020908152604080832093909416825291909152205460ff1690565b600080613bfd613d7c565b6001600160c01b038416600090815260029190910160205260408120600801549150613c27613d7c565b60008381526005919091016020526040902090508115801590613c56575060018101546001600160a01b031615155b8015611412575060048101544290613c7e9064ffffffffff600160281b8204811691166159f2565b64ffffffffff161015949350505050565b600080613c9a613d7c565b6001600160c01b0384166000908152600291820160205260409020908101549091506001600160601b03600160601b82048116911603613cdd5750600192915050565b50600092915050565b6000613cf181613ec8565b8282613cfb613d7c565b9161366c919083615bb0565b60006001600160e01b031982166380ac58cd60e01b1480613d3857506001600160e01b03198216635b5e139f60e01b145b80610be257506301ffc9a760e01b6001600160e01b0319831614610be2565b60006001600160e01b03198216637965db0b60e01b1480610be25750610be282613d07565b7f5cafb8bef6ef913d32c72906048dcf5e6edbee573e07510aef7565bd03ff9d2890565b613da981614651565b611a4a5760405162461bcd60e51b8152602060048201526018602482015277115490cdcc8c4e881a5b9d985b1a59081d1bdad95b88125160421b6044820152606401610d31565b600081815260696020526040902080546001600160a01b0319166001600160a01b0384169081179091558190613e2582612798565b6001600160a01b03167f8c5be1e5ebec7d5bd14f71427d1e84f3dd0314c0f7b2291e5b200ac8c7c3b92560405160405180910390a45050565b600080613e696143c6565b805490915060ff168015613e81575060008160010154115b8015613e975750600281015464ffffffffff1615155b8015613ea7575060008160030154115b91505090565b6000908152606760205260409020546001600160a01b031690565b611a4a813361466e565b611ac78282604051806020016040528060008152506146c7565b600080613ef883612798565b9050806001600160a01b0316846001600160a01b03161480613f1f5750613f1f8185613bc4565b806114125750836001600160a01b0316613f3884610c96565b6001600160a01b031614949350505050565b826001600160a01b0316613f5d82612798565b6001600160a01b031614613f835760405162461bcd60e51b8152600401610d3190615d00565b6001600160a01b038216613fe55760405162461bcd60e51b8152602060048201526024808201527f4552433732313a207472616e7366657220746f20746865207a65726f206164646044820152637265737360e01b6064820152608401610d31565b613ff283838360016146fa565b826001600160a01b031661400582612798565b6001600160a01b03161461402b5760405162461bcd60e51b8152600401610d3190615d00565b600081815260696020908152604080832080546001600160a01b03199081169091556001600160a01b0387811680865260688552838620805460001901905590871680865283862080546001019055868652606790945282852080549092168417909155905184937fddf252ad1be2c89b69c2b068fc378daa952ba7f163c4a11628f55a4df523b3ef91a4505050565b60006127106140ca8385615b99565b10156140d557600080fd5b6127106140e28385615b99565b613bbd9190615900565b6140f682826133cb565b611ac757600082815260fb602090815260408083206001600160a01b03851684529091529020805460ff1916600117905561412e3390565b6001600160a01b0316816001600160a01b0316837f2f8788117e7eff1d82e926ec794901d17c78024a50270940304540a733656f0d60405160405180910390a45050565b600261012d54036141c55760405162461bcd60e51b815260206004820152601f60248201527f5265656e7472616e637947756172643a207265656e7472616e742063616c6c006044820152606401610d31565b600261012d55565b6141d782826133cb565b15611ac757600082815260fb602090815260408083206001600160a01b0385168085529252808320805460ff1916905551339285917ff6391f5c32d9c69d2a47ea670b442974b53935d1edc7fd64eb21e047a839171b9190a45050565b600080516020615f0e833981519152546001600160a01b031690565b6000611ac781613ec8565b7f4910fdfa16fed3260ed0e7147f7cc6da11a60208b5b9406d12a635614ffd91435460ff161561428e57610dd283614782565b826001600160a01b03166352d1902d6040518163ffffffff1660e01b8152600401602060405180830381865afa9250505080156142e8575060408051601f3d908101601f191682019092526142e591810190615d45565b60015b61434b5760405162461bcd60e51b815260206004820152602e60248201527f45524331393637557067726164653a206e657720696d706c656d656e7461746960448201526d6f6e206973206e6f74205555505360901b6064820152608401610d31565b600080516020615f0e83398151915281146143ba5760405162461bcd60e51b815260206004820152602960248201527f45524331393637557067726164653a20756e737570706f727465642070726f786044820152681a58589b195555525160ba1b6064820152608401610d31565b50610dd283838361481e565b7f44102fc348b5cd514e1cb02c2a16bd78dd34cb441f00a30c6afefa62b3126c4190565b60006143f582612798565b90506144058160008460016146fa565b61440e82612798565b600083815260696020908152604080832080546001600160a01b03199081169091556001600160a01b0385168085526068845282852080546000190190558785526067909352818420805490911690555192935084927fddf252ad1be2c89b69c2b068fc378daa952ba7f163c4a11628f55a4df523b3ef908390a45050565b816001600160a01b0316836001600160a01b0316036144ee5760405162461bcd60e51b815260206004820152601960248201527f4552433732313a20617070726f766520746f2063616c6c6572000000000000006044820152606401610d31565b6001600160a01b038381166000818152606a6020908152604080832094871680845294825291829020805460ff191686151590811790915591519182527f17307eab39ab6107e8899845ad3d59bd9653f200f220920489ca2b5937696c31910160405180910390a3505050565b614566848484613f4a565b61457284848484614843565b61366c5760405162461bcd60e51b8152600401610d3190615d5e565b600054610100900460ff166145b55760405162461bcd60e51b8152600401610d3190615db0565b611ac78282614944565b606060006145cc83614984565b60010190506000816001600160401b038111156145eb576145eb6152d8565b6040519080825280601f01601f191660200182016040528015614615576020820181803683370190505b5090508181016020015b600019016f181899199a1a9b1b9c1cb0b131b232b360811b600a86061a8153600a850494508461461f57509392505050565b60008061465d83613ead565b6001600160a01b0316141592915050565b61467882826133cb565b611ac75761468581614a5c565b614690836020614a6e565b6040516020016146a1929190615dfb565b60408051601f198184030181529082905262461bcd60e51b8252610d3191600401615030565b6146d18383614c09565b6146de6000848484614843565b610dd25760405162461bcd60e51b8152600401610d3190615d5e565b600181111561366c576001600160a01b03841615614740576001600160a01b0384166000908152606860205260408120805483929061473a908490615b4c565b90915550505b6001600160a01b0383161561366c576001600160a01b03831660009081526068602052604081208054839290614777908490615b39565b909155505050505050565b6001600160a01b0381163b6147ef5760405162461bcd60e51b815260206004820152602d60248201527f455243313936373a206e657720696d706c656d656e746174696f6e206973206e60448201526c1bdd08184818dbdb9d1c9858dd609a1b6064820152608401610d31565b600080516020615f0e83398151915280546001600160a01b0319166001600160a01b0392909216919091179055565b61482783614d84565b6000825111806148345750805b15610dd25761366c8383614dc4565b60006001600160a01b0384163b1561493957604051630a85bd0160e11b81526001600160a01b0385169063150b7a0290614887903390899088908890600401615e6a565b6020604051808303816000875af19250505080156148c2575060408051601f3d908101601f191682019092526148bf91810190615ea7565b60015b61491f573d8080156148f0576040519150601f19603f3d011682016040523d82523d6000602084013e6148f5565b606091505b5080516000036149175760405162461bcd60e51b8152600401610d3190615d5e565b805181602001fd5b6001600160e01b031916630a85bd0160e11b149050611412565b506001949350505050565b600054610100900460ff1661496b5760405162461bcd60e51b8152600401610d3190615db0565b60656149778382615a7a565b506066610dd28282615a7a565b60008072184f03e93ff9f4daa797ed6e38ed64bf6a1f0160401b83106149c35772184f03e93ff9f4daa797ed6e38ed64bf6a1f0160401b830492506040015b6d04ee2d6d415b85acef810000000083106149ef576d04ee2d6d415b85acef8100000000830492506020015b662386f26fc100008310614a0d57662386f26fc10000830492506010015b6305f5e1008310614a25576305f5e100830492506008015b6127108310614a3957612710830492506004015b60648310614a4b576064830492506002015b600a8310610be25760010192915050565b6060610be26001600160a01b03831660145b60606000614a7d836002615b99565b614a88906002615b39565b6001600160401b03811115614a9f57614a9f6152d8565b6040519080825280601f01601f191660200182016040528015614ac9576020820181803683370190505b509050600360fc1b81600081518110614ae457614ae4615ec4565b60200101906001600160f81b031916908160001a905350600f60fb1b81600181518110614b1357614b13615ec4565b60200101906001600160f81b031916908160001a9053506000614b37846002615b99565b614b42906001615b39565b90505b6001811115614bba576f181899199a1a9b1b9c1cb0b131b232b360811b85600f1660108110614b7657614b76615ec4565b1a60f81b828281518110614b8c57614b8c615ec4565b60200101906001600160f81b031916908160001a90535060049490941c93614bb381615eda565b9050614b45565b508315613bbd5760405162461bcd60e51b815260206004820181905260248201527f537472696e67733a20686578206c656e67746820696e73756666696369656e746044820152606401610d31565b6001600160a01b038216614c5f5760405162461bcd60e51b815260206004820181905260248201527f4552433732313a206d696e7420746f20746865207a65726f20616464726573736044820152606401610d31565b614c6881614651565b15614cb55760405162461bcd60e51b815260206004820152601c60248201527f4552433732313a20746f6b656e20616c7265616479206d696e746564000000006044820152606401610d31565b614cc36000838360016146fa565b614ccc81614651565b15614d195760405162461bcd60e51b815260206004820152601c60248201527f4552433732313a20746f6b656e20616c7265616479206d696e746564000000006044820152606401610d31565b6001600160a01b038216600081815260686020908152604080832080546001019055848352606790915280822080546001600160a01b0319168417905551839291907fddf252ad1be2c89b69c2b068fc378daa952ba7f163c4a11628f55a4df523b3ef908290a45050565b614d8d81614782565b6040516001600160a01b038216907fbc7cd75a20ee27fd9adebab32041f755214dbc6bffa90cc0225b39da2e5c2d3b90600090a250565b60606001600160a01b0383163b614e2c5760405162461bcd60e51b815260206004820152602660248201527f416464726573733a2064656c65676174652063616c6c20746f206e6f6e2d636f6044820152651b9d1c9858dd60d21b6064820152608401610d31565b600080846001600160a01b031684604051614e479190615ef1565b600060405180830381855af49150503d8060008114614e82576040519150601f19603f3d011682016040523d82523d6000602084013e614e87565b606091505b509150915061359c8282604051806060016040528060278152602001615f2e6027913960608315614eb9575081613bbd565b613bbd8383815115614ece5781518083602001fd5b8060405162461bcd60e51b8152600401610d319190615030565b6040805160e081018252600080825260208201819052918101829052606081018290526080810182905260a081018290529060c08201905b905290565b604080516101408101825260008082526020820181905291810182905260608082018390526080820183905260a0820183905260c0820183905260e0820152906101008201905b8152602001600081525090565b6040805160608101825260008082526020820152908101614f20604080516060810190915260008082526020820190614f6c565b6001600160e01b031981168114611a4a57600080fd5b600060208284031215614fd557600080fd5b8135613bbd81614fad565b60005b83811015614ffb578181015183820152602001614fe3565b50506000910152565b6000815180845261501c816020860160208601614fe0565b601f01601f19169290920160200192915050565b602081526000613bbd6020830184615004565b60006020828403121561505557600080fd5b5035919050565b6001600160a01b0381168114611a4a57600080fd5b6000806040838503121561508457600080fd5b823561508f8161505c565b946020939093013593505050565b80356001600160c01b038116811461221d57600080fd5b600080604083850312156150c757600080fd5b6150d08361509d565b91506020830135600381106150e457600080fd5b809150509250929050565b634e487b7160e01b600052602160045260246000fd5b60038110611a4a57611a4a6150ef565b6020810161512283615105565b91905290565b6000806040838503121561513b57600080fd5b82356151468161505c565b91506151546020840161509d565b90509250929050565b60008060006060848603121561517257600080fd5b833561517d8161505c565b9250602084013561518d8161505c565b929592945050506040919091013590565b6000602082840312156151b057600080fd5b613bbd8261509d565b600080604083850312156151cc57600080fd5b61508f8361509d565b600080604083850312156151e857600080fd5b8235915060208301356150e48161505c565b6000806040838503121561520d57600080fd5b50508035926020909101359150565b60006020828403121561522e57600080fd5b8135613bbd8161505c565b60068110615249576152496150ef565b9052565b825181526020808401516001600160a01b0316908201526040808401516001600160c01b0316908201526060808401519082015260808084015164ffffffffff9081169183019190915260a0808501519091169082015260c0808401516101008301916152bc90840182615239565b508260e08301529392505050565b60208101610be28284615239565b634e487b7160e01b600052604160045260246000fd5b600082601f8301126152ff57600080fd5b81356001600160401b0380821115615319576153196152d8565b604051601f8301601f19908116603f01168101908282118183101715615341576153416152d8565b8160405283815286602085880101111561535a57600080fd5b836020870160208301376000602085830101528094505050505092915050565b6000806040838503121561538d57600080fd5b82356153988161505c565b915060208301356001600160401b038111156153b357600080fd5b6153bf858286016152ee565b9150509250929050565b80356001600160401b038116811461221d57600080fd5b600080600080600060a086880312156153f857600080fd5b85359450615408602087016153c9565b94979496505050506040830135926060810135926080909101359150565b60028110611a4a57611a4a6150ef565b61524981615426565b602081526154596020820183516001600160c01b03169052565b602082015160408201526000604083015161547f60608401826001600160601b03169052565b5060608301516001600160601b038116608084015250608083015160a083015260a083015160c083015260c083015160e083015260e083015161014061010081818601526154d1610160860184615004565b908601519092506101206154e786820183615436565b959095015193019290925250919050565b6000806040838503121561550b57600080fd5b82359150602083013560ff811681146150e457600080fd5b6020810160048310615122576151226150ef565b60008060006060848603121561554c57600080fd5b6155558461509d565b95602085013595506040909401359392505050565b6000806040838503121561557d57600080fd5b6155868361509d565b9150615154602084016153c9565b600060a0820190508251825260ff602084015116602083015260408301518051604084015260208101516155c781615105565b606084015260400151608090920191909152919050565b8015158114611a4a57600080fd5b600080604083850312156155ff57600080fd5b823561560a8161505c565b915060208301356150e4816155de565b60008083601f84011261562c57600080fd5b5081356001600160401b0381111561564357600080fd5b602083019150836020828501011115610fd457600080fd5b60008060006040848603121561567057600080fd5b6156798461509d565b925060208401356001600160401b0381111561569457600080fd5b6156a08682870161561a565b9497909650939450505050565b600080600080608085870312156156c357600080fd5b84356156ce816155de565b935060208501359250604085013564ffffffffff811681146156ef57600080fd5b9396929550929360600135925050565b6000806000806080858703121561571557600080fd5b84356157208161505c565b935060208501356157308161505c565b92506040850135915060608501356001600160401b0381111561575257600080fd5b61575e878288016152ee565b91505092959194509250565b60008060006060848603121561577f57600080fd5b61517d8461509d565b6000806040838503121561579b57600080fd5b82356157a68161505c565b915060208301356150e48161505c565b6020810161512283615426565b600080602083850312156157d657600080fd5b82356001600160401b038111156157ec57600080fd5b6157f88582860161561a565b90969095509350505050565b600181811c9082168061581857607f821691505b60208210810361583857634e487b7160e01b600052602260045260246000fd5b50919050565b60006020828403121561585057600080fd5b8151613bbd816155de565b634e487b7160e01b600052601160045260246000fd5b60006001600160401b0380831681810361588d5761588d61585b565b6001019392505050565b60006001600160601b0380831681810361588d5761588d61585b565b6020808252602d908201527f4552433732313a2063616c6c6572206973206e6f7420746f6b656e206f776e6560408201526c1c881bdc88185c1c1c9bdd9959609a1b606082015260800190565b60008261591d57634e487b7160e01b600052601260045260246000fd5b500490565b604081016159308285615239565b613bbd6020830184615239565b6020808252602c908201527f46756e6374696f6e206d7573742062652063616c6c6564207468726f7567682060408201526b19195b1959d85d1958d85b1b60a21b606082015260800190565b6020808252602c908201527f46756e6374696f6e206d7573742062652063616c6c6564207468726f7567682060408201526b6163746976652070726f787960a01b606082015260800190565b6000602082840312156159e757600080fd5b8151613bbd8161505c565b64ffffffffff81811683821601908082111561135e5761135e61585b565b60006001600160c01b038281166002600160c01b0319810161588d5761588d61585b565b601f821115610dd257600081815260208120601f850160051c81016020861015615a5b5750805b601f850160051c820191505b818110156134fd57828155600101615a67565b81516001600160401b03811115615a9357615a936152d8565b615aa781615aa18454615804565b84615a34565b602080601f831160018114615adc5760008415615ac45750858301515b600019600386901b1c1916600185901b1785556134fd565b600085815260208120601f198616915b82811015615b0b57888601518255948401946001909101908401615aec565b5085821015615b295787850151600019600388901b60f8161c191681555b5050505050600190811b01905550565b80820180821115610be257610be261585b565b81810381811115610be257610be261585b565b600060208284031215615b7157600080fd5b815160068110613bbd57600080fd5b600060018201615b9257615b9261585b565b5060010190565b8082028115828204841417610be257610be261585b565b6001600160401b03831115615bc757615bc76152d8565b615bdb83615bd58354615804565b83615a34565b6000601f841160018114615c0f5760008515615bf75750838201355b600019600387901b1c1916600186901b1783556115fb565b600083815260209020601f19861690835b82811015615c405786850135825560209485019460019092019101615c20565b5086821015615c5d5760001960f88860031b161c19848701351681555b505060018560011b0183555050505050565b6001600160401b0381811683821601908082111561135e5761135e61585b565b60008451615ca1818460208901614fe0565b602f60f81b9083019081528451615cbf816001840160208901614fe0565b605f60f81b600192909101918201528351615ce1816002840160208801614fe0565b64173539b7b760d91b6002929091019182015260070195945050505050565b60208082526025908201527f4552433732313a207472616e736665722066726f6d20696e636f72726563742060408201526437bbb732b960d91b606082015260800190565b600060208284031215615d5757600080fd5b5051919050565b60208082526032908201527f4552433732313a207472616e7366657220746f206e6f6e20455243373231526560408201527131b2b4bb32b91034b6b83632b6b2b73a32b960711b606082015260800190565b6020808252602b908201527f496e697469616c697a61626c653a20636f6e7472616374206973206e6f74206960408201526a6e697469616c697a696e6760a81b606082015260800190565b76020b1b1b2b9b9a1b7b73a3937b61d1030b1b1b7bab73a1604d1b815260008351615e2d816017850160208801614fe0565b7001034b99036b4b9b9b4b733903937b6329607d1b6017918401918201528351615e5e816028840160208801614fe0565b01602801949350505050565b6001600160a01b0385811682528416602082015260408101839052608060608201819052600090615e9d90830184615004565b9695505050505050565b600060208284031215615eb957600080fd5b8151613bbd81614fad565b634e487b7160e01b600052603260045260246000fd5b600081615ee957615ee961585b565b506000190190565b60008251615f03818460208701614fe0565b919091019291505056fe360894a13ba1a3210667c828492db98dca3e2076cc3735a920a3ca505d382bbc416464726573733a206c6f772d6c6576656c2064656c65676174652063616c6c206661696c65649f2df0fed2c77648de5860a4cc508cd0818c85b8b8a1ab4ceeef8d981c8956a6a2646970667358221220b35eb20093841275de4d7d6c29b52b81e945a11889a20236ea577f362c304ff964736f6c63430008110033",
  "devdoc": {
    "kind": "dev",
    "methods": {
      "approve(address,uint256)": {
        "details": "See {IERC721-approve}."
      },
      "balanceOf(address)": {
        "details": "See {IERC721-balanceOf}."
      },
      "getApproved(uint256)": {
        "details": "See {IERC721-getApproved}."
      },
      "getRoleAdmin(bytes32)": {
        "details": "Returns the admin role that controls `role`. See {grantRole} and {revokeRole}. To change a role's admin, use {_setRoleAdmin}."
      },
      "grantRole(bytes32,address)": {
        "details": "Grants `role` to `account`. If `account` had not been already granted `role`, emits a {RoleGranted} event. Requirements: - the caller must have ``role``'s admin role. May emit a {RoleGranted} event."
      },
      "hasRole(bytes32,address)": {
        "details": "Returns `true` if `account` has been granted `role`."
      },
      "isApprovedForAll(address,address)": {
        "details": "See {IERC721-isApprovedForAll}."
      },
      "name()": {
        "details": "See {IERC721Metadata-name}."
      },
      "ownerOf(uint256)": {
        "details": "See {IERC721-ownerOf}."
      },
      "proxiableUUID()": {
        "details": "Implementation of the ERC1822 {proxiableUUID} function. This returns the storage slot used by the implementation. It is used to validate the implementation's compatibility when performing an upgrade. IMPORTANT: A proxy pointing at a proxiable contract should not be considered proxiable itself, because this risks bricking a proxy that upgrades to it, by delegating to itself until out of gas. Thus it is critical that this function revert if invoked through a proxy. This is guaranteed by the `notDelegated` modifier."
      },
      "renounceRole(bytes32,address)": {
        "details": "Revokes `role` from the calling account. Roles are often managed via {grantRole} and {revokeRole}: this function's purpose is to provide a mechanism for accounts to lose their privileges if they are compromised (such as when a trusted device is misplaced). If the calling account had been revoked `role`, emits a {RoleRevoked} event. Requirements: - the caller must be `account`. May emit a {RoleRevoked} event."
      },
      "revokeRole(bytes32,address)": {
        "details": "Revokes `role` from `account`. If `account` had been granted `role`, emits a {RoleRevoked} event. Requirements: - the caller must have ``role``'s admin role. May emit a {RoleRevoked} event."
      },
      "safeTransferFrom(address,address,uint256)": {
        "details": "See {IERC721-safeTransferFrom}."
      },
      "safeTransferFrom(address,address,uint256,bytes)": {
        "details": "See {IERC721-safeTransferFrom}."
      },
      "setApprovalForAll(address,bool)": {
        "details": "See {IERC721-setApprovalForAll}."
      },
      "sumBidResponses(uint192)": {
        "details": "returns the sum of responses to the original's latest active bid"
      },
      "symbol()": {
        "details": "See {IERC721Metadata-symbol}."
      },
      "transferFrom(address,address,uint256)": {
        "details": "See {IERC721-transferFrom}."
      },
      "upgradeTo(address)": {
        "custom:oz-upgrades-unsafe-allow-reachable": "delegatecall",
        "details": "Upgrade the implementation of the proxy to `newImplementation`. Calls {_authorizeUpgrade}. Emits an {Upgraded} event."
      },
      "upgradeToAndCall(address,bytes)": {
        "custom:oz-upgrades-unsafe-allow-reachable": "delegatecall",
        "details": "Upgrade the implementation of the proxy to `newImplementation`, and subsequently execute the function call encoded in `data`. Calls {_authorizeUpgrade}. Emits an {Upgraded} event."
      }
    },
    "version": 1
  },
  "userdoc": {
    "kind": "user",
    "methods": {
      "RESERVE_PRICE_PROPOSAL_TURNOUT_THRESHOLD_BPS()": {
        "notice": "Default values for AdminGovernanceOptions"
      }
    },
    "version": 1
  },
  "storageLayout": {
    "storage": [
      {
        "astId": 804,
        "contract": "src/CryptoPunksMosaicRegistry.sol:CryptoPunksMosaicRegistry",
        "label": "_initialized",
        "offset": 0,
        "slot": "0",
        "type": "t_uint8"
      },
      {
        "astId": 807,
        "contract": "src/CryptoPunksMosaicRegistry.sol:CryptoPunksMosaicRegistry",
        "label": "_initializing",
        "offset": 1,
        "slot": "0",
        "type": "t_bool"
      },
      {
        "astId": 4065,
        "contract": "src/CryptoPunksMosaicRegistry.sol:CryptoPunksMosaicRegistry",
        "label": "__gap",
        "offset": 0,
        "slot": "1",
        "type": "t_array(t_uint256)50_storage"
      },
      {
        "astId": 4448,
        "contract": "src/CryptoPunksMosaicRegistry.sol:CryptoPunksMosaicRegistry",
        "label": "__gap",
        "offset": 0,
        "slot": "51",
        "type": "t_array(t_uint256)50_storage"
      },
      {
        "astId": 2638,
        "contract": "src/CryptoPunksMosaicRegistry.sol:CryptoPunksMosaicRegistry",
        "label": "_name",
        "offset": 0,
        "slot": "101",
        "type": "t_string_storage"
      },
      {
        "astId": 2640,
        "contract": "src/CryptoPunksMosaicRegistry.sol:CryptoPunksMosaicRegistry",
        "label": "_symbol",
        "offset": 0,
        "slot": "102",
        "type": "t_string_storage"
      },
      {
        "astId": 2644,
        "contract": "src/CryptoPunksMosaicRegistry.sol:CryptoPunksMosaicRegistry",
        "label": "_owners",
        "offset": 0,
        "slot": "103",
        "type": "t_mapping(t_uint256,t_address)"
      },
      {
        "astId": 2648,
        "contract": "src/CryptoPunksMosaicRegistry.sol:CryptoPunksMosaicRegistry",
        "label": "_balances",
        "offset": 0,
        "slot": "104",
        "type": "t_mapping(t_address,t_uint256)"
      },
      {
        "astId": 2652,
        "contract": "src/CryptoPunksMosaicRegistry.sol:CryptoPunksMosaicRegistry",
        "label": "_tokenApprovals",
        "offset": 0,
        "slot": "105",
        "type": "t_mapping(t_uint256,t_address)"
      },
      {
        "astId": 2658,
        "contract": "src/CryptoPunksMosaicRegistry.sol:CryptoPunksMosaicRegistry",
        "label": "_operatorApprovals",
        "offset": 0,
        "slot": "106",
        "type": "t_mapping(t_address,t_mapping(t_address,t_bool))"
      },
      {
        "astId": 3578,
        "contract": "src/CryptoPunksMosaicRegistry.sol:CryptoPunksMosaicRegistry",
        "label": "__gap",
        "offset": 0,
        "slot": "107",
        "type": "t_array(t_uint256)44_storage"
      },
      {
        "astId": 786,
        "contract": "src/CryptoPunksMosaicRegistry.sol:CryptoPunksMosaicRegistry",
        "label": "__gap",
        "offset": 0,
        "slot": "151",
        "type": "t_array(t_uint256)50_storage"
      },
      {
        "astId": 1101,
        "contract": "src/CryptoPunksMosaicRegistry.sol:CryptoPunksMosaicRegistry",
        "label": "__gap",
        "offset": 0,
        "slot": "201",
        "type": "t_array(t_uint256)50_storage"
      },
      {
        "astId": 39,
        "contract": "src/CryptoPunksMosaicRegistry.sol:CryptoPunksMosaicRegistry",
        "label": "_roles",
        "offset": 0,
        "slot": "251",
        "type": "t_mapping(t_bytes32,t_struct(RoleData)34_storage)"
      },
      {
        "astId": 334,
        "contract": "src/CryptoPunksMosaicRegistry.sol:CryptoPunksMosaicRegistry",
        "label": "__gap",
        "offset": 0,
        "slot": "252",
        "type": "t_array(t_uint256)49_storage"
      },
      {
        "astId": 1116,
        "contract": "src/CryptoPunksMosaicRegistry.sol:CryptoPunksMosaicRegistry",
        "label": "_status",
        "offset": 0,
        "slot": "301",
        "type": "t_uint256"
      },
      {
        "astId": 1185,
        "contract": "src/CryptoPunksMosaicRegistry.sol:CryptoPunksMosaicRegistry",
        "label": "__gap",
        "offset": 0,
        "slot": "302",
        "type": "t_array(t_uint256)49_storage"
      },
      {
        "astId": 10424,
        "contract": "src/CryptoPunksMosaicRegistry.sol:CryptoPunksMosaicRegistry",
        "label": "museum",
        "offset": 0,
        "slot": "351",
        "type": "t_contract(CryptoPunksMuseum)12678"
      }
    ],
    "types": {
      "t_address": {
        "encoding": "inplace",
        "label": "address",
        "numberOfBytes": "20"
      },
      "t_array(t_uint256)44_storage": {
        "base": "t_uint256",
        "encoding": "inplace",
        "label": "uint256[44]",
        "numberOfBytes": "1408"
      },
      "t_array(t_uint256)49_storage": {
        "base": "t_uint256",
        "encoding": "inplace",
        "label": "uint256[49]",
        "numberOfBytes": "1568"
      },
      "t_array(t_uint256)50_storage": {
        "base": "t_uint256",
        "encoding": "inplace",
        "label": "uint256[50]",
        "numberOfBytes": "1600"
      },
      "t_bool": {
        "encoding": "inplace",
        "label": "bool",
        "numberOfBytes": "1"
      },
      "t_bytes32": {
        "encoding": "inplace",
        "label": "bytes32",
        "numberOfBytes": "32"
      },
      "t_contract(CryptoPunksMuseum)12678": {
        "encoding": "inplace",
        "label": "contract CryptoPunksMuseum",
        "numberOfBytes": "20"
      },
      "t_mapping(t_address,t_bool)": {
        "encoding": "mapping",
        "key": "t_address",
        "label": "mapping(address => bool)",
        "numberOfBytes": "32",
        "value": "t_bool"
      },
      "t_mapping(t_address,t_mapping(t_address,t_bool))": {
        "encoding": "mapping",
        "key": "t_address",
        "label": "mapping(address => mapping(address => bool))",
        "numberOfBytes": "32",
        "value": "t_mapping(t_address,t_bool)"
      },
      "t_mapping(t_address,t_uint256)": {
        "encoding": "mapping",
        "key": "t_address",
        "label": "mapping(address => uint256)",
        "numberOfBytes": "32",
        "value": "t_uint256"
      },
      "t_mapping(t_bytes32,t_struct(RoleData)34_storage)": {
        "encoding": "mapping",
        "key": "t_bytes32",
        "label": "mapping(bytes32 => struct AccessControlUpgradeable.RoleData)",
        "numberOfBytes": "32",
        "value": "t_struct(RoleData)34_storage"
      },
      "t_mapping(t_uint256,t_address)": {
        "encoding": "mapping",
        "key": "t_uint256",
        "label": "mapping(uint256 => address)",
        "numberOfBytes": "32",
        "value": "t_address"
      },
      "t_string_storage": {
        "encoding": "bytes",
        "label": "string",
        "numberOfBytes": "32"
      },
      "t_struct(RoleData)34_storage": {
        "encoding": "inplace",
        "label": "struct AccessControlUpgradeable.RoleData",
        "members": [
          {
            "astId": 31,
            "contract": "src/CryptoPunksMosaicRegistry.sol:CryptoPunksMosaicRegistry",
            "label": "members",
            "offset": 0,
            "slot": "0",
            "type": "t_mapping(t_address,t_bool)"
          },
          {
            "astId": 33,
            "contract": "src/CryptoPunksMosaicRegistry.sol:CryptoPunksMosaicRegistry",
            "label": "adminRole",
            "offset": 0,
            "slot": "1",
            "type": "t_bytes32"
          }
        ],
        "numberOfBytes": "64"
      },
      "t_uint256": {
        "encoding": "inplace",
        "label": "uint256",
        "numberOfBytes": "32"
      },
      "t_uint8": {
        "encoding": "inplace",
        "label": "uint8",
        "numberOfBytes": "1"
      }
    }
  }
}