{
  "address": "0xccB9f40a4954783176B5676A230bC0AED4e466ca",
  "abi": [
    {
      "inputs": [
        {
          "internalType": "address",
          "name": "cryptoPunksMarketAddress",
          "type": "address"
        },
        {
          "internalType": "address",
          "name": "mosaicRegistryAddress",
          "type": "address"
        }
      ],
      "stateMutability": "nonpayable",
      "type": "constructor"
    },
    {
      "anonymous": false,
      "inputs": [
        {
          "indexed": true,
          "internalType": "address",
          "name": "account",
          "type": "address"
        },
        {
          "indexed": true,
          "internalType": "address",
          "name": "operator",
          "type": "address"
        },
        {
          "indexed": false,
          "internalType": "bool",
          "name": "approved",
          "type": "bool"
        }
      ],
      "name": "ApprovalForAll",
      "type": "event"
    },
    {
      "anonymous": false,
      "inputs": [
        {
          "indexed": true,
          "internalType": "address",
          "name": "claimer",
          "type": "address"
        },
        {
          "indexed": true,
          "internalType": "uint192",
          "name": "groupId",
          "type": "uint192"
        },
        {
          "indexed": true,
          "internalType": "uint256",
          "name": "mosaicId",
          "type": "uint256"
        }
      ],
      "name": "Claimed",
      "type": "event"
    },
    {
      "anonymous": false,
      "inputs": [
        {
          "indexed": true,
          "internalType": "address",
          "name": "contributor",
          "type": "address"
        },
        {
          "indexed": true,
          "internalType": "uint192",
          "name": "groupId",
          "type": "uint192"
        },
        {
          "indexed": true,
          "internalType": "uint96",
          "name": "ticketQuantity",
          "type": "uint96"
        }
      ],
      "name": "Contributed",
      "type": "event"
    },
    {
      "anonymous": false,
      "inputs": [
        {
          "indexed": true,
          "internalType": "uint192",
          "name": "groupId",
          "type": "uint192"
        },
        {
          "indexed": true,
          "internalType": "address",
          "name": "creator",
          "type": "address"
        },
        {
          "indexed": false,
          "internalType": "uint256",
          "name": "targetMaxPrice",
          "type": "uint256"
        },
        {
          "indexed": false,
          "internalType": "uint64",
          "name": "totalTicketSupply",
          "type": "uint64"
        },
        {
          "indexed": false,
          "internalType": "uint256",
          "name": "unitTicketPrice",
          "type": "uint256"
        }
      ],
      "name": "GroupCreated",
      "type": "event"
    },
    {
      "anonymous": false,
      "inputs": [
        {
          "indexed": true,
          "internalType": "uint192",
          "name": "groupId",
          "type": "uint192"
        }
      ],
      "name": "GroupWon",
      "type": "event"
    },
    {
      "anonymous": false,
      "inputs": [
        {
          "indexed": true,
          "internalType": "bytes32",
          "name": "role",
          "type": "bytes32"
        },
        {
          "indexed": true,
          "internalType": "bytes32",
          "name": "previousAdminRole",
          "type": "bytes32"
        },
        {
          "indexed": true,
          "internalType": "bytes32",
          "name": "newAdminRole",
          "type": "bytes32"
        }
      ],
      "name": "RoleAdminChanged",
      "type": "event"
    },
    {
      "anonymous": false,
      "inputs": [
        {
          "indexed": true,
          "internalType": "bytes32",
          "name": "role",
          "type": "bytes32"
        },
        {
          "indexed": true,
          "internalType": "address",
          "name": "account",
          "type": "address"
        },
        {
          "indexed": true,
          "internalType": "address",
          "name": "sender",
          "type": "address"
        }
      ],
      "name": "RoleGranted",
      "type": "event"
    },
    {
      "anonymous": false,
      "inputs": [
        {
          "indexed": true,
          "internalType": "bytes32",
          "name": "role",
          "type": "bytes32"
        },
        {
          "indexed": true,
          "internalType": "address",
          "name": "account",
          "type": "address"
        },
        {
          "indexed": true,
          "internalType": "address",
          "name": "sender",
          "type": "address"
        }
      ],
      "name": "RoleRevoked",
      "type": "event"
    },
    {
      "anonymous": false,
      "inputs": [
        {
          "indexed": true,
          "internalType": "address",
          "name": "operator",
          "type": "address"
        },
        {
          "indexed": true,
          "internalType": "address",
          "name": "from",
          "type": "address"
        },
        {
          "indexed": true,
          "internalType": "address",
          "name": "to",
          "type": "address"
        },
        {
          "indexed": false,
          "internalType": "uint256[]",
          "name": "ids",
          "type": "uint256[]"
        },
        {
          "indexed": false,
          "internalType": "uint256[]",
          "name": "values",
          "type": "uint256[]"
        }
      ],
      "name": "TransferBatch",
      "type": "event"
    },
    {
      "anonymous": false,
      "inputs": [
        {
          "indexed": true,
          "internalType": "address",
          "name": "operator",
          "type": "address"
        },
        {
          "indexed": true,
          "internalType": "address",
          "name": "from",
          "type": "address"
        },
        {
          "indexed": true,
          "internalType": "address",
          "name": "to",
          "type": "address"
        },
        {
          "indexed": false,
          "internalType": "uint256",
          "name": "id",
          "type": "uint256"
        },
        {
          "indexed": false,
          "internalType": "uint256",
          "name": "value",
          "type": "uint256"
        }
      ],
      "name": "TransferSingle",
      "type": "event"
    },
    {
      "anonymous": false,
      "inputs": [
        {
          "indexed": false,
          "internalType": "string",
          "name": "value",
          "type": "string"
        },
        {
          "indexed": true,
          "internalType": "uint256",
          "name": "id",
          "type": "uint256"
        }
      ],
      "name": "URI",
      "type": "event"
    },
    {
      "inputs": [],
      "name": "CURATOR_ROLE",
      "outputs": [
        {
          "internalType": "bytes32",
          "name": "",
          "type": "bytes32"
        }
      ],
      "stateMutability": "view",
      "type": "function"
    },
    {
      "inputs": [],
      "name": "DEFAULT_ADMIN_ROLE",
      "outputs": [
        {
          "internalType": "bytes32",
          "name": "",
          "type": "bytes32"
        }
      ],
      "stateMutability": "view",
      "type": "function"
    },
    {
      "inputs": [],
      "name": "MAX_RESERVE_PRICE_BPS",
      "outputs": [
        {
          "internalType": "uint64",
          "name": "",
          "type": "uint64"
        }
      ],
      "stateMutability": "view",
      "type": "function"
    },
    {
      "inputs": [],
      "name": "MIN_RESERVE_PRICE_BPS",
      "outputs": [
        {
          "internalType": "uint64",
          "name": "",
          "type": "uint64"
        }
      ],
      "stateMutability": "view",
      "type": "function"
    },
    {
      "inputs": [],
      "name": "TICKET_SUPPLY_PER_GROUP",
      "outputs": [
        {
          "internalType": "uint64",
          "name": "",
          "type": "uint64"
        }
      ],
      "stateMutability": "view",
      "type": "function"
    },
    {
      "inputs": [
        {
          "internalType": "address",
          "name": "to",
          "type": "address"
        },
        {
          "internalType": "uint256[]",
          "name": "ids",
          "type": "uint256[]"
        },
        {
          "internalType": "uint256[]",
          "name": "amounts",
          "type": "uint256[]"
        }
      ],
      "name": "airdrop",
      "outputs": [],
      "stateMutability": "nonpayable",
      "type": "function"
    },
    {
      "inputs": [
        {
          "internalType": "address",
          "name": "account",
          "type": "address"
        },
        {
          "internalType": "uint256",
          "name": "id",
          "type": "uint256"
        }
      ],
      "name": "balanceOf",
      "outputs": [
        {
          "internalType": "uint256",
          "name": "",
          "type": "uint256"
        }
      ],
      "stateMutability": "view",
      "type": "function"
    },
    {
      "inputs": [
        {
          "internalType": "address[]",
          "name": "accounts",
          "type": "address[]"
        },
        {
          "internalType": "uint256[]",
          "name": "ids",
          "type": "uint256[]"
        }
      ],
      "name": "balanceOfBatch",
      "outputs": [
        {
          "internalType": "uint256[]",
          "name": "",
          "type": "uint256[]"
        }
      ],
      "stateMutability": "view",
      "type": "function"
    },
    {
      "inputs": [
        {
          "internalType": "uint192",
          "name": "groupId",
          "type": "uint192"
        }
      ],
      "name": "buy",
      "outputs": [],
      "stateMutability": "nonpayable",
      "type": "function"
    },
    {
      "inputs": [
        {
          "internalType": "uint256",
          "name": "purchasePrice",
          "type": "uint256"
        }
      ],
      "name": "calculateMaxReservePrice",
      "outputs": [
        {
          "internalType": "uint256",
          "name": "maxReservePrice",
          "type": "uint256"
        }
      ],
      "stateMutability": "pure",
      "type": "function"
    },
    {
      "inputs": [
        {
          "internalType": "uint256",
          "name": "purchasePrice",
          "type": "uint256"
        }
      ],
      "name": "calculateMinReservePrice",
      "outputs": [
        {
          "internalType": "uint256",
          "name": "minReservePrice",
          "type": "uint256"
        }
      ],
      "stateMutability": "pure",
      "type": "function"
    },
    {
      "inputs": [
        {
          "internalType": "uint192",
          "name": "groupId",
          "type": "uint192"
        }
      ],
      "name": "claim",
      "outputs": [
        {
          "internalType": "uint256[]",
          "name": "mosaicIds",
          "type": "uint256[]"
        }
      ],
      "stateMutability": "nonpayable",
      "type": "function"
    },
    {
      "inputs": [
        {
          "internalType": "uint192",
          "name": "groupId",
          "type": "uint192"
        },
        {
          "internalType": "uint64",
          "name": "ticketQuantity",
          "type": "uint64"
        }
      ],
      "name": "contribute",
      "outputs": [],
      "stateMutability": "payable",
      "type": "function"
    },
    {
      "inputs": [
        {
          "internalType": "uint256",
          "name": "targetPunkId",
          "type": "uint256"
        },
        {
          "internalType": "uint256",
          "name": "targetMaxPrice",
          "type": "uint256"
        }
      ],
      "name": "create",
      "outputs": [
        {
          "internalType": "uint192",
          "name": "groupId",
          "type": "uint192"
        }
      ],
      "stateMutability": "nonpayable",
      "type": "function"
    },
    {
      "inputs": [],
      "name": "cryptoPunksMarket",
      "outputs": [
        {
          "internalType": "contract ICryptoPunksMarket",
          "name": "",
          "type": "address"
        }
      ],
      "stateMutability": "view",
      "type": "function"
    },
    {
      "inputs": [
        {
          "internalType": "uint192",
          "name": "groupId",
          "type": "uint192"
        }
      ],
      "name": "finalizeOnWon",
      "outputs": [],
      "stateMutability": "nonpayable",
      "type": "function"
    },
    {
      "inputs": [
        {
          "internalType": "uint192",
          "name": "groupId",
          "type": "uint192"
        }
      ],
      "name": "getGroup",
      "outputs": [
        {
          "components": [
            {
              "internalType": "uint192",
              "name": "id",
              "type": "uint192"
            },
            {
              "internalType": "address",
              "name": "creator",
              "type": "address"
            },
            {
              "internalType": "uint256",
              "name": "targetPunkId",
              "type": "uint256"
            },
            {
              "internalType": "uint256",
              "name": "targetMaxPrice",
              "type": "uint256"
            },
            {
              "internalType": "uint64",
              "name": "totalTicketSupply",
              "type": "uint64"
            },
            {
              "internalType": "uint256",
              "name": "unitTicketPrice",
              "type": "uint256"
            },
            {
              "internalType": "uint256",
              "name": "totalContribution",
              "type": "uint256"
            },
            {
              "internalType": "uint64",
              "name": "ticketsBought",
              "type": "uint64"
            },
            {
              "internalType": "uint40",
              "name": "expiry",
              "type": "uint40"
            },
            {
              "internalType": "enum UsingCryptoPunksGroupRegistryStructs.GroupStatus",
              "name": "status",
              "type": "uint8"
            },
            {
              "internalType": "uint256",
              "name": "purchasePrice",
              "type": "uint256"
            },
            {
              "internalType": "uint192",
              "name": "originalId",
              "type": "uint192"
            },
            {
              "internalType": "string",
              "name": "metadataUri",
              "type": "string"
            }
          ],
          "internalType": "struct UsingCryptoPunksGroupRegistryStructs.Group",
          "name": "",
          "type": "tuple"
        }
      ],
      "stateMutability": "view",
      "type": "function"
    },
    {
      "inputs": [
        {
          "internalType": "uint192",
          "name": "groupId",
          "type": "uint192"
        }
      ],
      "name": "getGroupTotalContribution",
      "outputs": [
        {
          "internalType": "uint256",
          "name": "totalContribution",
          "type": "uint256"
        }
      ],
      "stateMutability": "view",
      "type": "function"
    },
    {
      "inputs": [
        {
          "internalType": "bytes32",
          "name": "role",
          "type": "bytes32"
        }
      ],
      "name": "getRoleAdmin",
      "outputs": [
        {
          "internalType": "bytes32",
          "name": "",
          "type": "bytes32"
        }
      ],
      "stateMutability": "view",
      "type": "function"
    },
    {
      "inputs": [
        {
          "internalType": "address",
          "name": "inquired",
          "type": "address"
        },
        {
          "internalType": "uint192",
          "name": "groupId",
          "type": "uint192"
        }
      ],
      "name": "getTickets",
      "outputs": [
        {
          "internalType": "uint256",
          "name": "",
          "type": "uint256"
        }
      ],
      "stateMutability": "view",
      "type": "function"
    },
    {
      "inputs": [
        {
          "internalType": "bytes32",
          "name": "role",
          "type": "bytes32"
        },
        {
          "internalType": "address",
          "name": "account",
          "type": "address"
        }
      ],
      "name": "grantRole",
      "outputs": [],
      "stateMutability": "nonpayable",
      "type": "function"
    },
    {
      "inputs": [
        {
          "internalType": "address",
          "name": "inquired",
          "type": "address"
        },
        {
          "internalType": "uint192",
          "name": "groupId",
          "type": "uint192"
        }
      ],
      "name": "hasContribution",
      "outputs": [
        {
          "internalType": "bool",
          "name": "",
          "type": "bool"
        }
      ],
      "stateMutability": "view",
      "type": "function"
    },
    {
      "inputs": [
        {
          "internalType": "bytes32",
          "name": "role",
          "type": "bytes32"
        },
        {
          "internalType": "address",
          "name": "account",
          "type": "address"
        }
      ],
      "name": "hasRole",
      "outputs": [
        {
          "internalType": "bool",
          "name": "",
          "type": "bool"
        }
      ],
      "stateMutability": "view",
      "type": "function"
    },
    {
      "inputs": [
        {
          "internalType": "address",
          "name": "account",
          "type": "address"
        },
        {
          "internalType": "address",
          "name": "operator",
          "type": "address"
        }
      ],
      "name": "isApprovedForAll",
      "outputs": [
        {
          "internalType": "bool",
          "name": "",
          "type": "bool"
        }
      ],
      "stateMutability": "view",
      "type": "function"
    },
    {
      "inputs": [
        {
          "internalType": "address",
          "name": "inquired",
          "type": "address"
        },
        {
          "internalType": "uint192",
          "name": "groupId",
          "type": "uint192"
        }
      ],
      "name": "isCreator",
      "outputs": [
        {
          "internalType": "bool",
          "name": "",
          "type": "bool"
        }
      ],
      "stateMutability": "view",
      "type": "function"
    },
    {
      "inputs": [],
      "name": "latestGroupId",
      "outputs": [
        {
          "internalType": "uint192",
          "name": "",
          "type": "uint192"
        }
      ],
      "stateMutability": "view",
      "type": "function"
    },
    {
      "inputs": [
        {
          "internalType": "uint192",
          "name": "groupId",
          "type": "uint192"
        }
      ],
      "name": "refund",
      "outputs": [],
      "stateMutability": "nonpayable",
      "type": "function"
    },
    {
      "inputs": [
        {
          "internalType": "bytes32",
          "name": "role",
          "type": "bytes32"
        },
        {
          "internalType": "address",
          "name": "account",
          "type": "address"
        }
      ],
      "name": "renounceRole",
      "outputs": [],
      "stateMutability": "nonpayable",
      "type": "function"
    },
    {
      "inputs": [
        {
          "internalType": "bytes32",
          "name": "role",
          "type": "bytes32"
        },
        {
          "internalType": "address",
          "name": "account",
          "type": "address"
        }
      ],
      "name": "revokeRole",
      "outputs": [],
      "stateMutability": "nonpayable",
      "type": "function"
    },
    {
      "inputs": [
        {
          "internalType": "address",
          "name": "from",
          "type": "address"
        },
        {
          "internalType": "address",
          "name": "to",
          "type": "address"
        },
        {
          "internalType": "uint256[]",
          "name": "ids",
          "type": "uint256[]"
        },
        {
          "internalType": "uint256[]",
          "name": "amounts",
          "type": "uint256[]"
        },
        {
          "internalType": "bytes",
          "name": "data",
          "type": "bytes"
        }
      ],
      "name": "safeBatchTransferFrom",
      "outputs": [],
      "stateMutability": "nonpayable",
      "type": "function"
    },
    {
      "inputs": [
        {
          "internalType": "address",
          "name": "from",
          "type": "address"
        },
        {
          "internalType": "address",
          "name": "to",
          "type": "address"
        },
        {
          "internalType": "uint256",
          "name": "id",
          "type": "uint256"
        },
        {
          "internalType": "uint256",
          "name": "amount",
          "type": "uint256"
        },
        {
          "internalType": "bytes",
          "name": "data",
          "type": "bytes"
        }
      ],
      "name": "safeTransferFrom",
      "outputs": [],
      "stateMutability": "nonpayable",
      "type": "function"
    },
    {
      "inputs": [
        {
          "internalType": "address",
          "name": "operator",
          "type": "address"
        },
        {
          "internalType": "bool",
          "name": "approved",
          "type": "bool"
        }
      ],
      "name": "setApprovalForAll",
      "outputs": [],
      "stateMutability": "nonpayable",
      "type": "function"
    },
    {
      "inputs": [
        {
          "internalType": "bytes4",
          "name": "interfaceId",
          "type": "bytes4"
        }
      ],
      "name": "supportsInterface",
      "outputs": [
        {
          "internalType": "bool",
          "name": "",
          "type": "bool"
        }
      ],
      "stateMutability": "view",
      "type": "function"
    },
    {
      "inputs": [
        {
          "internalType": "uint256",
          "name": "groupId",
          "type": "uint256"
        }
      ],
      "name": "uri",
      "outputs": [
        {
          "internalType": "string",
          "name": "",
          "type": "string"
        }
      ],
      "stateMutability": "view",
      "type": "function"
    }
  ],
  "transactionHash": "0xbb17d51cd05fdb9fec478873e0cb73f5ffb26ba7f452fcf91f85ef4962ba416c",
  "args": [
    "0x16C2980c709900003Aabbdd687aC7A3498D1E955",
    "0xb9CdC263446573a8A5554B7cbbbE09c6caEE3d3a"
  ],
  "numDeployments": 2,
  "solcInputHash": "e0139df6111c5ce28b21c7cb57556106",
  "bytecode": "0x60a06040523480156200001157600080fd5b5060405162003dea38038062003dea8339810160408190526200003491620001ae565b60408051808201909152601981527f43727970746f50756e6b73204d6f73616963205469636b65740000000000000060208201526200007381620000db565b50600160045562000086600033620000ed565b620000b27f850d585eb7f024ccee5e68e55f2c26cc72e1e6ee456acf62135757a5eb9d4a1033620000ed565b6001600160a01b03918216608052600580546001600160a01b0319169190921617905562000357565b6002620000e982826200028b565b5050565b60008281526003602090815260408083206001600160a01b038516845290915290205460ff16620000e95760008281526003602090815260408083206001600160a01b03851684529091529020805460ff191660011790556200014d3390565b6001600160a01b0316816001600160a01b0316837f2f8788117e7eff1d82e926ec794901d17c78024a50270940304540a733656f0d60405160405180910390a45050565b80516001600160a01b0381168114620001a957600080fd5b919050565b60008060408385031215620001c257600080fd5b620001cd8362000191565b9150620001dd6020840162000191565b90509250929050565b634e487b7160e01b600052604160045260246000fd5b600181811c908216806200021157607f821691505b6020821081036200023257634e487b7160e01b600052602260045260246000fd5b50919050565b601f8211156200028657600081815260208120601f850160051c81016020861015620002615750805b601f850160051c820191505b8181101562000282578281556001016200026d565b5050505b505050565b81516001600160401b03811115620002a757620002a7620001e6565b620002bf81620002b88454620001fc565b8462000238565b602080601f831160018114620002f75760008415620002de5750858301515b600019600386901b1c1916600185901b17855562000282565b600085815260208120601f198616915b82811015620003285788860151825594840194600190910190840162000307565b5085821015620003475787850151600019600388901b60f8161c191681555b5050505050600190811b01905550565b608051613a5b6200038f6000396000818161062c01528181610cf901528181611bdb01528181611d2c0152611db00152613a5b6000f3fe6080604052600436106101f85760003560e01c8063962fc1aa1161010d578063bafb0ebc116100a0578063d547741f1161006f578063d547741f14610666578063ddcef2b614610686578063e985e9c514610699578063f242432a146106e2578063f77e17591461070257600080fd5b8063bafb0ebc146105ad578063bdd99cdf146105cd578063c02a209e146105ed578063d0d851d01461061a57600080fd5b8063a22cb465116100dc578063a22cb46514610537578063aaad804b14610557578063ad6490831461056d578063b4ce873b1461058d57600080fd5b8063962fc1aa146104cc5780639bad761f146104ec5780639f7b457914610502578063a217fddf1461052257600080fd5b80632eb2c2d6116101905780634a2cfb541161015f5780634a2cfb54146103f15780634e1273f41461042557806353b92d091461044557806357ab7f8d1461048c57806391d14854146104ac57600080fd5b80632eb2c2d6146103715780632f2ff15d1461039157806336568abe146103b157806344b95571146103d157600080fd5b80632368a954116101cc5780632368a954146102c557806323b8b46d146102f2578063248a9ca31461031f578063264bcc571461034f57600080fd5b8062fdd58e146101fd57806301ffc9a71461023057806304d2c170146102605780630e89341c14610298575b600080fd5b34801561020957600080fd5b5061021d610218366004612cd0565b610722565b6040519081526020015b60405180910390f35b34801561023c57600080fd5b5061025061024b366004612d12565b6107bb565b6040519015158152602001610227565b34801561026c57600080fd5b50600654610280906001600160c01b031681565b6040516001600160c01b039091168152602001610227565b3480156102a457600080fd5b506102b86102b3366004612d2f565b6107d5565b6040516102279190612d98565b3480156102d157600080fd5b506102e56102e0366004612dc0565b610887565b6040516102279190612e18565b3480156102fe57600080fd5b50610307606481565b6040516001600160401b039091168152602001610227565b34801561032b57600080fd5b5061021d61033a366004612d2f565b60009081526003602052604090206001015490565b34801561035b57600080fd5b5061036f61036a366004612dc0565b610bc2565b005b34801561037d57600080fd5b5061036f61038c366004612f74565b610e5d565b34801561039d57600080fd5b5061036f6103ac366004613021565b610ea9565b3480156103bd57600080fd5b5061036f6103cc366004613021565b610ed3565b3480156103dd57600080fd5b506102506103ec366004613051565b610f51565b3480156103fd57600080fd5b5061021d7f850d585eb7f024ccee5e68e55f2c26cc72e1e6ee456acf62135757a5eb9d4a1081565b34801561043157600080fd5b506102e561044036600461307f565b610f66565b34801561045157600080fd5b50610250610460366004613051565b6001600160c01b03166000908152600760205260409020600101546001600160a01b0391821691161490565b34801561049857600080fd5b5061036f6104a736600461314b565b61108f565b3480156104b857600080fd5b506102506104c7366004613021565b6110bb565b3480156104d857600080fd5b5061021d6104e7366004612d2f565b6110e6565b3480156104f857600080fd5b50610307611b5881565b34801561050e57600080fd5b5061028061051d3660046131c0565b6110f4565b34801561052e57600080fd5b5061021d600081565b34801561054357600080fd5b5061036f6105523660046131f0565b611322565b34801561056357600080fd5b5061030761c35081565b34801561057957600080fd5b5061036f610588366004612dc0565b61132d565b34801561059957600080fd5b5061021d6105a8366004613051565b611579565b3480156105b957600080fd5b5061021d6105c8366004612d2f565b611595565b3480156105d957600080fd5b5061021d6105e8366004612dc0565b6115a3565b3480156105f957600080fd5b5061060d610608366004612dc0565b6115fc565b6040516102279190613256565b34801561062657600080fd5b5061064e7f000000000000000000000000000000000000000000000000000000000000000081565b6040516001600160a01b039091168152602001610227565b34801561067257600080fd5b5061036f610681366004613021565b611829565b61036f610694366004613365565b61184e565b3480156106a557600080fd5b506102506106b436600461339f565b6001600160a01b03918216600090815260016020908152604080832093909416825291909152205460ff1690565b3480156106ee57600080fd5b5061036f6106fd3660046133cd565b611ac2565b34801561070e57600080fd5b5061036f61071d366004612dc0565b611b07565b60006001600160a01b0383166107925760405162461bcd60e51b815260206004820152602a60248201527f455243313135353a2061646472657373207a65726f206973206e6f742061207660448201526930b634b21037bbb732b960b11b60648201526084015b60405180910390fd5b506000818152602081815260408083206001600160a01b03861684529091529020545b92915050565b60006107c682611ed1565b806107b557506107b582611f21565b6001600160c01b0381166000908152600760205260409020600a81018054606092919061080190613435565b80601f016020809104026020016040519081016040528092919081815260200182805461082d90613435565b801561087a5780601f1061084f5761010080835404028352916020019161087a565b820191906000526020600020905b81548152906001019060200180831161085d57829003601f168201915b5050505050915050919050565b6060610891611f46565b60065482906001600160c01b0390811690821611156108c25760405162461bcd60e51b815260040161078990613469565b6001600160c01b038316600090815260076020526040902060046007820154600160681b900460ff1660048111156108fc576108fc61321e565b146109495760405162461bcd60e51b815260206004820152601a60248201527f5468652067726f7570206973206e6f742066696e616c697a65640000000000006044820152606401610789565b60006109553386611579565b9050600081116109b35760405162461bcd60e51b8152602060048201526024808201527f4f6e6c79207469636b657420686f6c646572732063616e20636c61696d20746f6044820152636b656e7360e01b6064820152608401610789565b6109c733866001600160c01b031683611f9f565b6000816109d384612120565b6109dd91906134a8565b604051909150600090339083908381818185875af1925050503d8060008114610a22576040519150601f19603f3d011682016040523d82523d6000602084013e610a27565b606091505b5050905080610a6b5760405162461bcd60e51b815260206004820152601060248201526f11985a5b1959081d1bc81c99599d5b9960821b6044820152606401610789565b6000836001600160401b03811115610a8557610a85612e2b565b604051908082528060200260200182016040528015610aae578160200160208202803683370190505b50905060005b84811015610bab576005546009870154604051630818bcb960e21b81523360048201526001600160c01b0390911660248201526000916001600160a01b031690632062f2e4906044016020604051808303816000875af1158015610b1c573d6000803e3d6000fd5b505050506040513d601f19601f82011682018060405250810190610b4091906134bf565b905080838381518110610b5557610b556134d8565b602090810291909101015260405181906001600160c01b038c169033907f4c1be2553fae8261d25ff0ad45198f755781d31ad84c58a526837480b4d7fece90600090a45080610ba3816134ee565b915050610ab4565b5095505050505050610bbd6001600455565b919050565b60065481906001600160c01b039081169082161115610bf35760405162461bcd60e51b815260040161078990613469565b6001600160c01b038216600090815260076020526040902060026007820154600160681b900460ff166004811115610c2d57610c2d61321e565b14610c725760405162461bcd60e51b81526020600482015260156024820152742a34329033b937bab8103430b9903737ba103bb7b760591b6044820152606401610789565b6005546001600160a01b0316610cca5760405162461bcd60e51b815260206004820152601c60248201527f45786869626974207265676973747279206d75737420626520736574000000006044820152606401610789565b60055460028201546040516322dca8bb60e21b81526001600160a01b03928316600482015260248101919091527f000000000000000000000000000000000000000000000000000000000000000090911690638b72a2ec90604401600060405180830381600087803b158015610d3f57600080fd5b505af1158015610d53573d6000803e3d6000fd5b50506005546002840154600785015460088601546001600160a01b03909316945063512137ed935090916001600160401b0390911690610d9281611595565b610d9f87600801546110e6565b6040516001600160e01b031960e088901b16815260048101959095526001600160401b03909316602485015260448401919091526064830152608482015260a4016020604051808303816000875af1158015610dff573d6000803e3d6000fd5b505050506040513d601f19601f82011682018060405250810190610e239190613507565b6009820180546001600160c01b0319166001600160c01b0392909216919091179055600701805460ff60681b19166001606a1b1790555050565b6001600160a01b038516331480610e795750610e7985336106b4565b610e955760405162461bcd60e51b815260040161078990613524565b610ea2858585858561216a565b5050505050565b600082815260036020526040902060010154610ec481612306565b610ece8383612310565b505050565b6001600160a01b0381163314610f435760405162461bcd60e51b815260206004820152602f60248201527f416363657373436f6e74726f6c3a2063616e206f6e6c792072656e6f756e636560448201526e103937b632b9903337b91039b2b63360891b6064820152608401610789565b610f4d8282612396565b5050565b600080610f5e8484611579565b119392505050565b60608151835114610fcb5760405162461bcd60e51b815260206004820152602960248201527f455243313135353a206163636f756e747320616e6420696473206c656e677468604482015268040dad2e6dac2e8c6d60bb1b6064820152608401610789565b600083516001600160401b03811115610fe657610fe6612e2b565b60405190808252806020026020018201604052801561100f578160200160208202803683370190505b50905060005b84518110156110875761105a858281518110611033576110336134d8565b602002602001015185838151811061104d5761104d6134d8565b6020026020010151610722565b82828151811061106c5761106c6134d8565b6020908102919091010152611080816134ee565b9050611015565b509392505050565b600061109a81612306565b6110b5848484604051806020016040528060008152506123fd565b50505050565b60009182526003602090815260408084206001600160a01b0393909316845291905290205460ff1690565b60006107b58261c350612548565b60007f850d585eb7f024ccee5e68e55f2c26cc72e1e6ee456acf62135757a5eb9d4a1061112081612306565b60016006546001600160c01b031660009081526007602081905260409091200154600160681b900460ff16600481111561115c5761115c61321e565b036111a05760405162461bcd60e51b81526020600482015260146024820152734f6e676f696e672067726f75702065786973747360601b6044820152606401610789565b600680546000906111b9906001600160c01b0316613572565b82546001600160c01b039182166101009390930a9283029190920219909116179055606460006111e982866135a0565b6006546001600160c01b0316600081815260076020819052604090912080546001600160c01b03191690921782556001820180546001600160a01b0319163317905560028201899055600382018890556004820180546001600160401b03871667ffffffffffffffff19909116179055600582018390558101805460ff60681b1916600160681b1790559091506112834262093a806135c2565b60078201805464ffffffffff92909216600160401b026cffffffffff000000000000000019909216919091179055600654604080518881526001600160401b038616602082015290810184905233916001600160c01b0316907f6c41f680bd5046e7b94552360a6d353c3d90e84424808396eb845cb2f0b059da9060600160405180910390a350506006546001600160c01b03169250505b5092915050565b610f4d338383612579565b611335611f46565b60065481906001600160c01b0390811690821611156113665760405162461bcd60e51b815260040161078990613469565b6001600160c01b0382166000908152600760205260409020339060046007820154600160681b900460ff1660048111156113a2576113a261321e565b141580156113d0575060026007820154600160681b900460ff1660048111156113cd576113cd61321e565b14155b80156113ee5750600781015442600160401b90910464ffffffffff16105b61143a5760405162461bcd60e51b815260206004820152601c60248201527f5468652067726f7570206973206e6f74206578706972656420796574000000006044820152606401610789565b60006114463386611579565b9050600081116114a45760405162461bcd60e51b815260206004820152602360248201527f4f6e6c79207469636b657420686f6c646572732063616e2067657420726566756044820152626e647360e81b6064820152608401610789565b6114b833866001600160c01b031683611f9f565b6000816114c484612120565b6114ce91906134a8565b90506000846001600160a01b03168260405160006040518083038185875af1925050503d806000811461151d576040519150601f19603f3d011682016040523d82523d6000602084013e611522565b606091505b50509050806115665760405162461bcd60e51b815260206004820152601060248201526f11985a5b1959081d1bc81c99599d5b9960821b6044820152606401610789565b5050505050506115766001600455565b50565b600061158e83836001600160c01b0316610722565b9392505050565b60006107b582611b58612548565b60065460009082906001600160c01b0390811690821611156115d75760405162461bcd60e51b815260040161078990613469565b6001600160c01b03831660009081526007602052604090206006015491505b50919050565b611667604080516101a081018252600080825260208201819052918101829052606081018290526080810182905260a0810182905260c0810182905260e081018290526101008101829052906101208201908152600060208201819052604082015260609081015290565b60065482906001600160c01b0390811690821611156116985760405162461bcd60e51b815260040161078990613469565b6001600160c01b0383811660009081526007602081815260409283902083516101a0810185528154909516855260018101546001600160a01b031691850191909152600281015492840192909252600382015460608401526004808301546001600160401b039081166080860152600584015460a0860152600684015460c08601529183015491821660e0850152600160401b820464ffffffffff16610100850152610120840191600160681b900460ff169081111561175a5761175a61321e565b600481111561176b5761176b61321e565b81526008820154602082015260098201546001600160c01b03166040820152600a8201805460609092019161179f90613435565b80601f01602080910402602001604051908101604052809291908181526020018280546117cb90613435565b80156118185780601f106117ed57610100808354040283529160200191611818565b820191906000526020600020905b8154815290600101906020018083116117fb57829003601f168201915b505050505081525050915050919050565b60008281526003602052604090206001015461184481612306565b610ece8383612396565b60065482906001600160c01b03908116908216111561187f5760405162461bcd60e51b815260040161078990613469565b6001600160c01b038316600090815260076020819052604082209081015460048201549192916118bb916001600160401b0390811691166135d5565b6001600160401b0316905080846001600160401b0316111561192e5760405162461bcd60e51b815260206004820152602660248201527f4665776572207469636b6574732072656d61696e696e67207468616e207265716044820152651d595cdd195960d21b6064820152608401610789565b6005820154349060009061194c906001600160401b038816906134a8565b905080821461199d5760405162461bcd60e51b815260206004820152601a60248201527f436f6e747269627574696f6e206d7573742062652065786163740000000000006044820152606401610789565b6000339050828560060160008282546119b691906135c2565b90915550506007850180548891906000906119db9084906001600160401b03166135f5565b82546101009290920a6001600160401b038181021990931691831602179091556001600160c01b038a1660009081526008602090815260408083206001600160a01b038716845290915281208054928b16935091611a3a9084906135c2565b92505081905550611a6e81896001600160c01b0316896001600160401b031660405180602001604052806000815250612659565b866001600160401b0316886001600160c01b0316826001600160a01b03167fe666172e6168732cfedfefcdfc03bf3faf2588416f76c21085a3d731dfa9c8a160405160405180910390a45050505050505050565b6001600160a01b038516331480611ade5750611ade85336106b4565b611afa5760405162461bcd60e51b815260040161078990613524565b610ea2858585858561272a565b611b0f611f46565b60065481906001600160c01b039081169082161115611b405760405162461bcd60e51b815260040161078990613469565b6001600160c01b0382166000908152600760205260409020611b623384610f51565b611bbd5760405162461bcd60e51b815260206004820152602660248201527f4f6e6c79207469636b657420686f6c646572732063616e20696e69746961746560448201526520612062757960d01b6064820152608401610789565b600281015460405163088f11f360e01b8152600481018290526000907f00000000000000000000000000000000000000000000000000000000000000006001600160a01b03169063088f11f39060240160a060405180830381865afa158015611c2a573d6000803e3d6000fd5b505050506040513d601f19601f82011682018060405250810190611c4e9190613615565b5060078701549094506001600160401b03166064149250611ca39150505760405162461bcd60e51b815260206004820152600c60248201526b139bdd081cdbdb19081bdd5d60a21b6044820152606401610789565b8083600601541015611d165760405162461bcd60e51b815260206004820152603660248201527f4f6666657265642070726963652069732067726561746572207468616e207468604482015275329031bab93932b73a1031b7b73a3934b13aba34b7b760511b6064820152608401610789565b60405163104c9fd360e31b8152600481018390527f00000000000000000000000000000000000000000000000000000000000000006001600160a01b031690638264fe989083906024016000604051808303818588803b158015611d7957600080fd5b505af1158015611d8d573d6000803e3d6000fd5b5050604051630b02f02d60e31b8152600481018690523093506001600160a01b037f000000000000000000000000000000000000000000000000000000000000000016925063581781689150602401602060405180830381865afa158015611df9573d6000803e3d6000fd5b505050506040513d601f19601f82011682018060405250810190611e1d9190613676565b6001600160a01b031614611e6a5760405162461bcd60e51b81526020600482015260146024820152730556e6578706563746564206f776e6572736869760641b6044820152606401610789565b6008830181905560078301805460ff60681b1916600160691b1790556040516001600160c01b038616907fa55364f4cf304b1309b80ba955214c6192d2c9ba9fc0aa3c4b3bc0f11c941d7290600090a2611ec385610bc2565b505050506115766001600455565b60006001600160e01b03198216636cdb3d1360e11b1480611f0257506001600160e01b031982166303a24d0760e21b145b806107b557506301ffc9a760e01b6001600160e01b03198316146107b5565b60006001600160e01b03198216637965db0b60e01b14806107b557506107b582611ed1565b600260045403611f985760405162461bcd60e51b815260206004820152601f60248201527f5265656e7472616e637947756172643a207265656e7472616e742063616c6c006044820152606401610789565b6002600455565b6001600160a01b0383166120015760405162461bcd60e51b815260206004820152602360248201527f455243313135353a206275726e2066726f6d20746865207a65726f206164647260448201526265737360e81b6064820152608401610789565b33600061200d84612854565b9050600061201a84612854565b60408051602080820183526000918290528882528181528282206001600160a01b038b16835290522054909150848110156120a35760405162461bcd60e51b8152602060048201526024808201527f455243313135353a206275726e20616d6f756e7420657863656564732062616c604482015263616e636560e01b6064820152608401610789565b6000868152602081815260408083206001600160a01b038b81168086529184528285208a8703905582518b81529384018a90529092908816917fc3d58168c5ae7397731d063d5bbf3d657854427343f4c083240f7aacaa2d0f62910160405180910390a46040805160208101909152600090525b50505050505050565b6000816008015482600601541161213957506000919050565b60008260080154836006015461214f9190613693565b600784015490915061158e906001600160401b0316826135a0565b815183511461218b5760405162461bcd60e51b8152600401610789906136a6565b6001600160a01b0384166121b15760405162461bcd60e51b8152600401610789906136ee565b3360005b84518110156122985760008582815181106121d2576121d26134d8565b6020026020010151905060008583815181106121f0576121f06134d8565b602090810291909101810151600084815280835260408082206001600160a01b038e1683529093529190912054909150818110156122405760405162461bcd60e51b815260040161078990613733565b6000838152602081815260408083206001600160a01b038e8116855292528083208585039055908b1682528120805484929061227d9084906135c2565b9250508190555050505080612291906134ee565b90506121b5565b50846001600160a01b0316866001600160a01b0316826001600160a01b03167f4a39dc06d4c0dbc64b70af90fd698a233a518aa5d07e595d983b8c0526c8f7fb87876040516122e892919061377d565b60405180910390a46122fe81878787878761289f565b505050505050565b61157681336129fa565b61231a82826110bb565b610f4d5760008281526003602090815260408083206001600160a01b03851684529091529020805460ff191660011790556123523390565b6001600160a01b0316816001600160a01b0316837f2f8788117e7eff1d82e926ec794901d17c78024a50270940304540a733656f0d60405160405180910390a45050565b6123a082826110bb565b15610f4d5760008281526003602090815260408083206001600160a01b0385168085529252808320805460ff1916905551339285917ff6391f5c32d9c69d2a47ea670b442974b53935d1edc7fd64eb21e047a839171b9190a45050565b6001600160a01b0384166124235760405162461bcd60e51b8152600401610789906137ab565b81518351146124445760405162461bcd60e51b8152600401610789906136a6565b3360005b84518110156124e057838181518110612463576124636134d8565b6020026020010151600080878481518110612480576124806134d8565b602002602001015181526020019081526020016000206000886001600160a01b03166001600160a01b0316815260200190815260200160002060008282546124c891906135c2565b909155508190506124d8816134ee565b915050612448565b50846001600160a01b031660006001600160a01b0316826001600160a01b03167f4a39dc06d4c0dbc64b70af90fd698a233a518aa5d07e595d983b8c0526c8f7fb878760405161253192919061377d565b60405180910390a4610ea28160008787878761289f565b600061271061255783856134a8565b101561256257600080fd5b61271061256f83856134a8565b61158e91906135a0565b816001600160a01b0316836001600160a01b0316036125ec5760405162461bcd60e51b815260206004820152602960248201527f455243313135353a2073657474696e6720617070726f76616c20737461747573604482015268103337b91039b2b63360b91b6064820152608401610789565b6001600160a01b03838116600081815260016020908152604080832094871680845294825291829020805460ff191686151590811790915591519182527f17307eab39ab6107e8899845ad3d59bd9653f200f220920489ca2b5937696c31910160405180910390a3505050565b6001600160a01b03841661267f5760405162461bcd60e51b8152600401610789906137ab565b33600061268b85612854565b9050600061269885612854565b90506000868152602081815260408083206001600160a01b038b168452909152812080548792906126ca9084906135c2565b909155505060408051878152602081018790526001600160a01b03808a1692600092918716917fc3d58168c5ae7397731d063d5bbf3d657854427343f4c083240f7aacaa2d0f62910160405180910390a461211783600089898989612a53565b6001600160a01b0384166127505760405162461bcd60e51b8152600401610789906136ee565b33600061275c85612854565b9050600061276985612854565b90506000868152602081815260408083206001600160a01b038c168452909152902054858110156127ac5760405162461bcd60e51b815260040161078990613733565b6000878152602081815260408083206001600160a01b038d8116855292528083208985039055908a168252812080548892906127e99084906135c2565b909155505060408051888152602081018890526001600160a01b03808b16928c821692918816917fc3d58168c5ae7397731d063d5bbf3d657854427343f4c083240f7aacaa2d0f62910160405180910390a4612849848a8a8a8a8a612a53565b505050505050505050565b6040805160018082528183019092526060916000919060208083019080368337019050509050828160008151811061288e5761288e6134d8565b602090810291909101015292915050565b6001600160a01b0384163b156122fe5760405163bc197c8160e01b81526001600160a01b0385169063bc197c81906128e390899089908890889088906004016137ec565b6020604051808303816000875af192505050801561291e575060408051601f3d908101601f1916820190925261291b9181019061384a565b60015b6129ca5761292a613867565b806308c379a003612963575061293e613883565b806129495750612965565b8060405162461bcd60e51b81526004016107899190612d98565b505b60405162461bcd60e51b815260206004820152603460248201527f455243313135353a207472616e7366657220746f206e6f6e2d455243313135356044820152732932b1b2b4bb32b91034b6b83632b6b2b73a32b960611b6064820152608401610789565b6001600160e01b0319811663bc197c8160e01b146121175760405162461bcd60e51b81526004016107899061390c565b612a0482826110bb565b610f4d57612a1181612b0e565b612a1c836020612b20565b604051602001612a2d929190613954565b60408051601f198184030181529082905262461bcd60e51b825261078991600401612d98565b6001600160a01b0384163b156122fe5760405163f23a6e6160e01b81526001600160a01b0385169063f23a6e6190612a9790899089908890889088906004016139c9565b6020604051808303816000875af1925050508015612ad2575060408051601f3d908101601f19168201909252612acf9181019061384a565b60015b612ade5761292a613867565b6001600160e01b0319811663f23a6e6160e01b146121175760405162461bcd60e51b81526004016107899061390c565b60606107b56001600160a01b03831660145b60606000612b2f8360026134a8565b612b3a9060026135c2565b6001600160401b03811115612b5157612b51612e2b565b6040519080825280601f01601f191660200182016040528015612b7b576020820181803683370190505b509050600360fc1b81600081518110612b9657612b966134d8565b60200101906001600160f81b031916908160001a905350600f60fb1b81600181518110612bc557612bc56134d8565b60200101906001600160f81b031916908160001a9053506000612be98460026134a8565b612bf49060016135c2565b90505b6001811115612c6c576f181899199a1a9b1b9c1cb0b131b232b360811b85600f1660108110612c2857612c286134d8565b1a60f81b828281518110612c3e57612c3e6134d8565b60200101906001600160f81b031916908160001a90535060049490941c93612c6581613a0e565b9050612bf7565b50831561158e5760405162461bcd60e51b815260206004820181905260248201527f537472696e67733a20686578206c656e67746820696e73756666696369656e746044820152606401610789565b6001600160a01b038116811461157657600080fd5b60008060408385031215612ce357600080fd5b8235612cee81612cbb565b946020939093013593505050565b6001600160e01b03198116811461157657600080fd5b600060208284031215612d2457600080fd5b813561158e81612cfc565b600060208284031215612d4157600080fd5b5035919050565b60005b83811015612d63578181015183820152602001612d4b565b50506000910152565b60008151808452612d84816020860160208601612d48565b601f01601f19169290920160200192915050565b60208152600061158e6020830184612d6c565b6001600160c01b038116811461157657600080fd5b600060208284031215612dd257600080fd5b813561158e81612dab565b600081518084526020808501945080840160005b83811015612e0d57815187529582019590820190600101612df1565b509495945050505050565b60208152600061158e6020830184612ddd565b634e487b7160e01b600052604160045260246000fd5b601f8201601f191681016001600160401b0381118282101715612e6657612e66612e2b565b6040525050565b60006001600160401b03821115612e8657612e86612e2b565b5060051b60200190565b600082601f830112612ea157600080fd5b81356020612eae82612e6d565b604051612ebb8282612e41565b83815260059390931b8501820192828101915086841115612edb57600080fd5b8286015b84811015612ef65780358352918301918301612edf565b509695505050505050565b600082601f830112612f1257600080fd5b81356001600160401b03811115612f2b57612f2b612e2b565b604051612f42601f8301601f191660200182612e41565b818152846020838601011115612f5757600080fd5b816020850160208301376000918101602001919091529392505050565b600080600080600060a08688031215612f8c57600080fd5b8535612f9781612cbb565b94506020860135612fa781612cbb565b935060408601356001600160401b0380821115612fc357600080fd5b612fcf89838a01612e90565b94506060880135915080821115612fe557600080fd5b612ff189838a01612e90565b9350608088013591508082111561300757600080fd5b5061301488828901612f01565b9150509295509295909350565b6000806040838503121561303457600080fd5b82359150602083013561304681612cbb565b809150509250929050565b6000806040838503121561306457600080fd5b823561306f81612cbb565b9150602083013561304681612dab565b6000806040838503121561309257600080fd5b82356001600160401b03808211156130a957600080fd5b818501915085601f8301126130bd57600080fd5b813560206130ca82612e6d565b6040516130d78282612e41565b83815260059390931b85018201928281019150898411156130f757600080fd5b948201945b8386101561311e57853561310f81612cbb565b825294820194908201906130fc565b9650508601359250508082111561313457600080fd5b5061314185828601612e90565b9150509250929050565b60008060006060848603121561316057600080fd5b833561316b81612cbb565b925060208401356001600160401b038082111561318757600080fd5b61319387838801612e90565b935060408601359150808211156131a957600080fd5b506131b686828701612e90565b9150509250925092565b600080604083850312156131d357600080fd5b50508035926020909101359150565b801515811461157657600080fd5b6000806040838503121561320357600080fd5b823561320e81612cbb565b91506020830135613046816131e2565b634e487b7160e01b600052602160045260246000fd5b6005811061325257634e487b7160e01b600052602160045260246000fd5b9052565b602081526132706020820183516001600160c01b03169052565b6000602083015161328c60408401826001600160a01b03169052565b50604083015160608301526060830151608083015260808301516132bb60a08401826001600160401b03169052565b5060a083015160c083015260c083015160e083015260e08301516101006132ec818501836001600160401b03169052565b84015190506101206133068482018364ffffffffff169052565b840151905061014061331a84820183613234565b840151610160848101919091528401519050610180613343818501836001600160c01b03169052565b8401516101a084810152905061335d6101c0840182612d6c565b949350505050565b6000806040838503121561337857600080fd5b823561338381612dab565b915060208301356001600160401b038116811461304657600080fd5b600080604083850312156133b257600080fd5b82356133bd81612cbb565b9150602083013561304681612cbb565b600080600080600060a086880312156133e557600080fd5b85356133f081612cbb565b9450602086013561340081612cbb565b9350604086013592506060860135915060808601356001600160401b0381111561342957600080fd5b61301488828901612f01565b600181811c9082168061344957607f821691505b6020821081036115f657634e487b7160e01b600052602260045260246000fd5b6020808252600f908201526e125b9d985b1a590819dc9bdd5c1259608a1b604082015260600190565b634e487b7160e01b600052601160045260246000fd5b80820281158282048414176107b5576107b5613492565b6000602082840312156134d157600080fd5b5051919050565b634e487b7160e01b600052603260045260246000fd5b60006001820161350057613500613492565b5060010190565b60006020828403121561351957600080fd5b815161158e81612dab565b6020808252602e908201527f455243313135353a2063616c6c6572206973206e6f7420746f6b656e206f776e60408201526d195c881bdc88185c1c1c9bdd995960921b606082015260800190565b60006001600160c01b038281166002600160c01b0319810161359657613596613492565b6001019392505050565b6000826135bd57634e487b7160e01b600052601260045260246000fd5b500490565b808201808211156107b5576107b5613492565b6001600160401b0382811682821603908082111561131b5761131b613492565b6001600160401b0381811683821601908082111561131b5761131b613492565b600080600080600060a0868803121561362d57600080fd5b8551613638816131e2565b60208701516040880151919650945061365081612cbb565b60608701516080880151919450925061366881612cbb565b809150509295509295909350565b60006020828403121561368857600080fd5b815161158e81612cbb565b818103818111156107b5576107b5613492565b60208082526028908201527f455243313135353a2069647320616e6420616d6f756e7473206c656e677468206040820152670dad2e6dac2e8c6d60c31b606082015260800190565b60208082526025908201527f455243313135353a207472616e7366657220746f20746865207a65726f206164604082015264647265737360d81b606082015260800190565b6020808252602a908201527f455243313135353a20696e73756666696369656e742062616c616e636520666f60408201526939103a3930b739b332b960b11b606082015260800190565b6040815260006137906040830185612ddd565b82810360208401526137a28185612ddd565b95945050505050565b60208082526021908201527f455243313135353a206d696e7420746f20746865207a65726f206164647265736040820152607360f81b606082015260800190565b6001600160a01b0386811682528516602082015260a06040820181905260009061381890830186612ddd565b828103606084015261382a8186612ddd565b9050828103608084015261383e8185612d6c565b98975050505050505050565b60006020828403121561385c57600080fd5b815161158e81612cfc565b600060033d11156138805760046000803e5060005160e01c5b90565b600060443d10156138915790565b6040516003193d81016004833e81513d6001600160401b0381602484011181841117156138c057505050505090565b82850191508151818111156138d85750505050505090565b843d87010160208285010111156138f25750505050505090565b61390160208286010187612e41565b509095945050505050565b60208082526028908201527f455243313135353a204552433131353552656365697665722072656a656374656040820152676420746f6b656e7360c01b606082015260800190565b7f416363657373436f6e74726f6c3a206163636f756e742000000000000000000081526000835161398c816017850160208801612d48565b7001034b99036b4b9b9b4b733903937b6329607d1b60179184019182015283516139bd816028840160208801612d48565b01602801949350505050565b6001600160a01b03868116825285166020820152604081018490526060810183905260a060808201819052600090613a0390830184612d6c565b979650505050505050565b600081613a1d57613a1d613492565b50600019019056fea2646970667358221220ab7beea95c1f0cdc2ce67380207343d4617f2daedada615e2c8e0ea86f69695b64736f6c63430008110033",
  "devdoc": {
    "kind": "dev",
    "methods": {
      "balanceOf(address,uint256)": {
        "details": "See {IERC1155-balanceOf}. Requirements: - `account` cannot be the zero address."
      },
      "balanceOfBatch(address[],uint256[])": {
        "details": "See {IERC1155-balanceOfBatch}. Requirements: - `accounts` and `ids` must have the same length."
      },
      "buy(uint192)": {
        "details": "Can be tried as long as the group is OPEN"
      },
      "getRoleAdmin(bytes32)": {
        "details": "Returns the admin role that controls `role`. See {grantRole} and {revokeRole}. To change a role's admin, use {_setRoleAdmin}."
      },
      "grantRole(bytes32,address)": {
        "details": "Grants `role` to `account`. If `account` had not been already granted `role`, emits a {RoleGranted} event. Requirements: - the caller must have ``role``'s admin role. May emit a {RoleGranted} event."
      },
      "hasRole(bytes32,address)": {
        "details": "Returns `true` if `account` has been granted `role`."
      },
      "isApprovedForAll(address,address)": {
        "details": "See {IERC1155-isApprovedForAll}."
      },
      "renounceRole(bytes32,address)": {
        "details": "Revokes `role` from the calling account. Roles are often managed via {grantRole} and {revokeRole}: this function's purpose is to provide a mechanism for accounts to lose their privileges if they are compromised (such as when a trusted device is misplaced). If the calling account had been revoked `role`, emits a {RoleRevoked} event. Requirements: - the caller must be `account`. May emit a {RoleRevoked} event."
      },
      "revokeRole(bytes32,address)": {
        "details": "Revokes `role` from `account`. If `account` had been granted `role`, emits a {RoleRevoked} event. Requirements: - the caller must have ``role``'s admin role. May emit a {RoleRevoked} event."
      },
      "safeBatchTransferFrom(address,address,uint256[],uint256[],bytes)": {
        "details": "See {IERC1155-safeBatchTransferFrom}."
      },
      "safeTransferFrom(address,address,uint256,uint256,bytes)": {
        "details": "See {IERC1155-safeTransferFrom}."
      },
      "setApprovalForAll(address,bool)": {
        "details": "See {IERC1155-setApprovalForAll}."
      }
    },
    "stateVariables": {
      "CURATOR_ROLE": {
        "details": "can create and curate the active group"
      },
      "latestGroupId": {
        "details": "also used as a `groupId`, starting from 1."
      },
      "refundableTickets": {
        "details": "groupId -> address -> shares (= the number of tickets bought)"
      }
    },
    "version": 1
  },
  "userdoc": {
    "kind": "user",
    "methods": {
      "MIN_RESERVE_PRICE_BPS()": {
        "notice": "Arithmetic constants"
      },
      "TICKET_SUPPLY_PER_GROUP()": {
        "notice": "Business logic constants TODO: Introduce a global explicit storage contract"
      }
    },
    "version": 1
  },
  "storageLayout": {
    "storage": [
      {
        "astId": 468,
        "contract": "src/CryptoPunksGroupRegistry.sol:CryptoPunksGroupRegistry",
        "label": "_balances",
        "offset": 0,
        "slot": "0",
        "type": "t_mapping(t_uint256,t_mapping(t_address,t_uint256))"
      },
      {
        "astId": 474,
        "contract": "src/CryptoPunksGroupRegistry.sol:CryptoPunksGroupRegistry",
        "label": "_operatorApprovals",
        "offset": 0,
        "slot": "1",
        "type": "t_mapping(t_address,t_mapping(t_address,t_bool))"
      },
      {
        "astId": 476,
        "contract": "src/CryptoPunksGroupRegistry.sol:CryptoPunksGroupRegistry",
        "label": "_uri",
        "offset": 0,
        "slot": "2",
        "type": "t_string_storage"
      },
      {
        "astId": 24,
        "contract": "src/CryptoPunksGroupRegistry.sol:CryptoPunksGroupRegistry",
        "label": "_roles",
        "offset": 0,
        "slot": "3",
        "type": "t_mapping(t_bytes32,t_struct(RoleData)19_storage)"
      },
      {
        "astId": 399,
        "contract": "src/CryptoPunksGroupRegistry.sol:CryptoPunksGroupRegistry",
        "label": "_status",
        "offset": 0,
        "slot": "4",
        "type": "t_uint256"
      },
      {
        "astId": 5965,
        "contract": "src/CryptoPunksGroupRegistry.sol:CryptoPunksGroupRegistry",
        "label": "mosaicRegistry",
        "offset": 0,
        "slot": "5",
        "type": "t_contract(ICryptoPunksMosaicRegistry)8159"
      },
      {
        "astId": 5968,
        "contract": "src/CryptoPunksGroupRegistry.sol:CryptoPunksGroupRegistry",
        "label": "latestGroupId",
        "offset": 0,
        "slot": "6",
        "type": "t_uint192"
      },
      {
        "astId": 5973,
        "contract": "src/CryptoPunksGroupRegistry.sol:CryptoPunksGroupRegistry",
        "label": "groups",
        "offset": 0,
        "slot": "7",
        "type": "t_mapping(t_uint192,t_struct(Group)8274_storage)"
      },
      {
        "astId": 5980,
        "contract": "src/CryptoPunksGroupRegistry.sol:CryptoPunksGroupRegistry",
        "label": "refundableTickets",
        "offset": 0,
        "slot": "8",
        "type": "t_mapping(t_uint192,t_mapping(t_address,t_uint256))"
      }
    ],
    "types": {
      "t_address": {
        "encoding": "inplace",
        "label": "address",
        "numberOfBytes": "20"
      },
      "t_bool": {
        "encoding": "inplace",
        "label": "bool",
        "numberOfBytes": "1"
      },
      "t_bytes32": {
        "encoding": "inplace",
        "label": "bytes32",
        "numberOfBytes": "32"
      },
      "t_contract(ICryptoPunksMosaicRegistry)8159": {
        "encoding": "inplace",
        "label": "contract ICryptoPunksMosaicRegistry",
        "numberOfBytes": "20"
      },
      "t_enum(GroupStatus)8246": {
        "encoding": "inplace",
        "label": "enum UsingCryptoPunksGroupRegistryStructs.GroupStatus",
        "numberOfBytes": "1"
      },
      "t_mapping(t_address,t_bool)": {
        "encoding": "mapping",
        "key": "t_address",
        "label": "mapping(address => bool)",
        "numberOfBytes": "32",
        "value": "t_bool"
      },
      "t_mapping(t_address,t_mapping(t_address,t_bool))": {
        "encoding": "mapping",
        "key": "t_address",
        "label": "mapping(address => mapping(address => bool))",
        "numberOfBytes": "32",
        "value": "t_mapping(t_address,t_bool)"
      },
      "t_mapping(t_address,t_uint256)": {
        "encoding": "mapping",
        "key": "t_address",
        "label": "mapping(address => uint256)",
        "numberOfBytes": "32",
        "value": "t_uint256"
      },
      "t_mapping(t_bytes32,t_struct(RoleData)19_storage)": {
        "encoding": "mapping",
        "key": "t_bytes32",
        "label": "mapping(bytes32 => struct AccessControl.RoleData)",
        "numberOfBytes": "32",
        "value": "t_struct(RoleData)19_storage"
      },
      "t_mapping(t_uint192,t_mapping(t_address,t_uint256))": {
        "encoding": "mapping",
        "key": "t_uint192",
        "label": "mapping(uint192 => mapping(address => uint256))",
        "numberOfBytes": "32",
        "value": "t_mapping(t_address,t_uint256)"
      },
      "t_mapping(t_uint192,t_struct(Group)8274_storage)": {
        "encoding": "mapping",
        "key": "t_uint192",
        "label": "mapping(uint192 => struct UsingCryptoPunksGroupRegistryStructs.Group)",
        "numberOfBytes": "32",
        "value": "t_struct(Group)8274_storage"
      },
      "t_mapping(t_uint256,t_mapping(t_address,t_uint256))": {
        "encoding": "mapping",
        "key": "t_uint256",
        "label": "mapping(uint256 => mapping(address => uint256))",
        "numberOfBytes": "32",
        "value": "t_mapping(t_address,t_uint256)"
      },
      "t_string_storage": {
        "encoding": "bytes",
        "label": "string",
        "numberOfBytes": "32"
      },
      "t_struct(Group)8274_storage": {
        "encoding": "inplace",
        "label": "struct UsingCryptoPunksGroupRegistryStructs.Group",
        "members": [
          {
            "astId": 8248,
            "contract": "src/CryptoPunksGroupRegistry.sol:CryptoPunksGroupRegistry",
            "label": "id",
            "offset": 0,
            "slot": "0",
            "type": "t_uint192"
          },
          {
            "astId": 8250,
            "contract": "src/CryptoPunksGroupRegistry.sol:CryptoPunksGroupRegistry",
            "label": "creator",
            "offset": 0,
            "slot": "1",
            "type": "t_address"
          },
          {
            "astId": 8252,
            "contract": "src/CryptoPunksGroupRegistry.sol:CryptoPunksGroupRegistry",
            "label": "targetPunkId",
            "offset": 0,
            "slot": "2",
            "type": "t_uint256"
          },
          {
            "astId": 8254,
            "contract": "src/CryptoPunksGroupRegistry.sol:CryptoPunksGroupRegistry",
            "label": "targetMaxPrice",
            "offset": 0,
            "slot": "3",
            "type": "t_uint256"
          },
          {
            "astId": 8256,
            "contract": "src/CryptoPunksGroupRegistry.sol:CryptoPunksGroupRegistry",
            "label": "totalTicketSupply",
            "offset": 0,
            "slot": "4",
            "type": "t_uint64"
          },
          {
            "astId": 8258,
            "contract": "src/CryptoPunksGroupRegistry.sol:CryptoPunksGroupRegistry",
            "label": "unitTicketPrice",
            "offset": 0,
            "slot": "5",
            "type": "t_uint256"
          },
          {
            "astId": 8260,
            "contract": "src/CryptoPunksGroupRegistry.sol:CryptoPunksGroupRegistry",
            "label": "totalContribution",
            "offset": 0,
            "slot": "6",
            "type": "t_uint256"
          },
          {
            "astId": 8262,
            "contract": "src/CryptoPunksGroupRegistry.sol:CryptoPunksGroupRegistry",
            "label": "ticketsBought",
            "offset": 0,
            "slot": "7",
            "type": "t_uint64"
          },
          {
            "astId": 8264,
            "contract": "src/CryptoPunksGroupRegistry.sol:CryptoPunksGroupRegistry",
            "label": "expiry",
            "offset": 8,
            "slot": "7",
            "type": "t_uint40"
          },
          {
            "astId": 8267,
            "contract": "src/CryptoPunksGroupRegistry.sol:CryptoPunksGroupRegistry",
            "label": "status",
            "offset": 13,
            "slot": "7",
            "type": "t_enum(GroupStatus)8246"
          },
          {
            "astId": 8269,
            "contract": "src/CryptoPunksGroupRegistry.sol:CryptoPunksGroupRegistry",
            "label": "purchasePrice",
            "offset": 0,
            "slot": "8",
            "type": "t_uint256"
          },
          {
            "astId": 8271,
            "contract": "src/CryptoPunksGroupRegistry.sol:CryptoPunksGroupRegistry",
            "label": "originalId",
            "offset": 0,
            "slot": "9",
            "type": "t_uint192"
          },
          {
            "astId": 8273,
            "contract": "src/CryptoPunksGroupRegistry.sol:CryptoPunksGroupRegistry",
            "label": "metadataUri",
            "offset": 0,
            "slot": "10",
            "type": "t_string_storage"
          }
        ],
        "numberOfBytes": "352"
      },
      "t_struct(RoleData)19_storage": {
        "encoding": "inplace",
        "label": "struct AccessControl.RoleData",
        "members": [
          {
            "astId": 16,
            "contract": "src/CryptoPunksGroupRegistry.sol:CryptoPunksGroupRegistry",
            "label": "members",
            "offset": 0,
            "slot": "0",
            "type": "t_mapping(t_address,t_bool)"
          },
          {
            "astId": 18,
            "contract": "src/CryptoPunksGroupRegistry.sol:CryptoPunksGroupRegistry",
            "label": "adminRole",
            "offset": 0,
            "slot": "1",
            "type": "t_bytes32"
          }
        ],
        "numberOfBytes": "64"
      },
      "t_uint192": {
        "encoding": "inplace",
        "label": "uint192",
        "numberOfBytes": "24"
      },
      "t_uint256": {
        "encoding": "inplace",
        "label": "uint256",
        "numberOfBytes": "32"
      },
      "t_uint40": {
        "encoding": "inplace",
        "label": "uint40",
        "numberOfBytes": "5"
      },
      "t_uint64": {
        "encoding": "inplace",
        "label": "uint64",
        "numberOfBytes": "8"
      }
    }
  }
}