{
  "address": "0xAb9815A2D5C0429857C3E4F6fEfb0f0D79CFADb6",
  "abi": [
    {
      "inputs": [
        {
          "internalType": "address",
          "name": "cryptoPunksMarketAddress",
          "type": "address"
        }
      ],
      "stateMutability": "nonpayable",
      "type": "constructor"
    },
    {
      "anonymous": false,
      "inputs": [
        {
          "indexed": true,
          "internalType": "bytes32",
          "name": "role",
          "type": "bytes32"
        },
        {
          "indexed": true,
          "internalType": "bytes32",
          "name": "previousAdminRole",
          "type": "bytes32"
        },
        {
          "indexed": true,
          "internalType": "bytes32",
          "name": "newAdminRole",
          "type": "bytes32"
        }
      ],
      "name": "RoleAdminChanged",
      "type": "event"
    },
    {
      "anonymous": false,
      "inputs": [
        {
          "indexed": true,
          "internalType": "bytes32",
          "name": "role",
          "type": "bytes32"
        },
        {
          "indexed": true,
          "internalType": "address",
          "name": "account",
          "type": "address"
        },
        {
          "indexed": true,
          "internalType": "address",
          "name": "sender",
          "type": "address"
        }
      ],
      "name": "RoleGranted",
      "type": "event"
    },
    {
      "anonymous": false,
      "inputs": [
        {
          "indexed": true,
          "internalType": "bytes32",
          "name": "role",
          "type": "bytes32"
        },
        {
          "indexed": true,
          "internalType": "address",
          "name": "account",
          "type": "address"
        },
        {
          "indexed": true,
          "internalType": "address",
          "name": "sender",
          "type": "address"
        }
      ],
      "name": "RoleRevoked",
      "type": "event"
    },
    {
      "inputs": [],
      "name": "DEFAULT_ADMIN_ROLE",
      "outputs": [
        {
          "internalType": "bytes32",
          "name": "",
          "type": "bytes32"
        }
      ],
      "stateMutability": "view",
      "type": "function"
    },
    {
      "inputs": [],
      "name": "activate",
      "outputs": [],
      "stateMutability": "nonpayable",
      "type": "function"
    },
    {
      "inputs": [],
      "name": "cryptoPunksMarket",
      "outputs": [
        {
          "internalType": "contract ICryptoPunksMarket",
          "name": "",
          "type": "address"
        }
      ],
      "stateMutability": "view",
      "type": "function"
    },
    {
      "inputs": [],
      "name": "deactivate",
      "outputs": [],
      "stateMutability": "nonpayable",
      "type": "function"
    },
    {
      "inputs": [
        {
          "internalType": "bytes32",
          "name": "role",
          "type": "bytes32"
        }
      ],
      "name": "getRoleAdmin",
      "outputs": [
        {
          "internalType": "bytes32",
          "name": "",
          "type": "bytes32"
        }
      ],
      "stateMutability": "view",
      "type": "function"
    },
    {
      "inputs": [
        {
          "internalType": "bytes32",
          "name": "role",
          "type": "bytes32"
        },
        {
          "internalType": "address",
          "name": "account",
          "type": "address"
        }
      ],
      "name": "grantRole",
      "outputs": [],
      "stateMutability": "nonpayable",
      "type": "function"
    },
    {
      "inputs": [],
      "name": "groupRegistry",
      "outputs": [
        {
          "internalType": "contract ICryptoPunksGroupRegistry",
          "name": "",
          "type": "address"
        }
      ],
      "stateMutability": "view",
      "type": "function"
    },
    {
      "inputs": [
        {
          "internalType": "bytes32",
          "name": "role",
          "type": "bytes32"
        },
        {
          "internalType": "address",
          "name": "account",
          "type": "address"
        }
      ],
      "name": "hasRole",
      "outputs": [
        {
          "internalType": "bool",
          "name": "",
          "type": "bool"
        }
      ],
      "stateMutability": "view",
      "type": "function"
    },
    {
      "inputs": [],
      "name": "isActive",
      "outputs": [
        {
          "internalType": "bool",
          "name": "",
          "type": "bool"
        }
      ],
      "stateMutability": "view",
      "type": "function"
    },
    {
      "inputs": [],
      "name": "mosaicRegistry",
      "outputs": [
        {
          "internalType": "contract ICryptoPunksMosaicRegistry",
          "name": "",
          "type": "address"
        }
      ],
      "stateMutability": "view",
      "type": "function"
    },
    {
      "inputs": [
        {
          "internalType": "bytes32",
          "name": "role",
          "type": "bytes32"
        },
        {
          "internalType": "address",
          "name": "account",
          "type": "address"
        }
      ],
      "name": "renounceRole",
      "outputs": [],
      "stateMutability": "nonpayable",
      "type": "function"
    },
    {
      "inputs": [
        {
          "internalType": "bytes32",
          "name": "role",
          "type": "bytes32"
        },
        {
          "internalType": "address",
          "name": "account",
          "type": "address"
        }
      ],
      "name": "revokeRole",
      "outputs": [],
      "stateMutability": "nonpayable",
      "type": "function"
    },
    {
      "inputs": [
        {
          "internalType": "address",
          "name": "addr",
          "type": "address"
        }
      ],
      "name": "setGroupRegistry",
      "outputs": [],
      "stateMutability": "nonpayable",
      "type": "function"
    },
    {
      "inputs": [
        {
          "internalType": "address",
          "name": "addr",
          "type": "address"
        }
      ],
      "name": "setMosaicRegistry",
      "outputs": [],
      "stateMutability": "nonpayable",
      "type": "function"
    },
    {
      "inputs": [
        {
          "internalType": "bytes4",
          "name": "interfaceId",
          "type": "bytes4"
        }
      ],
      "name": "supportsInterface",
      "outputs": [
        {
          "internalType": "bool",
          "name": "",
          "type": "bool"
        }
      ],
      "stateMutability": "view",
      "type": "function"
    }
  ],
  "transactionHash": "0x442dfedcf3dabdd86231cbeba5e209e265951369929e82ba5e5bdd9f5046ffd0",
  "args": [
    "0xab4C336343FD271713812713544dE913B8398c9c"
  ],
  "numDeployments": 2,
  "solcInputHash": "aa0103a947c723e7521bb6c5ad35ff19",
  "bytecode": "0x60a060405234801561001057600080fd5b50604051610b14380380610b1483398101604081905261002f916100ea565b61003a60003361004b565b6001600160a01b031660805261011a565b6000828152602081815260408083206001600160a01b038516845290915290205460ff166100e6576000828152602081815260408083206001600160a01b03851684529091529020805460ff191660011790556100a53390565b6001600160a01b0316816001600160a01b0316837f2f8788117e7eff1d82e926ec794901d17c78024a50270940304540a733656f0d60405160405180910390a45b5050565b6000602082840312156100fc57600080fd5b81516001600160a01b038116811461011357600080fd5b9392505050565b6080516109df610135600039600061022301526109df6000f3fe608060405234801561001057600080fd5b50600436106100f55760003560e01c80632f2ff15d1161009757806391d148541161006657806391d1485414610203578063a217fddf14610216578063d0d851d01461021e578063d547741f1461024557600080fd5b80632f2ff15d146101c257806336568abe146101d557806351b42b00146101e857806382fbaed2146101f057600080fd5b806319e52582116100d357806319e525821461015757806322f3e2d41461016a578063241f8a5c1461017e578063248a9ca31461019157600080fd5b806301ffc9a7146100fa5780630f15f4c014610122578063165273ce1461012c575b600080fd5b61010d6101083660046107b4565b610258565b60405190151581526020015b60405180910390f35b61012a61028f565b005b60015461013f906001600160a01b031681565b6040516001600160a01b039091168152602001610119565b60025461013f906001600160a01b031681565b60025461010d90600160a01b900460ff1681565b61012a61018c3660046107fa565b61033e565b6101b461019f366004610815565b60009081526020819052604090206001015490565b604051908152602001610119565b61012a6101d036600461082e565b61036c565b61012a6101e336600461082e565b610396565b61012a610419565b61012a6101fe3660046107fa565b610434565b61010d61021136600461082e565b610462565b6101b4600081565b61013f7f000000000000000000000000000000000000000000000000000000000000000081565b61012a61025336600461082e565b61048b565b60006001600160e01b03198216637965db0b60e01b148061028957506301ffc9a760e01b6001600160e01b03198316145b92915050565b600061029a816104b0565b6001546001600160a01b0316158015906102be57506002546001600160a01b031615155b6102c757600080fd5b600254600154604051635a07eab760e11b81526001600160a01b03918216600482015291169063b40fd56e90602401600060405180830381600087803b15801561031057600080fd5b505af1158015610324573d6000803e3d6000fd5b50506002805460ff60a01b1916600160a01b179055505050565b6000610349816104b0565b50600180546001600160a01b0319166001600160a01b0392909216919091179055565b600082815260208190526040902060010154610387816104b0565b61039183836104bd565b505050565b6001600160a01b038116331461040b5760405162461bcd60e51b815260206004820152602f60248201527f416363657373436f6e74726f6c3a2063616e206f6e6c792072656e6f756e636560448201526e103937b632b9903337b91039b2b63360891b60648201526084015b60405180910390fd5b6104158282610541565b5050565b6000610424816104b0565b506002805460ff60a01b19169055565b600061043f816104b0565b50600280546001600160a01b0319166001600160a01b0392909216919091179055565b6000918252602082815260408084206001600160a01b0393909316845291905290205460ff1690565b6000828152602081905260409020600101546104a6816104b0565b6103918383610541565b6104ba81336105a6565b50565b6104c78282610462565b610415576000828152602081815260408083206001600160a01b03851684529091529020805460ff191660011790556104fd3390565b6001600160a01b0316816001600160a01b0316837f2f8788117e7eff1d82e926ec794901d17c78024a50270940304540a733656f0d60405160405180910390a45050565b61054b8282610462565b15610415576000828152602081815260408083206001600160a01b0385168085529252808320805460ff1916905551339285917ff6391f5c32d9c69d2a47ea670b442974b53935d1edc7fd64eb21e047a839171b9190a45050565b6105b08282610462565b610415576105bd816105ff565b6105c8836020610611565b6040516020016105d992919061087e565b60408051601f198184030181529082905262461bcd60e51b8252610402916004016108f3565b60606102896001600160a01b03831660145b6060600061062083600261093c565b61062b906002610953565b67ffffffffffffffff81111561064357610643610966565b6040519080825280601f01601f19166020018201604052801561066d576020820181803683370190505b509050600360fc1b816000815181106106885761068861097c565b60200101906001600160f81b031916908160001a905350600f60fb1b816001815181106106b7576106b761097c565b60200101906001600160f81b031916908160001a90535060006106db84600261093c565b6106e6906001610953565b90505b600181111561075e576f181899199a1a9b1b9c1cb0b131b232b360811b85600f166010811061071a5761071a61097c565b1a60f81b8282815181106107305761073061097c565b60200101906001600160f81b031916908160001a90535060049490941c9361075781610992565b90506106e9565b5083156107ad5760405162461bcd60e51b815260206004820181905260248201527f537472696e67733a20686578206c656e67746820696e73756666696369656e746044820152606401610402565b9392505050565b6000602082840312156107c657600080fd5b81356001600160e01b0319811681146107ad57600080fd5b80356001600160a01b03811681146107f557600080fd5b919050565b60006020828403121561080c57600080fd5b6107ad826107de565b60006020828403121561082757600080fd5b5035919050565b6000806040838503121561084157600080fd5b82359150610851602084016107de565b90509250929050565b60005b8381101561087557818101518382015260200161085d565b50506000910152565b7f416363657373436f6e74726f6c3a206163636f756e74200000000000000000008152600083516108b681601785016020880161085a565b7001034b99036b4b9b9b4b733903937b6329607d1b60179184019182015283516108e781602884016020880161085a565b01602801949350505050565b602081526000825180602084015261091281604085016020870161085a565b601f01601f19169190910160400192915050565b634e487b7160e01b600052601160045260246000fd5b808202811582820484141761028957610289610926565b8082018082111561028957610289610926565b634e487b7160e01b600052604160045260246000fd5b634e487b7160e01b600052603260045260246000fd5b6000816109a1576109a1610926565b50600019019056fea2646970667358221220a067c6338154ba33412e0059be48b02153cfa1baca8e25dc14f8a40025524b7764736f6c63430008110033",
  "devdoc": {
    "kind": "dev",
    "methods": {
      "getRoleAdmin(bytes32)": {
        "details": "Returns the admin role that controls `role`. See {grantRole} and {revokeRole}. To change a role's admin, use {_setRoleAdmin}."
      },
      "grantRole(bytes32,address)": {
        "details": "Grants `role` to `account`. If `account` had not been already granted `role`, emits a {RoleGranted} event. Requirements: - the caller must have ``role``'s admin role. May emit a {RoleGranted} event."
      },
      "hasRole(bytes32,address)": {
        "details": "Returns `true` if `account` has been granted `role`."
      },
      "renounceRole(bytes32,address)": {
        "details": "Revokes `role` from the calling account. Roles are often managed via {grantRole} and {revokeRole}: this function's purpose is to provide a mechanism for accounts to lose their privileges if they are compromised (such as when a trusted device is misplaced). If the calling account had been revoked `role`, emits a {RoleRevoked} event. Requirements: - the caller must be `account`. May emit a {RoleRevoked} event."
      },
      "revokeRole(bytes32,address)": {
        "details": "Revokes `role` from `account`. If `account` had been granted `role`, emits a {RoleRevoked} event. Requirements: - the caller must have ``role``'s admin role. May emit a {RoleRevoked} event."
      },
      "supportsInterface(bytes4)": {
        "details": "See {IERC165-supportsInterface}."
      }
    },
    "version": 1
  },
  "userdoc": {
    "kind": "user",
    "methods": {},
    "version": 1
  },
  "storageLayout": {
    "storage": [
      {
        "astId": 4326,
        "contract": "src/CryptoPunksMuseum.sol:CryptoPunksMuseum",
        "label": "_roles",
        "offset": 0,
        "slot": "0",
        "type": "t_mapping(t_bytes32,t_struct(RoleData)4321_storage)"
      },
      {
        "astId": 11269,
        "contract": "src/CryptoPunksMuseum.sol:CryptoPunksMuseum",
        "label": "groupRegistry",
        "offset": 0,
        "slot": "1",
        "type": "t_contract(ICryptoPunksGroupRegistry)11416"
      },
      {
        "astId": 11272,
        "contract": "src/CryptoPunksMuseum.sol:CryptoPunksMuseum",
        "label": "mosaicRegistry",
        "offset": 0,
        "slot": "2",
        "type": "t_contract(ICryptoPunksMosaicRegistry)11460"
      },
      {
        "astId": 11274,
        "contract": "src/CryptoPunksMuseum.sol:CryptoPunksMuseum",
        "label": "isActive",
        "offset": 20,
        "slot": "2",
        "type": "t_bool"
      }
    ],
    "types": {
      "t_address": {
        "encoding": "inplace",
        "label": "address",
        "numberOfBytes": "20"
      },
      "t_bool": {
        "encoding": "inplace",
        "label": "bool",
        "numberOfBytes": "1"
      },
      "t_bytes32": {
        "encoding": "inplace",
        "label": "bytes32",
        "numberOfBytes": "32"
      },
      "t_contract(ICryptoPunksGroupRegistry)11416": {
        "encoding": "inplace",
        "label": "contract ICryptoPunksGroupRegistry",
        "numberOfBytes": "20"
      },
      "t_contract(ICryptoPunksMosaicRegistry)11460": {
        "encoding": "inplace",
        "label": "contract ICryptoPunksMosaicRegistry",
        "numberOfBytes": "20"
      },
      "t_mapping(t_address,t_bool)": {
        "encoding": "mapping",
        "key": "t_address",
        "label": "mapping(address => bool)",
        "numberOfBytes": "32",
        "value": "t_bool"
      },
      "t_mapping(t_bytes32,t_struct(RoleData)4321_storage)": {
        "encoding": "mapping",
        "key": "t_bytes32",
        "label": "mapping(bytes32 => struct AccessControl.RoleData)",
        "numberOfBytes": "32",
        "value": "t_struct(RoleData)4321_storage"
      },
      "t_struct(RoleData)4321_storage": {
        "encoding": "inplace",
        "label": "struct AccessControl.RoleData",
        "members": [
          {
            "astId": 4318,
            "contract": "src/CryptoPunksMuseum.sol:CryptoPunksMuseum",
            "label": "members",
            "offset": 0,
            "slot": "0",
            "type": "t_mapping(t_address,t_bool)"
          },
          {
            "astId": 4320,
            "contract": "src/CryptoPunksMuseum.sol:CryptoPunksMuseum",
            "label": "adminRole",
            "offset": 0,
            "slot": "1",
            "type": "t_bytes32"
          }
        ],
        "numberOfBytes": "64"
      }
    }
  }
}