{
  "address": "0x2D0436EBd911BEa5C63EbF7e5237A5bFC1482c32",
  "abi": [
    {
      "anonymous": false,
      "inputs": [
        {
          "indexed": false,
          "internalType": "address",
          "name": "previousAdmin",
          "type": "address"
        },
        {
          "indexed": false,
          "internalType": "address",
          "name": "newAdmin",
          "type": "address"
        }
      ],
      "name": "AdminChanged",
      "type": "event"
    },
    {
      "anonymous": false,
      "inputs": [
        {
          "indexed": true,
          "internalType": "address",
          "name": "account",
          "type": "address"
        },
        {
          "indexed": true,
          "internalType": "address",
          "name": "operator",
          "type": "address"
        },
        {
          "indexed": false,
          "internalType": "bool",
          "name": "approved",
          "type": "bool"
        }
      ],
      "name": "ApprovalForAll",
      "type": "event"
    },
    {
      "anonymous": false,
      "inputs": [
        {
          "indexed": true,
          "internalType": "address",
          "name": "beacon",
          "type": "address"
        }
      ],
      "name": "BeaconUpgraded",
      "type": "event"
    },
    {
      "anonymous": false,
      "inputs": [
        {
          "indexed": true,
          "internalType": "address",
          "name": "claimer",
          "type": "address"
        },
        {
          "indexed": true,
          "internalType": "uint192",
          "name": "groupId",
          "type": "uint192"
        },
        {
          "indexed": true,
          "internalType": "uint256",
          "name": "mosaicId",
          "type": "uint256"
        }
      ],
      "name": "Claimed",
      "type": "event"
    },
    {
      "anonymous": false,
      "inputs": [
        {
          "indexed": true,
          "internalType": "address",
          "name": "contributor",
          "type": "address"
        },
        {
          "indexed": true,
          "internalType": "uint192",
          "name": "groupId",
          "type": "uint192"
        },
        {
          "indexed": true,
          "internalType": "uint96",
          "name": "ticketQuantity",
          "type": "uint96"
        }
      ],
      "name": "Contributed",
      "type": "event"
    },
    {
      "anonymous": false,
      "inputs": [
        {
          "indexed": true,
          "internalType": "uint192",
          "name": "groupId",
          "type": "uint192"
        },
        {
          "indexed": true,
          "internalType": "address",
          "name": "creator",
          "type": "address"
        },
        {
          "indexed": false,
          "internalType": "uint256",
          "name": "targetMaxPrice",
          "type": "uint256"
        },
        {
          "indexed": false,
          "internalType": "uint64",
          "name": "totalTicketSupply",
          "type": "uint64"
        },
        {
          "indexed": false,
          "internalType": "uint256",
          "name": "unitTicketPrice",
          "type": "uint256"
        }
      ],
      "name": "GroupCreated",
      "type": "event"
    },
    {
      "anonymous": false,
      "inputs": [
        {
          "indexed": true,
          "internalType": "uint192",
          "name": "groupId",
          "type": "uint192"
        }
      ],
      "name": "GroupWon",
      "type": "event"
    },
    {
      "anonymous": false,
      "inputs": [
        {
          "indexed": false,
          "internalType": "uint8",
          "name": "version",
          "type": "uint8"
        }
      ],
      "name": "Initialized",
      "type": "event"
    },
    {
      "anonymous": false,
      "inputs": [
        {
          "indexed": true,
          "internalType": "bytes32",
          "name": "role",
          "type": "bytes32"
        },
        {
          "indexed": true,
          "internalType": "bytes32",
          "name": "previousAdminRole",
          "type": "bytes32"
        },
        {
          "indexed": true,
          "internalType": "bytes32",
          "name": "newAdminRole",
          "type": "bytes32"
        }
      ],
      "name": "RoleAdminChanged",
      "type": "event"
    },
    {
      "anonymous": false,
      "inputs": [
        {
          "indexed": true,
          "internalType": "bytes32",
          "name": "role",
          "type": "bytes32"
        },
        {
          "indexed": true,
          "internalType": "address",
          "name": "account",
          "type": "address"
        },
        {
          "indexed": true,
          "internalType": "address",
          "name": "sender",
          "type": "address"
        }
      ],
      "name": "RoleGranted",
      "type": "event"
    },
    {
      "anonymous": false,
      "inputs": [
        {
          "indexed": true,
          "internalType": "bytes32",
          "name": "role",
          "type": "bytes32"
        },
        {
          "indexed": true,
          "internalType": "address",
          "name": "account",
          "type": "address"
        },
        {
          "indexed": true,
          "internalType": "address",
          "name": "sender",
          "type": "address"
        }
      ],
      "name": "RoleRevoked",
      "type": "event"
    },
    {
      "anonymous": false,
      "inputs": [
        {
          "indexed": true,
          "internalType": "address",
          "name": "operator",
          "type": "address"
        },
        {
          "indexed": true,
          "internalType": "address",
          "name": "from",
          "type": "address"
        },
        {
          "indexed": true,
          "internalType": "address",
          "name": "to",
          "type": "address"
        },
        {
          "indexed": false,
          "internalType": "uint256[]",
          "name": "ids",
          "type": "uint256[]"
        },
        {
          "indexed": false,
          "internalType": "uint256[]",
          "name": "values",
          "type": "uint256[]"
        }
      ],
      "name": "TransferBatch",
      "type": "event"
    },
    {
      "anonymous": false,
      "inputs": [
        {
          "indexed": true,
          "internalType": "address",
          "name": "operator",
          "type": "address"
        },
        {
          "indexed": true,
          "internalType": "address",
          "name": "from",
          "type": "address"
        },
        {
          "indexed": true,
          "internalType": "address",
          "name": "to",
          "type": "address"
        },
        {
          "indexed": false,
          "internalType": "uint256",
          "name": "id",
          "type": "uint256"
        },
        {
          "indexed": false,
          "internalType": "uint256",
          "name": "value",
          "type": "uint256"
        }
      ],
      "name": "TransferSingle",
      "type": "event"
    },
    {
      "anonymous": false,
      "inputs": [
        {
          "indexed": false,
          "internalType": "string",
          "name": "value",
          "type": "string"
        },
        {
          "indexed": true,
          "internalType": "uint256",
          "name": "id",
          "type": "uint256"
        }
      ],
      "name": "URI",
      "type": "event"
    },
    {
      "anonymous": false,
      "inputs": [
        {
          "indexed": true,
          "internalType": "address",
          "name": "implementation",
          "type": "address"
        }
      ],
      "name": "Upgraded",
      "type": "event"
    },
    {
      "inputs": [],
      "name": "CURATOR_ROLE",
      "outputs": [
        {
          "internalType": "bytes32",
          "name": "",
          "type": "bytes32"
        }
      ],
      "stateMutability": "view",
      "type": "function"
    },
    {
      "inputs": [],
      "name": "DEFAULT_ADMIN_ROLE",
      "outputs": [
        {
          "internalType": "bytes32",
          "name": "",
          "type": "bytes32"
        }
      ],
      "stateMutability": "view",
      "type": "function"
    },
    {
      "inputs": [],
      "name": "MAX_RESERVE_PRICE_BPS",
      "outputs": [
        {
          "internalType": "uint64",
          "name": "",
          "type": "uint64"
        }
      ],
      "stateMutability": "view",
      "type": "function"
    },
    {
      "inputs": [],
      "name": "MIN_RESERVE_PRICE_BPS",
      "outputs": [
        {
          "internalType": "uint64",
          "name": "",
          "type": "uint64"
        }
      ],
      "stateMutability": "view",
      "type": "function"
    },
    {
      "inputs": [],
      "name": "TICKET_SUPPLY_PER_GROUP",
      "outputs": [
        {
          "internalType": "uint64",
          "name": "",
          "type": "uint64"
        }
      ],
      "stateMutability": "view",
      "type": "function"
    },
    {
      "inputs": [
        {
          "internalType": "address",
          "name": "to",
          "type": "address"
        },
        {
          "internalType": "uint256[]",
          "name": "ids",
          "type": "uint256[]"
        },
        {
          "internalType": "uint256[]",
          "name": "amounts",
          "type": "uint256[]"
        }
      ],
      "name": "airdrop",
      "outputs": [],
      "stateMutability": "nonpayable",
      "type": "function"
    },
    {
      "inputs": [
        {
          "internalType": "address",
          "name": "account",
          "type": "address"
        },
        {
          "internalType": "uint256",
          "name": "id",
          "type": "uint256"
        }
      ],
      "name": "balanceOf",
      "outputs": [
        {
          "internalType": "uint256",
          "name": "",
          "type": "uint256"
        }
      ],
      "stateMutability": "view",
      "type": "function"
    },
    {
      "inputs": [
        {
          "internalType": "address[]",
          "name": "accounts",
          "type": "address[]"
        },
        {
          "internalType": "uint256[]",
          "name": "ids",
          "type": "uint256[]"
        }
      ],
      "name": "balanceOfBatch",
      "outputs": [
        {
          "internalType": "uint256[]",
          "name": "",
          "type": "uint256[]"
        }
      ],
      "stateMutability": "view",
      "type": "function"
    },
    {
      "inputs": [
        {
          "internalType": "uint192",
          "name": "groupId",
          "type": "uint192"
        }
      ],
      "name": "buy",
      "outputs": [],
      "stateMutability": "nonpayable",
      "type": "function"
    },
    {
      "inputs": [
        {
          "internalType": "uint256",
          "name": "purchasePrice",
          "type": "uint256"
        }
      ],
      "name": "calculateMaxReservePrice",
      "outputs": [
        {
          "internalType": "uint256",
          "name": "maxReservePrice",
          "type": "uint256"
        }
      ],
      "stateMutability": "pure",
      "type": "function"
    },
    {
      "inputs": [
        {
          "internalType": "uint256",
          "name": "purchasePrice",
          "type": "uint256"
        }
      ],
      "name": "calculateMinReservePrice",
      "outputs": [
        {
          "internalType": "uint256",
          "name": "minReservePrice",
          "type": "uint256"
        }
      ],
      "stateMutability": "pure",
      "type": "function"
    },
    {
      "inputs": [
        {
          "internalType": "uint192",
          "name": "groupId",
          "type": "uint192"
        }
      ],
      "name": "claim",
      "outputs": [
        {
          "internalType": "uint256[]",
          "name": "mosaicIds",
          "type": "uint256[]"
        }
      ],
      "stateMutability": "nonpayable",
      "type": "function"
    },
    {
      "inputs": [
        {
          "internalType": "uint192",
          "name": "groupId",
          "type": "uint192"
        },
        {
          "internalType": "uint64",
          "name": "ticketQuantity",
          "type": "uint64"
        }
      ],
      "name": "contribute",
      "outputs": [],
      "stateMutability": "payable",
      "type": "function"
    },
    {
      "inputs": [
        {
          "internalType": "uint256",
          "name": "targetPunkId",
          "type": "uint256"
        },
        {
          "internalType": "uint256",
          "name": "targetMaxPrice",
          "type": "uint256"
        }
      ],
      "name": "create",
      "outputs": [
        {
          "internalType": "uint192",
          "name": "groupId",
          "type": "uint192"
        }
      ],
      "stateMutability": "nonpayable",
      "type": "function"
    },
    {
      "inputs": [
        {
          "internalType": "uint192",
          "name": "groupId",
          "type": "uint192"
        }
      ],
      "name": "getGroup",
      "outputs": [
        {
          "components": [
            {
              "internalType": "uint192",
              "name": "id",
              "type": "uint192"
            },
            {
              "internalType": "address",
              "name": "creator",
              "type": "address"
            },
            {
              "internalType": "uint256",
              "name": "targetPunkId",
              "type": "uint256"
            },
            {
              "internalType": "uint256",
              "name": "targetMaxPrice",
              "type": "uint256"
            },
            {
              "internalType": "uint64",
              "name": "totalTicketSupply",
              "type": "uint64"
            },
            {
              "internalType": "uint256",
              "name": "unitTicketPrice",
              "type": "uint256"
            },
            {
              "internalType": "uint256",
              "name": "totalContribution",
              "type": "uint256"
            },
            {
              "internalType": "uint64",
              "name": "ticketsBought",
              "type": "uint64"
            },
            {
              "internalType": "uint40",
              "name": "expiresAt",
              "type": "uint40"
            },
            {
              "internalType": "enum UsingCryptoPunksGroupRegistryStructs.GroupStatus",
              "name": "status",
              "type": "uint8"
            },
            {
              "internalType": "uint256",
              "name": "purchasePrice",
              "type": "uint256"
            },
            {
              "internalType": "uint192",
              "name": "originalId",
              "type": "uint192"
            },
            {
              "internalType": "string",
              "name": "metadataUri",
              "type": "string"
            }
          ],
          "internalType": "struct UsingCryptoPunksGroupRegistryStructs.Group",
          "name": "",
          "type": "tuple"
        }
      ],
      "stateMutability": "view",
      "type": "function"
    },
    {
      "inputs": [
        {
          "internalType": "uint192",
          "name": "groupId",
          "type": "uint192"
        }
      ],
      "name": "getGroupLifeCycle",
      "outputs": [
        {
          "internalType": "enum UsingCryptoPunksGroupRegistryStructs.GroupLifeCycle",
          "name": "",
          "type": "uint8"
        }
      ],
      "stateMutability": "view",
      "type": "function"
    },
    {
      "inputs": [
        {
          "internalType": "uint192",
          "name": "groupId",
          "type": "uint192"
        }
      ],
      "name": "getGroupTotalContribution",
      "outputs": [
        {
          "internalType": "uint256",
          "name": "totalContribution",
          "type": "uint256"
        }
      ],
      "stateMutability": "view",
      "type": "function"
    },
    {
      "inputs": [],
      "name": "getLatestGroupId",
      "outputs": [
        {
          "internalType": "uint192",
          "name": "latestGroupId",
          "type": "uint192"
        }
      ],
      "stateMutability": "view",
      "type": "function"
    },
    {
      "inputs": [
        {
          "internalType": "bytes32",
          "name": "role",
          "type": "bytes32"
        }
      ],
      "name": "getRoleAdmin",
      "outputs": [
        {
          "internalType": "bytes32",
          "name": "",
          "type": "bytes32"
        }
      ],
      "stateMutability": "view",
      "type": "function"
    },
    {
      "inputs": [
        {
          "internalType": "address",
          "name": "inquired",
          "type": "address"
        },
        {
          "internalType": "uint192",
          "name": "groupId",
          "type": "uint192"
        }
      ],
      "name": "getTickets",
      "outputs": [
        {
          "internalType": "uint256",
          "name": "",
          "type": "uint256"
        }
      ],
      "stateMutability": "view",
      "type": "function"
    },
    {
      "inputs": [
        {
          "internalType": "bytes32",
          "name": "role",
          "type": "bytes32"
        },
        {
          "internalType": "address",
          "name": "account",
          "type": "address"
        }
      ],
      "name": "grantRole",
      "outputs": [],
      "stateMutability": "nonpayable",
      "type": "function"
    },
    {
      "inputs": [
        {
          "internalType": "address",
          "name": "inquired",
          "type": "address"
        },
        {
          "internalType": "uint192",
          "name": "groupId",
          "type": "uint192"
        }
      ],
      "name": "hasContribution",
      "outputs": [
        {
          "internalType": "bool",
          "name": "",
          "type": "bool"
        }
      ],
      "stateMutability": "view",
      "type": "function"
    },
    {
      "inputs": [
        {
          "internalType": "bytes32",
          "name": "role",
          "type": "bytes32"
        },
        {
          "internalType": "address",
          "name": "account",
          "type": "address"
        }
      ],
      "name": "hasRole",
      "outputs": [
        {
          "internalType": "bool",
          "name": "",
          "type": "bool"
        }
      ],
      "stateMutability": "view",
      "type": "function"
    },
    {
      "inputs": [
        {
          "internalType": "address",
          "name": "museumAddress",
          "type": "address"
        }
      ],
      "name": "initialize",
      "outputs": [],
      "stateMutability": "nonpayable",
      "type": "function"
    },
    {
      "inputs": [
        {
          "internalType": "address",
          "name": "account",
          "type": "address"
        },
        {
          "internalType": "address",
          "name": "operator",
          "type": "address"
        }
      ],
      "name": "isApprovedForAll",
      "outputs": [
        {
          "internalType": "bool",
          "name": "",
          "type": "bool"
        }
      ],
      "stateMutability": "view",
      "type": "function"
    },
    {
      "inputs": [
        {
          "internalType": "address",
          "name": "inquired",
          "type": "address"
        },
        {
          "internalType": "uint192",
          "name": "groupId",
          "type": "uint192"
        }
      ],
      "name": "isCreator",
      "outputs": [
        {
          "internalType": "bool",
          "name": "",
          "type": "bool"
        }
      ],
      "stateMutability": "view",
      "type": "function"
    },
    {
      "inputs": [],
      "name": "museum",
      "outputs": [
        {
          "internalType": "contract CryptoPunksMuseum",
          "name": "",
          "type": "address"
        }
      ],
      "stateMutability": "view",
      "type": "function"
    },
    {
      "inputs": [],
      "name": "proxiableUUID",
      "outputs": [
        {
          "internalType": "bytes32",
          "name": "",
          "type": "bytes32"
        }
      ],
      "stateMutability": "view",
      "type": "function"
    },
    {
      "inputs": [
        {
          "internalType": "uint192",
          "name": "groupId",
          "type": "uint192"
        }
      ],
      "name": "refundExpired",
      "outputs": [],
      "stateMutability": "nonpayable",
      "type": "function"
    },
    {
      "inputs": [
        {
          "internalType": "bytes32",
          "name": "role",
          "type": "bytes32"
        },
        {
          "internalType": "address",
          "name": "account",
          "type": "address"
        }
      ],
      "name": "renounceRole",
      "outputs": [],
      "stateMutability": "nonpayable",
      "type": "function"
    },
    {
      "inputs": [
        {
          "internalType": "bytes32",
          "name": "role",
          "type": "bytes32"
        },
        {
          "internalType": "address",
          "name": "account",
          "type": "address"
        }
      ],
      "name": "revokeRole",
      "outputs": [],
      "stateMutability": "nonpayable",
      "type": "function"
    },
    {
      "inputs": [
        {
          "internalType": "address",
          "name": "from",
          "type": "address"
        },
        {
          "internalType": "address",
          "name": "to",
          "type": "address"
        },
        {
          "internalType": "uint256[]",
          "name": "ids",
          "type": "uint256[]"
        },
        {
          "internalType": "uint256[]",
          "name": "amounts",
          "type": "uint256[]"
        },
        {
          "internalType": "bytes",
          "name": "data",
          "type": "bytes"
        }
      ],
      "name": "safeBatchTransferFrom",
      "outputs": [],
      "stateMutability": "nonpayable",
      "type": "function"
    },
    {
      "inputs": [
        {
          "internalType": "address",
          "name": "from",
          "type": "address"
        },
        {
          "internalType": "address",
          "name": "to",
          "type": "address"
        },
        {
          "internalType": "uint256",
          "name": "id",
          "type": "uint256"
        },
        {
          "internalType": "uint256",
          "name": "amount",
          "type": "uint256"
        },
        {
          "internalType": "bytes",
          "name": "data",
          "type": "bytes"
        }
      ],
      "name": "safeTransferFrom",
      "outputs": [],
      "stateMutability": "nonpayable",
      "type": "function"
    },
    {
      "inputs": [
        {
          "internalType": "address",
          "name": "operator",
          "type": "address"
        },
        {
          "internalType": "bool",
          "name": "approved",
          "type": "bool"
        }
      ],
      "name": "setApprovalForAll",
      "outputs": [],
      "stateMutability": "nonpayable",
      "type": "function"
    },
    {
      "inputs": [
        {
          "internalType": "bytes4",
          "name": "interfaceId",
          "type": "bytes4"
        }
      ],
      "name": "supportsInterface",
      "outputs": [
        {
          "internalType": "bool",
          "name": "",
          "type": "bool"
        }
      ],
      "stateMutability": "view",
      "type": "function"
    },
    {
      "inputs": [
        {
          "internalType": "address",
          "name": "newImplementation",
          "type": "address"
        }
      ],
      "name": "upgradeTo",
      "outputs": [],
      "stateMutability": "nonpayable",
      "type": "function"
    },
    {
      "inputs": [
        {
          "internalType": "address",
          "name": "newImplementation",
          "type": "address"
        },
        {
          "internalType": "bytes",
          "name": "data",
          "type": "bytes"
        }
      ],
      "name": "upgradeToAndCall",
      "outputs": [],
      "stateMutability": "payable",
      "type": "function"
    },
    {
      "inputs": [
        {
          "internalType": "uint256",
          "name": "groupId",
          "type": "uint256"
        }
      ],
      "name": "uri",
      "outputs": [
        {
          "internalType": "string",
          "name": "",
          "type": "string"
        }
      ],
      "stateMutability": "view",
      "type": "function"
    }
  ],
  "transactionHash": "0x3b59bee8bcabc3a0727fda5c04e03580a8a5c0a97ec1b52430200103dc8c8cc1",
  "args": [],
  "numDeployments": 1,
  "solcInputHash": "620a61277144b73a5b957629f2244a3d",
  "bytecode": "0x60a06040523060805234801561001457600080fd5b50608051614cc861004c60003960008181611214015281816112540152818161142e0152818161146e01526114fd0152614cc86000f3fe6080604052600436106102245760003560e01c806353b92d0911610123578063b4ce873b116100ab578063d547741f1161006f578063d547741f146106b0578063ddcef2b6146106d0578063e985e9c5146106e3578063f242432a1461072c578063f77e17591461074c57600080fd5b8063b4ce873b14610603578063bafb0ebc14610623578063bdd99cdf14610643578063c02a209e14610663578063c4d66de81461069057600080fd5b80639bad761f116100f25780639bad761f146105825780639f7b457914610598578063a217fddf146105b8578063a22cb465146105cd578063aaad804b146105ed57600080fd5b806353b92d091461050257806357ab7f8d1461052257806391d1485414610542578063962fc1aa1461056257600080fd5b80632f2ff15d116101b157806345e67a8c1161017557806345e67a8c1461045f5780634a2cfb54146104985780634e1273f4146104ba5780634f1ef286146104da57806352d1902d146104ed57600080fd5b80632f2ff15d146103b25780632fae02ce146103d257806336568abe146103ff5780633659cfe61461041f57806344b955711461043f57600080fd5b806319cd758f116101f857806319cd758f146102db5780632368a9541461030857806323b8b46d14610335578063248a9ca3146103625780632eb2c2d61461039257600080fd5b8062fdd58e1461022957806301ffc9a71461025c5780630ac457391461028c5780630e89341c146102ae575b600080fd5b34801561023557600080fd5b50610249610244366004613c22565b61076c565b6040519081526020015b60405180910390f35b34801561026857600080fd5b5061027c610277366004613c64565b610807565b6040519015158152602001610253565b34801561029857600080fd5b506102ac6102a7366004613c96565b610821565b005b3480156102ba57600080fd5b506102ce6102c9366004613cb3565b610adb565b6040516102539190613d1c565b3480156102e757600080fd5b506102fb6102f6366004613c96565b610ba4565b6040516102539190613d45565b34801561031457600080fd5b50610328610323366004613c96565b610c96565b6040516102539190613d9a565b34801561034157600080fd5b5061034a606481565b6040516001600160401b039091168152602001610253565b34801561036e57600080fd5b5061024961037d366004613cb3565b600090815260fb602052604090206001015490565b34801561039e57600080fd5b506102ac6103ad366004613ef6565b6110fd565b3480156103be57600080fd5b506102ac6103cd366004613fa3565b611149565b3480156103de57600080fd5b506103e7611173565b6040516001600160c01b039091168152602001610253565b34801561040b57600080fd5b506102ac61041a366004613fa3565b61118c565b34801561042b57600080fd5b506102ac61043a366004613fd3565b61120a565b34801561044b57600080fd5b5061027c61045a366004613ff0565b6112e6565b34801561046b57600080fd5b5061015f54610480906001600160a01b031681565b6040516001600160a01b039091168152602001610253565b3480156104a457600080fd5b50610249600080516020614c2c83398151915281565b3480156104c657600080fd5b506103286104d536600461401e565b6112fb565b6102ac6104e83660046140ea565b611424565b3480156104f957600080fd5b506102496114f0565b34801561050e57600080fd5b5061027c61051d366004613ff0565b6115a4565b34801561052e57600080fd5b506102ac61053d36600461412f565b6115e7565b34801561054e57600080fd5b5061027c61055d366004613fa3565b611613565b34801561056e57600080fd5b5061024961057d366004613cb3565b61163e565b34801561058e57600080fd5b5061034a611b5881565b3480156105a457600080fd5b506103e76105b33660046141a4565b61164c565b3480156105c457600080fd5b50610249600081565b3480156105d957600080fd5b506102ac6105e83660046141d4565b611933565b3480156105f957600080fd5b5061034a61c35081565b34801561060f57600080fd5b5061024961061e366004613ff0565b61193e565b34801561062f57600080fd5b5061024961063e366004613cb3565b61195a565b34801561064f57600080fd5b5061024961065e366004613c96565b611968565b34801561066f57600080fd5b5061068361067e366004613c96565b6119ce565b6040516102539190614216565b34801561069c57600080fd5b506102ac6106ab366004613fd3565b611c0c565b3480156106bc57600080fd5b506102ac6106cb366004613fa3565b611d92565b6102ac6106de366004614325565b611db7565b3480156106ef57600080fd5b5061027c6106fe36600461435f565b6001600160a01b03918216600090815260666020908152604080832093909416825291909152205460ff1690565b34801561073857600080fd5b506102ac61074736600461438d565b6120fe565b34801561075857600080fd5b506102ac610767366004613c96565b612143565b60006001600160a01b0383166107dc5760405162461bcd60e51b815260206004820152602a60248201527f455243313135353a2061646472657373207a65726f206973206e6f742061207660448201526930b634b21037bbb732b960b11b60648201526084015b60405180910390fd5b5060008181526065602090815260408083206001600160a01b03861684529091529020545b92915050565b6000610812826129fd565b80610801575061080182612a4d565b610829612a72565b80610832612acd565b546001600160c01b03908116908216111561085f5760405162461bcd60e51b81526004016107d3906143f5565b61015f546001600160a01b0316158015906108ed575061015f60009054906101000a90046001600160a01b03166001600160a01b03166322f3e2d46040518163ffffffff1660e01b8152600401602060405180830381865afa1580156108c9573d6000803e3d6000fd5b505050506040513d601f19601f820116820180604052508101906108ed919061441e565b6109095760405162461bcd60e51b81526004016107d39061443b565b336000610914612acd565b6001600160c01b0385166000908152600191909101602052604090209050600261093d85610ba4565b600381111561094e5761094e613d2f565b1461099b5760405162461bcd60e51b815260206004820152601960248201527f5468652067726f7570206d75737420626520657870697265640000000000000060448201526064016107d3565b60006109a7338661193e565b905060008111610a055760405162461bcd60e51b815260206004820152602360248201527f4f6e6c79207469636b657420686f6c646572732063616e2067657420726566756044820152626e647360e81b60648201526084016107d3565b610a1933866001600160c01b031683612af1565b600081610a2584612c75565b610a2f9190614480565b90506000846001600160a01b03168260405160006040518083038185875af1925050503d8060008114610a7e576040519150601f19603f3d011682016040523d82523d6000602084013e610a83565b606091505b5050905080610ac75760405162461bcd60e51b815260206004820152601060248201526f11985a5b1959081d1bc81c99599d5b9960821b60448201526064016107d3565b505050505050610ad8600161012d55565b50565b60606000610ae7612acd565b6001016000846001600160c01b03166001600160c01b03168152602001908152602001600020905080600a018054610b1e90614497565b80601f0160208091040260200160405190810160405280929190818152602001828054610b4a90614497565b8015610b975780601f10610b6c57610100808354040283529160200191610b97565b820191906000526020600020905b815481529060010190602001808311610b7a57829003601f168201915b5050505050915050919050565b600081610baf612acd565b546001600160c01b039081169082161115610bdc5760405162461bcd60e51b81526004016107d3906143f5565b6000610be6612acd565b6001600160c01b038516600090815260019190910160205260409020905060026007820154600160681b900460ff166002811115610c2657610c26613d2f565b03610c35576003925050610c90565b60016007820154600160681b900460ff166002811115610c5757610c57613d2f565b03610c8a57600781015442600160401b90910464ffffffffff1610610c80576001925050610c90565b6002925050610c90565b60009250505b50919050565b6060610ca0612a72565b81610ca9612acd565b546001600160c01b039081169082161115610cd65760405162461bcd60e51b81526004016107d3906143f5565b61015f546001600160a01b031615801590610d64575061015f60009054906101000a90046001600160a01b03166001600160a01b03166322f3e2d46040518163ffffffff1660e01b8152600401602060405180830381865afa158015610d40573d6000803e3d6000fd5b505050506040513d601f19601f82011682018060405250810190610d64919061441e565b610d805760405162461bcd60e51b81526004016107d39061443b565b6000610d8a612acd565b6001600160c01b038516600090815260019190910160205260409020905060026007820154600160681b900460ff166002811115610dca57610dca613d2f565b14610e175760405162461bcd60e51b815260206004820152601a60248201527f5468652067726f7570206973206e6f742066696e616c697a656400000000000060448201526064016107d3565b6000610e23338661193e565b905060008111610e815760405162461bcd60e51b8152602060048201526024808201527f4f6e6c79207469636b657420686f6c646572732063616e20636c61696d20746f6044820152636b656e7360e01b60648201526084016107d3565b610e9533866001600160c01b031683612af1565b600081610ea184612c75565b610eab9190614480565b604051909150600090339083908381818185875af1925050503d8060008114610ef0576040519150601f19603f3d011682016040523d82523d6000602084013e610ef5565b606091505b5050905080610f395760405162461bcd60e51b815260206004820152601060248201526f11985a5b1959081d1bc81c99599d5b9960821b60448201526064016107d3565b6000836001600160401b03811115610f5357610f53613dad565b604051908082528060200260200182016040528015610f7c578160200160208202803683370190505b50905060005b848110156110e55761015f5460408051630cf292c160e11b815290516000926001600160a01b0316916319e525829160048083019260209291908290030181865afa158015610fd5573d6000803e3d6000fd5b505050506040513d601f19601f82011682018060405250810190610ff991906144cb565b6009880154604051630818bcb960e21b81523360048201526001600160c01b0390911660248201526001600160a01b039190911690632062f2e4906044016020604051808303816000875af1158015611056573d6000803e3d6000fd5b505050506040513d601f19601f8201168201806040525081019061107a91906144e8565b90508083838151811061108f5761108f614501565b602090810291909101015260405181906001600160c01b038c169033907f4c1be2553fae8261d25ff0ad45198f755781d31ad84c58a526837480b4d7fece90600090a450806110dd81614517565b915050610f82565b50955050505050506110f8600161012d55565b919050565b6001600160a01b038516331480611119575061111985336106fe565b6111355760405162461bcd60e51b81526004016107d390614530565b6111428585858585612cb7565b5050505050565b600082815260fb602052604090206001015461116481612e56565b61116e8383612e60565b505050565b600061117d612acd565b546001600160c01b0316919050565b6001600160a01b03811633146111fc5760405162461bcd60e51b815260206004820152602f60248201527f416363657373436f6e74726f6c3a2063616e206f6e6c792072656e6f756e636560448201526e103937b632b9903337b91039b2b63360891b60648201526084016107d3565b6112068282612ee6565b5050565b6001600160a01b037f00000000000000000000000000000000000000000000000000000000000000001630036112525760405162461bcd60e51b81526004016107d39061457e565b7f00000000000000000000000000000000000000000000000000000000000000006001600160a01b031661129b600080516020614c4c833981519152546001600160a01b031690565b6001600160a01b0316146112c15760405162461bcd60e51b81526004016107d3906145ca565b6112ca81612f4d565b60408051600080825260208201909252610ad891839190612f58565b6000806112f3848461193e565b119392505050565b606081518351146113605760405162461bcd60e51b815260206004820152602960248201527f455243313135353a206163636f756e747320616e6420696473206c656e677468604482015268040dad2e6dac2e8c6d60bb1b60648201526084016107d3565b600083516001600160401b0381111561137b5761137b613dad565b6040519080825280602002602001820160405280156113a4578160200160208202803683370190505b50905060005b845181101561141c576113ef8582815181106113c8576113c8614501565b60200260200101518583815181106113e2576113e2614501565b602002602001015161076c565b82828151811061140157611401614501565b602090810291909101015261141581614517565b90506113aa565b509392505050565b6001600160a01b037f000000000000000000000000000000000000000000000000000000000000000016300361146c5760405162461bcd60e51b81526004016107d39061457e565b7f00000000000000000000000000000000000000000000000000000000000000006001600160a01b03166114b5600080516020614c4c833981519152546001600160a01b031690565b6001600160a01b0316146114db5760405162461bcd60e51b81526004016107d3906145ca565b6114e482612f4d565b61120682826001612f58565b6000306001600160a01b037f000000000000000000000000000000000000000000000000000000000000000016146115905760405162461bcd60e51b815260206004820152603860248201527f555550535570677261646561626c653a206d757374206e6f742062652063616c60448201527f6c6564207468726f7567682064656c656761746563616c6c000000000000000060648201526084016107d3565b50600080516020614c4c8339815191525b90565b6000826001600160a01b03166115b8612acd565b6001600160c01b038416600090815260019182016020526040902001546001600160a01b031614905092915050565b60006115f281612e56565b61160d848484604051806020016040528060008152506130c3565b50505050565b600091825260fb602090815260408084206001600160a01b0393909316845291905290205460ff1690565b60006108018261c35061320f565b6000600080516020614c2c83398151915261166681612e56565b61015f546001600160a01b0316158015906116f4575061015f60009054906101000a90046001600160a01b03166001600160a01b03166322f3e2d46040518163ffffffff1660e01b8152600401602060405180830381865afa1580156116d0573d6000803e3d6000fd5b505050506040513d601f19601f820116820180604052508101906116f4919061441e565b6117105760405162461bcd60e51b81526004016107d39061443b565b600161172c61171d612acd565b546001600160c01b0316610ba4565b600381111561173d5761173d613d2f565b036117815760405162461bcd60e51b81526020600482015260146024820152734f6e676f696e672067726f75702065786973747360601b60448201526064016107d3565b611789612acd565b80546000906117a0906001600160c01b0316614616565b82546001600160c01b039182166101009390930a9283029190920219909116179055606460006117d08286614644565b905060006117dc612acd565b546001600160c01b0316905060006117f2612acd565b6001600160c01b0383166000908152600191909101602052604090209050611818612acd565b5481546001600160c01b0319166001600160c01b03909116178155600181810180546001600160a01b0319163317905560028201899055600382018890556004820180546001600160401b03871667ffffffffffffffff199091161790556005820184905560078201805460ff60681b1916600160681b8302179055506118a24262093a80614666565b60078201805464ffffffffff92909216600160401b026cffffffffff000000000000000019909216919091179055604080518881526001600160401b038616602082015290810184905233906001600160c01b038416907f6c41f680bd5046e7b94552360a6d353c3d90e84424808396eb845cb2f0b059da9060600160405180910390a350935050505b5092915050565b611206338383613240565b600061195383836001600160c01b031661076c565b9392505050565b600061080182611b5861320f565b600081611973612acd565b546001600160c01b0390811690821611156119a05760405162461bcd60e51b81526004016107d3906143f5565b6119a8612acd565b6001600160c01b0393909316600090815260019093016020525050604090206006015490565b611a39604080516101a081018252600080825260208201819052918101829052606081018290526080810182905260a0810182905260c0810182905260e081018290526101008101829052906101208201908152600060208201819052604082015260609081015290565b81611a42612acd565b546001600160c01b039081169082161115611a6f5760405162461bcd60e51b81526004016107d3906143f5565b611a77612acd565b6001600160c01b0384811660009081526001928301602090815260409182902082516101a08101845281549094168452938401546001600160a01b031690830152600280840154918301919091526003830154606083015260048301546001600160401b039081166080840152600584015460a0840152600684015460c0840152600784015490811660e0840152600160401b810464ffffffffff16610100840152919291610120840191600160681b90910460ff1690811115611b3d57611b3d613d2f565b6002811115611b4e57611b4e613d2f565b81526008820154602082015260098201546001600160c01b03166040820152600a82018054606090920191611b8290614497565b80601f0160208091040260200160405190810160405280929190818152602001828054611bae90614497565b8015611bfb5780601f10611bd057610100808354040283529160200191611bfb565b820191906000526020600020905b815481529060010190602001808311611bde57829003601f168201915b505050505081525050915050919050565b600054610100900460ff1615808015611c2c5750600054600160ff909116105b80611c465750303b158015611c46575060005460ff166001145b611ca95760405162461bcd60e51b815260206004820152602e60248201527f496e697469616c697a61626c653a20636f6e747261637420697320616c72656160448201526d191e481a5b9a5d1a585b1a5e995960921b60648201526084016107d3565b6000805460ff191660011790558015611ccc576000805461ff0019166101001790555b611d0a6040518060400160405280601781526020017f43727970746f50756e6b7347726f7570205469636b6574000000000000000000815250613320565b611d15600033612e60565b611d2d600080516020614c2c83398151915233612e60565b61015f80546001600160a01b0319166001600160a01b0384161790558015611206576000805461ff0019169055604051600181527f7f26b83ff96e1f2b6a682f133852f6798a09c465da95921460cefb38474024989060200160405180910390a15050565b600082815260fb6020526040902060010154611dad81612e56565b61116e8383612ee6565b81611dc0612acd565b546001600160c01b039081169082161115611ded5760405162461bcd60e51b81526004016107d3906143f5565b61015f546001600160a01b031615801590611e7b575061015f60009054906101000a90046001600160a01b03166001600160a01b03166322f3e2d46040518163ffffffff1660e01b8152600401602060405180830381865afa158015611e57573d6000803e3d6000fd5b505050506040513d601f19601f82011682018060405250810190611e7b919061441e565b611e975760405162461bcd60e51b81526004016107d39061443b565b6000611ea1612acd565b6001600160c01b03851660009081526001919091016020526040812060078101546004820154919350611ee0916001600160401b039182169116614679565b6001600160401b0316905080846001600160401b03161115611f535760405162461bcd60e51b815260206004820152602660248201527f4665776572207469636b6574732072656d61696e696e67207468616e207265716044820152651d595cdd195960d21b60648201526084016107d3565b60058201543490600090611f71906001600160401b03881690614480565b9050808214611fc25760405162461bcd60e51b815260206004820152601a60248201527f436f6e747269627574696f6e206d75737420626520657861637400000000000060448201526064016107d3565b600033905082856006016000828254611fdb9190614666565b90915550506007850180548891906000906120009084906001600160401b0316614699565b92506101000a8154816001600160401b0302191690836001600160401b03160217905550866001600160401b0316612036612acd565b6001600160c01b038a166000908152600291909101602090815260408083206001600160a01b038616845290915281208054909190612076908490614666565b925050819055506120aa81896001600160c01b0316896001600160401b031660405180602001604052806000815250613350565b866001600160401b0316886001600160c01b0316826001600160a01b03167fe666172e6168732cfedfefcdfc03bf3faf2588416f76c21085a3d731dfa9c8a160405160405180910390a45050505050505050565b6001600160a01b03851633148061211a575061211a85336106fe565b6121365760405162461bcd60e51b81526004016107d390614530565b6111428585858585613423565b61214b612a72565b600080516020614c2c83398151915261216381612e56565b8161216c612acd565b546001600160c01b0390811690821611156121995760405162461bcd60e51b81526004016107d3906143f5565b61015f546001600160a01b031615801590612227575061015f60009054906101000a90046001600160a01b03166001600160a01b03166322f3e2d46040518163ffffffff1660e01b8152600401602060405180830381865afa158015612203573d6000803e3d6000fd5b505050506040513d601f19601f82011682018060405250810190612227919061441e565b6122435760405162461bcd60e51b81526004016107d39061443b565b61015f5460408051630cf292c160e11b815290516000926001600160a01b0316916319e525829160048083019260209291908290030181865afa15801561228e573d6000803e3d6000fd5b505050506040513d601f19601f820116820180604052508101906122b291906144cb565b6001600160a01b0316036123085760405162461bcd60e51b815260206004820152601c60248201527f45786869626974207265676973747279206d757374206265207365740000000060448201526064016107d3565b6000612312612acd565b6001600160c01b038516600090815260019190910160209081526040808320600281015461015f548351630d0d851d60e41b815293519296509094936001600160a01b039091169263d0d851d092600480830193928290030181865afa158015612380573d6000803e3d6000fd5b505050506040513d601f19601f820116820180604052508101906123a491906144cb565b6001600160a01b031663088f11f3836040518263ffffffff1660e01b81526004016123d191815260200190565b60a060405180830381865afa1580156123ee573d6000803e3d6000fd5b505050506040513d601f19601f8201168201806040525081019061241291906146b9565b5060078701549094506001600160401b031660641492506124679150505760405162461bcd60e51b815260206004820152600c60248201526b139bdd081cdbdb19081bdd5d60a21b60448201526064016107d3565b80836006015410156124da5760405162461bcd60e51b815260206004820152603660248201527f4f6666657265642070726963652069732067726561746572207468616e207468604482015275329031bab93932b73a1031b7b73a3934b13aba34b7b760511b60648201526084016107d3565b61015f60009054906101000a90046001600160a01b03166001600160a01b031663d0d851d06040518163ffffffff1660e01b8152600401602060405180830381865afa15801561252e573d6000803e3d6000fd5b505050506040513d601f19601f8201168201806040525081019061255291906144cb565b6001600160a01b0316638264fe9882846040518363ffffffff1660e01b815260040161258091815260200190565b6000604051808303818588803b15801561259957600080fd5b505af11580156125ad573d6000803e3d6000fd5b5050505050306001600160a01b031661015f60009054906101000a90046001600160a01b03166001600160a01b031663d0d851d06040518163ffffffff1660e01b8152600401602060405180830381865afa158015612610573d6000803e3d6000fd5b505050506040513d601f19601f8201168201806040525081019061263491906144cb565b6001600160a01b03166358178168846040518263ffffffff1660e01b815260040161266191815260200190565b602060405180830381865afa15801561267e573d6000803e3d6000fd5b505050506040513d601f19601f820116820180604052508101906126a291906144cb565b6001600160a01b0316146126ef5760405162461bcd60e51b81526020600482015260146024820152730556e6578706563746564206f776e6572736869760641b60448201526064016107d3565b61015f60009054906101000a90046001600160a01b03166001600160a01b031663d0d851d06040518163ffffffff1660e01b8152600401602060405180830381865afa158015612743573d6000803e3d6000fd5b505050506040513d601f19601f8201168201806040525081019061276791906144cb565b6001600160a01b0316638b72a2ec61015f60009054906101000a90046001600160a01b03166001600160a01b03166319e525826040518163ffffffff1660e01b8152600401602060405180830381865afa1580156127c9573d6000803e3d6000fd5b505050506040513d601f19601f820116820180604052508101906127ed91906144cb565b60028601546040516001600160e01b031960e085901b1681526001600160a01b0390921660048301526024820152604401600060405180830381600087803b15801561283857600080fd5b505af115801561284c573d6000803e3d6000fd5b505050506008830181905561015f5460408051630cf292c160e11b815290516001600160a01b03909216916319e52582916004808201926020929091908290030181865afa1580156128a2573d6000803e3d6000fd5b505050506040513d601f19601f820116820180604052508101906128c691906144cb565b6002840154600785015460088601546001600160a01b03939093169263512137ed92916001600160401b0316906128fc8161195a565b612909896008015461163e565b6040516001600160e01b031960e088901b16815260048101959095526001600160401b03909316602485015260448401919091526064830152608482015260a4016020604051808303816000875af1158015612969573d6000803e3d6000fd5b505050506040513d601f19601f8201168201806040525081019061298d919061471a565b6009840180546001600160c01b0319166001600160c01b0392831617905560078401805460ff60681b1916600160691b179055604051908716907fa55364f4cf304b1309b80ba955214c6192d2c9ba9fc0aa3c4b3bc0f11c941d7290600090a25050505050610ad8600161012d55565b60006001600160e01b03198216636cdb3d1360e11b1480612a2e57506001600160e01b031982166303a24d0760e21b145b8061080157506301ffc9a760e01b6001600160e01b0319831614610801565b60006001600160e01b03198216637965db0b60e01b14806108015750610801826129fd565b600261012d5403612ac55760405162461bcd60e51b815260206004820152601f60248201527f5265656e7472616e637947756172643a207265656e7472616e742063616c6c0060448201526064016107d3565b600261012d55565b7f03fe2b06215ed90ddb175ede471f3ee4b3c6e6bff6501f742f92f658f9f2e75890565b6001600160a01b038316612b535760405162461bcd60e51b815260206004820152602360248201527f455243313135353a206275726e2066726f6d20746865207a65726f206164647260448201526265737360e81b60648201526084016107d3565b336000612b5f84613551565b90506000612b6c84613551565b6040805160208082018352600091829052888252606581528282206001600160a01b038b1683529052205490915084811015612bf65760405162461bcd60e51b8152602060048201526024808201527f455243313135353a206275726e20616d6f756e7420657863656564732062616c604482015263616e636560e01b60648201526084016107d3565b60008681526065602090815260408083206001600160a01b038b81168086529184528285208a8703905582518b81529384018a90529092908816917fc3d58168c5ae7397731d063d5bbf3d657854427343f4c083240f7aacaa2d0f62910160405180910390a46040805160208101909152600090525b50505050505050565b60008082600801548360060154612c8c9190614737565b905060008111612c9f5750600092915050565b6007830154611953906001600160401b031682614644565b8151835114612cd85760405162461bcd60e51b81526004016107d39061474a565b6001600160a01b038416612cfe5760405162461bcd60e51b81526004016107d390614792565b3360005b8451811015612de8576000858281518110612d1f57612d1f614501565b602002602001015190506000858381518110612d3d57612d3d614501565b60209081029190910181015160008481526065835260408082206001600160a01b038e168352909352919091205490915081811015612d8e5760405162461bcd60e51b81526004016107d3906147d7565b60008381526065602090815260408083206001600160a01b038e8116855292528083208585039055908b16825281208054849290612dcd908490614666565b9250508190555050505080612de190614517565b9050612d02565b50846001600160a01b0316866001600160a01b0316826001600160a01b03167f4a39dc06d4c0dbc64b70af90fd698a233a518aa5d07e595d983b8c0526c8f7fb8787604051612e38929190614821565b60405180910390a4612e4e81878787878761359c565b505050505050565b610ad881336136f7565b612e6a8282611613565b61120657600082815260fb602090815260408083206001600160a01b03851684529091529020805460ff19166001179055612ea23390565b6001600160a01b0316816001600160a01b0316837f2f8788117e7eff1d82e926ec794901d17c78024a50270940304540a733656f0d60405160405180910390a45050565b612ef08282611613565b1561120657600082815260fb602090815260408083206001600160a01b0385168085529252808320805460ff1916905551339285917ff6391f5c32d9c69d2a47ea670b442974b53935d1edc7fd64eb21e047a839171b9190a45050565b600061120681612e56565b7f4910fdfa16fed3260ed0e7147f7cc6da11a60208b5b9406d12a635614ffd91435460ff1615612f8b5761116e83613750565b826001600160a01b03166352d1902d6040518163ffffffff1660e01b8152600401602060405180830381865afa925050508015612fe5575060408051601f3d908101601f19168201909252612fe2918101906144e8565b60015b6130485760405162461bcd60e51b815260206004820152602e60248201527f45524331393637557067726164653a206e657720696d706c656d656e7461746960448201526d6f6e206973206e6f74205555505360901b60648201526084016107d3565b600080516020614c4c83398151915281146130b75760405162461bcd60e51b815260206004820152602960248201527f45524331393637557067726164653a20756e737570706f727465642070726f786044820152681a58589b195555525160ba1b60648201526084016107d3565b5061116e8383836137ec565b6001600160a01b0384166130e95760405162461bcd60e51b81526004016107d390614846565b815183511461310a5760405162461bcd60e51b81526004016107d39061474a565b3360005b84518110156131a75783818151811061312957613129614501565b60200260200101516065600087848151811061314757613147614501565b602002602001015181526020019081526020016000206000886001600160a01b03166001600160a01b03168152602001908152602001600020600082825461318f9190614666565b9091555081905061319f81614517565b91505061310e565b50846001600160a01b031660006001600160a01b0316826001600160a01b03167f4a39dc06d4c0dbc64b70af90fd698a233a518aa5d07e595d983b8c0526c8f7fb87876040516131f8929190614821565b60405180910390a46111428160008787878761359c565b600061271061321e8385614480565b101561322957600080fd5b6127106132368385614480565b6119539190614644565b816001600160a01b0316836001600160a01b0316036132b35760405162461bcd60e51b815260206004820152602960248201527f455243313135353a2073657474696e6720617070726f76616c20737461747573604482015268103337b91039b2b63360b91b60648201526084016107d3565b6001600160a01b03838116600081815260666020908152604080832094871680845294825291829020805460ff191686151590811790915591519182527f17307eab39ab6107e8899845ad3d59bd9653f200f220920489ca2b5937696c31910160405180910390a3505050565b600054610100900460ff166133475760405162461bcd60e51b81526004016107d390614887565b610ad881613811565b6001600160a01b0384166133765760405162461bcd60e51b81526004016107d390614846565b33600061338285613551565b9050600061338f85613551565b905060008681526065602090815260408083206001600160a01b038b168452909152812080548792906133c3908490614666565b909155505060408051878152602081018790526001600160a01b03808a1692600092918716917fc3d58168c5ae7397731d063d5bbf3d657854427343f4c083240f7aacaa2d0f62910160405180910390a4612c6c83600089898989613841565b6001600160a01b0384166134495760405162461bcd60e51b81526004016107d390614792565b33600061345585613551565b9050600061346285613551565b905060008681526065602090815260408083206001600160a01b038c168452909152902054858110156134a75760405162461bcd60e51b81526004016107d3906147d7565b60008781526065602090815260408083206001600160a01b038d8116855292528083208985039055908a168252812080548892906134e6908490614666565b909155505060408051888152602081018890526001600160a01b03808b16928c821692918816917fc3d58168c5ae7397731d063d5bbf3d657854427343f4c083240f7aacaa2d0f62910160405180910390a4613546848a8a8a8a8a613841565b505050505050505050565b6040805160018082528183019092526060916000919060208083019080368337019050509050828160008151811061358b5761358b614501565b602090810291909101015292915050565b6001600160a01b0384163b15612e4e5760405163bc197c8160e01b81526001600160a01b0385169063bc197c81906135e090899089908890889088906004016148d2565b6020604051808303816000875af192505050801561361b575060408051601f3d908101601f1916820190925261361891810190614930565b60015b6136c75761362761494d565b806308c379a003613660575061363b614968565b806136465750613662565b8060405162461bcd60e51b81526004016107d39190613d1c565b505b60405162461bcd60e51b815260206004820152603460248201527f455243313135353a207472616e7366657220746f206e6f6e2d455243313135356044820152732932b1b2b4bb32b91034b6b83632b6b2b73a32b960611b60648201526084016107d3565b6001600160e01b0319811663bc197c8160e01b14612c6c5760405162461bcd60e51b81526004016107d3906149f1565b6137018282611613565b6112065761370e816138fc565b61371983602061390e565b60405160200161372a929190614a39565b60408051601f198184030181529082905262461bcd60e51b82526107d391600401613d1c565b6001600160a01b0381163b6137bd5760405162461bcd60e51b815260206004820152602d60248201527f455243313936373a206e657720696d706c656d656e746174696f6e206973206e60448201526c1bdd08184818dbdb9d1c9858dd609a1b60648201526084016107d3565b600080516020614c4c83398151915280546001600160a01b0319166001600160a01b0392909216919091179055565b6137f583613aa9565b6000825111806138025750805b1561116e5761160d8383613ae9565b600054610100900460ff166138385760405162461bcd60e51b81526004016107d390614887565b610ad881613bdd565b6001600160a01b0384163b15612e4e5760405163f23a6e6160e01b81526001600160a01b0385169063f23a6e61906138859089908990889088908890600401614aae565b6020604051808303816000875af19250505080156138c0575060408051601f3d908101601f191682019092526138bd91810190614930565b60015b6138cc5761362761494d565b6001600160e01b0319811663f23a6e6160e01b14612c6c5760405162461bcd60e51b81526004016107d3906149f1565b60606108016001600160a01b03831660145b6060600061391d836002614480565b613928906002614666565b6001600160401b0381111561393f5761393f613dad565b6040519080825280601f01601f191660200182016040528015613969576020820181803683370190505b509050600360fc1b8160008151811061398457613984614501565b60200101906001600160f81b031916908160001a905350600f60fb1b816001815181106139b3576139b3614501565b60200101906001600160f81b031916908160001a90535060006139d7846002614480565b6139e2906001614666565b90505b6001811115613a5a576f181899199a1a9b1b9c1cb0b131b232b360811b85600f1660108110613a1657613a16614501565b1a60f81b828281518110613a2c57613a2c614501565b60200101906001600160f81b031916908160001a90535060049490941c93613a5381614af3565b90506139e5565b5083156119535760405162461bcd60e51b815260206004820181905260248201527f537472696e67733a20686578206c656e67746820696e73756666696369656e7460448201526064016107d3565b613ab281613750565b6040516001600160a01b038216907fbc7cd75a20ee27fd9adebab32041f755214dbc6bffa90cc0225b39da2e5c2d3b90600090a250565b60606001600160a01b0383163b613b515760405162461bcd60e51b815260206004820152602660248201527f416464726573733a2064656c65676174652063616c6c20746f206e6f6e2d636f6044820152651b9d1c9858dd60d21b60648201526084016107d3565b600080846001600160a01b031684604051613b6c9190614b0a565b600060405180830381855af49150503d8060008114613ba7576040519150601f19603f3d011682016040523d82523d6000602084013e613bac565b606091505b5091509150613bd48282604051806060016040528060278152602001614c6c60279139613be9565b95945050505050565b60676112068282614b6c565b60608315613bf8575081611953565b61195383838151156136465781518083602001fd5b6001600160a01b0381168114610ad857600080fd5b60008060408385031215613c3557600080fd5b8235613c4081613c0d565b946020939093013593505050565b6001600160e01b031981168114610ad857600080fd5b600060208284031215613c7657600080fd5b813561195381613c4e565b6001600160c01b0381168114610ad857600080fd5b600060208284031215613ca857600080fd5b813561195381613c81565b600060208284031215613cc557600080fd5b5035919050565b60005b83811015613ce7578181015183820152602001613ccf565b50506000910152565b60008151808452613d08816020860160208601613ccc565b601f01601f19169290920160200192915050565b6020815260006119536020830184613cf0565b634e487b7160e01b600052602160045260246000fd5b6020810160048310613d5957613d59613d2f565b91905290565b600081518084526020808501945080840160005b83811015613d8f57815187529582019590820190600101613d73565b509495945050505050565b6020815260006119536020830184613d5f565b634e487b7160e01b600052604160045260246000fd5b601f8201601f191681016001600160401b0381118282101715613de857613de8613dad565b6040525050565b60006001600160401b03821115613e0857613e08613dad565b5060051b60200190565b600082601f830112613e2357600080fd5b81356020613e3082613def565b604051613e3d8282613dc3565b83815260059390931b8501820192828101915086841115613e5d57600080fd5b8286015b84811015613e785780358352918301918301613e61565b509695505050505050565b600082601f830112613e9457600080fd5b81356001600160401b03811115613ead57613ead613dad565b604051613ec4601f8301601f191660200182613dc3565b818152846020838601011115613ed957600080fd5b816020850160208301376000918101602001919091529392505050565b600080600080600060a08688031215613f0e57600080fd5b8535613f1981613c0d565b94506020860135613f2981613c0d565b935060408601356001600160401b0380821115613f4557600080fd5b613f5189838a01613e12565b94506060880135915080821115613f6757600080fd5b613f7389838a01613e12565b93506080880135915080821115613f8957600080fd5b50613f9688828901613e83565b9150509295509295909350565b60008060408385031215613fb657600080fd5b823591506020830135613fc881613c0d565b809150509250929050565b600060208284031215613fe557600080fd5b813561195381613c0d565b6000806040838503121561400357600080fd5b823561400e81613c0d565b91506020830135613fc881613c81565b6000806040838503121561403157600080fd5b82356001600160401b038082111561404857600080fd5b818501915085601f83011261405c57600080fd5b8135602061406982613def565b6040516140768282613dc3565b83815260059390931b850182019282810191508984111561409657600080fd5b948201945b838610156140bd5785356140ae81613c0d565b8252948201949082019061409b565b965050860135925050808211156140d357600080fd5b506140e085828601613e12565b9150509250929050565b600080604083850312156140fd57600080fd5b823561410881613c0d565b915060208301356001600160401b0381111561412357600080fd5b6140e085828601613e83565b60008060006060848603121561414457600080fd5b833561414f81613c0d565b925060208401356001600160401b038082111561416b57600080fd5b61417787838801613e12565b9350604086013591508082111561418d57600080fd5b5061419a86828701613e12565b9150509250925092565b600080604083850312156141b757600080fd5b50508035926020909101359150565b8015158114610ad857600080fd5b600080604083850312156141e757600080fd5b82356141f281613c0d565b91506020830135613fc8816141c6565b6003811061421257614212613d2f565b9052565b602081526142306020820183516001600160c01b03169052565b6000602083015161424c60408401826001600160a01b03169052565b506040830151606083015260608301516080830152608083015161427b60a08401826001600160401b03169052565b5060a083015160c083015260c083015160e083015260e08301516101006142ac818501836001600160401b03169052565b84015190506101206142c68482018364ffffffffff169052565b84015190506101406142da84820183614202565b840151610160848101919091528401519050610180614303818501836001600160c01b03169052565b8401516101a084810152905061431d6101c0840182613cf0565b949350505050565b6000806040838503121561433857600080fd5b823561434381613c81565b915060208301356001600160401b0381168114613fc857600080fd5b6000806040838503121561437257600080fd5b823561437d81613c0d565b91506020830135613fc881613c0d565b600080600080600060a086880312156143a557600080fd5b85356143b081613c0d565b945060208601356143c081613c0d565b9350604086013592506060860135915060808601356001600160401b038111156143e957600080fd5b613f9688828901613e83565b6020808252600f908201526e125b9d985b1a590819dc9bdd5c1259608a1b604082015260600190565b60006020828403121561443057600080fd5b8151611953816141c6565b6020808252601590820152744d757365756d206d7573742062652061637469766560581b604082015260600190565b634e487b7160e01b600052601160045260246000fd5b80820281158282048414176108015761080161446a565b600181811c908216806144ab57607f821691505b602082108103610c9057634e487b7160e01b600052602260045260246000fd5b6000602082840312156144dd57600080fd5b815161195381613c0d565b6000602082840312156144fa57600080fd5b5051919050565b634e487b7160e01b600052603260045260246000fd5b6000600182016145295761452961446a565b5060010190565b6020808252602e908201527f455243313135353a2063616c6c6572206973206e6f7420746f6b656e206f776e60408201526d195c881bdc88185c1c1c9bdd995960921b606082015260800190565b6020808252602c908201527f46756e6374696f6e206d7573742062652063616c6c6564207468726f7567682060408201526b19195b1959d85d1958d85b1b60a21b606082015260800190565b6020808252602c908201527f46756e6374696f6e206d7573742062652063616c6c6564207468726f7567682060408201526b6163746976652070726f787960a01b606082015260800190565b60006001600160c01b038281166002600160c01b0319810161463a5761463a61446a565b6001019392505050565b60008261466157634e487b7160e01b600052601260045260246000fd5b500490565b808201808211156108015761080161446a565b6001600160401b0382811682821603908082111561192c5761192c61446a565b6001600160401b0381811683821601908082111561192c5761192c61446a565b600080600080600060a086880312156146d157600080fd5b85516146dc816141c6565b6020870151604088015191965094506146f481613c0d565b60608701516080880151919450925061470c81613c0d565b809150509295509295909350565b60006020828403121561472c57600080fd5b815161195381613c81565b818103818111156108015761080161446a565b60208082526028908201527f455243313135353a2069647320616e6420616d6f756e7473206c656e677468206040820152670dad2e6dac2e8c6d60c31b606082015260800190565b60208082526025908201527f455243313135353a207472616e7366657220746f20746865207a65726f206164604082015264647265737360d81b606082015260800190565b6020808252602a908201527f455243313135353a20696e73756666696369656e742062616c616e636520666f60408201526939103a3930b739b332b960b11b606082015260800190565b6040815260006148346040830185613d5f565b8281036020840152613bd48185613d5f565b60208082526021908201527f455243313135353a206d696e7420746f20746865207a65726f206164647265736040820152607360f81b606082015260800190565b6020808252602b908201527f496e697469616c697a61626c653a20636f6e7472616374206973206e6f74206960408201526a6e697469616c697a696e6760a81b606082015260800190565b6001600160a01b0386811682528516602082015260a0604082018190526000906148fe90830186613d5f565b82810360608401526149108186613d5f565b905082810360808401526149248185613cf0565b98975050505050505050565b60006020828403121561494257600080fd5b815161195381613c4e565b600060033d11156115a15760046000803e5060005160e01c90565b600060443d10156149765790565b6040516003193d81016004833e81513d6001600160401b0381602484011181841117156149a557505050505090565b82850191508151818111156149bd5750505050505090565b843d87010160208285010111156149d75750505050505090565b6149e660208286010187613dc3565b509095945050505050565b60208082526028908201527f455243313135353a204552433131353552656365697665722072656a656374656040820152676420746f6b656e7360c01b606082015260800190565b7f416363657373436f6e74726f6c3a206163636f756e7420000000000000000000815260008351614a71816017850160208801613ccc565b7001034b99036b4b9b9b4b733903937b6329607d1b6017918401918201528351614aa2816028840160208801613ccc565b01602801949350505050565b6001600160a01b03868116825285166020820152604081018490526060810183905260a060808201819052600090614ae890830184613cf0565b979650505050505050565b600081614b0257614b0261446a565b506000190190565b60008251614b1c818460208701613ccc565b9190910192915050565b601f82111561116e57600081815260208120601f850160051c81016020861015614b4d5750805b601f850160051c820191505b81811015612e4e57828155600101614b59565b81516001600160401b03811115614b8557614b85613dad565b614b9981614b938454614497565b84614b26565b602080601f831160018114614bce5760008415614bb65750858301515b600019600386901b1c1916600185901b178555612e4e565b600085815260208120601f198616915b82811015614bfd57888601518255948401946001909101908401614bde565b5085821015614c1b5787850151600019600388901b60f8161c191681555b5050505050600190811b0190555056fe850d585eb7f024ccee5e68e55f2c26cc72e1e6ee456acf62135757a5eb9d4a10360894a13ba1a3210667c828492db98dca3e2076cc3735a920a3ca505d382bbc416464726573733a206c6f772d6c6576656c2064656c65676174652063616c6c206661696c6564a2646970667358221220a715d55fe810ac8f169b9c4286ed7cf864c553b793de1ce75f216c3cfb90949264736f6c63430008110033",
  "devdoc": {
    "kind": "dev",
    "methods": {
      "balanceOf(address,uint256)": {
        "details": "See {IERC1155-balanceOf}. Requirements: - `account` cannot be the zero address."
      },
      "balanceOfBatch(address[],uint256[])": {
        "details": "See {IERC1155-balanceOfBatch}. Requirements: - `accounts` and `ids` must have the same length."
      },
      "buy(uint192)": {
        "details": "Can be tried as long as the group is OPEN"
      },
      "getRoleAdmin(bytes32)": {
        "details": "Returns the admin role that controls `role`. See {grantRole} and {revokeRole}. To change a role's admin, use {_setRoleAdmin}."
      },
      "grantRole(bytes32,address)": {
        "details": "Grants `role` to `account`. If `account` had not been already granted `role`, emits a {RoleGranted} event. Requirements: - the caller must have ``role``'s admin role. May emit a {RoleGranted} event."
      },
      "hasRole(bytes32,address)": {
        "details": "Returns `true` if `account` has been granted `role`."
      },
      "isApprovedForAll(address,address)": {
        "details": "See {IERC1155-isApprovedForAll}."
      },
      "proxiableUUID()": {
        "details": "Implementation of the ERC1822 {proxiableUUID} function. This returns the storage slot used by the implementation. It is used to validate the implementation's compatibility when performing an upgrade. IMPORTANT: A proxy pointing at a proxiable contract should not be considered proxiable itself, because this risks bricking a proxy that upgrades to it, by delegating to itself until out of gas. Thus it is critical that this function revert if invoked through a proxy. This is guaranteed by the `notDelegated` modifier."
      },
      "renounceRole(bytes32,address)": {
        "details": "Revokes `role` from the calling account. Roles are often managed via {grantRole} and {revokeRole}: this function's purpose is to provide a mechanism for accounts to lose their privileges if they are compromised (such as when a trusted device is misplaced). If the calling account had been revoked `role`, emits a {RoleRevoked} event. Requirements: - the caller must be `account`. May emit a {RoleRevoked} event."
      },
      "revokeRole(bytes32,address)": {
        "details": "Revokes `role` from `account`. If `account` had been granted `role`, emits a {RoleRevoked} event. Requirements: - the caller must have ``role``'s admin role. May emit a {RoleRevoked} event."
      },
      "safeBatchTransferFrom(address,address,uint256[],uint256[],bytes)": {
        "details": "See {IERC1155-safeBatchTransferFrom}."
      },
      "safeTransferFrom(address,address,uint256,uint256,bytes)": {
        "details": "See {IERC1155-safeTransferFrom}."
      },
      "setApprovalForAll(address,bool)": {
        "details": "See {IERC1155-setApprovalForAll}."
      },
      "upgradeTo(address)": {
        "custom:oz-upgrades-unsafe-allow-reachable": "delegatecall",
        "details": "Upgrade the implementation of the proxy to `newImplementation`. Calls {_authorizeUpgrade}. Emits an {Upgraded} event."
      },
      "upgradeToAndCall(address,bytes)": {
        "custom:oz-upgrades-unsafe-allow-reachable": "delegatecall",
        "details": "Upgrade the implementation of the proxy to `newImplementation`, and subsequently execute the function call encoded in `data`. Calls {_authorizeUpgrade}. Emits an {Upgraded} event."
      }
    },
    "stateVariables": {
      "CURATOR_ROLE": {
        "details": "can create and curate the active group"
      }
    },
    "version": 1
  },
  "userdoc": {
    "kind": "user",
    "methods": {
      "MIN_RESERVE_PRICE_BPS()": {
        "notice": "Arithmetic constants"
      },
      "TICKET_SUPPLY_PER_GROUP()": {
        "notice": "Business logic constants"
      }
    },
    "version": 1
  },
  "storageLayout": {
    "storage": [
      {
        "astId": 804,
        "contract": "src/CryptoPunksGroupRegistry.sol:CryptoPunksGroupRegistry",
        "label": "_initialized",
        "offset": 0,
        "slot": "0",
        "type": "t_uint8"
      },
      {
        "astId": 807,
        "contract": "src/CryptoPunksGroupRegistry.sol:CryptoPunksGroupRegistry",
        "label": "_initializing",
        "offset": 1,
        "slot": "0",
        "type": "t_bool"
      },
      {
        "astId": 4065,
        "contract": "src/CryptoPunksGroupRegistry.sol:CryptoPunksGroupRegistry",
        "label": "__gap",
        "offset": 0,
        "slot": "1",
        "type": "t_array(t_uint256)50_storage"
      },
      {
        "astId": 4448,
        "contract": "src/CryptoPunksGroupRegistry.sol:CryptoPunksGroupRegistry",
        "label": "__gap",
        "offset": 0,
        "slot": "51",
        "type": "t_array(t_uint256)50_storage"
      },
      {
        "astId": 1215,
        "contract": "src/CryptoPunksGroupRegistry.sol:CryptoPunksGroupRegistry",
        "label": "_balances",
        "offset": 0,
        "slot": "101",
        "type": "t_mapping(t_uint256,t_mapping(t_address,t_uint256))"
      },
      {
        "astId": 1221,
        "contract": "src/CryptoPunksGroupRegistry.sol:CryptoPunksGroupRegistry",
        "label": "_operatorApprovals",
        "offset": 0,
        "slot": "102",
        "type": "t_mapping(t_address,t_mapping(t_address,t_bool))"
      },
      {
        "astId": 1223,
        "contract": "src/CryptoPunksGroupRegistry.sol:CryptoPunksGroupRegistry",
        "label": "_uri",
        "offset": 0,
        "slot": "103",
        "type": "t_string_storage"
      },
      {
        "astId": 2430,
        "contract": "src/CryptoPunksGroupRegistry.sol:CryptoPunksGroupRegistry",
        "label": "__gap",
        "offset": 0,
        "slot": "104",
        "type": "t_array(t_uint256)47_storage"
      },
      {
        "astId": 786,
        "contract": "src/CryptoPunksGroupRegistry.sol:CryptoPunksGroupRegistry",
        "label": "__gap",
        "offset": 0,
        "slot": "151",
        "type": "t_array(t_uint256)50_storage"
      },
      {
        "astId": 1101,
        "contract": "src/CryptoPunksGroupRegistry.sol:CryptoPunksGroupRegistry",
        "label": "__gap",
        "offset": 0,
        "slot": "201",
        "type": "t_array(t_uint256)50_storage"
      },
      {
        "astId": 39,
        "contract": "src/CryptoPunksGroupRegistry.sol:CryptoPunksGroupRegistry",
        "label": "_roles",
        "offset": 0,
        "slot": "251",
        "type": "t_mapping(t_bytes32,t_struct(RoleData)34_storage)"
      },
      {
        "astId": 334,
        "contract": "src/CryptoPunksGroupRegistry.sol:CryptoPunksGroupRegistry",
        "label": "__gap",
        "offset": 0,
        "slot": "252",
        "type": "t_array(t_uint256)49_storage"
      },
      {
        "astId": 1116,
        "contract": "src/CryptoPunksGroupRegistry.sol:CryptoPunksGroupRegistry",
        "label": "_status",
        "offset": 0,
        "slot": "301",
        "type": "t_uint256"
      },
      {
        "astId": 1185,
        "contract": "src/CryptoPunksGroupRegistry.sol:CryptoPunksGroupRegistry",
        "label": "__gap",
        "offset": 0,
        "slot": "302",
        "type": "t_array(t_uint256)49_storage"
      },
      {
        "astId": 9287,
        "contract": "src/CryptoPunksGroupRegistry.sol:CryptoPunksGroupRegistry",
        "label": "museum",
        "offset": 0,
        "slot": "351",
        "type": "t_contract(CryptoPunksMuseum)12136"
      }
    ],
    "types": {
      "t_address": {
        "encoding": "inplace",
        "label": "address",
        "numberOfBytes": "20"
      },
      "t_array(t_uint256)47_storage": {
        "base": "t_uint256",
        "encoding": "inplace",
        "label": "uint256[47]",
        "numberOfBytes": "1504"
      },
      "t_array(t_uint256)49_storage": {
        "base": "t_uint256",
        "encoding": "inplace",
        "label": "uint256[49]",
        "numberOfBytes": "1568"
      },
      "t_array(t_uint256)50_storage": {
        "base": "t_uint256",
        "encoding": "inplace",
        "label": "uint256[50]",
        "numberOfBytes": "1600"
      },
      "t_bool": {
        "encoding": "inplace",
        "label": "bool",
        "numberOfBytes": "1"
      },
      "t_bytes32": {
        "encoding": "inplace",
        "label": "bytes32",
        "numberOfBytes": "32"
      },
      "t_contract(CryptoPunksMuseum)12136": {
        "encoding": "inplace",
        "label": "contract CryptoPunksMuseum",
        "numberOfBytes": "20"
      },
      "t_mapping(t_address,t_bool)": {
        "encoding": "mapping",
        "key": "t_address",
        "label": "mapping(address => bool)",
        "numberOfBytes": "32",
        "value": "t_bool"
      },
      "t_mapping(t_address,t_mapping(t_address,t_bool))": {
        "encoding": "mapping",
        "key": "t_address",
        "label": "mapping(address => mapping(address => bool))",
        "numberOfBytes": "32",
        "value": "t_mapping(t_address,t_bool)"
      },
      "t_mapping(t_address,t_uint256)": {
        "encoding": "mapping",
        "key": "t_address",
        "label": "mapping(address => uint256)",
        "numberOfBytes": "32",
        "value": "t_uint256"
      },
      "t_mapping(t_bytes32,t_struct(RoleData)34_storage)": {
        "encoding": "mapping",
        "key": "t_bytes32",
        "label": "mapping(bytes32 => struct AccessControlUpgradeable.RoleData)",
        "numberOfBytes": "32",
        "value": "t_struct(RoleData)34_storage"
      },
      "t_mapping(t_uint256,t_mapping(t_address,t_uint256))": {
        "encoding": "mapping",
        "key": "t_uint256",
        "label": "mapping(uint256 => mapping(address => uint256))",
        "numberOfBytes": "32",
        "value": "t_mapping(t_address,t_uint256)"
      },
      "t_string_storage": {
        "encoding": "bytes",
        "label": "string",
        "numberOfBytes": "32"
      },
      "t_struct(RoleData)34_storage": {
        "encoding": "inplace",
        "label": "struct AccessControlUpgradeable.RoleData",
        "members": [
          {
            "astId": 31,
            "contract": "src/CryptoPunksGroupRegistry.sol:CryptoPunksGroupRegistry",
            "label": "members",
            "offset": 0,
            "slot": "0",
            "type": "t_mapping(t_address,t_bool)"
          },
          {
            "astId": 33,
            "contract": "src/CryptoPunksGroupRegistry.sol:CryptoPunksGroupRegistry",
            "label": "adminRole",
            "offset": 0,
            "slot": "1",
            "type": "t_bytes32"
          }
        ],
        "numberOfBytes": "64"
      },
      "t_uint256": {
        "encoding": "inplace",
        "label": "uint256",
        "numberOfBytes": "32"
      },
      "t_uint8": {
        "encoding": "inplace",
        "label": "uint8",
        "numberOfBytes": "1"
      }
    }
  }
}