{
  "address": "0xA53f1136285Bc6B9ED8A9902A0a0672a407679d8",
  "abi": [
    {
      "inputs": [],
      "stateMutability": "payable",
      "type": "constructor"
    },
    {
      "anonymous": false,
      "inputs": [
        {
          "indexed": true,
          "internalType": "address",
          "name": "to",
          "type": "address"
        },
        {
          "indexed": false,
          "internalType": "uint256",
          "name": "punkIndex",
          "type": "uint256"
        }
      ],
      "name": "Assign",
      "type": "event"
    },
    {
      "anonymous": false,
      "inputs": [
        {
          "indexed": true,
          "internalType": "uint256",
          "name": "punkIndex",
          "type": "uint256"
        },
        {
          "indexed": false,
          "internalType": "uint256",
          "name": "value",
          "type": "uint256"
        },
        {
          "indexed": true,
          "internalType": "address",
          "name": "fromAddress",
          "type": "address"
        }
      ],
      "name": "PunkBidEntered",
      "type": "event"
    },
    {
      "anonymous": false,
      "inputs": [
        {
          "indexed": true,
          "internalType": "uint256",
          "name": "punkIndex",
          "type": "uint256"
        },
        {
          "indexed": false,
          "internalType": "uint256",
          "name": "value",
          "type": "uint256"
        },
        {
          "indexed": true,
          "internalType": "address",
          "name": "fromAddress",
          "type": "address"
        }
      ],
      "name": "PunkBidWithdrawn",
      "type": "event"
    },
    {
      "anonymous": false,
      "inputs": [
        {
          "indexed": true,
          "internalType": "uint256",
          "name": "punkIndex",
          "type": "uint256"
        },
        {
          "indexed": false,
          "internalType": "uint256",
          "name": "value",
          "type": "uint256"
        },
        {
          "indexed": true,
          "internalType": "address",
          "name": "fromAddress",
          "type": "address"
        },
        {
          "indexed": true,
          "internalType": "address",
          "name": "toAddress",
          "type": "address"
        }
      ],
      "name": "PunkBought",
      "type": "event"
    },
    {
      "anonymous": false,
      "inputs": [
        {
          "indexed": true,
          "internalType": "uint256",
          "name": "punkIndex",
          "type": "uint256"
        }
      ],
      "name": "PunkNoLongerForSale",
      "type": "event"
    },
    {
      "anonymous": false,
      "inputs": [
        {
          "indexed": true,
          "internalType": "uint256",
          "name": "punkIndex",
          "type": "uint256"
        },
        {
          "indexed": false,
          "internalType": "uint256",
          "name": "minValue",
          "type": "uint256"
        },
        {
          "indexed": true,
          "internalType": "address",
          "name": "toAddress",
          "type": "address"
        }
      ],
      "name": "PunkOffered",
      "type": "event"
    },
    {
      "anonymous": false,
      "inputs": [
        {
          "indexed": true,
          "internalType": "address",
          "name": "from",
          "type": "address"
        },
        {
          "indexed": true,
          "internalType": "address",
          "name": "to",
          "type": "address"
        },
        {
          "indexed": false,
          "internalType": "uint256",
          "name": "punkIndex",
          "type": "uint256"
        }
      ],
      "name": "PunkTransfer",
      "type": "event"
    },
    {
      "anonymous": false,
      "inputs": [
        {
          "indexed": true,
          "internalType": "address",
          "name": "from",
          "type": "address"
        },
        {
          "indexed": true,
          "internalType": "address",
          "name": "to",
          "type": "address"
        },
        {
          "indexed": false,
          "internalType": "uint256",
          "name": "value",
          "type": "uint256"
        }
      ],
      "name": "Transfer",
      "type": "event"
    },
    {
      "inputs": [
        {
          "internalType": "uint256",
          "name": "punkIndex",
          "type": "uint256"
        },
        {
          "internalType": "uint256",
          "name": "minPrice",
          "type": "uint256"
        }
      ],
      "name": "acceptBidForPunk",
      "outputs": [],
      "stateMutability": "nonpayable",
      "type": "function"
    },
    {
      "inputs": [],
      "name": "allInitialOwnersAssigned",
      "outputs": [],
      "stateMutability": "nonpayable",
      "type": "function"
    },
    {
      "inputs": [],
      "name": "allPunksAssigned",
      "outputs": [
        {
          "internalType": "bool",
          "name": "",
          "type": "bool"
        }
      ],
      "stateMutability": "view",
      "type": "function"
    },
    {
      "inputs": [
        {
          "internalType": "address",
          "name": "",
          "type": "address"
        }
      ],
      "name": "balanceOf",
      "outputs": [
        {
          "internalType": "uint256",
          "name": "",
          "type": "uint256"
        }
      ],
      "stateMutability": "view",
      "type": "function"
    },
    {
      "inputs": [
        {
          "internalType": "uint256",
          "name": "punkIndex",
          "type": "uint256"
        }
      ],
      "name": "buyPunk",
      "outputs": [],
      "stateMutability": "payable",
      "type": "function"
    },
    {
      "inputs": [],
      "name": "decimals",
      "outputs": [
        {
          "internalType": "uint8",
          "name": "",
          "type": "uint8"
        }
      ],
      "stateMutability": "view",
      "type": "function"
    },
    {
      "inputs": [
        {
          "internalType": "uint256",
          "name": "punkIndex",
          "type": "uint256"
        }
      ],
      "name": "enterBidForPunk",
      "outputs": [],
      "stateMutability": "payable",
      "type": "function"
    },
    {
      "inputs": [
        {
          "internalType": "uint256",
          "name": "punkIndex",
          "type": "uint256"
        }
      ],
      "name": "getPunk",
      "outputs": [],
      "stateMutability": "nonpayable",
      "type": "function"
    },
    {
      "inputs": [],
      "name": "imageHash",
      "outputs": [
        {
          "internalType": "string",
          "name": "",
          "type": "string"
        }
      ],
      "stateMutability": "view",
      "type": "function"
    },
    {
      "inputs": [],
      "name": "name",
      "outputs": [
        {
          "internalType": "string",
          "name": "",
          "type": "string"
        }
      ],
      "stateMutability": "view",
      "type": "function"
    },
    {
      "inputs": [],
      "name": "nextPunkIndexToAssign",
      "outputs": [
        {
          "internalType": "uint256",
          "name": "",
          "type": "uint256"
        }
      ],
      "stateMutability": "view",
      "type": "function"
    },
    {
      "inputs": [
        {
          "internalType": "uint256",
          "name": "punkIndex",
          "type": "uint256"
        },
        {
          "internalType": "uint256",
          "name": "minSalePriceInWei",
          "type": "uint256"
        }
      ],
      "name": "offerPunkForSale",
      "outputs": [],
      "stateMutability": "nonpayable",
      "type": "function"
    },
    {
      "inputs": [
        {
          "internalType": "uint256",
          "name": "punkIndex",
          "type": "uint256"
        },
        {
          "internalType": "uint256",
          "name": "minSalePriceInWei",
          "type": "uint256"
        },
        {
          "internalType": "address",
          "name": "toAddress",
          "type": "address"
        }
      ],
      "name": "offerPunkForSaleToAddress",
      "outputs": [],
      "stateMutability": "nonpayable",
      "type": "function"
    },
    {
      "inputs": [
        {
          "internalType": "address",
          "name": "",
          "type": "address"
        }
      ],
      "name": "pendingWithdrawals",
      "outputs": [
        {
          "internalType": "uint256",
          "name": "",
          "type": "uint256"
        }
      ],
      "stateMutability": "view",
      "type": "function"
    },
    {
      "inputs": [
        {
          "internalType": "uint256",
          "name": "",
          "type": "uint256"
        }
      ],
      "name": "punkBids",
      "outputs": [
        {
          "internalType": "bool",
          "name": "hasBid",
          "type": "bool"
        },
        {
          "internalType": "uint256",
          "name": "punkIndex",
          "type": "uint256"
        },
        {
          "internalType": "address",
          "name": "bidder",
          "type": "address"
        },
        {
          "internalType": "uint256",
          "name": "value",
          "type": "uint256"
        }
      ],
      "stateMutability": "view",
      "type": "function"
    },
    {
      "inputs": [
        {
          "internalType": "uint256",
          "name": "",
          "type": "uint256"
        }
      ],
      "name": "punkIndexToAddress",
      "outputs": [
        {
          "internalType": "address",
          "name": "",
          "type": "address"
        }
      ],
      "stateMutability": "view",
      "type": "function"
    },
    {
      "inputs": [
        {
          "internalType": "uint256",
          "name": "punkIndex",
          "type": "uint256"
        }
      ],
      "name": "punkNoLongerForSale",
      "outputs": [],
      "stateMutability": "nonpayable",
      "type": "function"
    },
    {
      "inputs": [
        {
          "internalType": "uint256",
          "name": "",
          "type": "uint256"
        }
      ],
      "name": "punksOfferedForSale",
      "outputs": [
        {
          "internalType": "bool",
          "name": "isForSale",
          "type": "bool"
        },
        {
          "internalType": "uint256",
          "name": "punkIndex",
          "type": "uint256"
        },
        {
          "internalType": "address",
          "name": "seller",
          "type": "address"
        },
        {
          "internalType": "uint256",
          "name": "minValue",
          "type": "uint256"
        },
        {
          "internalType": "address",
          "name": "onlySellTo",
          "type": "address"
        }
      ],
      "stateMutability": "view",
      "type": "function"
    },
    {
      "inputs": [],
      "name": "punksRemainingToAssign",
      "outputs": [
        {
          "internalType": "uint256",
          "name": "",
          "type": "uint256"
        }
      ],
      "stateMutability": "view",
      "type": "function"
    },
    {
      "inputs": [
        {
          "internalType": "address",
          "name": "to",
          "type": "address"
        },
        {
          "internalType": "uint256",
          "name": "punkIndex",
          "type": "uint256"
        }
      ],
      "name": "setInitialOwner",
      "outputs": [],
      "stateMutability": "nonpayable",
      "type": "function"
    },
    {
      "inputs": [
        {
          "internalType": "address[]",
          "name": "addresses",
          "type": "address[]"
        },
        {
          "internalType": "uint256[]",
          "name": "indices",
          "type": "uint256[]"
        }
      ],
      "name": "setInitialOwners",
      "outputs": [],
      "stateMutability": "nonpayable",
      "type": "function"
    },
    {
      "inputs": [],
      "name": "standard",
      "outputs": [
        {
          "internalType": "string",
          "name": "",
          "type": "string"
        }
      ],
      "stateMutability": "view",
      "type": "function"
    },
    {
      "inputs": [],
      "name": "symbol",
      "outputs": [
        {
          "internalType": "string",
          "name": "",
          "type": "string"
        }
      ],
      "stateMutability": "view",
      "type": "function"
    },
    {
      "inputs": [],
      "name": "totalSupply",
      "outputs": [
        {
          "internalType": "uint256",
          "name": "",
          "type": "uint256"
        }
      ],
      "stateMutability": "view",
      "type": "function"
    },
    {
      "inputs": [
        {
          "internalType": "address",
          "name": "to",
          "type": "address"
        },
        {
          "internalType": "uint256",
          "name": "punkIndex",
          "type": "uint256"
        }
      ],
      "name": "transferPunk",
      "outputs": [],
      "stateMutability": "nonpayable",
      "type": "function"
    },
    {
      "inputs": [],
      "name": "withdraw",
      "outputs": [],
      "stateMutability": "nonpayable",
      "type": "function"
    },
    {
      "inputs": [
        {
          "internalType": "uint256",
          "name": "punkIndex",
          "type": "uint256"
        }
      ],
      "name": "withdrawBidForPunk",
      "outputs": [],
      "stateMutability": "nonpayable",
      "type": "function"
    }
  ],
  "transactionHash": "0x96c85808aa3bcb70e19393f1c764ad5bc2ada90f458744aeda719f198fda9be5",
  "args": [],
  "numDeployments": 3,
  "solcInputHash": "1f0818b12b5b40d59a1d6440fd91111d",
  "bytecode": "0x60e0604090815260808181529062001cef60a03960009062000022908262000191565b5060408051808201909152600b81526a43727970746f50756e6b7360a81b602082015260029062000054908262000191565b5060006007556008805460ff19169055600180546001600160a01b03191633179055612710600681905560095560408051808201909152600b81526a43525950544f50554e4b5360a81b6020820152600390620000b2908262000191565b5060408051808201909152600281526167df60f11b6020820152600490620000db908262000191565b506005805460ff191690556200025d565b634e487b7160e01b600052604160045260246000fd5b600181811c908216806200011757607f821691505b6020821081036200013857634e487b7160e01b600052602260045260246000fd5b50919050565b601f8211156200018c57600081815260208120601f850160051c81016020861015620001675750805b601f850160051c820191505b81811015620001885782815560010162000173565b5050505b505050565b81516001600160401b03811115620001ad57620001ad620000ec565b620001c581620001be845462000102565b846200013e565b602080601f831160018114620001fd5760008415620001e45750858301515b600019600386901b1c1916600185901b17855562000188565b600085815260208120601f198616915b828110156200022e578886015182559484019460019091019084016200020d565b50858210156200024d5787850151600019600388901b60f8161c191681555b5050505050600190811b01905550565b611a82806200026d6000396000f3fe60806040526004361061019c5760003560e01c806370a08231116100ec578063a75a90491161008a578063c44193c311610064578063c44193c314610550578063c81d1d5b14610570578063f3f4370314610590578063f6eeff1e146105bd57600080fd5b8063a75a9049146104fa578063bf31196f1461051a578063c0d6ce631461053a57600080fd5b80638264fe98116100c65780638264fe98146104925780638b72a2ec146104a557806395d89b41146104c5578063979bc638146104da57600080fd5b806370a08231146104265780637ecedac9146104535780638126c38a1461046857600080fd5b806339c5dde61161015957806352f29a251161013357806352f29a251461032a57806358178168146103405780635a3b7e421461038e5780636e743fa9146103a357600080fd5b806339c5dde6146102e05780633ccfd60b1461030057806351605d801461031557600080fd5b806306fdde03146101a1578063088f11f3146101cc578063091dbfd21461025b57806318160ddd1461027057806323165b7514610294578063313ce567146102b4575b600080fd5b3480156101ad57600080fd5b506101b66105dd565b6040516101c391906117bf565b60405180910390f35b3480156101d857600080fd5b506102256101e736600461180d565b600c602052600090815260409020805460018201546002830154600384015460049094015460ff9093169391926001600160a01b0391821692911685565b60408051951515865260208601949094526001600160a01b0392831693850193909352606084015216608082015260a0016101c3565b61026e61026936600461180d565b61066b565b005b34801561027c57600080fd5b5061028660065481565b6040519081526020016101c3565b3480156102a057600080fd5b5061026e6102af366004611826565b6107e9565b3480156102c057600080fd5b506005546102ce9060ff1681565b60405160ff90911681526020016101c3565b3480156102ec57600080fd5b5061026e6102fb366004611894565b610b52565b34801561030c57600080fd5b5061026e610bd7565b34801561032157600080fd5b506101b6610c2b565b34801561033657600080fd5b5061028660075481565b34801561034c57600080fd5b5061037661035b36600461180d565b600a602052600090815260409020546001600160a01b031681565b6040516001600160a01b0390911681526020016101c3565b34801561039a57600080fd5b506101b6610c38565b3480156103af57600080fd5b506103f56103be36600461180d565b600d60205260009081526040902080546001820154600283015460039093015460ff9092169290916001600160a01b039091169084565b6040516101c39493929190931515845260208401929092526001600160a01b03166040830152606082015260800190565b34801561043257600080fd5b5061028661044136600461191c565b600b6020526000908152604090205481565b34801561045f57600080fd5b5061026e610c45565b34801561047457600080fd5b506008546104829060ff1681565b60405190151581526020016101c3565b61026e6104a036600461180d565b610c6b565b3480156104b157600080fd5b5061026e6104c036600461193e565b610efd565b3480156104d157600080fd5b506101b6611119565b3480156104e657600080fd5b5061026e6104f536600461180d565b611126565b34801561050657600080fd5b5061026e61051536600461193e565b611296565b34801561052657600080fd5b5061026e610535366004611968565b6113e7565b34801561054657600080fd5b5061028660095481565b34801561055c57600080fd5b5061026e61056b366004611826565b6114f1565b34801561057c57600080fd5b5061026e61058b36600461180d565b6115f0565b34801561059c57600080fd5b506102866105ab36600461191c565b600e6020526000908152604090205481565b3480156105c957600080fd5b5061026e6105d836600461180d565b6116c9565b600380546105ea9061199d565b80601f01602080910402602001604051908101604052809291908181526020018280546106169061199d565b80156106635780601f1061063857610100808354040283529160200191610663565b820191906000526020600020905b81548152906001019060200180831161064657829003601f168201915b505050505081565b612710811061067957600080fd5b60085460ff1661068857600080fd5b6000818152600a60205260409020546001600160a01b03166106a957600080fd5b6000818152600a6020526040902054336001600160a01b03909116036106ce57600080fd5b346000036106db57600080fd5b6000818152600d60205260409020600381015434116106f957600080fd5b60038101541561073a57600381015460028201546001600160a01b03166000908152600e6020526040812080549091906107349084906119ed565b90915550505b604080516080810182526001808252602080830186815233848601818152346060870181815260008b8152600d87528990209751885460ff1916901515178855935195870195909555516002860180546001600160a01b0319166001600160a01b0390921691909117905590516003909401939093559251908152909184917f5b859394fabae0c1ba88baffe67e751ab5248d2e879028b8c8d6897b0519f56a91015b60405180910390a35050565b61271082106107f757600080fd5b60085460ff1661080657600080fd5b6000828152600a60205260409020546001600160a01b0316331461082957600080fd5b6000828152600d60205260408120600381015433920361084857600080fd5b828160030154101561085957600080fd5b60028101546000858152600a6020908152604080832080546001600160a01b0319166001600160a01b039586161790559285168252600b90529081208054916108a183611a06565b909155505060028101546001600160a01b03166000908152600b602052604081208054916108ce83611a1d565b90915550506002810154604051600181526001600160a01b03918216918416907fddf252ad1be2c89b69c2b068fc378daa952ba7f163c4a11628f55a4df523b3ef9060200160405180910390a36040518060a001604052806000151581526020018581526020018260020160009054906101000a90046001600160a01b03166001600160a01b031681526020016000815260200160006001600160a01b0316815250600c600086815260200190815260200160002060008201518160000160006101000a81548160ff0219169083151502179055506020820151816001015560408201518160020160006101000a8154816001600160a01b0302191690836001600160a01b031602179055506060820151816003015560808201518160040160006101000a8154816001600160a01b0302191690836001600160a01b03160217905550905050600081600301549050604051806080016040528060001515815260200186815260200160006001600160a01b031681526020016000815250600d600087815260200190815260200160002060008201518160000160006101000a81548160ff0219169083151502179055506020820151816001015560408201518160020160006101000a8154816001600160a01b0302191690836001600160a01b031602179055506060820151816003015590505080600e6000856001600160a01b03166001600160a01b031681526020019081526020016000206000828254610af891906119ed565b9091555050600282015460038301546040519081526001600160a01b039182169185169087907f58e5d5a525e3b40bc15abaa38b5882678db1ee68befd2f60bafe3a7fd06db9e39060200160405180910390a45050505050565b6001546001600160a01b03163314610b6957600080fd5b8260005b81811015610bcf57610bbd868683818110610b8a57610b8a611a36565b9050602002016020810190610b9f919061191c565b858584818110610bb157610bb1611a36565b90506020020135611296565b80610bc781611a1d565b915050610b6d565b505050505050565b60085460ff16610be657600080fd5b336000818152600e6020526040808220805490839055905190929183156108fc02918491818181858888f19350505050158015610c27573d6000803e3d6000fd5b5050565b600080546105ea9061199d565b600280546105ea9061199d565b6001546001600160a01b03163314610c5c57600080fd5b6008805460ff19166001179055565b60085460ff16610c7a57600080fd5b6000818152600c602052604090206127108210610c9657600080fd5b805460ff16610ca457600080fd5b60048101546001600160a01b031615801590610ccd575060048101546001600160a01b03163314155b15610cd757600080fd5b8060030154341015610ce857600080fd5b6000828152600a602052604090205460028201546001600160a01b03908116911614610d1357600080fd5b60028101546000838152600a6020908152604080832080546001600160a01b031916331790556001600160a01b03909316808352600b909152918120805491610d5b83611a06565b9091555050336000908152600b60205260408120805491610d7b83611a1d565b90915550506040516001815233906001600160a01b038316907fddf252ad1be2c89b69c2b068fc378daa952ba7f163c4a11628f55a4df523b3ef9060200160405180910390a3610dca836116c9565b6001600160a01b0381166000908152600e602052604081208054349290610df29084906119ed565b909155505060405134815233906001600160a01b0383169085907f58e5d5a525e3b40bc15abaa38b5882678db1ee68befd2f60bafe3a7fd06db9e39060200160405180910390a46000838152600d602052604090206002810154336001600160a01b0390911603610ef7576003810154336000908152600e602052604081208054909190610e819084906119ed565b90915550506040805160808101825260008082526020808301888152838501838152606085018481528a8552600d909352949092209251835460ff19169015151783559051600183015591516002820180546001600160a01b0319166001600160a01b0390921691909117905590516003909101555b50505050565b60085460ff16610f0c57600080fd5b6000818152600a60205260409020546001600160a01b03163314610f2f57600080fd5b6127108110610f3d57600080fd5b6000818152600c602052604090205460ff1615610f5d57610f5d816116c9565b6000818152600a6020908152604080832080546001600160a01b0319166001600160a01b038716179055338352600b9091528120805491610f9d83611a06565b90915550506001600160a01b0382166000908152600b60205260408120805491610fc683611a1d565b9091555050604051600181526001600160a01b0383169033907fddf252ad1be2c89b69c2b068fc378daa952ba7f163c4a11628f55a4df523b3ef9060200160405180910390a36040518181526001600160a01b0383169033907f05af636b70da6819000c49f85b21fa82081c632069bb626f30932034099107d89060200160405180910390a36000818152600d6020526040902060028101546001600160a01b038085169116036111145760038101546001600160a01b0384166000908152600e60205260408120805490919061109e9084906119ed565b9091555050604080516080810182526000808252602080830186815283850183815260608501848152888552600d909352949092209251835460ff19169015151783559051600183015591516002820180546001600160a01b0319166001600160a01b0390921691909117905590516003909101555b505050565b600480546105ea9061199d565b612710811061113457600080fd5b60085460ff1661114357600080fd5b6000818152600a60205260409020546001600160a01b031661116457600080fd5b6000818152600a6020526040902054336001600160a01b039091160361118957600080fd5b6000818152600d6020526040902060028101546001600160a01b031633146111b057600080fd5b336001600160a01b0316827f6f30e1ee4d81dcc7a8a478577f65d2ed2edb120565960ac45fe7c50551c8793283600301546040516111f091815260200190565b60405180910390a36003818101546040805160808101825260008082526020808301888152838501838152606085018481528a8552600d9093528584209451855460ff191690151517855590516001850155516002840180546001600160a01b0319166001600160a01b0390921691909117905551919094015551909133916108fc84150291849190818181858888f19350505050158015610ef7573d6000803e3d6000fd5b6001546001600160a01b031633146112ad57600080fd5b60085460ff16156112bd57600080fd5b61271081106112cb57600080fd5b6000818152600a60205260409020546001600160a01b03838116911614610c27576000818152600a60205260409020546001600160a01b031615611343576000818152600a60209081526040808320546001600160a01b03168352600b909152812080549161133983611a06565b9190505550611359565b6009805490600061135383611a06565b91905055505b6000818152600a6020908152604080832080546001600160a01b0319166001600160a01b0387169081179091558352600b909152812080549161139b83611a1d565b9190505550816001600160a01b03167f8a0e37b73a0d9c82e205d4d1a3ff3d0b57ce5f4d7bccf6bac03336dc101cb7ba826040516113db91815260200190565b60405180910390a25050565b60085460ff166113f657600080fd5b6000838152600a60205260409020546001600160a01b0316331461141957600080fd5b612710831061142757600080fd5b6040805160a0810182526001808252602080830187815233848601908152606085018881526001600160a01b038881166080880181815260008d8152600c88528a90209851895460ff191690151517895594519688019690965591516002870180546001600160a01b031990811692851692909217905590516003870155915160049095018054909216941693909317909255915184815285917f3c7b682d5da98001a9b8cbda6c647d2c63d698a4184fd1d55e2ce7b66f5d21eb910160405180910390a3505050565b60085460ff1661150057600080fd5b6000828152600a60205260409020546001600160a01b0316331461152357600080fd5b612710821061153157600080fd5b6040805160a0810182526001808252602080830186815233848601908152606085018781526000608087018181528a8252600c86528882209751885460ff191690151517885593519587019590955590516002860180546001600160a01b03199081166001600160a01b0393841617909155915160038701559151600490950180549091169490911693909317909255915183815284917f3c7b682d5da98001a9b8cbda6c647d2c63d698a4184fd1d55e2ce7b66f5d21eb91016107dd565b60085460ff166115ff57600080fd5b60095460000361160e57600080fd5b6000818152600a60205260409020546001600160a01b03161561163057600080fd5b612710811061163e57600080fd5b6000818152600a6020908152604080832080546001600160a01b031916339081179091558352600b909152812080549161167783611a1d565b90915550506009805490600061168c83611a06565b909155505060405181815233907f8a0e37b73a0d9c82e205d4d1a3ff3d0b57ce5f4d7bccf6bac03336dc101cb7ba9060200160405180910390a250565b60085460ff166116d857600080fd5b6000818152600a60205260409020546001600160a01b031633146116fb57600080fd5b612710811061170957600080fd5b6040805160a08101825260008082526020808301858152338486019081526060850184815260808601858152888652600c9094528685209551865460ff191690151517865591516001860155516002850180546001600160a01b03199081166001600160a01b0393841617909155915160038601559151600490940180549091169390911692909217909155905182917fb0e0a660b4e50f26f0b7ce75c24655fc76cc66e3334a54ff410277229fa10bd491a250565b600060208083528351808285015260005b818110156117ec578581018301518582016040015282016117d0565b506000604082860101526040601f19601f8301168501019250505092915050565b60006020828403121561181f57600080fd5b5035919050565b6000806040838503121561183957600080fd5b50508035926020909101359150565b60008083601f84011261185a57600080fd5b50813567ffffffffffffffff81111561187257600080fd5b6020830191508360208260051b850101111561188d57600080fd5b9250929050565b600080600080604085870312156118aa57600080fd5b843567ffffffffffffffff808211156118c257600080fd5b6118ce88838901611848565b909650945060208701359150808211156118e757600080fd5b506118f487828801611848565b95989497509550505050565b80356001600160a01b038116811461191757600080fd5b919050565b60006020828403121561192e57600080fd5b61193782611900565b9392505050565b6000806040838503121561195157600080fd5b61195a83611900565b946020939093013593505050565b60008060006060848603121561197d57600080fd5b833592506020840135915061199460408501611900565b90509250925092565b600181811c908216806119b157607f821691505b6020821081036119d157634e487b7160e01b600052602260045260246000fd5b50919050565b634e487b7160e01b600052601160045260246000fd5b80820180821115611a0057611a006119d7565b92915050565b600081611a1557611a156119d7565b506000190190565b600060018201611a2f57611a2f6119d7565b5060010190565b634e487b7160e01b600052603260045260246000fdfea26469706673582212209b5bea9ea82ce644ca310f8982de4af1d00528763d977ad1d0654e856e324fd064736f6c6343000811003361633339616634373933313139656534366262666633353164386362366235663233646136303232323132366164643432363865323631313939613239323162",
  "devdoc": {
    "kind": "dev",
    "methods": {},
    "version": 1
  },
  "userdoc": {
    "kind": "user",
    "methods": {},
    "version": 1
  },
  "storageLayout": {
    "storage": [
      {
        "astId": 8597,
        "contract": "src/external/CryptoPunksMarket.sol:CryptoPunksMarket",
        "label": "imageHash",
        "offset": 0,
        "slot": "0",
        "type": "t_string_storage"
      },
      {
        "astId": 8599,
        "contract": "src/external/CryptoPunksMarket.sol:CryptoPunksMarket",
        "label": "owner",
        "offset": 0,
        "slot": "1",
        "type": "t_address"
      },
      {
        "astId": 8602,
        "contract": "src/external/CryptoPunksMarket.sol:CryptoPunksMarket",
        "label": "standard",
        "offset": 0,
        "slot": "2",
        "type": "t_string_storage"
      },
      {
        "astId": 8604,
        "contract": "src/external/CryptoPunksMarket.sol:CryptoPunksMarket",
        "label": "name",
        "offset": 0,
        "slot": "3",
        "type": "t_string_storage"
      },
      {
        "astId": 8606,
        "contract": "src/external/CryptoPunksMarket.sol:CryptoPunksMarket",
        "label": "symbol",
        "offset": 0,
        "slot": "4",
        "type": "t_string_storage"
      },
      {
        "astId": 8608,
        "contract": "src/external/CryptoPunksMarket.sol:CryptoPunksMarket",
        "label": "decimals",
        "offset": 0,
        "slot": "5",
        "type": "t_uint8"
      },
      {
        "astId": 8610,
        "contract": "src/external/CryptoPunksMarket.sol:CryptoPunksMarket",
        "label": "totalSupply",
        "offset": 0,
        "slot": "6",
        "type": "t_uint256"
      },
      {
        "astId": 8613,
        "contract": "src/external/CryptoPunksMarket.sol:CryptoPunksMarket",
        "label": "nextPunkIndexToAssign",
        "offset": 0,
        "slot": "7",
        "type": "t_uint256"
      },
      {
        "astId": 8616,
        "contract": "src/external/CryptoPunksMarket.sol:CryptoPunksMarket",
        "label": "allPunksAssigned",
        "offset": 0,
        "slot": "8",
        "type": "t_bool"
      },
      {
        "astId": 8619,
        "contract": "src/external/CryptoPunksMarket.sol:CryptoPunksMarket",
        "label": "punksRemainingToAssign",
        "offset": 0,
        "slot": "9",
        "type": "t_uint256"
      },
      {
        "astId": 8623,
        "contract": "src/external/CryptoPunksMarket.sol:CryptoPunksMarket",
        "label": "punkIndexToAddress",
        "offset": 0,
        "slot": "10",
        "type": "t_mapping(t_uint256,t_address)"
      },
      {
        "astId": 8627,
        "contract": "src/external/CryptoPunksMarket.sol:CryptoPunksMarket",
        "label": "balanceOf",
        "offset": 0,
        "slot": "11",
        "type": "t_mapping(t_address,t_uint256)"
      },
      {
        "astId": 8652,
        "contract": "src/external/CryptoPunksMarket.sol:CryptoPunksMarket",
        "label": "punksOfferedForSale",
        "offset": 0,
        "slot": "12",
        "type": "t_mapping(t_uint256,t_struct(Offer)8638_storage)"
      },
      {
        "astId": 8657,
        "contract": "src/external/CryptoPunksMarket.sol:CryptoPunksMarket",
        "label": "punkBids",
        "offset": 0,
        "slot": "13",
        "type": "t_mapping(t_uint256,t_struct(Bid)8647_storage)"
      },
      {
        "astId": 8661,
        "contract": "src/external/CryptoPunksMarket.sol:CryptoPunksMarket",
        "label": "pendingWithdrawals",
        "offset": 0,
        "slot": "14",
        "type": "t_mapping(t_address,t_uint256)"
      }
    ],
    "types": {
      "t_address": {
        "encoding": "inplace",
        "label": "address",
        "numberOfBytes": "20"
      },
      "t_bool": {
        "encoding": "inplace",
        "label": "bool",
        "numberOfBytes": "1"
      },
      "t_mapping(t_address,t_uint256)": {
        "encoding": "mapping",
        "key": "t_address",
        "label": "mapping(address => uint256)",
        "numberOfBytes": "32",
        "value": "t_uint256"
      },
      "t_mapping(t_uint256,t_address)": {
        "encoding": "mapping",
        "key": "t_uint256",
        "label": "mapping(uint256 => address)",
        "numberOfBytes": "32",
        "value": "t_address"
      },
      "t_mapping(t_uint256,t_struct(Bid)8647_storage)": {
        "encoding": "mapping",
        "key": "t_uint256",
        "label": "mapping(uint256 => struct CryptoPunksMarket.Bid)",
        "numberOfBytes": "32",
        "value": "t_struct(Bid)8647_storage"
      },
      "t_mapping(t_uint256,t_struct(Offer)8638_storage)": {
        "encoding": "mapping",
        "key": "t_uint256",
        "label": "mapping(uint256 => struct CryptoPunksMarket.Offer)",
        "numberOfBytes": "32",
        "value": "t_struct(Offer)8638_storage"
      },
      "t_string_storage": {
        "encoding": "bytes",
        "label": "string",
        "numberOfBytes": "32"
      },
      "t_struct(Bid)8647_storage": {
        "encoding": "inplace",
        "label": "struct CryptoPunksMarket.Bid",
        "members": [
          {
            "astId": 8640,
            "contract": "src/external/CryptoPunksMarket.sol:CryptoPunksMarket",
            "label": "hasBid",
            "offset": 0,
            "slot": "0",
            "type": "t_bool"
          },
          {
            "astId": 8642,
            "contract": "src/external/CryptoPunksMarket.sol:CryptoPunksMarket",
            "label": "punkIndex",
            "offset": 0,
            "slot": "1",
            "type": "t_uint256"
          },
          {
            "astId": 8644,
            "contract": "src/external/CryptoPunksMarket.sol:CryptoPunksMarket",
            "label": "bidder",
            "offset": 0,
            "slot": "2",
            "type": "t_address"
          },
          {
            "astId": 8646,
            "contract": "src/external/CryptoPunksMarket.sol:CryptoPunksMarket",
            "label": "value",
            "offset": 0,
            "slot": "3",
            "type": "t_uint256"
          }
        ],
        "numberOfBytes": "128"
      },
      "t_struct(Offer)8638_storage": {
        "encoding": "inplace",
        "label": "struct CryptoPunksMarket.Offer",
        "members": [
          {
            "astId": 8629,
            "contract": "src/external/CryptoPunksMarket.sol:CryptoPunksMarket",
            "label": "isForSale",
            "offset": 0,
            "slot": "0",
            "type": "t_bool"
          },
          {
            "astId": 8631,
            "contract": "src/external/CryptoPunksMarket.sol:CryptoPunksMarket",
            "label": "punkIndex",
            "offset": 0,
            "slot": "1",
            "type": "t_uint256"
          },
          {
            "astId": 8633,
            "contract": "src/external/CryptoPunksMarket.sol:CryptoPunksMarket",
            "label": "seller",
            "offset": 0,
            "slot": "2",
            "type": "t_address"
          },
          {
            "astId": 8635,
            "contract": "src/external/CryptoPunksMarket.sol:CryptoPunksMarket",
            "label": "minValue",
            "offset": 0,
            "slot": "3",
            "type": "t_uint256"
          },
          {
            "astId": 8637,
            "contract": "src/external/CryptoPunksMarket.sol:CryptoPunksMarket",
            "label": "onlySellTo",
            "offset": 0,
            "slot": "4",
            "type": "t_address"
          }
        ],
        "numberOfBytes": "160"
      },
      "t_uint256": {
        "encoding": "inplace",
        "label": "uint256",
        "numberOfBytes": "32"
      },
      "t_uint8": {
        "encoding": "inplace",
        "label": "uint8",
        "numberOfBytes": "1"
      }
    }
  }
}